{
	"Chapter4/Ex4_10.sol": {
		"Ex4_10": {
			"abi": [
				{
					"inputs": [],
					"name": "fun1",
					"outputs": [
						{
							"internalType": "uint256",
							"name": "",
							"type": "uint256"
						}
					],
					"stateMutability": "pure",
					"type": "function"
				}
			],
			"devdoc": {
				"kind": "dev",
				"methods": {},
				"version": 1
			},
			"evm": {
				"assembly": "    /* \"Chapter4/Ex4_10.sol\":72:356  contract Ex4_10{... */\n  mstore(0x40, 0x80)\n  callvalue\n  dup1\n  iszero\n  tag_1\n  jumpi\n  0x00\n  dup1\n  revert\ntag_1:\n  pop\n  dataSize(sub_0)\n  dup1\n  dataOffset(sub_0)\n  0x00\n  codecopy\n  0x00\n  return\nstop\n\nsub_0: assembly {\n        /* \"Chapter4/Ex4_10.sol\":72:356  contract Ex4_10{... */\n      mstore(0x40, 0x80)\n      callvalue\n      dup1\n      iszero\n      tag_1\n      jumpi\n      0x00\n      dup1\n      revert\n    tag_1:\n      pop\n      jumpi(tag_2, lt(calldatasize, 0x04))\n      shr(0xe0, calldataload(0x00))\n      dup1\n      0x446a45b7\n      eq\n      tag_3\n      jumpi\n    tag_2:\n      0x00\n      dup1\n      revert\n        /* \"Chapter4/Ex4_10.sol\":94:353  function fun1() public pure returns(uint){... */\n    tag_3:\n      tag_4\n      tag_5\n      jump\t// in\n    tag_4:\n      mload(0x40)\n      tag_6\n      swap2\n      swap1\n      tag_7\n      jump\t// in\n    tag_6:\n      mload(0x40)\n      dup1\n      swap2\n      sub\n      swap1\n      return\n    tag_5:\n        /* \"Chapter4/Ex4_10.sol\":130:134  uint */\n      0x00\n        /* \"Chapter4/Ex4_10.sol\":146:157  uint result */\n      dup1\n        /* \"Chapter4/Ex4_10.sol\":160:161  0 */\n      0x00\n        /* \"Chapter4/Ex4_10.sol\":146:161  uint result = 0 */\n      swap1\n      pop\n        /* \"Chapter4/Ex4_10.sol\":190:196  uint a */\n      0x00\n        /* \"Chapter4/Ex4_10.sol\":186:322  for(uint a = 0; a < 10; a++){... */\n    tag_9:\n        /* \"Chapter4/Ex4_10.sol\":206:208  10 */\n      0x0a\n        /* \"Chapter4/Ex4_10.sol\":202:203  a */\n      dup2\n        /* \"Chapter4/Ex4_10.sol\":202:208  a < 10 */\n      lt\n        /* \"Chapter4/Ex4_10.sol\":186:322  for(uint a = 0; a < 10; a++){... */\n      iszero\n      tag_10\n      jumpi\n        /* \"Chapter4/Ex4_10.sol\":235:236  1 */\n      0x01\n        /* \"Chapter4/Ex4_10.sol\":232:233  a */\n      dup2\n        /* \"Chapter4/Ex4_10.sol\":232:236  a==1 */\n      sub\n        /* \"Chapter4/Ex4_10.sol\":229:285  if(a==1){... */\n      tag_12\n      jumpi\n        /* \"Chapter4/Ex4_10.sol\":263:269  result */\n      dup2\n        /* \"Chapter4/Ex4_10.sol\":256:269  return result */\n      swap3\n      pop\n      pop\n      pop\n      jump(tag_8)\n        /* \"Chapter4/Ex4_10.sol\":229:285  if(a==1){... */\n    tag_12:\n        /* \"Chapter4/Ex4_10.sol\":309:310  a */\n      dup1\n        /* \"Chapter4/Ex4_10.sol\":299:310  result += a */\n      dup3\n      tag_13\n      swap2\n      swap1\n      tag_14\n      jump\t// in\n    tag_13:\n      swap2\n      pop\n        /* \"Chapter4/Ex4_10.sol\":210:213  a++ */\n      dup1\n      dup1\n      tag_15\n      swap1\n      tag_16\n      jump\t// in\n    tag_15:\n      swap2\n      pop\n      pop\n        /* \"Chapter4/Ex4_10.sol\":186:322  for(uint a = 0; a < 10; a++){... */\n      jump(tag_9)\n    tag_10:\n      pop\n        /* \"Chapter4/Ex4_10.sol\":339:345  result */\n      dup1\n        /* \"Chapter4/Ex4_10.sol\":332:345  return result */\n      swap2\n      pop\n      pop\n        /* \"Chapter4/Ex4_10.sol\":94:353  function fun1() public pure returns(uint){... */\n    tag_8:\n      swap1\n      jump\t// out\n        /* \"#utility.yul\":7:84   */\n    tag_17:\n        /* \"#utility.yul\":44:51   */\n      0x00\n        /* \"#utility.yul\":73:78   */\n      dup2\n        /* \"#utility.yul\":62:78   */\n      swap1\n      pop\n        /* \"#utility.yul\":7:84   */\n      swap2\n      swap1\n      pop\n      jump\t// out\n        /* \"#utility.yul\":90:208   */\n    tag_18:\n        /* \"#utility.yul\":177:201   */\n      tag_23\n        /* \"#utility.yul\":195:200   */\n      dup2\n        /* \"#utility.yul\":177:201   */\n      tag_17\n      jump\t// in\n    tag_23:\n        /* \"#utility.yul\":172:175   */\n      dup3\n        /* \"#utility.yul\":165:202   */\n      mstore\n        /* \"#utility.yul\":90:208   */\n      pop\n      pop\n      jump\t// out\n        /* \"#utility.yul\":214:436   */\n    tag_7:\n        /* \"#utility.yul\":307:311   */\n      0x00\n        /* \"#utility.yul\":345:347   */\n      0x20\n        /* \"#utility.yul\":334:343   */\n      dup3\n        /* \"#utility.yul\":330:348   */\n      add\n        /* \"#utility.yul\":322:348   */\n      swap1\n      pop\n        /* \"#utility.yul\":358:429   */\n      tag_25\n        /* \"#utility.yul\":426:427   */\n      0x00\n        /* \"#utility.yul\":415:424   */\n      dup4\n        /* \"#utility.yul\":411:428   */\n      add\n        /* \"#utility.yul\":402:408   */\n      dup5\n        /* \"#utility.yul\":358:429   */\n      tag_18\n      jump\t// in\n    tag_25:\n        /* \"#utility.yul\":214:436   */\n      swap3\n      swap2\n      pop\n      pop\n      jump\t// out\n        /* \"#utility.yul\":442:622   */\n    tag_19:\n        /* \"#utility.yul\":490:567   */\n      0x4e487b7100000000000000000000000000000000000000000000000000000000\n        /* \"#utility.yul\":487:488   */\n      0x00\n        /* \"#utility.yul\":480:568   */\n      mstore\n        /* \"#utility.yul\":587:591   */\n      0x11\n        /* \"#utility.yul\":584:585   */\n      0x04\n        /* \"#utility.yul\":577:592   */\n      mstore\n        /* \"#utility.yul\":611:615   */\n      0x24\n        /* \"#utility.yul\":608:609   */\n      0x00\n        /* \"#utility.yul\":601:616   */\n      revert\n        /* \"#utility.yul\":628:819   */\n    tag_14:\n        /* \"#utility.yul\":668:671   */\n      0x00\n        /* \"#utility.yul\":687:707   */\n      tag_28\n        /* \"#utility.yul\":705:706   */\n      dup3\n        /* \"#utility.yul\":687:707   */\n      tag_17\n      jump\t// in\n    tag_28:\n        /* \"#utility.yul\":682:707   */\n      swap2\n      pop\n        /* \"#utility.yul\":721:741   */\n      tag_29\n        /* \"#utility.yul\":739:740   */\n      dup4\n        /* \"#utility.yul\":721:741   */\n      tag_17\n      jump\t// in\n    tag_29:\n        /* \"#utility.yul\":716:741   */\n      swap3\n      pop\n        /* \"#utility.yul\":764:765   */\n      dup3\n        /* \"#utility.yul\":761:762   */\n      dup3\n        /* \"#utility.yul\":757:766   */\n      add\n        /* \"#utility.yul\":750:766   */\n      swap1\n      pop\n        /* \"#utility.yul\":785:788   */\n      dup1\n        /* \"#utility.yul\":782:783   */\n      dup3\n        /* \"#utility.yul\":779:789   */\n      gt\n        /* \"#utility.yul\":776:812   */\n      iszero\n      tag_30\n      jumpi\n        /* \"#utility.yul\":792:810   */\n      tag_31\n      tag_19\n      jump\t// in\n    tag_31:\n        /* \"#utility.yul\":776:812   */\n    tag_30:\n        /* \"#utility.yul\":628:819   */\n      swap3\n      swap2\n      pop\n      pop\n      jump\t// out\n        /* \"#utility.yul\":825:1058   */\n    tag_16:\n        /* \"#utility.yul\":864:867   */\n      0x00\n        /* \"#utility.yul\":887:911   */\n      tag_33\n        /* \"#utility.yul\":905:910   */\n      dup3\n        /* \"#utility.yul\":887:911   */\n      tag_17\n      jump\t// in\n    tag_33:\n        /* \"#utility.yul\":878:911   */\n      swap2\n      pop\n        /* \"#utility.yul\":933:999   */\n      0xffffffffffffffffffffffffffffffffffffffffffffffffffffffffffffffff\n        /* \"#utility.yul\":926:931   */\n      dup3\n        /* \"#utility.yul\":923:1000   */\n      sub\n        /* \"#utility.yul\":920:1023   */\n      tag_34\n      jumpi\n        /* \"#utility.yul\":1003:1021   */\n      tag_35\n      tag_19\n      jump\t// in\n    tag_35:\n        /* \"#utility.yul\":920:1023   */\n    tag_34:\n        /* \"#utility.yul\":1050:1051   */\n      0x01\n        /* \"#utility.yul\":1043:1048   */\n      dup3\n        /* \"#utility.yul\":1039:1052   */\n      add\n        /* \"#utility.yul\":1032:1052   */\n      swap1\n      pop\n        /* \"#utility.yul\":825:1058   */\n      swap2\n      swap1\n      pop\n      jump\t// out\n\n    auxdata: 0xa26469706673582212206d3b846b1a8aca01eef42e746a999fc22ee8ef888ebff8f876abde57cfb547c464736f6c63430008120033\n}\n",
				"bytecode": {
					"linkReferences": {},
					"object": "608060405234801561001057600080fd5b506101b2806100206000396000f3fe608060405234801561001057600080fd5b506004361061002b5760003560e01c8063446a45b714610030575b600080fd5b61003861004e565b60405161004591906100b6565b60405180910390f35b6000806000905060005b600a811015610094576001810361007357819250505061009a565b808261007f9190610100565b9150808061008c90610134565b915050610058565b50809150505b90565b6000819050919050565b6100b08161009d565b82525050565b60006020820190506100cb60008301846100a7565b92915050565b7f4e487b7100000000000000000000000000000000000000000000000000000000600052601160045260246000fd5b600061010b8261009d565b91506101168361009d565b925082820190508082111561012e5761012d6100d1565b5b92915050565b600061013f8261009d565b91507fffffffffffffffffffffffffffffffffffffffffffffffffffffffffffffffff8203610171576101706100d1565b5b60018201905091905056fea26469706673582212206d3b846b1a8aca01eef42e746a999fc22ee8ef888ebff8f876abde57cfb547c464736f6c63430008120033",
					"opcodes": "PUSH1 0x80 PUSH1 0x40 MSTORE CALLVALUE DUP1 ISZERO PUSH2 0x10 JUMPI PUSH1 0x0 DUP1 REVERT JUMPDEST POP PUSH2 0x1B2 DUP1 PUSH2 0x20 PUSH1 0x0 CODECOPY PUSH1 0x0 RETURN INVALID PUSH1 0x80 PUSH1 0x40 MSTORE CALLVALUE DUP1 ISZERO PUSH2 0x10 JUMPI PUSH1 0x0 DUP1 REVERT JUMPDEST POP PUSH1 0x4 CALLDATASIZE LT PUSH2 0x2B JUMPI PUSH1 0x0 CALLDATALOAD PUSH1 0xE0 SHR DUP1 PUSH4 0x446A45B7 EQ PUSH2 0x30 JUMPI JUMPDEST PUSH1 0x0 DUP1 REVERT JUMPDEST PUSH2 0x38 PUSH2 0x4E JUMP JUMPDEST PUSH1 0x40 MLOAD PUSH2 0x45 SWAP2 SWAP1 PUSH2 0xB6 JUMP JUMPDEST PUSH1 0x40 MLOAD DUP1 SWAP2 SUB SWAP1 RETURN JUMPDEST PUSH1 0x0 DUP1 PUSH1 0x0 SWAP1 POP PUSH1 0x0 JUMPDEST PUSH1 0xA DUP2 LT ISZERO PUSH2 0x94 JUMPI PUSH1 0x1 DUP2 SUB PUSH2 0x73 JUMPI DUP2 SWAP3 POP POP POP PUSH2 0x9A JUMP JUMPDEST DUP1 DUP3 PUSH2 0x7F SWAP2 SWAP1 PUSH2 0x100 JUMP JUMPDEST SWAP2 POP DUP1 DUP1 PUSH2 0x8C SWAP1 PUSH2 0x134 JUMP JUMPDEST SWAP2 POP POP PUSH2 0x58 JUMP JUMPDEST POP DUP1 SWAP2 POP POP JUMPDEST SWAP1 JUMP JUMPDEST PUSH1 0x0 DUP2 SWAP1 POP SWAP2 SWAP1 POP JUMP JUMPDEST PUSH2 0xB0 DUP2 PUSH2 0x9D JUMP JUMPDEST DUP3 MSTORE POP POP JUMP JUMPDEST PUSH1 0x0 PUSH1 0x20 DUP3 ADD SWAP1 POP PUSH2 0xCB PUSH1 0x0 DUP4 ADD DUP5 PUSH2 0xA7 JUMP JUMPDEST SWAP3 SWAP2 POP POP JUMP JUMPDEST PUSH32 0x4E487B7100000000000000000000000000000000000000000000000000000000 PUSH1 0x0 MSTORE PUSH1 0x11 PUSH1 0x4 MSTORE PUSH1 0x24 PUSH1 0x0 REVERT JUMPDEST PUSH1 0x0 PUSH2 0x10B DUP3 PUSH2 0x9D JUMP JUMPDEST SWAP2 POP PUSH2 0x116 DUP4 PUSH2 0x9D JUMP JUMPDEST SWAP3 POP DUP3 DUP3 ADD SWAP1 POP DUP1 DUP3 GT ISZERO PUSH2 0x12E JUMPI PUSH2 0x12D PUSH2 0xD1 JUMP JUMPDEST JUMPDEST SWAP3 SWAP2 POP POP JUMP JUMPDEST PUSH1 0x0 PUSH2 0x13F DUP3 PUSH2 0x9D JUMP JUMPDEST SWAP2 POP PUSH32 0xFFFFFFFFFFFFFFFFFFFFFFFFFFFFFFFFFFFFFFFFFFFFFFFFFFFFFFFFFFFFFFFF DUP3 SUB PUSH2 0x171 JUMPI PUSH2 0x170 PUSH2 0xD1 JUMP JUMPDEST JUMPDEST PUSH1 0x1 DUP3 ADD SWAP1 POP SWAP2 SWAP1 POP JUMP INVALID LOG2 PUSH5 0x6970667358 0x22 SLT KECCAK256 PUSH14 0x3B846B1A8ACA01EEF42E746A999F 0xC2 0x2E 0xE8 0xEF DUP9 DUP15 0xBF 0xF8 0xF8 PUSH23 0xABDE57CFB547C464736F6C634300081200330000000000 "
				},
				"gasEstimates": {
					"creation": {
						"codeDepositCost": "86800",
						"executionCost": "135",
						"totalCost": "86935"
					},
					"external": {
						"fun1()": "infinite"
					}
				},
				"methodIdentifiers": {
					"fun1()": "446a45b7"
				}
			},
			"storageLayout": {
				"storage": [],
				"types": null
			},
			"userdoc": {
				"kind": "user",
				"methods": {},
				"version": 1
			}
		}
	}
}