{
	"Chapter4/Ex4_4.sol": {
		"Ex4_4": {
			"abi": [
				{
					"inputs": [
						{
							"internalType": "uint256",
							"name": "a",
							"type": "uint256"
						}
					],
					"name": "fun1",
					"outputs": [
						{
							"internalType": "uint256",
							"name": "",
							"type": "uint256"
						}
					],
					"stateMutability": "pure",
					"type": "function"
				},
				{
					"inputs": [
						{
							"internalType": "uint256",
							"name": "a",
							"type": "uint256"
						}
					],
					"name": "fun2",
					"outputs": [
						{
							"internalType": "uint256",
							"name": "",
							"type": "uint256"
						}
					],
					"stateMutability": "pure",
					"type": "function"
				}
			],
			"devdoc": {
				"kind": "dev",
				"methods": {},
				"version": 1
			},
			"evm": {
				"assembly": "    /* \"Chapter4/Ex4_4.sol\":72:628  contract Ex4_4{... */\n  mstore(0x40, 0x80)\n  callvalue\n  dup1\n  iszero\n  tag_1\n  jumpi\n  0x00\n  dup1\n  revert\ntag_1:\n  pop\n  dataSize(sub_0)\n  dup1\n  dataOffset(sub_0)\n  0x00\n  codecopy\n  0x00\n  return\nstop\n\nsub_0: assembly {\n        /* \"Chapter4/Ex4_4.sol\":72:628  contract Ex4_4{... */\n      mstore(0x40, 0x80)\n      callvalue\n      dup1\n      iszero\n      tag_1\n      jumpi\n      0x00\n      dup1\n      revert\n    tag_1:\n      pop\n      jumpi(tag_2, lt(calldatasize, 0x04))\n      shr(0xe0, calldataload(0x00))\n      dup1\n      0x7a927e8f\n      eq\n      tag_3\n      jumpi\n      dup1\n      0xacd9fd65\n      eq\n      tag_4\n      jumpi\n    tag_2:\n      0x00\n      dup1\n      revert\n        /* \"Chapter4/Ex4_4.sol\":365:625  function fun2(uint a) public pure returns(uint){... */\n    tag_3:\n      tag_5\n      0x04\n      dup1\n      calldatasize\n      sub\n      dup2\n      add\n      swap1\n      tag_6\n      swap2\n      swap1\n      tag_7\n      jump\t// in\n    tag_6:\n      tag_8\n      jump\t// in\n    tag_5:\n      mload(0x40)\n      tag_9\n      swap2\n      swap1\n      tag_10\n      jump\t// in\n    tag_9:\n      mload(0x40)\n      dup1\n      swap2\n      sub\n      swap1\n      return\n        /* \"Chapter4/Ex4_4.sol\":95:357  function fun1(uint a) public pure returns(uint){... */\n    tag_4:\n      tag_11\n      0x04\n      dup1\n      calldatasize\n      sub\n      dup2\n      add\n      swap1\n      tag_12\n      swap2\n      swap1\n      tag_7\n      jump\t// in\n    tag_12:\n      tag_13\n      jump\t// in\n    tag_11:\n      mload(0x40)\n      tag_14\n      swap2\n      swap1\n      tag_10\n      jump\t// in\n    tag_14:\n      mload(0x40)\n      dup1\n      swap2\n      sub\n      swap1\n      return\n        /* \"Chapter4/Ex4_4.sol\":365:625  function fun2(uint a) public pure returns(uint){... */\n    tag_8:\n        /* \"Chapter4/Ex4_4.sol\":407:411  uint */\n      0x00\n        /* \"Chapter4/Ex4_4.sol\":429:430  1 */\n      0x01\n        /* \"Chapter4/Ex4_4.sol\":426:427  a */\n      dup3\n        /* \"Chapter4/Ex4_4.sol\":426:430  a>=1 */\n      lt\n        /* \"Chapter4/Ex4_4.sol\":423:463  if(a>=1){... */\n      tag_16\n      jumpi\n        /* \"Chapter4/Ex4_4.sol\":450:451  1 */\n      0x01\n        /* \"Chapter4/Ex4_4.sol\":446:451  a = 1 */\n      swap2\n      pop\n        /* \"Chapter4/Ex4_4.sol\":423:463  if(a>=1){... */\n    tag_16:\n        /* \"Chapter4/Ex4_4.sol\":479:480  2 */\n      0x02\n        /* \"Chapter4/Ex4_4.sol\":476:477  a */\n      dup3\n        /* \"Chapter4/Ex4_4.sol\":476:480  a>=2 */\n      lt\n        /* \"Chapter4/Ex4_4.sol\":473:513  if(a>=2){... */\n      tag_17\n      jumpi\n        /* \"Chapter4/Ex4_4.sol\":500:501  2 */\n      0x02\n        /* \"Chapter4/Ex4_4.sol\":496:501  a = 2 */\n      swap2\n      pop\n        /* \"Chapter4/Ex4_4.sol\":473:513  if(a>=2){... */\n    tag_17:\n        /* \"Chapter4/Ex4_4.sol\":529:530  3 */\n      0x03\n        /* \"Chapter4/Ex4_4.sol\":526:527  a */\n      dup3\n        /* \"Chapter4/Ex4_4.sol\":526:530  a>=3 */\n      lt\n        /* \"Chapter4/Ex4_4.sol\":523:599  if(a>=3){... */\n      tag_18\n      jumpi\n        /* \"Chapter4/Ex4_4.sol\":550:551  3 */\n      0x03\n        /* \"Chapter4/Ex4_4.sol\":546:551  a = 3 */\n      swap2\n      pop\n        /* \"Chapter4/Ex4_4.sol\":523:599  if(a>=3){... */\n      jump(tag_19)\n    tag_18:\n        /* \"Chapter4/Ex4_4.sol\":586:587  4 */\n      0x04\n        /* \"Chapter4/Ex4_4.sol\":582:587  a = 4 */\n      swap2\n      pop\n        /* \"Chapter4/Ex4_4.sol\":523:599  if(a>=3){... */\n    tag_19:\n        /* \"Chapter4/Ex4_4.sol\":616:617  a */\n      dup2\n        /* \"Chapter4/Ex4_4.sol\":609:617  return a */\n      swap1\n      pop\n        /* \"Chapter4/Ex4_4.sol\":365:625  function fun2(uint a) public pure returns(uint){... */\n      swap2\n      swap1\n      pop\n      jump\t// out\n        /* \"Chapter4/Ex4_4.sol\":95:357  function fun1(uint a) public pure returns(uint){... */\n    tag_13:\n        /* \"Chapter4/Ex4_4.sol\":137:141  uint */\n      0x00\n        /* \"Chapter4/Ex4_4.sol\":169:170  1 */\n      0x01\n        /* \"Chapter4/Ex4_4.sol\":166:167  a */\n      dup3\n        /* \"Chapter4/Ex4_4.sol\":166:170  a>=1 */\n      lt\n        /* \"Chapter4/Ex4_4.sol\":163:331  if(a>=1){... */\n      tag_21\n      jumpi\n        /* \"Chapter4/Ex4_4.sol\":190:191  1 */\n      0x01\n        /* \"Chapter4/Ex4_4.sol\":186:191  a = 1 */\n      swap2\n      pop\n        /* \"Chapter4/Ex4_4.sol\":163:331  if(a>=1){... */\n      jump(tag_22)\n    tag_21:\n        /* \"Chapter4/Ex4_4.sol\":215:216  2 */\n      0x02\n        /* \"Chapter4/Ex4_4.sol\":212:213  a */\n      dup3\n        /* \"Chapter4/Ex4_4.sol\":212:216  a>=2 */\n      lt\n        /* \"Chapter4/Ex4_4.sol\":209:331  if(a>=2){... */\n      tag_23\n      jumpi\n        /* \"Chapter4/Ex4_4.sol\":236:237  2 */\n      0x02\n        /* \"Chapter4/Ex4_4.sol\":232:237  a = 2 */\n      swap2\n      pop\n        /* \"Chapter4/Ex4_4.sol\":209:331  if(a>=2){... */\n      jump(tag_24)\n    tag_23:\n        /* \"Chapter4/Ex4_4.sol\":261:262  3 */\n      0x03\n        /* \"Chapter4/Ex4_4.sol\":258:259  a */\n      dup3\n        /* \"Chapter4/Ex4_4.sol\":258:262  a>=3 */\n      lt\n        /* \"Chapter4/Ex4_4.sol\":255:331  if(a>=3){... */\n      tag_25\n      jumpi\n        /* \"Chapter4/Ex4_4.sol\":282:283  3 */\n      0x03\n        /* \"Chapter4/Ex4_4.sol\":278:283  a = 3 */\n      swap2\n      pop\n        /* \"Chapter4/Ex4_4.sol\":255:331  if(a>=3){... */\n      jump(tag_26)\n    tag_25:\n        /* \"Chapter4/Ex4_4.sol\":318:319  4 */\n      0x04\n        /* \"Chapter4/Ex4_4.sol\":314:319  a = 4 */\n      swap2\n      pop\n        /* \"Chapter4/Ex4_4.sol\":255:331  if(a>=3){... */\n    tag_26:\n        /* \"Chapter4/Ex4_4.sol\":209:331  if(a>=2){... */\n    tag_24:\n        /* \"Chapter4/Ex4_4.sol\":163:331  if(a>=1){... */\n    tag_22:\n        /* \"Chapter4/Ex4_4.sol\":348:349  a */\n      dup2\n        /* \"Chapter4/Ex4_4.sol\":341:349  return a */\n      swap1\n      pop\n        /* \"Chapter4/Ex4_4.sol\":95:357  function fun1(uint a) public pure returns(uint){... */\n      swap2\n      swap1\n      pop\n      jump\t// out\n        /* \"#utility.yul\":88:205   */\n    tag_28:\n        /* \"#utility.yul\":197:198   */\n      0x00\n        /* \"#utility.yul\":194:195   */\n      dup1\n        /* \"#utility.yul\":187:199   */\n      revert\n        /* \"#utility.yul\":334:411   */\n    tag_30:\n        /* \"#utility.yul\":371:378   */\n      0x00\n        /* \"#utility.yul\":400:405   */\n      dup2\n        /* \"#utility.yul\":389:405   */\n      swap1\n      pop\n        /* \"#utility.yul\":334:411   */\n      swap2\n      swap1\n      pop\n      jump\t// out\n        /* \"#utility.yul\":417:539   */\n    tag_31:\n        /* \"#utility.yul\":490:514   */\n      tag_40\n        /* \"#utility.yul\":508:513   */\n      dup2\n        /* \"#utility.yul\":490:514   */\n      tag_30\n      jump\t// in\n    tag_40:\n        /* \"#utility.yul\":483:488   */\n      dup2\n        /* \"#utility.yul\":480:515   */\n      eq\n        /* \"#utility.yul\":470:533   */\n      tag_41\n      jumpi\n        /* \"#utility.yul\":529:530   */\n      0x00\n        /* \"#utility.yul\":526:527   */\n      dup1\n        /* \"#utility.yul\":519:531   */\n      revert\n        /* \"#utility.yul\":470:533   */\n    tag_41:\n        /* \"#utility.yul\":417:539   */\n      pop\n      jump\t// out\n        /* \"#utility.yul\":545:684   */\n    tag_32:\n        /* \"#utility.yul\":591:596   */\n      0x00\n        /* \"#utility.yul\":629:635   */\n      dup2\n        /* \"#utility.yul\":616:636   */\n      calldataload\n        /* \"#utility.yul\":607:636   */\n      swap1\n      pop\n        /* \"#utility.yul\":645:678   */\n      tag_43\n        /* \"#utility.yul\":672:677   */\n      dup2\n        /* \"#utility.yul\":645:678   */\n      tag_31\n      jump\t// in\n    tag_43:\n        /* \"#utility.yul\":545:684   */\n      swap3\n      swap2\n      pop\n      pop\n      jump\t// out\n        /* \"#utility.yul\":690:1019   */\n    tag_7:\n        /* \"#utility.yul\":749:755   */\n      0x00\n        /* \"#utility.yul\":798:800   */\n      0x20\n        /* \"#utility.yul\":786:795   */\n      dup3\n        /* \"#utility.yul\":777:784   */\n      dup5\n        /* \"#utility.yul\":773:796   */\n      sub\n        /* \"#utility.yul\":769:801   */\n      slt\n        /* \"#utility.yul\":766:885   */\n      iszero\n      tag_45\n      jumpi\n        /* \"#utility.yul\":804:883   */\n      tag_46\n      tag_28\n      jump\t// in\n    tag_46:\n        /* \"#utility.yul\":766:885   */\n    tag_45:\n        /* \"#utility.yul\":924:925   */\n      0x00\n        /* \"#utility.yul\":949:1002   */\n      tag_47\n        /* \"#utility.yul\":994:1001   */\n      dup5\n        /* \"#utility.yul\":985:991   */\n      dup3\n        /* \"#utility.yul\":974:983   */\n      dup6\n        /* \"#utility.yul\":970:992   */\n      add\n        /* \"#utility.yul\":949:1002   */\n      tag_32\n      jump\t// in\n    tag_47:\n        /* \"#utility.yul\":939:1002   */\n      swap2\n      pop\n        /* \"#utility.yul\":895:1012   */\n      pop\n        /* \"#utility.yul\":690:1019   */\n      swap3\n      swap2\n      pop\n      pop\n      jump\t// out\n        /* \"#utility.yul\":1025:1143   */\n    tag_33:\n        /* \"#utility.yul\":1112:1136   */\n      tag_49\n        /* \"#utility.yul\":1130:1135   */\n      dup2\n        /* \"#utility.yul\":1112:1136   */\n      tag_30\n      jump\t// in\n    tag_49:\n        /* \"#utility.yul\":1107:1110   */\n      dup3\n        /* \"#utility.yul\":1100:1137   */\n      mstore\n        /* \"#utility.yul\":1025:1143   */\n      pop\n      pop\n      jump\t// out\n        /* \"#utility.yul\":1149:1371   */\n    tag_10:\n        /* \"#utility.yul\":1242:1246   */\n      0x00\n        /* \"#utility.yul\":1280:1282   */\n      0x20\n        /* \"#utility.yul\":1269:1278   */\n      dup3\n        /* \"#utility.yul\":1265:1283   */\n      add\n        /* \"#utility.yul\":1257:1283   */\n      swap1\n      pop\n        /* \"#utility.yul\":1293:1364   */\n      tag_51\n        /* \"#utility.yul\":1361:1362   */\n      0x00\n        /* \"#utility.yul\":1350:1359   */\n      dup4\n        /* \"#utility.yul\":1346:1363   */\n      add\n        /* \"#utility.yul\":1337:1343   */\n      dup5\n        /* \"#utility.yul\":1293:1364   */\n      tag_33\n      jump\t// in\n    tag_51:\n        /* \"#utility.yul\":1149:1371   */\n      swap3\n      swap2\n      pop\n      pop\n      jump\t// out\n\n    auxdata: 0xa2646970667358221220c314f1cfa660f33f529cc6c0b2a1806e535a7a2a32e01a1b15d7ae28e8ba0cee64736f6c63430008120033\n}\n",
				"bytecode": {
					"linkReferences": {},
					"object": "608060405234801561001057600080fd5b506101e1806100206000396000f3fe608060405234801561001057600080fd5b50600436106100365760003560e01c80637a927e8f1461003b578063acd9fd651461006b575b600080fd5b61005560048036038101906100509190610154565b61009b565b6040516100629190610190565b60405180910390f35b61008560048036038101906100809190610154565b6100d5565b6040516100929190610190565b60405180910390f35b6000600182106100aa57600191505b600282106100b757600291505b600382106100c857600391506100cd565b600491505b819050919050565b6000600182106100e85760019150610111565b600282106100f95760029150610110565b6003821061010a576003915061010f565b600491505b5b5b819050919050565b600080fd5b6000819050919050565b6101318161011e565b811461013c57600080fd5b50565b60008135905061014e81610128565b92915050565b60006020828403121561016a57610169610119565b5b60006101788482850161013f565b91505092915050565b61018a8161011e565b82525050565b60006020820190506101a56000830184610181565b9291505056fea2646970667358221220c314f1cfa660f33f529cc6c0b2a1806e535a7a2a32e01a1b15d7ae28e8ba0cee64736f6c63430008120033",
					"opcodes": "PUSH1 0x80 PUSH1 0x40 MSTORE CALLVALUE DUP1 ISZERO PUSH2 0x10 JUMPI PUSH1 0x0 DUP1 REVERT JUMPDEST POP PUSH2 0x1E1 DUP1 PUSH2 0x20 PUSH1 0x0 CODECOPY PUSH1 0x0 RETURN INVALID PUSH1 0x80 PUSH1 0x40 MSTORE CALLVALUE DUP1 ISZERO PUSH2 0x10 JUMPI PUSH1 0x0 DUP1 REVERT JUMPDEST POP PUSH1 0x4 CALLDATASIZE LT PUSH2 0x36 JUMPI PUSH1 0x0 CALLDATALOAD PUSH1 0xE0 SHR DUP1 PUSH4 0x7A927E8F EQ PUSH2 0x3B JUMPI DUP1 PUSH4 0xACD9FD65 EQ PUSH2 0x6B JUMPI JUMPDEST PUSH1 0x0 DUP1 REVERT JUMPDEST PUSH2 0x55 PUSH1 0x4 DUP1 CALLDATASIZE SUB DUP2 ADD SWAP1 PUSH2 0x50 SWAP2 SWAP1 PUSH2 0x154 JUMP JUMPDEST PUSH2 0x9B JUMP JUMPDEST PUSH1 0x40 MLOAD PUSH2 0x62 SWAP2 SWAP1 PUSH2 0x190 JUMP JUMPDEST PUSH1 0x40 MLOAD DUP1 SWAP2 SUB SWAP1 RETURN JUMPDEST PUSH2 0x85 PUSH1 0x4 DUP1 CALLDATASIZE SUB DUP2 ADD SWAP1 PUSH2 0x80 SWAP2 SWAP1 PUSH2 0x154 JUMP JUMPDEST PUSH2 0xD5 JUMP JUMPDEST PUSH1 0x40 MLOAD PUSH2 0x92 SWAP2 SWAP1 PUSH2 0x190 JUMP JUMPDEST PUSH1 0x40 MLOAD DUP1 SWAP2 SUB SWAP1 RETURN JUMPDEST PUSH1 0x0 PUSH1 0x1 DUP3 LT PUSH2 0xAA JUMPI PUSH1 0x1 SWAP2 POP JUMPDEST PUSH1 0x2 DUP3 LT PUSH2 0xB7 JUMPI PUSH1 0x2 SWAP2 POP JUMPDEST PUSH1 0x3 DUP3 LT PUSH2 0xC8 JUMPI PUSH1 0x3 SWAP2 POP PUSH2 0xCD JUMP JUMPDEST PUSH1 0x4 SWAP2 POP JUMPDEST DUP2 SWAP1 POP SWAP2 SWAP1 POP JUMP JUMPDEST PUSH1 0x0 PUSH1 0x1 DUP3 LT PUSH2 0xE8 JUMPI PUSH1 0x1 SWAP2 POP PUSH2 0x111 JUMP JUMPDEST PUSH1 0x2 DUP3 LT PUSH2 0xF9 JUMPI PUSH1 0x2 SWAP2 POP PUSH2 0x110 JUMP JUMPDEST PUSH1 0x3 DUP3 LT PUSH2 0x10A JUMPI PUSH1 0x3 SWAP2 POP PUSH2 0x10F JUMP JUMPDEST PUSH1 0x4 SWAP2 POP JUMPDEST JUMPDEST JUMPDEST DUP2 SWAP1 POP SWAP2 SWAP1 POP JUMP JUMPDEST PUSH1 0x0 DUP1 REVERT JUMPDEST PUSH1 0x0 DUP2 SWAP1 POP SWAP2 SWAP1 POP JUMP JUMPDEST PUSH2 0x131 DUP2 PUSH2 0x11E JUMP JUMPDEST DUP2 EQ PUSH2 0x13C JUMPI PUSH1 0x0 DUP1 REVERT JUMPDEST POP JUMP JUMPDEST PUSH1 0x0 DUP2 CALLDATALOAD SWAP1 POP PUSH2 0x14E DUP2 PUSH2 0x128 JUMP JUMPDEST SWAP3 SWAP2 POP POP JUMP JUMPDEST PUSH1 0x0 PUSH1 0x20 DUP3 DUP5 SUB SLT ISZERO PUSH2 0x16A JUMPI PUSH2 0x169 PUSH2 0x119 JUMP JUMPDEST JUMPDEST PUSH1 0x0 PUSH2 0x178 DUP5 DUP3 DUP6 ADD PUSH2 0x13F JUMP JUMPDEST SWAP2 POP POP SWAP3 SWAP2 POP POP JUMP JUMPDEST PUSH2 0x18A DUP2 PUSH2 0x11E JUMP JUMPDEST DUP3 MSTORE POP POP JUMP JUMPDEST PUSH1 0x0 PUSH1 0x20 DUP3 ADD SWAP1 POP PUSH2 0x1A5 PUSH1 0x0 DUP4 ADD DUP5 PUSH2 0x181 JUMP JUMPDEST SWAP3 SWAP2 POP POP JUMP INVALID LOG2 PUSH5 0x6970667358 0x22 SLT KECCAK256 0xC3 EQ CALL 0xCF 0xA6 PUSH1 0xF3 EXTCODEHASH MSTORE SWAP13 0xC6 0xC0 0xB2 LOG1 DUP1 PUSH15 0x535A7A2A32E01A1B15D7AE28E8BA0C 0xEE PUSH5 0x736F6C6343 STOP ADDMOD SLT STOP CALLER "
				},
				"gasEstimates": {
					"creation": {
						"codeDepositCost": "96200",
						"executionCost": "147",
						"totalCost": "96347"
					},
					"external": {
						"fun1(uint256)": "infinite",
						"fun2(uint256)": "infinite"
					}
				},
				"methodIdentifiers": {
					"fun1(uint256)": "acd9fd65",
					"fun2(uint256)": "7a927e8f"
				}
			},
			"storageLayout": {
				"storage": [],
				"types": null
			},
			"userdoc": {
				"kind": "user",
				"methods": {},
				"version": 1
			}
		}
	}
}