{
	"Chapter6/Ex6_17.sol": {
		"Computer": {
			"abi": [
				{
					"inputs": [],
					"name": "boot",
					"outputs": [
						{
							"internalType": "uint256",
							"name": "",
							"type": "uint256"
						},
						{
							"internalType": "bool",
							"name": "",
							"type": "bool"
						}
					],
					"stateMutability": "pure",
					"type": "function"
				},
				{
					"inputs": [],
					"name": "errorCheck",
					"outputs": [
						{
							"internalType": "bool",
							"name": "",
							"type": "bool"
						}
					],
					"stateMutability": "pure",
					"type": "function"
				},
				{
					"inputs": [],
					"name": "versionCheck",
					"outputs": [
						{
							"internalType": "uint256",
							"name": "",
							"type": "uint256"
						}
					],
					"stateMutability": "pure",
					"type": "function"
				}
			],
			"devdoc": {
				"kind": "dev",
				"methods": {},
				"version": 1
			},
			"evm": {
				"assembly": "    /* \"Chapter6/Ex6_17.sol\":251:587  contract Computer is System{... */\n  mstore(0x40, 0x80)\n  callvalue\n  dup1\n  iszero\n  tag_1\n  jumpi\n  0x00\n  dup1\n  revert\ntag_1:\n  pop\n  dataSize(sub_0)\n  dup1\n  dataOffset(sub_0)\n  0x00\n  codecopy\n  0x00\n  return\nstop\n\nsub_0: assembly {\n        /* \"Chapter6/Ex6_17.sol\":251:587  contract Computer is System{... */\n      mstore(0x40, 0x80)\n      callvalue\n      dup1\n      iszero\n      tag_1\n      jumpi\n      0x00\n      dup1\n      revert\n    tag_1:\n      pop\n      jumpi(tag_2, lt(calldatasize, 0x04))\n      shr(0xe0, calldataload(0x00))\n      dup1\n      0x54d44bf7\n      eq\n      tag_3\n      jumpi\n      dup1\n      0x783c2501\n      eq\n      tag_4\n      jumpi\n      dup1\n      0xaddd133c\n      eq\n      tag_5\n      jumpi\n    tag_2:\n      0x00\n      dup1\n      revert\n        /* \"Chapter6/Ex6_17.sol\":473:584  function boot() public pure override returns(uint, bool){... */\n    tag_3:\n      tag_6\n      tag_7\n      jump\t// in\n    tag_6:\n      mload(0x40)\n      tag_8\n      swap3\n      swap2\n      swap1\n      tag_9\n      jump\t// in\n    tag_8:\n      mload(0x40)\n      dup1\n      swap2\n      sub\n      swap1\n      return\n        /* \"Chapter6/Ex6_17.sol\":285:371  function versionCheck() public pure override  returns(uint){... */\n    tag_4:\n      tag_10\n      tag_11\n      jump\t// in\n    tag_10:\n      mload(0x40)\n      tag_12\n      swap2\n      swap1\n      tag_13\n      jump\t// in\n    tag_12:\n      mload(0x40)\n      dup1\n      swap2\n      sub\n      swap1\n      return\n        /* \"Chapter6/Ex6_17.sol\":379:465  function errorCheck() public pure override returns(bool){... */\n    tag_5:\n      tag_14\n      tag_15\n      jump\t// in\n    tag_14:\n      mload(0x40)\n      tag_16\n      swap2\n      swap1\n      tag_17\n      jump\t// in\n    tag_16:\n      mload(0x40)\n      dup1\n      swap2\n      sub\n      swap1\n      return\n        /* \"Chapter6/Ex6_17.sol\":473:584  function boot() public pure override returns(uint, bool){... */\n    tag_7:\n        /* \"Chapter6/Ex6_17.sol\":518:522  uint */\n      0x00\n        /* \"Chapter6/Ex6_17.sol\":524:528  bool */\n      dup1\n        /* \"Chapter6/Ex6_17.sol\":547:561  versionCheck() */\n      tag_19\n        /* \"Chapter6/Ex6_17.sol\":547:559  versionCheck */\n      tag_11\n        /* \"Chapter6/Ex6_17.sol\":547:561  versionCheck() */\n      jump\t// in\n    tag_19:\n        /* \"Chapter6/Ex6_17.sol\":563:575  errorCheck() */\n      tag_20\n        /* \"Chapter6/Ex6_17.sol\":563:573  errorCheck */\n      tag_15\n        /* \"Chapter6/Ex6_17.sol\":563:575  errorCheck() */\n      jump\t// in\n    tag_20:\n        /* \"Chapter6/Ex6_17.sol\":540:576  return(versionCheck(), errorCheck()) */\n      swap2\n      pop\n      swap2\n      pop\n        /* \"Chapter6/Ex6_17.sol\":473:584  function boot() public pure override returns(uint, bool){... */\n      swap1\n      swap2\n      jump\t// out\n        /* \"Chapter6/Ex6_17.sol\":285:371  function versionCheck() public pure override  returns(uint){... */\n    tag_11:\n        /* \"Chapter6/Ex6_17.sol\":339:343  uint */\n      0x00\n        /* \"Chapter6/Ex6_17.sol\":362:363  3 */\n      0x03\n        /* \"Chapter6/Ex6_17.sol\":355:363  return 3 */\n      swap1\n      pop\n        /* \"Chapter6/Ex6_17.sol\":285:371  function versionCheck() public pure override  returns(uint){... */\n      swap1\n      jump\t// out\n        /* \"Chapter6/Ex6_17.sol\":379:465  function errorCheck() public pure override returns(bool){... */\n    tag_15:\n        /* \"Chapter6/Ex6_17.sol\":430:434  bool */\n      0x00\n        /* \"Chapter6/Ex6_17.sol\":453:457  true */\n      0x01\n        /* \"Chapter6/Ex6_17.sol\":446:457  return true */\n      swap1\n      pop\n        /* \"Chapter6/Ex6_17.sol\":379:465  function errorCheck() public pure override returns(bool){... */\n      swap1\n      jump\t// out\n        /* \"#utility.yul\":7:84   */\n    tag_23:\n        /* \"#utility.yul\":44:51   */\n      0x00\n        /* \"#utility.yul\":73:78   */\n      dup2\n        /* \"#utility.yul\":62:78   */\n      swap1\n      pop\n        /* \"#utility.yul\":7:84   */\n      swap2\n      swap1\n      pop\n      jump\t// out\n        /* \"#utility.yul\":90:208   */\n    tag_24:\n        /* \"#utility.yul\":177:201   */\n      tag_30\n        /* \"#utility.yul\":195:200   */\n      dup2\n        /* \"#utility.yul\":177:201   */\n      tag_23\n      jump\t// in\n    tag_30:\n        /* \"#utility.yul\":172:175   */\n      dup3\n        /* \"#utility.yul\":165:202   */\n      mstore\n        /* \"#utility.yul\":90:208   */\n      pop\n      pop\n      jump\t// out\n        /* \"#utility.yul\":214:304   */\n    tag_25:\n        /* \"#utility.yul\":248:255   */\n      0x00\n        /* \"#utility.yul\":291:296   */\n      dup2\n        /* \"#utility.yul\":284:297   */\n      iszero\n        /* \"#utility.yul\":277:298   */\n      iszero\n        /* \"#utility.yul\":266:298   */\n      swap1\n      pop\n        /* \"#utility.yul\":214:304   */\n      swap2\n      swap1\n      pop\n      jump\t// out\n        /* \"#utility.yul\":310:419   */\n    tag_26:\n        /* \"#utility.yul\":391:412   */\n      tag_33\n        /* \"#utility.yul\":406:411   */\n      dup2\n        /* \"#utility.yul\":391:412   */\n      tag_25\n      jump\t// in\n    tag_33:\n        /* \"#utility.yul\":386:389   */\n      dup3\n        /* \"#utility.yul\":379:413   */\n      mstore\n        /* \"#utility.yul\":310:419   */\n      pop\n      pop\n      jump\t// out\n        /* \"#utility.yul\":425:745   */\n    tag_9:\n        /* \"#utility.yul\":540:544   */\n      0x00\n        /* \"#utility.yul\":578:580   */\n      0x40\n        /* \"#utility.yul\":567:576   */\n      dup3\n        /* \"#utility.yul\":563:581   */\n      add\n        /* \"#utility.yul\":555:581   */\n      swap1\n      pop\n        /* \"#utility.yul\":591:662   */\n      tag_35\n        /* \"#utility.yul\":659:660   */\n      0x00\n        /* \"#utility.yul\":648:657   */\n      dup4\n        /* \"#utility.yul\":644:661   */\n      add\n        /* \"#utility.yul\":635:641   */\n      dup6\n        /* \"#utility.yul\":591:662   */\n      tag_24\n      jump\t// in\n    tag_35:\n        /* \"#utility.yul\":672:738   */\n      tag_36\n        /* \"#utility.yul\":734:736   */\n      0x20\n        /* \"#utility.yul\":723:732   */\n      dup4\n        /* \"#utility.yul\":719:737   */\n      add\n        /* \"#utility.yul\":710:716   */\n      dup5\n        /* \"#utility.yul\":672:738   */\n      tag_26\n      jump\t// in\n    tag_36:\n        /* \"#utility.yul\":425:745   */\n      swap4\n      swap3\n      pop\n      pop\n      pop\n      jump\t// out\n        /* \"#utility.yul\":751:973   */\n    tag_13:\n        /* \"#utility.yul\":844:848   */\n      0x00\n        /* \"#utility.yul\":882:884   */\n      0x20\n        /* \"#utility.yul\":871:880   */\n      dup3\n        /* \"#utility.yul\":867:885   */\n      add\n        /* \"#utility.yul\":859:885   */\n      swap1\n      pop\n        /* \"#utility.yul\":895:966   */\n      tag_38\n        /* \"#utility.yul\":963:964   */\n      0x00\n        /* \"#utility.yul\":952:961   */\n      dup4\n        /* \"#utility.yul\":948:965   */\n      add\n        /* \"#utility.yul\":939:945   */\n      dup5\n        /* \"#utility.yul\":895:966   */\n      tag_24\n      jump\t// in\n    tag_38:\n        /* \"#utility.yul\":751:973   */\n      swap3\n      swap2\n      pop\n      pop\n      jump\t// out\n        /* \"#utility.yul\":979:1189   */\n    tag_17:\n        /* \"#utility.yul\":1066:1070   */\n      0x00\n        /* \"#utility.yul\":1104:1106   */\n      0x20\n        /* \"#utility.yul\":1093:1102   */\n      dup3\n        /* \"#utility.yul\":1089:1107   */\n      add\n        /* \"#utility.yul\":1081:1107   */\n      swap1\n      pop\n        /* \"#utility.yul\":1117:1182   */\n      tag_40\n        /* \"#utility.yul\":1179:1180   */\n      0x00\n        /* \"#utility.yul\":1168:1177   */\n      dup4\n        /* \"#utility.yul\":1164:1181   */\n      add\n        /* \"#utility.yul\":1155:1161   */\n      dup5\n        /* \"#utility.yul\":1117:1182   */\n      tag_26\n      jump\t// in\n    tag_40:\n        /* \"#utility.yul\":979:1189   */\n      swap3\n      swap2\n      pop\n      pop\n      jump\t// out\n\n    auxdata: 0xa264697066735822122033c6a2967e594000705c42f80411bb31add137f89c37204efc0b5c8d1f750bc764736f6c63430008120033\n}\n",
				"bytecode": {
					"linkReferences": {},
					"object": "608060405234801561001057600080fd5b50610197806100206000396000f3fe608060405234801561001057600080fd5b50600436106100415760003560e01c806354d44bf714610046578063783c250114610065578063addd133c14610083575b600080fd5b61004e6100a1565b60405161005c929190610102565b60405180910390f35b61006d6100bc565b60405161007a919061012b565b60405180910390f35b61008b6100c5565b6040516100989190610146565b60405180910390f35b6000806100ac6100bc565b6100b46100c5565b915091509091565b60006003905090565b60006001905090565b6000819050919050565b6100e1816100ce565b82525050565b60008115159050919050565b6100fc816100e7565b82525050565b600060408201905061011760008301856100d8565b61012460208301846100f3565b9392505050565b600060208201905061014060008301846100d8565b92915050565b600060208201905061015b60008301846100f3565b9291505056fea264697066735822122033c6a2967e594000705c42f80411bb31add137f89c37204efc0b5c8d1f750bc764736f6c63430008120033",
					"opcodes": "PUSH1 0x80 PUSH1 0x40 MSTORE CALLVALUE DUP1 ISZERO PUSH2 0x10 JUMPI PUSH1 0x0 DUP1 REVERT JUMPDEST POP PUSH2 0x197 DUP1 PUSH2 0x20 PUSH1 0x0 CODECOPY PUSH1 0x0 RETURN INVALID PUSH1 0x80 PUSH1 0x40 MSTORE CALLVALUE DUP1 ISZERO PUSH2 0x10 JUMPI PUSH1 0x0 DUP1 REVERT JUMPDEST POP PUSH1 0x4 CALLDATASIZE LT PUSH2 0x41 JUMPI PUSH1 0x0 CALLDATALOAD PUSH1 0xE0 SHR DUP1 PUSH4 0x54D44BF7 EQ PUSH2 0x46 JUMPI DUP1 PUSH4 0x783C2501 EQ PUSH2 0x65 JUMPI DUP1 PUSH4 0xADDD133C EQ PUSH2 0x83 JUMPI JUMPDEST PUSH1 0x0 DUP1 REVERT JUMPDEST PUSH2 0x4E PUSH2 0xA1 JUMP JUMPDEST PUSH1 0x40 MLOAD PUSH2 0x5C SWAP3 SWAP2 SWAP1 PUSH2 0x102 JUMP JUMPDEST PUSH1 0x40 MLOAD DUP1 SWAP2 SUB SWAP1 RETURN JUMPDEST PUSH2 0x6D PUSH2 0xBC JUMP JUMPDEST PUSH1 0x40 MLOAD PUSH2 0x7A SWAP2 SWAP1 PUSH2 0x12B JUMP JUMPDEST PUSH1 0x40 MLOAD DUP1 SWAP2 SUB SWAP1 RETURN JUMPDEST PUSH2 0x8B PUSH2 0xC5 JUMP JUMPDEST PUSH1 0x40 MLOAD PUSH2 0x98 SWAP2 SWAP1 PUSH2 0x146 JUMP JUMPDEST PUSH1 0x40 MLOAD DUP1 SWAP2 SUB SWAP1 RETURN JUMPDEST PUSH1 0x0 DUP1 PUSH2 0xAC PUSH2 0xBC JUMP JUMPDEST PUSH2 0xB4 PUSH2 0xC5 JUMP JUMPDEST SWAP2 POP SWAP2 POP SWAP1 SWAP2 JUMP JUMPDEST PUSH1 0x0 PUSH1 0x3 SWAP1 POP SWAP1 JUMP JUMPDEST PUSH1 0x0 PUSH1 0x1 SWAP1 POP SWAP1 JUMP JUMPDEST PUSH1 0x0 DUP2 SWAP1 POP SWAP2 SWAP1 POP JUMP JUMPDEST PUSH2 0xE1 DUP2 PUSH2 0xCE JUMP JUMPDEST DUP3 MSTORE POP POP JUMP JUMPDEST PUSH1 0x0 DUP2 ISZERO ISZERO SWAP1 POP SWAP2 SWAP1 POP JUMP JUMPDEST PUSH2 0xFC DUP2 PUSH2 0xE7 JUMP JUMPDEST DUP3 MSTORE POP POP JUMP JUMPDEST PUSH1 0x0 PUSH1 0x40 DUP3 ADD SWAP1 POP PUSH2 0x117 PUSH1 0x0 DUP4 ADD DUP6 PUSH2 0xD8 JUMP JUMPDEST PUSH2 0x124 PUSH1 0x20 DUP4 ADD DUP5 PUSH2 0xF3 JUMP JUMPDEST SWAP4 SWAP3 POP POP POP JUMP JUMPDEST PUSH1 0x0 PUSH1 0x20 DUP3 ADD SWAP1 POP PUSH2 0x140 PUSH1 0x0 DUP4 ADD DUP5 PUSH2 0xD8 JUMP JUMPDEST SWAP3 SWAP2 POP POP JUMP JUMPDEST PUSH1 0x0 PUSH1 0x20 DUP3 ADD SWAP1 POP PUSH2 0x15B PUSH1 0x0 DUP4 ADD DUP5 PUSH2 0xF3 JUMP JUMPDEST SWAP3 SWAP2 POP POP JUMP INVALID LOG2 PUSH5 0x6970667358 0x22 SLT KECCAK256 CALLER 0xC6 LOG2 SWAP7 PUSH31 0x594000705C42F80411BB31ADD137F89C37204EFC0B5C8D1F750BC764736F6C PUSH4 0x43000812 STOP CALLER "
				},
				"gasEstimates": {
					"creation": {
						"codeDepositCost": "81400",
						"executionCost": "129",
						"totalCost": "81529"
					},
					"external": {
						"boot()": "505",
						"errorCheck()": "365",
						"versionCheck()": "337"
					}
				},
				"methodIdentifiers": {
					"boot()": "54d44bf7",
					"errorCheck()": "addd133c",
					"versionCheck()": "783c2501"
				}
			},
			"storageLayout": {
				"storage": [],
				"types": null
			},
			"userdoc": {
				"kind": "user",
				"methods": {},
				"version": 1
			}
		}
	}
}