{
	"myLocalContracts/Chaper10/Ex10_1.sol": {
		"Ramdom": {
			"abi": [
				{
					"inputs": [
						{
							"internalType": "string",
							"name": "_key1",
							"type": "string"
						},
						{
							"internalType": "uint256",
							"name": "_key2",
							"type": "uint256"
						}
					],
					"stateMutability": "nonpayable",
					"type": "constructor"
				},
				{
					"anonymous": false,
					"inputs": [
						{
							"indexed": true,
							"internalType": "address",
							"name": "sender",
							"type": "address"
						},
						{
							"indexed": false,
							"internalType": "uint256",
							"name": "payment",
							"type": "uint256"
						}
					],
					"name": "PaidAddress",
					"type": "event"
				},
				{
					"anonymous": false,
					"inputs": [
						{
							"indexed": true,
							"internalType": "address",
							"name": "winner",
							"type": "address"
						}
					],
					"name": "WinnerAddress",
					"type": "event"
				},
				{
					"inputs": [],
					"name": "getRound",
					"outputs": [
						{
							"internalType": "uint256",
							"name": "",
							"type": "uint256"
						}
					],
					"stateMutability": "view",
					"type": "function"
				},
				{
					"inputs": [],
					"name": "getSeretKey",
					"outputs": [
						{
							"internalType": "string",
							"name": "",
							"type": "string"
						},
						{
							"internalType": "uint256",
							"name": "",
							"type": "uint256"
						}
					],
					"stateMutability": "view",
					"type": "function"
				},
				{
					"inputs": [],
					"name": "getWinnerNumber",
					"outputs": [
						{
							"internalType": "uint256",
							"name": "",
							"type": "uint256"
						}
					],
					"stateMutability": "view",
					"type": "function"
				},
				{
					"inputs": [],
					"name": "getbalanve",
					"outputs": [
						{
							"internalType": "uint256",
							"name": "",
							"type": "uint256"
						}
					],
					"stateMutability": "view",
					"type": "function"
				},
				{
					"inputs": [],
					"name": "owner",
					"outputs": [
						{
							"internalType": "address",
							"name": "",
							"type": "address"
						}
					],
					"stateMutability": "view",
					"type": "function"
				},
				{
					"inputs": [
						{
							"internalType": "uint256",
							"name": "",
							"type": "uint256"
						},
						{
							"internalType": "address",
							"name": "",
							"type": "address"
						}
					],
					"name": "paidAddressList",
					"outputs": [
						{
							"internalType": "bool",
							"name": "",
							"type": "bool"
						}
					],
					"stateMutability": "view",
					"type": "function"
				},
				{
					"inputs": [],
					"name": "palyNumber",
					"outputs": [
						{
							"internalType": "uint256",
							"name": "",
							"type": "uint256"
						}
					],
					"stateMutability": "view",
					"type": "function"
				},
				{
					"inputs": [],
					"name": "round",
					"outputs": [
						{
							"internalType": "uint256",
							"name": "",
							"type": "uint256"
						}
					],
					"stateMutability": "view",
					"type": "function"
				},
				{
					"inputs": [
						{
							"internalType": "string",
							"name": "_key1",
							"type": "string"
						},
						{
							"internalType": "uint256",
							"name": "_key2",
							"type": "uint256"
						}
					],
					"name": "setSecretKey",
					"outputs": [],
					"stateMutability": "nonpayable",
					"type": "function"
				},
				{
					"stateMutability": "payable",
					"type": "receive"
				}
			],
			"devdoc": {
				"kind": "dev",
				"methods": {},
				"version": 1
			},
			"evm": {
				"assembly": "    /* \"myLocalContracts/Chaper10/Ex10_1.sol\":63:2173  contract Ramdom{... */\n  mstore(0x40, 0x80)\n    /* \"myLocalContracts/Chaper10/Ex10_1.sol\":456:457  0 */\n  0x00\n    /* \"myLocalContracts/Chaper10/Ex10_1.sol\":428:457  uint private winnerNumber = 0 */\n  0x02\n  sstore\n    /* \"myLocalContracts/Chaper10/Ex10_1.sol\":534:535  1 */\n  0x01\n    /* \"myLocalContracts/Chaper10/Ex10_1.sol\":514:535  uint public round = 1 */\n  0x05\n  sstore\n    /* \"myLocalContracts/Chaper10/Ex10_1.sol\":567:568  0 */\n  0x00\n    /* \"myLocalContracts/Chaper10/Ex10_1.sol\":542:568  uint public palyNumber = 0 */\n  0x06\n  sstore\n    /* \"myLocalContracts/Chaper10/Ex10_1.sol\":577:744  constructor(string memory _key1, uint _key2){... */\n  callvalue\n  dup1\n  iszero\n  tag_1\n  jumpi\n  0x00\n  dup1\n  revert\ntag_1:\n  pop\n  mload(0x40)\n  sub(codesize, bytecodeSize)\n  dup1\n  bytecodeSize\n  dup4\n  codecopy\n  dup2\n  dup2\n  add\n  0x40\n  mstore\n  dup2\n  add\n  swap1\n  tag_2\n  swap2\n  swap1\n  tag_3\n  jump\t// in\ntag_2:\n    /* \"myLocalContracts/Chaper10/Ex10_1.sol\":640:650  msg.sender */\n  caller\n    /* \"myLocalContracts/Chaper10/Ex10_1.sol\":632:637  owner */\n  0x01\n  0x00\n    /* \"myLocalContracts/Chaper10/Ex10_1.sol\":632:650  owner = msg.sender */\n  0x0100\n  exp\n  dup2\n  sload\n  dup2\n  0xffffffffffffffffffffffffffffffffffffffff\n  mul\n  not\n  and\n  swap1\n  dup4\n  0xffffffffffffffffffffffffffffffffffffffff\n  and\n  mul\n  or\n  swap1\n  sstore\n  pop\n    /* \"myLocalContracts/Chaper10/Ex10_1.sol\":668:673  _key1 */\n  dup2\n    /* \"myLocalContracts/Chaper10/Ex10_1.sol\":661:665  key1 */\n  0x03\n    /* \"myLocalContracts/Chaper10/Ex10_1.sol\":661:673  key1 = _key1 */\n  swap1\n  dup2\n  tag_6\n  swap2\n  swap1\n  tag_7\n  jump\t// in\ntag_6:\n  pop\n    /* \"myLocalContracts/Chaper10/Ex10_1.sol\":691:696  _key2 */\n  dup1\n    /* \"myLocalContracts/Chaper10/Ex10_1.sol\":684:688  key2 */\n  0x04\n    /* \"myLocalContracts/Chaper10/Ex10_1.sol\":684:696  key2 = _key2 */\n  dup2\n  swap1\n  sstore\n  pop\n    /* \"myLocalContracts/Chaper10/Ex10_1.sol\":722:736  randomNumber() */\n  tag_8\n    /* \"myLocalContracts/Chaper10/Ex10_1.sol\":722:734  randomNumber */\n  shl(0x20, tag_9)\n    /* \"myLocalContracts/Chaper10/Ex10_1.sol\":722:736  randomNumber() */\n  0x20\n  shr\n  jump\t// in\ntag_8:\n    /* \"myLocalContracts/Chaper10/Ex10_1.sol\":707:719  winnerNumber */\n  0x02\n    /* \"myLocalContracts/Chaper10/Ex10_1.sol\":707:736  winnerNumber = randomNumber() */\n  dup2\n  swap1\n  sstore\n  pop\n    /* \"myLocalContracts/Chaper10/Ex10_1.sol\":577:744  constructor(string memory _key1, uint _key2){... */\n  pop\n  pop\n    /* \"myLocalContracts/Chaper10/Ex10_1.sol\":63:2173  contract Ramdom{... */\n  jump(tag_10)\n    /* \"myLocalContracts/Chaper10/Ex10_1.sol\":1406:1610  function randomNumber() private view returns(uint){... */\ntag_9:\n    /* \"myLocalContracts/Chaper10/Ex10_1.sol\":1451:1455  uint */\n  0x00\n    /* \"myLocalContracts/Chaper10/Ex10_1.sol\":1467:1475  uint num */\n  dup1\n    /* \"myLocalContracts/Chaper10/Ex10_1.sol\":1542:1554  block.number */\n  number\n    /* \"myLocalContracts/Chaper10/Ex10_1.sol\":1522:1537  block.timestamp */\n  timestamp\n    /* \"myLocalContracts/Chaper10/Ex10_1.sol\":1514:1518  key2 */\n  sload(0x04)\n    /* \"myLocalContracts/Chaper10/Ex10_1.sol\":1504:1508  key1 */\n  0x03\n    /* \"myLocalContracts/Chaper10/Ex10_1.sol\":1493:1509  abi.encode(key1) */\n  add(0x20, mload(0x40))\n  tag_12\n  swap2\n  swap1\n  tag_13\n  jump\t// in\ntag_12:\n  mload(0x40)\n  0x20\n  dup2\n  dup4\n  sub\n  sub\n  dup2\n  mstore\n  swap1\n  0x40\n  mstore\n    /* \"myLocalContracts/Chaper10/Ex10_1.sol\":1483:1510  keccak256(abi.encode(key1)) */\n  dup1\n  mload\n  swap1\n  0x20\n  add\n  keccak256\n    /* \"myLocalContracts/Chaper10/Ex10_1.sol\":1478:1511  uint(keccak256(abi.encode(key1))) */\n  0x00\n  shr\n    /* \"myLocalContracts/Chaper10/Ex10_1.sol\":1478:1518  uint(keccak256(abi.encode(key1))) + key2 */\n  tag_14\n  swap2\n  swap1\n  tag_15\n  jump\t// in\ntag_14:\n    /* \"myLocalContracts/Chaper10/Ex10_1.sol\":1478:1538  uint(keccak256(abi.encode(key1))) + key2 + (block.timestamp) */\n  tag_16\n  swap2\n  swap1\n  tag_15\n  jump\t// in\ntag_16:\n    /* \"myLocalContracts/Chaper10/Ex10_1.sol\":1478:1555  uint(keccak256(abi.encode(key1))) + key2 + (block.timestamp) + (block.number) */\n  tag_17\n  swap2\n  swap1\n  tag_15\n  jump\t// in\ntag_17:\n    /* \"myLocalContracts/Chaper10/Ex10_1.sol\":1467:1555  uint num = uint(keccak256(abi.encode(key1))) + key2 + (block.timestamp) + (block.number) */\n  swap1\n  pop\n    /* \"myLocalContracts/Chaper10/Ex10_1.sol\":1601:1602  1 */\n  0x01\n    /* \"myLocalContracts/Chaper10/Ex10_1.sol\":1594:1596  10 */\n  0x0a\n    /* \"myLocalContracts/Chaper10/Ex10_1.sol\":1588:1590  10 */\n  dup1\n    /* \"myLocalContracts/Chaper10/Ex10_1.sol\":1582:1585  num */\n  dup4\n    /* \"myLocalContracts/Chaper10/Ex10_1.sol\":1582:1590  num / 10 */\n  tag_18\n  swap2\n  swap1\n  tag_19\n  jump\t// in\ntag_18:\n    /* \"myLocalContracts/Chaper10/Ex10_1.sol\":1581:1596  (num / 10) * 10 */\n  tag_20\n  swap2\n  swap1\n  tag_21\n  jump\t// in\ntag_20:\n    /* \"myLocalContracts/Chaper10/Ex10_1.sol\":1574:1577  num */\n  dup3\n    /* \"myLocalContracts/Chaper10/Ex10_1.sol\":1574:1597  num - ((num / 10) * 10) */\n  tag_22\n  swap2\n  swap1\n  tag_23\n  jump\t// in\ntag_22:\n    /* \"myLocalContracts/Chaper10/Ex10_1.sol\":1573:1602  (num - ((num / 10) * 10)) + 1 */\n  tag_24\n  swap2\n  swap1\n  tag_15\n  jump\t// in\ntag_24:\n    /* \"myLocalContracts/Chaper10/Ex10_1.sol\":1566:1602  return (num - ((num / 10) * 10)) + 1 */\n  swap2\n  pop\n  pop\n    /* \"myLocalContracts/Chaper10/Ex10_1.sol\":1406:1610  function randomNumber() private view returns(uint){... */\n  swap1\n  jump\t// out\n    /* \"#utility.yul\":7:82   */\ntag_25:\n    /* \"#utility.yul\":40:46   */\n  0x00\n    /* \"#utility.yul\":73:75   */\n  0x40\n    /* \"#utility.yul\":67:76   */\n  mload\n    /* \"#utility.yul\":57:76   */\n  swap1\n  pop\n    /* \"#utility.yul\":7:82   */\n  swap1\n  jump\t// out\n    /* \"#utility.yul\":88:205   */\ntag_26:\n    /* \"#utility.yul\":197:198   */\n  0x00\n    /* \"#utility.yul\":194:195   */\n  dup1\n    /* \"#utility.yul\":187:199   */\n  revert\n    /* \"#utility.yul\":211:328   */\ntag_27:\n    /* \"#utility.yul\":320:321   */\n  0x00\n    /* \"#utility.yul\":317:318   */\n  dup1\n    /* \"#utility.yul\":310:322   */\n  revert\n    /* \"#utility.yul\":334:451   */\ntag_28:\n    /* \"#utility.yul\":443:444   */\n  0x00\n    /* \"#utility.yul\":440:441   */\n  dup1\n    /* \"#utility.yul\":433:445   */\n  revert\n    /* \"#utility.yul\":457:574   */\ntag_29:\n    /* \"#utility.yul\":566:567   */\n  0x00\n    /* \"#utility.yul\":563:564   */\n  dup1\n    /* \"#utility.yul\":556:568   */\n  revert\n    /* \"#utility.yul\":580:682   */\ntag_30:\n    /* \"#utility.yul\":621:627   */\n  0x00\n    /* \"#utility.yul\":672:674   */\n  0x1f\n    /* \"#utility.yul\":668:675   */\n  not\n    /* \"#utility.yul\":663:665   */\n  0x1f\n    /* \"#utility.yul\":656:661   */\n  dup4\n    /* \"#utility.yul\":652:666   */\n  add\n    /* \"#utility.yul\":648:676   */\n  and\n    /* \"#utility.yul\":638:676   */\n  swap1\n  pop\n    /* \"#utility.yul\":580:682   */\n  swap2\n  swap1\n  pop\n  jump\t// out\n    /* \"#utility.yul\":688:868   */\ntag_31:\n    /* \"#utility.yul\":736:813   */\n  0x4e487b7100000000000000000000000000000000000000000000000000000000\n    /* \"#utility.yul\":733:734   */\n  0x00\n    /* \"#utility.yul\":726:814   */\n  mstore\n    /* \"#utility.yul\":833:837   */\n  0x41\n    /* \"#utility.yul\":830:831   */\n  0x04\n    /* \"#utility.yul\":823:838   */\n  mstore\n    /* \"#utility.yul\":857:861   */\n  0x24\n    /* \"#utility.yul\":854:855   */\n  0x00\n    /* \"#utility.yul\":847:862   */\n  revert\n    /* \"#utility.yul\":874:1155   */\ntag_32:\n    /* \"#utility.yul\":957:984   */\n  tag_72\n    /* \"#utility.yul\":979:983   */\n  dup3\n    /* \"#utility.yul\":957:984   */\n  tag_30\n  jump\t// in\ntag_72:\n    /* \"#utility.yul\":949:955   */\n  dup2\n    /* \"#utility.yul\":945:985   */\n  add\n    /* \"#utility.yul\":1087:1093   */\n  dup2\n    /* \"#utility.yul\":1075:1085   */\n  dup2\n    /* \"#utility.yul\":1072:1094   */\n  lt\n    /* \"#utility.yul\":1051:1069   */\n  0xffffffffffffffff\n    /* \"#utility.yul\":1039:1049   */\n  dup3\n    /* \"#utility.yul\":1036:1070   */\n  gt\n    /* \"#utility.yul\":1033:1095   */\n  or\n    /* \"#utility.yul\":1030:1118   */\n  iszero\n  tag_73\n  jumpi\n    /* \"#utility.yul\":1098:1116   */\n  tag_74\n  tag_31\n  jump\t// in\ntag_74:\n    /* \"#utility.yul\":1030:1118   */\ntag_73:\n    /* \"#utility.yul\":1138:1148   */\n  dup1\n    /* \"#utility.yul\":1134:1136   */\n  0x40\n    /* \"#utility.yul\":1127:1149   */\n  mstore\n    /* \"#utility.yul\":917:1155   */\n  pop\n    /* \"#utility.yul\":874:1155   */\n  pop\n  pop\n  jump\t// out\n    /* \"#utility.yul\":1161:1290   */\ntag_33:\n    /* \"#utility.yul\":1195:1201   */\n  0x00\n    /* \"#utility.yul\":1222:1242   */\n  tag_76\n  tag_25\n  jump\t// in\ntag_76:\n    /* \"#utility.yul\":1212:1242   */\n  swap1\n  pop\n    /* \"#utility.yul\":1251:1284   */\n  tag_77\n    /* \"#utility.yul\":1279:1283   */\n  dup3\n    /* \"#utility.yul\":1271:1277   */\n  dup3\n    /* \"#utility.yul\":1251:1284   */\n  tag_32\n  jump\t// in\ntag_77:\n    /* \"#utility.yul\":1161:1290   */\n  swap2\n  swap1\n  pop\n  jump\t// out\n    /* \"#utility.yul\":1296:1604   */\ntag_34:\n    /* \"#utility.yul\":1358:1362   */\n  0x00\n    /* \"#utility.yul\":1448:1466   */\n  0xffffffffffffffff\n    /* \"#utility.yul\":1440:1446   */\n  dup3\n    /* \"#utility.yul\":1437:1467   */\n  gt\n    /* \"#utility.yul\":1434:1490   */\n  iszero\n  tag_79\n  jumpi\n    /* \"#utility.yul\":1470:1488   */\n  tag_80\n  tag_31\n  jump\t// in\ntag_80:\n    /* \"#utility.yul\":1434:1490   */\ntag_79:\n    /* \"#utility.yul\":1508:1537   */\n  tag_81\n    /* \"#utility.yul\":1530:1536   */\n  dup3\n    /* \"#utility.yul\":1508:1537   */\n  tag_30\n  jump\t// in\ntag_81:\n    /* \"#utility.yul\":1500:1537   */\n  swap1\n  pop\n    /* \"#utility.yul\":1592:1596   */\n  0x20\n    /* \"#utility.yul\":1586:1590   */\n  dup2\n    /* \"#utility.yul\":1582:1597   */\n  add\n    /* \"#utility.yul\":1574:1597   */\n  swap1\n  pop\n    /* \"#utility.yul\":1296:1604   */\n  swap2\n  swap1\n  pop\n  jump\t// out\n    /* \"#utility.yul\":1610:1856   */\ntag_35:\n    /* \"#utility.yul\":1691:1692   */\n  0x00\n    /* \"#utility.yul\":1701:1814   */\ntag_83:\n    /* \"#utility.yul\":1715:1721   */\n  dup4\n    /* \"#utility.yul\":1712:1713   */\n  dup2\n    /* \"#utility.yul\":1709:1722   */\n  lt\n    /* \"#utility.yul\":1701:1814   */\n  iszero\n  tag_85\n  jumpi\n    /* \"#utility.yul\":1800:1801   */\n  dup1\n    /* \"#utility.yul\":1795:1798   */\n  dup3\n    /* \"#utility.yul\":1791:1802   */\n  add\n    /* \"#utility.yul\":1785:1803   */\n  mload\n    /* \"#utility.yul\":1781:1782   */\n  dup2\n    /* \"#utility.yul\":1776:1779   */\n  dup5\n    /* \"#utility.yul\":1772:1783   */\n  add\n    /* \"#utility.yul\":1765:1804   */\n  mstore\n    /* \"#utility.yul\":1737:1739   */\n  0x20\n    /* \"#utility.yul\":1734:1735   */\n  dup2\n    /* \"#utility.yul\":1730:1740   */\n  add\n    /* \"#utility.yul\":1725:1740   */\n  swap1\n  pop\n    /* \"#utility.yul\":1701:1814   */\n  jump(tag_83)\ntag_85:\n    /* \"#utility.yul\":1848:1849   */\n  0x00\n    /* \"#utility.yul\":1839:1845   */\n  dup5\n    /* \"#utility.yul\":1834:1837   */\n  dup5\n    /* \"#utility.yul\":1830:1846   */\n  add\n    /* \"#utility.yul\":1823:1850   */\n  mstore\n    /* \"#utility.yul\":1672:1856   */\n  pop\n    /* \"#utility.yul\":1610:1856   */\n  pop\n  pop\n  pop\n  jump\t// out\n    /* \"#utility.yul\":1862:2296   */\ntag_36:\n    /* \"#utility.yul\":1951:1956   */\n  0x00\n    /* \"#utility.yul\":1976:2042   */\n  tag_87\n    /* \"#utility.yul\":1992:2041   */\n  tag_88\n    /* \"#utility.yul\":2034:2040   */\n  dup5\n    /* \"#utility.yul\":1992:2041   */\n  tag_34\n  jump\t// in\ntag_88:\n    /* \"#utility.yul\":1976:2042   */\n  tag_33\n  jump\t// in\ntag_87:\n    /* \"#utility.yul\":1967:2042   */\n  swap1\n  pop\n    /* \"#utility.yul\":2065:2071   */\n  dup3\n    /* \"#utility.yul\":2058:2063   */\n  dup2\n    /* \"#utility.yul\":2051:2072   */\n  mstore\n    /* \"#utility.yul\":2103:2107   */\n  0x20\n    /* \"#utility.yul\":2096:2101   */\n  dup2\n    /* \"#utility.yul\":2092:2108   */\n  add\n    /* \"#utility.yul\":2141:2144   */\n  dup5\n    /* \"#utility.yul\":2132:2138   */\n  dup5\n    /* \"#utility.yul\":2127:2130   */\n  dup5\n    /* \"#utility.yul\":2123:2139   */\n  add\n    /* \"#utility.yul\":2120:2145   */\n  gt\n    /* \"#utility.yul\":2117:2229   */\n  iszero\n  tag_89\n  jumpi\n    /* \"#utility.yul\":2148:2227   */\n  tag_90\n  tag_29\n  jump\t// in\ntag_90:\n    /* \"#utility.yul\":2117:2229   */\ntag_89:\n    /* \"#utility.yul\":2238:2290   */\n  tag_91\n    /* \"#utility.yul\":2283:2289   */\n  dup5\n    /* \"#utility.yul\":2278:2281   */\n  dup3\n    /* \"#utility.yul\":2273:2276   */\n  dup6\n    /* \"#utility.yul\":2238:2290   */\n  tag_35\n  jump\t// in\ntag_91:\n    /* \"#utility.yul\":1957:2296   */\n  pop\n    /* \"#utility.yul\":1862:2296   */\n  swap4\n  swap3\n  pop\n  pop\n  pop\n  jump\t// out\n    /* \"#utility.yul\":2316:2671   */\ntag_37:\n    /* \"#utility.yul\":2383:2388   */\n  0x00\n    /* \"#utility.yul\":2432:2435   */\n  dup3\n    /* \"#utility.yul\":2425:2429   */\n  0x1f\n    /* \"#utility.yul\":2417:2423   */\n  dup4\n    /* \"#utility.yul\":2413:2430   */\n  add\n    /* \"#utility.yul\":2409:2436   */\n  slt\n    /* \"#utility.yul\":2399:2521   */\n  tag_93\n  jumpi\n    /* \"#utility.yul\":2440:2519   */\n  tag_94\n  tag_28\n  jump\t// in\ntag_94:\n    /* \"#utility.yul\":2399:2521   */\ntag_93:\n    /* \"#utility.yul\":2550:2556   */\n  dup2\n    /* \"#utility.yul\":2544:2557   */\n  mload\n    /* \"#utility.yul\":2575:2665   */\n  tag_95\n    /* \"#utility.yul\":2661:2664   */\n  dup5\n    /* \"#utility.yul\":2653:2659   */\n  dup3\n    /* \"#utility.yul\":2646:2650   */\n  0x20\n    /* \"#utility.yul\":2638:2644   */\n  dup7\n    /* \"#utility.yul\":2634:2651   */\n  add\n    /* \"#utility.yul\":2575:2665   */\n  tag_36\n  jump\t// in\ntag_95:\n    /* \"#utility.yul\":2566:2665   */\n  swap2\n  pop\n    /* \"#utility.yul\":2389:2671   */\n  pop\n    /* \"#utility.yul\":2316:2671   */\n  swap3\n  swap2\n  pop\n  pop\n  jump\t// out\n    /* \"#utility.yul\":2677:2754   */\ntag_38:\n    /* \"#utility.yul\":2714:2721   */\n  0x00\n    /* \"#utility.yul\":2743:2748   */\n  dup2\n    /* \"#utility.yul\":2732:2748   */\n  swap1\n  pop\n    /* \"#utility.yul\":2677:2754   */\n  swap2\n  swap1\n  pop\n  jump\t// out\n    /* \"#utility.yul\":2760:2882   */\ntag_39:\n    /* \"#utility.yul\":2833:2857   */\n  tag_98\n    /* \"#utility.yul\":2851:2856   */\n  dup2\n    /* \"#utility.yul\":2833:2857   */\n  tag_38\n  jump\t// in\ntag_98:\n    /* \"#utility.yul\":2826:2831   */\n  dup2\n    /* \"#utility.yul\":2823:2858   */\n  eq\n    /* \"#utility.yul\":2813:2876   */\n  tag_99\n  jumpi\n    /* \"#utility.yul\":2872:2873   */\n  0x00\n    /* \"#utility.yul\":2869:2870   */\n  dup1\n    /* \"#utility.yul\":2862:2874   */\n  revert\n    /* \"#utility.yul\":2813:2876   */\ntag_99:\n    /* \"#utility.yul\":2760:2882   */\n  pop\n  jump\t// out\n    /* \"#utility.yul\":2888:3031   */\ntag_40:\n    /* \"#utility.yul\":2945:2950   */\n  0x00\n    /* \"#utility.yul\":2976:2982   */\n  dup2\n    /* \"#utility.yul\":2970:2983   */\n  mload\n    /* \"#utility.yul\":2961:2983   */\n  swap1\n  pop\n    /* \"#utility.yul\":2992:3025   */\n  tag_101\n    /* \"#utility.yul\":3019:3024   */\n  dup2\n    /* \"#utility.yul\":2992:3025   */\n  tag_39\n  jump\t// in\ntag_101:\n    /* \"#utility.yul\":2888:3031   */\n  swap3\n  swap2\n  pop\n  pop\n  jump\t// out\n    /* \"#utility.yul\":3037:3717   */\ntag_3:\n    /* \"#utility.yul\":3126:3132   */\n  0x00\n    /* \"#utility.yul\":3134:3140   */\n  dup1\n    /* \"#utility.yul\":3183:3185   */\n  0x40\n    /* \"#utility.yul\":3171:3180   */\n  dup4\n    /* \"#utility.yul\":3162:3169   */\n  dup6\n    /* \"#utility.yul\":3158:3181   */\n  sub\n    /* \"#utility.yul\":3154:3186   */\n  slt\n    /* \"#utility.yul\":3151:3270   */\n  iszero\n  tag_103\n  jumpi\n    /* \"#utility.yul\":3189:3268   */\n  tag_104\n  tag_26\n  jump\t// in\ntag_104:\n    /* \"#utility.yul\":3151:3270   */\ntag_103:\n    /* \"#utility.yul\":3330:3331   */\n  0x00\n    /* \"#utility.yul\":3319:3328   */\n  dup4\n    /* \"#utility.yul\":3315:3332   */\n  add\n    /* \"#utility.yul\":3309:3333   */\n  mload\n    /* \"#utility.yul\":3360:3378   */\n  0xffffffffffffffff\n    /* \"#utility.yul\":3352:3358   */\n  dup2\n    /* \"#utility.yul\":3349:3379   */\n  gt\n    /* \"#utility.yul\":3346:3463   */\n  iszero\n  tag_105\n  jumpi\n    /* \"#utility.yul\":3382:3461   */\n  tag_106\n  tag_27\n  jump\t// in\ntag_106:\n    /* \"#utility.yul\":3346:3463   */\ntag_105:\n    /* \"#utility.yul\":3487:3561   */\n  tag_107\n    /* \"#utility.yul\":3553:3560   */\n  dup6\n    /* \"#utility.yul\":3544:3550   */\n  dup3\n    /* \"#utility.yul\":3533:3542   */\n  dup7\n    /* \"#utility.yul\":3529:3551   */\n  add\n    /* \"#utility.yul\":3487:3561   */\n  tag_37\n  jump\t// in\ntag_107:\n    /* \"#utility.yul\":3477:3561   */\n  swap3\n  pop\n    /* \"#utility.yul\":3280:3571   */\n  pop\n    /* \"#utility.yul\":3610:3612   */\n  0x20\n    /* \"#utility.yul\":3636:3700   */\n  tag_108\n    /* \"#utility.yul\":3692:3699   */\n  dup6\n    /* \"#utility.yul\":3683:3689   */\n  dup3\n    /* \"#utility.yul\":3672:3681   */\n  dup7\n    /* \"#utility.yul\":3668:3690   */\n  add\n    /* \"#utility.yul\":3636:3700   */\n  tag_40\n  jump\t// in\ntag_108:\n    /* \"#utility.yul\":3626:3700   */\n  swap2\n  pop\n    /* \"#utility.yul\":3581:3710   */\n  pop\n    /* \"#utility.yul\":3037:3717   */\n  swap3\n  pop\n  swap3\n  swap1\n  pop\n  jump\t// out\n    /* \"#utility.yul\":3723:3822   */\ntag_41:\n    /* \"#utility.yul\":3775:3781   */\n  0x00\n    /* \"#utility.yul\":3809:3814   */\n  dup2\n    /* \"#utility.yul\":3803:3815   */\n  mload\n    /* \"#utility.yul\":3793:3815   */\n  swap1\n  pop\n    /* \"#utility.yul\":3723:3822   */\n  swap2\n  swap1\n  pop\n  jump\t// out\n    /* \"#utility.yul\":3828:4008   */\ntag_42:\n    /* \"#utility.yul\":3876:3953   */\n  0x4e487b7100000000000000000000000000000000000000000000000000000000\n    /* \"#utility.yul\":3873:3874   */\n  0x00\n    /* \"#utility.yul\":3866:3954   */\n  mstore\n    /* \"#utility.yul\":3973:3977   */\n  0x22\n    /* \"#utility.yul\":3970:3971   */\n  0x04\n    /* \"#utility.yul\":3963:3978   */\n  mstore\n    /* \"#utility.yul\":3997:4001   */\n  0x24\n    /* \"#utility.yul\":3994:3995   */\n  0x00\n    /* \"#utility.yul\":3987:4002   */\n  revert\n    /* \"#utility.yul\":4014:4334   */\ntag_43:\n    /* \"#utility.yul\":4058:4064   */\n  0x00\n    /* \"#utility.yul\":4095:4096   */\n  0x02\n    /* \"#utility.yul\":4089:4093   */\n  dup3\n    /* \"#utility.yul\":4085:4097   */\n  div\n    /* \"#utility.yul\":4075:4097   */\n  swap1\n  pop\n    /* \"#utility.yul\":4142:4143   */\n  0x01\n    /* \"#utility.yul\":4136:4140   */\n  dup3\n    /* \"#utility.yul\":4132:4144   */\n  and\n    /* \"#utility.yul\":4163:4181   */\n  dup1\n    /* \"#utility.yul\":4153:4234   */\n  tag_112\n  jumpi\n    /* \"#utility.yul\":4219:4223   */\n  0x7f\n    /* \"#utility.yul\":4211:4217   */\n  dup3\n    /* \"#utility.yul\":4207:4224   */\n  and\n    /* \"#utility.yul\":4197:4224   */\n  swap2\n  pop\n    /* \"#utility.yul\":4153:4234   */\ntag_112:\n    /* \"#utility.yul\":4281:4283   */\n  0x20\n    /* \"#utility.yul\":4273:4279   */\n  dup3\n    /* \"#utility.yul\":4270:4284   */\n  lt\n    /* \"#utility.yul\":4250:4268   */\n  dup2\n    /* \"#utility.yul\":4247:4285   */\n  sub\n    /* \"#utility.yul\":4244:4328   */\n  tag_113\n  jumpi\n    /* \"#utility.yul\":4300:4318   */\n  tag_114\n  tag_42\n  jump\t// in\ntag_114:\n    /* \"#utility.yul\":4244:4328   */\ntag_113:\n    /* \"#utility.yul\":4065:4334   */\n  pop\n    /* \"#utility.yul\":4014:4334   */\n  swap2\n  swap1\n  pop\n  jump\t// out\n    /* \"#utility.yul\":4340:4481   */\ntag_44:\n    /* \"#utility.yul\":4389:4393   */\n  0x00\n    /* \"#utility.yul\":4412:4415   */\n  dup2\n    /* \"#utility.yul\":4404:4415   */\n  swap1\n  pop\n    /* \"#utility.yul\":4435:4438   */\n  dup2\n    /* \"#utility.yul\":4432:4433   */\n  0x00\n    /* \"#utility.yul\":4425:4439   */\n  mstore\n    /* \"#utility.yul\":4469:4473   */\n  0x20\n    /* \"#utility.yul\":4466:4467   */\n  0x00\n    /* \"#utility.yul\":4456:4474   */\n  keccak256\n    /* \"#utility.yul\":4448:4474   */\n  swap1\n  pop\n    /* \"#utility.yul\":4340:4481   */\n  swap2\n  swap1\n  pop\n  jump\t// out\n    /* \"#utility.yul\":4487:4580   */\ntag_45:\n    /* \"#utility.yul\":4524:4530   */\n  0x00\n    /* \"#utility.yul\":4571:4573   */\n  0x20\n    /* \"#utility.yul\":4566:4568   */\n  0x1f\n    /* \"#utility.yul\":4559:4564   */\n  dup4\n    /* \"#utility.yul\":4555:4569   */\n  add\n    /* \"#utility.yul\":4551:4574   */\n  div\n    /* \"#utility.yul\":4541:4574   */\n  swap1\n  pop\n    /* \"#utility.yul\":4487:4580   */\n  swap2\n  swap1\n  pop\n  jump\t// out\n    /* \"#utility.yul\":4586:4693   */\ntag_46:\n    /* \"#utility.yul\":4630:4638   */\n  0x00\n    /* \"#utility.yul\":4680:4685   */\n  dup3\n    /* \"#utility.yul\":4674:4678   */\n  dup3\n    /* \"#utility.yul\":4670:4686   */\n  shl\n    /* \"#utility.yul\":4649:4686   */\n  swap1\n  pop\n    /* \"#utility.yul\":4586:4693   */\n  swap3\n  swap2\n  pop\n  pop\n  jump\t// out\n    /* \"#utility.yul\":4699:5092   */\ntag_47:\n    /* \"#utility.yul\":4768:4774   */\n  0x00\n    /* \"#utility.yul\":4818:4819   */\n  0x08\n    /* \"#utility.yul\":4806:4816   */\n  dup4\n    /* \"#utility.yul\":4802:4820   */\n  mul\n    /* \"#utility.yul\":4841:4938   */\n  tag_119\n    /* \"#utility.yul\":4871:4937   */\n  0xffffffffffffffffffffffffffffffffffffffffffffffffffffffffffffffff\n    /* \"#utility.yul\":4860:4869   */\n  dup3\n    /* \"#utility.yul\":4841:4938   */\n  tag_46\n  jump\t// in\ntag_119:\n    /* \"#utility.yul\":4959:4998   */\n  tag_120\n    /* \"#utility.yul\":4989:4997   */\n  dup7\n    /* \"#utility.yul\":4978:4987   */\n  dup4\n    /* \"#utility.yul\":4959:4998   */\n  tag_46\n  jump\t// in\ntag_120:\n    /* \"#utility.yul\":4947:4998   */\n  swap6\n  pop\n    /* \"#utility.yul\":5031:5035   */\n  dup1\n    /* \"#utility.yul\":5027:5036   */\n  not\n    /* \"#utility.yul\":5020:5025   */\n  dup5\n    /* \"#utility.yul\":5016:5037   */\n  and\n    /* \"#utility.yul\":5007:5037   */\n  swap4\n  pop\n    /* \"#utility.yul\":5080:5084   */\n  dup1\n    /* \"#utility.yul\":5070:5078   */\n  dup7\n    /* \"#utility.yul\":5066:5085   */\n  and\n    /* \"#utility.yul\":5059:5064   */\n  dup5\n    /* \"#utility.yul\":5056:5086   */\n  or\n    /* \"#utility.yul\":5046:5086   */\n  swap3\n  pop\n    /* \"#utility.yul\":4775:5092   */\n  pop\n  pop\n    /* \"#utility.yul\":4699:5092   */\n  swap4\n  swap3\n  pop\n  pop\n  pop\n  jump\t// out\n    /* \"#utility.yul\":5098:5158   */\ntag_48:\n    /* \"#utility.yul\":5126:5129   */\n  0x00\n    /* \"#utility.yul\":5147:5152   */\n  dup2\n    /* \"#utility.yul\":5140:5152   */\n  swap1\n  pop\n    /* \"#utility.yul\":5098:5158   */\n  swap2\n  swap1\n  pop\n  jump\t// out\n    /* \"#utility.yul\":5164:5306   */\ntag_49:\n    /* \"#utility.yul\":5214:5223   */\n  0x00\n    /* \"#utility.yul\":5247:5300   */\n  tag_123\n    /* \"#utility.yul\":5265:5299   */\n  tag_124\n    /* \"#utility.yul\":5274:5298   */\n  tag_125\n    /* \"#utility.yul\":5292:5297   */\n  dup5\n    /* \"#utility.yul\":5274:5298   */\n  tag_38\n  jump\t// in\ntag_125:\n    /* \"#utility.yul\":5265:5299   */\n  tag_48\n  jump\t// in\ntag_124:\n    /* \"#utility.yul\":5247:5300   */\n  tag_38\n  jump\t// in\ntag_123:\n    /* \"#utility.yul\":5234:5300   */\n  swap1\n  pop\n    /* \"#utility.yul\":5164:5306   */\n  swap2\n  swap1\n  pop\n  jump\t// out\n    /* \"#utility.yul\":5312:5387   */\ntag_50:\n    /* \"#utility.yul\":5355:5358   */\n  0x00\n    /* \"#utility.yul\":5376:5381   */\n  dup2\n    /* \"#utility.yul\":5369:5381   */\n  swap1\n  pop\n    /* \"#utility.yul\":5312:5387   */\n  swap2\n  swap1\n  pop\n  jump\t// out\n    /* \"#utility.yul\":5393:5662   */\ntag_51:\n    /* \"#utility.yul\":5503:5542   */\n  tag_128\n    /* \"#utility.yul\":5534:5541   */\n  dup4\n    /* \"#utility.yul\":5503:5542   */\n  tag_49\n  jump\t// in\ntag_128:\n    /* \"#utility.yul\":5564:5655   */\n  tag_129\n    /* \"#utility.yul\":5613:5654   */\n  tag_130\n    /* \"#utility.yul\":5637:5653   */\n  dup3\n    /* \"#utility.yul\":5613:5654   */\n  tag_50\n  jump\t// in\ntag_130:\n    /* \"#utility.yul\":5605:5611   */\n  dup5\n    /* \"#utility.yul\":5598:5602   */\n  dup5\n    /* \"#utility.yul\":5592:5603   */\n  sload\n    /* \"#utility.yul\":5564:5655   */\n  tag_47\n  jump\t// in\ntag_129:\n    /* \"#utility.yul\":5558:5562   */\n  dup3\n    /* \"#utility.yul\":5551:5656   */\n  sstore\n    /* \"#utility.yul\":5469:5662   */\n  pop\n    /* \"#utility.yul\":5393:5662   */\n  pop\n  pop\n  pop\n  jump\t// out\n    /* \"#utility.yul\":5668:5741   */\ntag_52:\n    /* \"#utility.yul\":5713:5716   */\n  0x00\n    /* \"#utility.yul\":5668:5741   */\n  swap1\n  jump\t// out\n    /* \"#utility.yul\":5747:5936   */\ntag_53:\n    /* \"#utility.yul\":5824:5856   */\n  tag_133\n  tag_52\n  jump\t// in\ntag_133:\n    /* \"#utility.yul\":5865:5930   */\n  tag_134\n    /* \"#utility.yul\":5923:5929   */\n  dup2\n    /* \"#utility.yul\":5915:5921   */\n  dup5\n    /* \"#utility.yul\":5909:5913   */\n  dup5\n    /* \"#utility.yul\":5865:5930   */\n  tag_51\n  jump\t// in\ntag_134:\n    /* \"#utility.yul\":5800:5936   */\n  pop\n    /* \"#utility.yul\":5747:5936   */\n  pop\n  pop\n  jump\t// out\n    /* \"#utility.yul\":5942:6128   */\ntag_54:\n    /* \"#utility.yul\":6002:6122   */\ntag_136:\n    /* \"#utility.yul\":6019:6022   */\n  dup2\n    /* \"#utility.yul\":6012:6017   */\n  dup2\n    /* \"#utility.yul\":6009:6023   */\n  lt\n    /* \"#utility.yul\":6002:6122   */\n  iszero\n  tag_138\n  jumpi\n    /* \"#utility.yul\":6073:6112   */\n  tag_139\n    /* \"#utility.yul\":6110:6111   */\n  0x00\n    /* \"#utility.yul\":6103:6108   */\n  dup3\n    /* \"#utility.yul\":6073:6112   */\n  tag_53\n  jump\t// in\ntag_139:\n    /* \"#utility.yul\":6046:6047   */\n  0x01\n    /* \"#utility.yul\":6039:6044   */\n  dup2\n    /* \"#utility.yul\":6035:6048   */\n  add\n    /* \"#utility.yul\":6026:6048   */\n  swap1\n  pop\n    /* \"#utility.yul\":6002:6122   */\n  jump(tag_136)\ntag_138:\n    /* \"#utility.yul\":5942:6128   */\n  pop\n  pop\n  jump\t// out\n    /* \"#utility.yul\":6134:6677   */\ntag_55:\n    /* \"#utility.yul\":6235:6237   */\n  0x1f\n    /* \"#utility.yul\":6230:6233   */\n  dup3\n    /* \"#utility.yul\":6227:6238   */\n  gt\n    /* \"#utility.yul\":6224:6670   */\n  iszero\n  tag_141\n  jumpi\n    /* \"#utility.yul\":6269:6307   */\n  tag_142\n    /* \"#utility.yul\":6301:6306   */\n  dup2\n    /* \"#utility.yul\":6269:6307   */\n  tag_44\n  jump\t// in\ntag_142:\n    /* \"#utility.yul\":6353:6382   */\n  tag_143\n    /* \"#utility.yul\":6371:6381   */\n  dup5\n    /* \"#utility.yul\":6353:6382   */\n  tag_45\n  jump\t// in\ntag_143:\n    /* \"#utility.yul\":6343:6351   */\n  dup2\n    /* \"#utility.yul\":6339:6383   */\n  add\n    /* \"#utility.yul\":6536:6538   */\n  0x20\n    /* \"#utility.yul\":6524:6534   */\n  dup6\n    /* \"#utility.yul\":6521:6539   */\n  lt\n    /* \"#utility.yul\":6518:6567   */\n  iszero\n  tag_144\n  jumpi\n    /* \"#utility.yul\":6557:6565   */\n  dup2\n    /* \"#utility.yul\":6542:6565   */\n  swap1\n  pop\n    /* \"#utility.yul\":6518:6567   */\ntag_144:\n    /* \"#utility.yul\":6580:6660   */\n  tag_145\n    /* \"#utility.yul\":6636:6658   */\n  tag_146\n    /* \"#utility.yul\":6654:6657   */\n  dup6\n    /* \"#utility.yul\":6636:6658   */\n  tag_45\n  jump\t// in\ntag_146:\n    /* \"#utility.yul\":6626:6634   */\n  dup4\n    /* \"#utility.yul\":6622:6659   */\n  add\n    /* \"#utility.yul\":6609:6620   */\n  dup3\n    /* \"#utility.yul\":6580:6660   */\n  tag_54\n  jump\t// in\ntag_145:\n    /* \"#utility.yul\":6239:6670   */\n  pop\n  pop\n    /* \"#utility.yul\":6224:6670   */\ntag_141:\n    /* \"#utility.yul\":6134:6677   */\n  pop\n  pop\n  pop\n  jump\t// out\n    /* \"#utility.yul\":6683:6800   */\ntag_56:\n    /* \"#utility.yul\":6737:6745   */\n  0x00\n    /* \"#utility.yul\":6787:6792   */\n  dup3\n    /* \"#utility.yul\":6781:6785   */\n  dup3\n    /* \"#utility.yul\":6777:6793   */\n  shr\n    /* \"#utility.yul\":6756:6793   */\n  swap1\n  pop\n    /* \"#utility.yul\":6683:6800   */\n  swap3\n  swap2\n  pop\n  pop\n  jump\t// out\n    /* \"#utility.yul\":6806:6975   */\ntag_57:\n    /* \"#utility.yul\":6850:6856   */\n  0x00\n    /* \"#utility.yul\":6883:6934   */\n  tag_149\n    /* \"#utility.yul\":6931:6932   */\n  0x00\n    /* \"#utility.yul\":6927:6933   */\n  not\n    /* \"#utility.yul\":6919:6924   */\n  dup5\n    /* \"#utility.yul\":6916:6917   */\n  0x08\n    /* \"#utility.yul\":6912:6925   */\n  mul\n    /* \"#utility.yul\":6883:6934   */\n  tag_56\n  jump\t// in\ntag_149:\n    /* \"#utility.yul\":6879:6935   */\n  not\n    /* \"#utility.yul\":6964:6968   */\n  dup1\n    /* \"#utility.yul\":6958:6962   */\n  dup4\n    /* \"#utility.yul\":6954:6969   */\n  and\n    /* \"#utility.yul\":6944:6969   */\n  swap2\n  pop\n    /* \"#utility.yul\":6857:6975   */\n  pop\n    /* \"#utility.yul\":6806:6975   */\n  swap3\n  swap2\n  pop\n  pop\n  jump\t// out\n    /* \"#utility.yul\":6980:7275   */\ntag_58:\n    /* \"#utility.yul\":7056:7060   */\n  0x00\n    /* \"#utility.yul\":7202:7231   */\n  tag_151\n    /* \"#utility.yul\":7227:7230   */\n  dup4\n    /* \"#utility.yul\":7221:7225   */\n  dup4\n    /* \"#utility.yul\":7202:7231   */\n  tag_57\n  jump\t// in\ntag_151:\n    /* \"#utility.yul\":7194:7231   */\n  swap2\n  pop\n    /* \"#utility.yul\":7264:7267   */\n  dup3\n    /* \"#utility.yul\":7261:7262   */\n  0x02\n    /* \"#utility.yul\":7257:7268   */\n  mul\n    /* \"#utility.yul\":7251:7255   */\n  dup3\n    /* \"#utility.yul\":7248:7269   */\n  or\n    /* \"#utility.yul\":7240:7269   */\n  swap1\n  pop\n    /* \"#utility.yul\":6980:7275   */\n  swap3\n  swap2\n  pop\n  pop\n  jump\t// out\n    /* \"#utility.yul\":7280:8675   */\ntag_7:\n    /* \"#utility.yul\":7397:7434   */\n  tag_153\n    /* \"#utility.yul\":7430:7433   */\n  dup3\n    /* \"#utility.yul\":7397:7434   */\n  tag_41\n  jump\t// in\ntag_153:\n    /* \"#utility.yul\":7499:7517   */\n  0xffffffffffffffff\n    /* \"#utility.yul\":7491:7497   */\n  dup2\n    /* \"#utility.yul\":7488:7518   */\n  gt\n    /* \"#utility.yul\":7485:7541   */\n  iszero\n  tag_154\n  jumpi\n    /* \"#utility.yul\":7521:7539   */\n  tag_155\n  tag_31\n  jump\t// in\ntag_155:\n    /* \"#utility.yul\":7485:7541   */\ntag_154:\n    /* \"#utility.yul\":7565:7603   */\n  tag_156\n    /* \"#utility.yul\":7597:7601   */\n  dup3\n    /* \"#utility.yul\":7591:7602   */\n  sload\n    /* \"#utility.yul\":7565:7603   */\n  tag_43\n  jump\t// in\ntag_156:\n    /* \"#utility.yul\":7650:7717   */\n  tag_157\n    /* \"#utility.yul\":7710:7716   */\n  dup3\n    /* \"#utility.yul\":7702:7708   */\n  dup3\n    /* \"#utility.yul\":7696:7700   */\n  dup6\n    /* \"#utility.yul\":7650:7717   */\n  tag_55\n  jump\t// in\ntag_157:\n    /* \"#utility.yul\":7744:7745   */\n  0x00\n    /* \"#utility.yul\":7768:7772   */\n  0x20\n    /* \"#utility.yul\":7755:7772   */\n  swap1\n  pop\n    /* \"#utility.yul\":7800:7802   */\n  0x1f\n    /* \"#utility.yul\":7792:7798   */\n  dup4\n    /* \"#utility.yul\":7789:7803   */\n  gt\n    /* \"#utility.yul\":7817:7818   */\n  0x01\n    /* \"#utility.yul\":7812:8430   */\n  dup2\n  eq\n  tag_159\n  jumpi\n    /* \"#utility.yul\":8474:8475   */\n  0x00\n    /* \"#utility.yul\":8491:8497   */\n  dup5\n    /* \"#utility.yul\":8488:8565   */\n  iszero\n  tag_160\n  jumpi\n    /* \"#utility.yul\":8540:8549   */\n  dup3\n    /* \"#utility.yul\":8535:8538   */\n  dup8\n    /* \"#utility.yul\":8531:8550   */\n  add\n    /* \"#utility.yul\":8525:8551   */\n  mload\n    /* \"#utility.yul\":8516:8551   */\n  swap1\n  pop\n    /* \"#utility.yul\":8488:8565   */\ntag_160:\n    /* \"#utility.yul\":8591:8658   */\n  tag_161\n    /* \"#utility.yul\":8651:8657   */\n  dup6\n    /* \"#utility.yul\":8644:8649   */\n  dup3\n    /* \"#utility.yul\":8591:8658   */\n  tag_58\n  jump\t// in\ntag_161:\n    /* \"#utility.yul\":8585:8589   */\n  dup7\n    /* \"#utility.yul\":8578:8659   */\n  sstore\n    /* \"#utility.yul\":8447:8669   */\n  pop\n    /* \"#utility.yul\":7782:8669   */\n  jump(tag_158)\n    /* \"#utility.yul\":7812:8430   */\ntag_159:\n    /* \"#utility.yul\":7864:7868   */\n  0x1f\n    /* \"#utility.yul\":7860:7869   */\n  not\n    /* \"#utility.yul\":7852:7858   */\n  dup5\n    /* \"#utility.yul\":7848:7870   */\n  and\n    /* \"#utility.yul\":7898:7935   */\n  tag_162\n    /* \"#utility.yul\":7930:7934   */\n  dup7\n    /* \"#utility.yul\":7898:7935   */\n  tag_44\n  jump\t// in\ntag_162:\n    /* \"#utility.yul\":7957:7958   */\n  0x00\n    /* \"#utility.yul\":7971:8179   */\ntag_163:\n    /* \"#utility.yul\":7985:7992   */\n  dup3\n    /* \"#utility.yul\":7982:7983   */\n  dup2\n    /* \"#utility.yul\":7979:7993   */\n  lt\n    /* \"#utility.yul\":7971:8179   */\n  iszero\n  tag_165\n  jumpi\n    /* \"#utility.yul\":8064:8073   */\n  dup5\n    /* \"#utility.yul\":8059:8062   */\n  dup10\n    /* \"#utility.yul\":8055:8074   */\n  add\n    /* \"#utility.yul\":8049:8075   */\n  mload\n    /* \"#utility.yul\":8041:8047   */\n  dup3\n    /* \"#utility.yul\":8034:8076   */\n  sstore\n    /* \"#utility.yul\":8115:8116   */\n  0x01\n    /* \"#utility.yul\":8107:8113   */\n  dup3\n    /* \"#utility.yul\":8103:8117   */\n  add\n    /* \"#utility.yul\":8093:8117   */\n  swap2\n  pop\n    /* \"#utility.yul\":8162:8164   */\n  0x20\n    /* \"#utility.yul\":8151:8160   */\n  dup6\n    /* \"#utility.yul\":8147:8165   */\n  add\n    /* \"#utility.yul\":8134:8165   */\n  swap5\n  pop\n    /* \"#utility.yul\":8008:8012   */\n  0x20\n    /* \"#utility.yul\":8005:8006   */\n  dup2\n    /* \"#utility.yul\":8001:8013   */\n  add\n    /* \"#utility.yul\":7996:8013   */\n  swap1\n  pop\n    /* \"#utility.yul\":7971:8179   */\n  jump(tag_163)\ntag_165:\n    /* \"#utility.yul\":8207:8213   */\n  dup7\n    /* \"#utility.yul\":8198:8205   */\n  dup4\n    /* \"#utility.yul\":8195:8214   */\n  lt\n    /* \"#utility.yul\":8192:8371   */\n  iszero\n  tag_166\n  jumpi\n    /* \"#utility.yul\":8265:8274   */\n  dup5\n    /* \"#utility.yul\":8260:8263   */\n  dup10\n    /* \"#utility.yul\":8256:8275   */\n  add\n    /* \"#utility.yul\":8250:8276   */\n  mload\n    /* \"#utility.yul\":8308:8356   */\n  tag_167\n    /* \"#utility.yul\":8350:8354   */\n  0x1f\n    /* \"#utility.yul\":8342:8348   */\n  dup10\n    /* \"#utility.yul\":8338:8355   */\n  and\n    /* \"#utility.yul\":8327:8336   */\n  dup3\n    /* \"#utility.yul\":8308:8356   */\n  tag_57\n  jump\t// in\ntag_167:\n    /* \"#utility.yul\":8300:8306   */\n  dup4\n    /* \"#utility.yul\":8293:8357   */\n  sstore\n    /* \"#utility.yul\":8215:8371   */\n  pop\n    /* \"#utility.yul\":8192:8371   */\ntag_166:\n    /* \"#utility.yul\":8417:8418   */\n  0x01\n    /* \"#utility.yul\":8413:8414   */\n  0x02\n    /* \"#utility.yul\":8405:8411   */\n  dup9\n    /* \"#utility.yul\":8401:8415   */\n  mul\n    /* \"#utility.yul\":8397:8419   */\n  add\n    /* \"#utility.yul\":8391:8395   */\n  dup9\n    /* \"#utility.yul\":8384:8420   */\n  sstore\n    /* \"#utility.yul\":7819:8430   */\n  pop\n  pop\n  pop\n    /* \"#utility.yul\":7782:8669   */\ntag_158:\n  pop\n    /* \"#utility.yul\":7372:8675   */\n  pop\n  pop\n  pop\n    /* \"#utility.yul\":7280:8675   */\n  pop\n  pop\n  jump\t// out\n    /* \"#utility.yul\":8681:8850   */\ntag_59:\n    /* \"#utility.yul\":8765:8776   */\n  0x00\n    /* \"#utility.yul\":8799:8805   */\n  dup3\n    /* \"#utility.yul\":8794:8797   */\n  dup3\n    /* \"#utility.yul\":8787:8806   */\n  mstore\n    /* \"#utility.yul\":8839:8843   */\n  0x20\n    /* \"#utility.yul\":8834:8837   */\n  dup3\n    /* \"#utility.yul\":8830:8844   */\n  add\n    /* \"#utility.yul\":8815:8844   */\n  swap1\n  pop\n    /* \"#utility.yul\":8681:8850   */\n  swap3\n  swap2\n  pop\n  pop\n  jump\t// out\n    /* \"#utility.yul\":8880:9711   */\ntag_60:\n    /* \"#utility.yul\":8965:8968   */\n  0x00\n    /* \"#utility.yul\":9002:9007   */\n  dup2\n    /* \"#utility.yul\":8996:9008   */\n  sload\n    /* \"#utility.yul\":9031:9067   */\n  tag_170\n    /* \"#utility.yul\":9057:9066   */\n  dup2\n    /* \"#utility.yul\":9031:9067   */\n  tag_43\n  jump\t// in\ntag_170:\n    /* \"#utility.yul\":9083:9154   */\n  tag_171\n    /* \"#utility.yul\":9147:9153   */\n  dup2\n    /* \"#utility.yul\":9142:9145   */\n  dup7\n    /* \"#utility.yul\":9083:9154   */\n  tag_59\n  jump\t// in\ntag_171:\n    /* \"#utility.yul\":9076:9154   */\n  swap5\n  pop\n    /* \"#utility.yul\":9185:9186   */\n  0x01\n    /* \"#utility.yul\":9174:9183   */\n  dup3\n    /* \"#utility.yul\":9170:9187   */\n  and\n    /* \"#utility.yul\":9201:9202   */\n  0x00\n    /* \"#utility.yul\":9196:9360   */\n  dup2\n  eq\n  tag_173\n  jumpi\n    /* \"#utility.yul\":9374:9375   */\n  0x01\n    /* \"#utility.yul\":9369:9705   */\n  dup2\n  eq\n  tag_174\n  jumpi\n    /* \"#utility.yul\":9163:9705   */\n  jump(tag_172)\n    /* \"#utility.yul\":9196:9360   */\ntag_173:\n    /* \"#utility.yul\":9280:9284   */\n  0xff\n    /* \"#utility.yul\":9276:9285   */\n  not\n    /* \"#utility.yul\":9265:9274   */\n  dup4\n    /* \"#utility.yul\":9261:9286   */\n  and\n    /* \"#utility.yul\":9256:9259   */\n  dup7\n    /* \"#utility.yul\":9249:9287   */\n  mstore\n    /* \"#utility.yul\":9340:9346   */\n  dup2\n    /* \"#utility.yul\":9333:9347   */\n  iszero\n    /* \"#utility.yul\":9326:9348   */\n  iszero\n    /* \"#utility.yul\":9320:9324   */\n  0x20\n    /* \"#utility.yul\":9316:9349   */\n  mul\n    /* \"#utility.yul\":9311:9314   */\n  dup7\n    /* \"#utility.yul\":9307:9350   */\n  add\n    /* \"#utility.yul\":9300:9350   */\n  swap4\n  pop\n    /* \"#utility.yul\":9196:9360   */\n  jump(tag_172)\n    /* \"#utility.yul\":9369:9705   */\ntag_174:\n    /* \"#utility.yul\":9436:9474   */\n  tag_175\n    /* \"#utility.yul\":9468:9473   */\n  dup6\n    /* \"#utility.yul\":9436:9474   */\n  tag_44\n  jump\t// in\ntag_175:\n    /* \"#utility.yul\":9496:9497   */\n  0x00\n    /* \"#utility.yul\":9510:9664   */\ntag_176:\n    /* \"#utility.yul\":9524:9530   */\n  dup4\n    /* \"#utility.yul\":9521:9522   */\n  dup2\n    /* \"#utility.yul\":9518:9531   */\n  lt\n    /* \"#utility.yul\":9510:9664   */\n  iszero\n  tag_178\n  jumpi\n    /* \"#utility.yul\":9598:9605   */\n  dup2\n    /* \"#utility.yul\":9592:9606   */\n  sload\n    /* \"#utility.yul\":9588:9589   */\n  dup2\n    /* \"#utility.yul\":9583:9586   */\n  dup10\n    /* \"#utility.yul\":9579:9590   */\n  add\n    /* \"#utility.yul\":9572:9607   */\n  mstore\n    /* \"#utility.yul\":9648:9649   */\n  0x01\n    /* \"#utility.yul\":9639:9646   */\n  dup3\n    /* \"#utility.yul\":9635:9650   */\n  add\n    /* \"#utility.yul\":9624:9650   */\n  swap2\n  pop\n    /* \"#utility.yul\":9546:9550   */\n  0x20\n    /* \"#utility.yul\":9543:9544   */\n  dup2\n    /* \"#utility.yul\":9539:9551   */\n  add\n    /* \"#utility.yul\":9534:9551   */\n  swap1\n  pop\n    /* \"#utility.yul\":9510:9664   */\n  jump(tag_176)\ntag_178:\n    /* \"#utility.yul\":9693:9694   */\n  dup1\n    /* \"#utility.yul\":9688:9691   */\n  dup9\n    /* \"#utility.yul\":9684:9695   */\n  add\n    /* \"#utility.yul\":9677:9695   */\n  swap6\n  pop\n    /* \"#utility.yul\":9376:9705   */\n  pop\n  pop\n    /* \"#utility.yul\":9163:9705   */\ntag_172:\n  pop\n    /* \"#utility.yul\":8969:9711   */\n  pop\n  pop\n    /* \"#utility.yul\":8880:9711   */\n  swap3\n  swap2\n  pop\n  pop\n  jump\t// out\n    /* \"#utility.yul\":9717:10024   */\ntag_13:\n    /* \"#utility.yul\":9827:9831   */\n  0x00\n    /* \"#utility.yul\":9865:9867   */\n  0x20\n    /* \"#utility.yul\":9854:9863   */\n  dup3\n    /* \"#utility.yul\":9850:9868   */\n  add\n    /* \"#utility.yul\":9842:9868   */\n  swap1\n  pop\n    /* \"#utility.yul\":9914:9923   */\n  dup2\n    /* \"#utility.yul\":9908:9912   */\n  dup2\n    /* \"#utility.yul\":9904:9924   */\n  sub\n    /* \"#utility.yul\":9900:9901   */\n  0x00\n    /* \"#utility.yul\":9889:9898   */\n  dup4\n    /* \"#utility.yul\":9885:9902   */\n  add\n    /* \"#utility.yul\":9878:9925   */\n  mstore\n    /* \"#utility.yul\":9942:10017   */\n  tag_180\n    /* \"#utility.yul\":10012:10016   */\n  dup2\n    /* \"#utility.yul\":10003:10009   */\n  dup5\n    /* \"#utility.yul\":9942:10017   */\n  tag_60\n  jump\t// in\ntag_180:\n    /* \"#utility.yul\":9934:10017   */\n  swap1\n  pop\n    /* \"#utility.yul\":9717:10024   */\n  swap3\n  swap2\n  pop\n  pop\n  jump\t// out\n    /* \"#utility.yul\":10030:10210   */\ntag_61:\n    /* \"#utility.yul\":10078:10155   */\n  0x4e487b7100000000000000000000000000000000000000000000000000000000\n    /* \"#utility.yul\":10075:10076   */\n  0x00\n    /* \"#utility.yul\":10068:10156   */\n  mstore\n    /* \"#utility.yul\":10175:10179   */\n  0x11\n    /* \"#utility.yul\":10172:10173   */\n  0x04\n    /* \"#utility.yul\":10165:10180   */\n  mstore\n    /* \"#utility.yul\":10199:10203   */\n  0x24\n    /* \"#utility.yul\":10196:10197   */\n  0x00\n    /* \"#utility.yul\":10189:10204   */\n  revert\n    /* \"#utility.yul\":10216:10407   */\ntag_15:\n    /* \"#utility.yul\":10256:10259   */\n  0x00\n    /* \"#utility.yul\":10275:10295   */\n  tag_183\n    /* \"#utility.yul\":10293:10294   */\n  dup3\n    /* \"#utility.yul\":10275:10295   */\n  tag_38\n  jump\t// in\ntag_183:\n    /* \"#utility.yul\":10270:10295   */\n  swap2\n  pop\n    /* \"#utility.yul\":10309:10329   */\n  tag_184\n    /* \"#utility.yul\":10327:10328   */\n  dup4\n    /* \"#utility.yul\":10309:10329   */\n  tag_38\n  jump\t// in\ntag_184:\n    /* \"#utility.yul\":10304:10329   */\n  swap3\n  pop\n    /* \"#utility.yul\":10352:10353   */\n  dup3\n    /* \"#utility.yul\":10349:10350   */\n  dup3\n    /* \"#utility.yul\":10345:10354   */\n  add\n    /* \"#utility.yul\":10338:10354   */\n  swap1\n  pop\n    /* \"#utility.yul\":10373:10376   */\n  dup1\n    /* \"#utility.yul\":10370:10371   */\n  dup3\n    /* \"#utility.yul\":10367:10377   */\n  gt\n    /* \"#utility.yul\":10364:10400   */\n  iszero\n  tag_185\n  jumpi\n    /* \"#utility.yul\":10380:10398   */\n  tag_186\n  tag_61\n  jump\t// in\ntag_186:\n    /* \"#utility.yul\":10364:10400   */\ntag_185:\n    /* \"#utility.yul\":10216:10407   */\n  swap3\n  swap2\n  pop\n  pop\n  jump\t// out\n    /* \"#utility.yul\":10413:10593   */\ntag_62:\n    /* \"#utility.yul\":10461:10538   */\n  0x4e487b7100000000000000000000000000000000000000000000000000000000\n    /* \"#utility.yul\":10458:10459   */\n  0x00\n    /* \"#utility.yul\":10451:10539   */\n  mstore\n    /* \"#utility.yul\":10558:10562   */\n  0x12\n    /* \"#utility.yul\":10555:10556   */\n  0x04\n    /* \"#utility.yul\":10548:10563   */\n  mstore\n    /* \"#utility.yul\":10582:10586   */\n  0x24\n    /* \"#utility.yul\":10579:10580   */\n  0x00\n    /* \"#utility.yul\":10572:10587   */\n  revert\n    /* \"#utility.yul\":10599:10784   */\ntag_19:\n    /* \"#utility.yul\":10639:10640   */\n  0x00\n    /* \"#utility.yul\":10656:10676   */\n  tag_189\n    /* \"#utility.yul\":10674:10675   */\n  dup3\n    /* \"#utility.yul\":10656:10676   */\n  tag_38\n  jump\t// in\ntag_189:\n    /* \"#utility.yul\":10651:10676   */\n  swap2\n  pop\n    /* \"#utility.yul\":10690:10710   */\n  tag_190\n    /* \"#utility.yul\":10708:10709   */\n  dup4\n    /* \"#utility.yul\":10690:10710   */\n  tag_38\n  jump\t// in\ntag_190:\n    /* \"#utility.yul\":10685:10710   */\n  swap3\n  pop\n    /* \"#utility.yul\":10729:10730   */\n  dup3\n    /* \"#utility.yul\":10719:10754   */\n  tag_191\n  jumpi\n    /* \"#utility.yul\":10734:10752   */\n  tag_192\n  tag_62\n  jump\t// in\ntag_192:\n    /* \"#utility.yul\":10719:10754   */\ntag_191:\n    /* \"#utility.yul\":10776:10777   */\n  dup3\n    /* \"#utility.yul\":10773:10774   */\n  dup3\n    /* \"#utility.yul\":10769:10778   */\n  div\n    /* \"#utility.yul\":10764:10778   */\n  swap1\n  pop\n    /* \"#utility.yul\":10599:10784   */\n  swap3\n  swap2\n  pop\n  pop\n  jump\t// out\n    /* \"#utility.yul\":10790:11200   */\ntag_21:\n    /* \"#utility.yul\":10830:10837   */\n  0x00\n    /* \"#utility.yul\":10853:10873   */\n  tag_194\n    /* \"#utility.yul\":10871:10872   */\n  dup3\n    /* \"#utility.yul\":10853:10873   */\n  tag_38\n  jump\t// in\ntag_194:\n    /* \"#utility.yul\":10848:10873   */\n  swap2\n  pop\n    /* \"#utility.yul\":10887:10907   */\n  tag_195\n    /* \"#utility.yul\":10905:10906   */\n  dup4\n    /* \"#utility.yul\":10887:10907   */\n  tag_38\n  jump\t// in\ntag_195:\n    /* \"#utility.yul\":10882:10907   */\n  swap3\n  pop\n    /* \"#utility.yul\":10942:10943   */\n  dup3\n    /* \"#utility.yul\":10939:10940   */\n  dup3\n    /* \"#utility.yul\":10935:10944   */\n  mul\n    /* \"#utility.yul\":10964:10994   */\n  tag_196\n    /* \"#utility.yul\":10982:10993   */\n  dup2\n    /* \"#utility.yul\":10964:10994   */\n  tag_38\n  jump\t// in\ntag_196:\n    /* \"#utility.yul\":10953:10994   */\n  swap2\n  pop\n    /* \"#utility.yul\":11143:11144   */\n  dup3\n    /* \"#utility.yul\":11134:11141   */\n  dup3\n    /* \"#utility.yul\":11130:11145   */\n  div\n    /* \"#utility.yul\":11127:11128   */\n  dup5\n    /* \"#utility.yul\":11124:11146   */\n  eq\n    /* \"#utility.yul\":11104:11105   */\n  dup4\n    /* \"#utility.yul\":11097:11106   */\n  iszero\n    /* \"#utility.yul\":11077:11160   */\n  or\n    /* \"#utility.yul\":11054:11193   */\n  tag_197\n  jumpi\n    /* \"#utility.yul\":11173:11191   */\n  tag_198\n  tag_61\n  jump\t// in\ntag_198:\n    /* \"#utility.yul\":11054:11193   */\ntag_197:\n    /* \"#utility.yul\":10838:11200   */\n  pop\n    /* \"#utility.yul\":10790:11200   */\n  swap3\n  swap2\n  pop\n  pop\n  jump\t// out\n    /* \"#utility.yul\":11206:11400   */\ntag_23:\n    /* \"#utility.yul\":11246:11250   */\n  0x00\n    /* \"#utility.yul\":11266:11286   */\n  tag_200\n    /* \"#utility.yul\":11284:11285   */\n  dup3\n    /* \"#utility.yul\":11266:11286   */\n  tag_38\n  jump\t// in\ntag_200:\n    /* \"#utility.yul\":11261:11286   */\n  swap2\n  pop\n    /* \"#utility.yul\":11300:11320   */\n  tag_201\n    /* \"#utility.yul\":11318:11319   */\n  dup4\n    /* \"#utility.yul\":11300:11320   */\n  tag_38\n  jump\t// in\ntag_201:\n    /* \"#utility.yul\":11295:11320   */\n  swap3\n  pop\n    /* \"#utility.yul\":11344:11345   */\n  dup3\n    /* \"#utility.yul\":11341:11342   */\n  dup3\n    /* \"#utility.yul\":11337:11346   */\n  sub\n    /* \"#utility.yul\":11329:11346   */\n  swap1\n  pop\n    /* \"#utility.yul\":11368:11369   */\n  dup2\n    /* \"#utility.yul\":11362:11366   */\n  dup2\n    /* \"#utility.yul\":11359:11370   */\n  gt\n    /* \"#utility.yul\":11356:11393   */\n  iszero\n  tag_202\n  jumpi\n    /* \"#utility.yul\":11373:11391   */\n  tag_203\n  tag_61\n  jump\t// in\ntag_203:\n    /* \"#utility.yul\":11356:11393   */\ntag_202:\n    /* \"#utility.yul\":11206:11400   */\n  swap3\n  swap2\n  pop\n  pop\n  jump\t// out\n    /* \"myLocalContracts/Chaper10/Ex10_1.sol\":63:2173  contract Ramdom{... */\ntag_10:\n  dataSize(sub_0)\n  dup1\n  dataOffset(sub_0)\n  0x00\n  codecopy\n  0x00\n  return\nstop\n\nsub_0: assembly {\n        /* \"myLocalContracts/Chaper10/Ex10_1.sol\":63:2173  contract Ramdom{... */\n      mstore(0x40, 0x80)\n      jumpi(tag_1, lt(calldatasize, 0x04))\n      shr(0xe0, calldataload(0x00))\n      dup1\n      0x9f8743f7\n      gt\n      tag_12\n      jumpi\n      dup1\n      0x9f8743f7\n      eq\n      tag_7\n      jumpi\n      dup1\n      0xa09fb9ce\n      eq\n      tag_8\n      jumpi\n      dup1\n      0xa86d2e19\n      eq\n      tag_9\n      jumpi\n      dup1\n      0xcf66b989\n      eq\n      tag_10\n      jumpi\n      dup1\n      0xf4d37e97\n      eq\n      tag_11\n      jumpi\n      jump(tag_2)\n    tag_12:\n      dup1\n      0x055204ed\n      eq\n      tag_3\n      jumpi\n      dup1\n      0x146ca531\n      eq\n      tag_4\n      jumpi\n      dup1\n      0x5ef5cc89\n      eq\n      tag_5\n      jumpi\n      dup1\n      0x8da5cb5b\n      eq\n      tag_6\n      jumpi\n      jump(tag_2)\n    tag_1:\n      jumpi(tag_2, calldatasize)\n        /* \"myLocalContracts/Chaper10/Ex10_1.sol\":811:817  10**16 */\n      0x2386f26fc10000\n        /* \"myLocalContracts/Chaper10/Ex10_1.sol\":798:807  msg.value */\n      callvalue\n        /* \"myLocalContracts/Chaper10/Ex10_1.sol\":798:817  msg.value == 10**16 */\n      eq\n        /* \"myLocalContracts/Chaper10/Ex10_1.sol\":790:839  require(msg.value == 10**16,\"Must be 0.01 ether\") */\n      tag_15\n      jumpi\n      mload(0x40)\n      0x08c379a000000000000000000000000000000000000000000000000000000000\n      dup2\n      mstore\n      0x04\n      add\n      tag_16\n      swap1\n      tag_17\n      jump\t// in\n    tag_16:\n      mload(0x40)\n      dup1\n      swap2\n      sub\n      swap1\n      revert\n    tag_15:\n        /* \"myLocalContracts/Chaper10/Ex10_1.sol\":896:901  false */\n      0x00\n        /* \"myLocalContracts/Chaper10/Ex10_1.sol\":858:901  paidAddressList[round][msg.sender] == false */\n      iszero\n      iszero\n        /* \"myLocalContracts/Chaper10/Ex10_1.sol\":858:873  paidAddressList */\n      0x00\n        /* \"myLocalContracts/Chaper10/Ex10_1.sol\":858:880  paidAddressList[round] */\n      dup1\n        /* \"myLocalContracts/Chaper10/Ex10_1.sol\":874:879  round */\n      sload(0x05)\n        /* \"myLocalContracts/Chaper10/Ex10_1.sol\":858:880  paidAddressList[round] */\n      dup2\n      mstore\n      0x20\n      add\n      swap1\n      dup2\n      mstore\n      0x20\n      add\n      0x00\n      keccak256\n        /* \"myLocalContracts/Chaper10/Ex10_1.sol\":858:892  paidAddressList[round][msg.sender] */\n      0x00\n        /* \"myLocalContracts/Chaper10/Ex10_1.sol\":881:891  msg.sender */\n      caller\n        /* \"myLocalContracts/Chaper10/Ex10_1.sol\":858:892  paidAddressList[round][msg.sender] */\n      0xffffffffffffffffffffffffffffffffffffffff\n      and\n      0xffffffffffffffffffffffffffffffffffffffff\n      and\n      dup2\n      mstore\n      0x20\n      add\n      swap1\n      dup2\n      mstore\n      0x20\n      add\n      0x00\n      keccak256\n      0x00\n      swap1\n      sload\n      swap1\n      0x0100\n      exp\n      swap1\n      div\n      0xff\n      and\n        /* \"myLocalContracts/Chaper10/Ex10_1.sol\":858:901  paidAddressList[round][msg.sender] == false */\n      iszero\n      iszero\n      eq\n        /* \"myLocalContracts/Chaper10/Ex10_1.sol\":850:929  require(paidAddressList[round][msg.sender] == false, \"Must be the first time.\") */\n      tag_18\n      jumpi\n      mload(0x40)\n      0x08c379a000000000000000000000000000000000000000000000000000000000\n      dup2\n      mstore\n      0x04\n      add\n      tag_19\n      swap1\n      tag_20\n      jump\t// in\n    tag_19:\n      mload(0x40)\n      dup1\n      swap2\n      sub\n      swap1\n      revert\n    tag_18:\n        /* \"myLocalContracts/Chaper10/Ex10_1.sol\":977:981  true */\n      0x01\n        /* \"myLocalContracts/Chaper10/Ex10_1.sol\":940:955  paidAddressList */\n      0x00\n        /* \"myLocalContracts/Chaper10/Ex10_1.sol\":940:962  paidAddressList[round] */\n      dup1\n        /* \"myLocalContracts/Chaper10/Ex10_1.sol\":956:961  round */\n      sload(0x05)\n        /* \"myLocalContracts/Chaper10/Ex10_1.sol\":940:962  paidAddressList[round] */\n      dup2\n      mstore\n      0x20\n      add\n      swap1\n      dup2\n      mstore\n      0x20\n      add\n      0x00\n      keccak256\n        /* \"myLocalContracts/Chaper10/Ex10_1.sol\":940:974  paidAddressList[round][msg.sender] */\n      0x00\n        /* \"myLocalContracts/Chaper10/Ex10_1.sol\":963:973  msg.sender */\n      caller\n        /* \"myLocalContracts/Chaper10/Ex10_1.sol\":940:974  paidAddressList[round][msg.sender] */\n      0xffffffffffffffffffffffffffffffffffffffff\n      and\n      0xffffffffffffffffffffffffffffffffffffffff\n      and\n      dup2\n      mstore\n      0x20\n      add\n      swap1\n      dup2\n      mstore\n      0x20\n      add\n      0x00\n      keccak256\n      0x00\n        /* \"myLocalContracts/Chaper10/Ex10_1.sol\":940:981  paidAddressList[round][msg.sender] = true */\n      0x0100\n      exp\n      dup2\n      sload\n      dup2\n      0xff\n      mul\n      not\n      and\n      swap1\n      dup4\n      iszero\n      iszero\n      mul\n      or\n      swap1\n      sstore\n      pop\n        /* \"myLocalContracts/Chaper10/Ex10_1.sol\":994:1004  palyNumber */\n      0x06\n      0x00\n        /* \"myLocalContracts/Chaper10/Ex10_1.sol\":992:1004  ++palyNumber */\n      dup2\n      sload\n      tag_21\n      swap1\n      tag_22\n      jump\t// in\n    tag_21:\n      swap2\n      swap1\n      pop\n      dup2\n      swap1\n      sstore\n      pop\n        /* \"myLocalContracts/Chaper10/Ex10_1.sol\":1034:1046  winnerNumber */\n      sload(0x02)\n        /* \"myLocalContracts/Chaper10/Ex10_1.sol\":1020:1030  palyNumber */\n      sload(0x06)\n        /* \"myLocalContracts/Chaper10/Ex10_1.sol\":1020:1046  palyNumber == winnerNumber */\n      sub\n        /* \"myLocalContracts/Chaper10/Ex10_1.sol\":1017:1391  if(palyNumber == winnerNumber){... */\n      tag_23\n      jumpi\n        /* \"myLocalContracts/Chaper10/Ex10_1.sol\":1063:1075  bool success */\n      0x00\n        /* \"myLocalContracts/Chaper10/Ex10_1.sol\":1080:1090  msg.sender */\n      caller\n        /* \"myLocalContracts/Chaper10/Ex10_1.sol\":1080:1095  msg.sender.call */\n      0xffffffffffffffffffffffffffffffffffffffff\n      and\n        /* \"myLocalContracts/Chaper10/Ex10_1.sol\":1102:1123  address(this).balance */\n      selfbalance\n        /* \"myLocalContracts/Chaper10/Ex10_1.sol\":1080:1128  msg.sender.call{value:address(this).balance}(\"\") */\n      mload(0x40)\n      tag_24\n      swap1\n      tag_25\n      jump\t// in\n    tag_24:\n      0x00\n      mload(0x40)\n      dup1\n      dup4\n      sub\n      dup2\n      dup6\n      dup8\n      gas\n      call\n      swap3\n      pop\n      pop\n      pop\n      returndatasize\n      dup1\n      0x00\n      dup2\n      eq\n      tag_28\n      jumpi\n      mload(0x40)\n      swap2\n      pop\n      and(add(returndatasize, 0x3f), not(0x1f))\n      dup3\n      add\n      0x40\n      mstore\n      returndatasize\n      dup3\n      mstore\n      returndatasize\n      0x00\n      0x20\n      dup5\n      add\n      returndatacopy\n      jump(tag_27)\n    tag_28:\n      0x60\n      swap2\n      pop\n    tag_27:\n      pop\n        /* \"myLocalContracts/Chaper10/Ex10_1.sol\":1062:1128  (bool success,) = msg.sender.call{value:address(this).balance}(\"\") */\n      pop\n      swap1\n      pop\n        /* \"myLocalContracts/Chaper10/Ex10_1.sol\":1151:1158  success */\n      dup1\n        /* \"myLocalContracts/Chaper10/Ex10_1.sol\":1143:1169  require(success, \"Failed\") */\n      tag_29\n      jumpi\n      mload(0x40)\n      0x08c379a000000000000000000000000000000000000000000000000000000000\n      dup2\n      mstore\n      0x04\n      add\n      tag_30\n      swap1\n      tag_31\n      jump\t// in\n    tag_30:\n      mload(0x40)\n      dup1\n      swap2\n      sub\n      swap1\n      revert\n    tag_29:\n        /* \"myLocalContracts/Chaper10/Ex10_1.sol\":1197:1198  0 */\n      0x00\n        /* \"myLocalContracts/Chaper10/Ex10_1.sol\":1184:1194  palyNumber */\n      0x06\n        /* \"myLocalContracts/Chaper10/Ex10_1.sol\":1184:1198  palyNumber = 0 */\n      dup2\n      swap1\n      sstore\n      pop\n        /* \"myLocalContracts/Chaper10/Ex10_1.sol\":1215:1220  round */\n      0x05\n      0x00\n        /* \"myLocalContracts/Chaper10/Ex10_1.sol\":1213:1220  ++round */\n      dup2\n      sload\n      tag_32\n      swap1\n      tag_22\n      jump\t// in\n    tag_32:\n      swap2\n      swap1\n      pop\n      dup2\n      swap1\n      sstore\n      pop\n        /* \"myLocalContracts/Chaper10/Ex10_1.sol\":1250:1264  randomNumber() */\n      tag_33\n        /* \"myLocalContracts/Chaper10/Ex10_1.sol\":1250:1262  randomNumber */\n      tag_34\n        /* \"myLocalContracts/Chaper10/Ex10_1.sol\":1250:1264  randomNumber() */\n      jump\t// in\n    tag_33:\n        /* \"myLocalContracts/Chaper10/Ex10_1.sol\":1235:1247  winnerNumber */\n      0x02\n        /* \"myLocalContracts/Chaper10/Ex10_1.sol\":1235:1264  winnerNumber = randomNumber() */\n      dup2\n      swap1\n      sstore\n      pop\n        /* \"myLocalContracts/Chaper10/Ex10_1.sol\":1298:1308  msg.sender */\n      caller\n        /* \"myLocalContracts/Chaper10/Ex10_1.sol\":1284:1309  WinnerAddress(msg.sender) */\n      0xffffffffffffffffffffffffffffffffffffffff\n      and\n      0xd7b5435fa0dd93954c7955210a67950d9385f8cd60631432712709e265ec99ca\n      mload(0x40)\n      mload(0x40)\n      dup1\n      swap2\n      sub\n      swap1\n      log2\n        /* \"myLocalContracts/Chaper10/Ex10_1.sol\":1047:1321  {... */\n      pop\n        /* \"myLocalContracts/Chaper10/Ex10_1.sol\":1017:1391  if(palyNumber == winnerNumber){... */\n      jump(tag_35)\n    tag_23:\n        /* \"myLocalContracts/Chaper10/Ex10_1.sol\":1357:1367  msg.sender */\n      caller\n        /* \"myLocalContracts/Chaper10/Ex10_1.sol\":1345:1379  PaidAddress(msg.sender, msg.value) */\n      0xffffffffffffffffffffffffffffffffffffffff\n      and\n      0x20384c35af44ae3e0536c765e1cee107339d7ca70b092472c816a3a62e4ba659\n        /* \"myLocalContracts/Chaper10/Ex10_1.sol\":1369:1378  msg.value */\n      callvalue\n        /* \"myLocalContracts/Chaper10/Ex10_1.sol\":1345:1379  PaidAddress(msg.sender, msg.value) */\n      mload(0x40)\n      tag_36\n      swap2\n      swap1\n      tag_37\n      jump\t// in\n    tag_36:\n      mload(0x40)\n      dup1\n      swap2\n      sub\n      swap1\n      log2\n        /* \"myLocalContracts/Chaper10/Ex10_1.sol\":1017:1391  if(palyNumber == winnerNumber){... */\n    tag_35:\n        /* \"myLocalContracts/Chaper10/Ex10_1.sol\":63:2173  contract Ramdom{... */\n      stop\n    tag_2:\n      0x00\n      dup1\n      revert\n        /* \"myLocalContracts/Chaper10/Ex10_1.sol\":2073:2170  function getbalanve() public view returns(uint256){... */\n    tag_3:\n      callvalue\n      dup1\n      iszero\n      tag_38\n      jumpi\n      0x00\n      dup1\n      revert\n    tag_38:\n      pop\n      tag_39\n      tag_40\n      jump\t// in\n    tag_39:\n      mload(0x40)\n      tag_41\n      swap2\n      swap1\n      tag_37\n      jump\t// in\n    tag_41:\n      mload(0x40)\n      dup1\n      swap2\n      sub\n      swap1\n      return\n        /* \"myLocalContracts/Chaper10/Ex10_1.sol\":514:535  uint public round = 1 */\n    tag_4:\n      callvalue\n      dup1\n      iszero\n      tag_42\n      jumpi\n      0x00\n      dup1\n      revert\n    tag_42:\n      pop\n      tag_43\n      tag_44\n      jump\t// in\n    tag_43:\n      mload(0x40)\n      tag_45\n      swap2\n      swap1\n      tag_37\n      jump\t// in\n    tag_45:\n      mload(0x40)\n      dup1\n      swap2\n      sub\n      swap1\n      return\n        /* \"myLocalContracts/Chaper10/Ex10_1.sol\":1618:1745  function setSecretKey(string memory _key1, uint _key2) public onlyOwner(){... */\n    tag_5:\n      callvalue\n      dup1\n      iszero\n      tag_46\n      jumpi\n      0x00\n      dup1\n      revert\n    tag_46:\n      pop\n      tag_47\n      0x04\n      dup1\n      calldatasize\n      sub\n      dup2\n      add\n      swap1\n      tag_48\n      swap2\n      swap1\n      tag_49\n      jump\t// in\n    tag_48:\n      tag_50\n      jump\t// in\n    tag_47:\n      stop\n        /* \"myLocalContracts/Chaper10/Ex10_1.sol\":401:421  address public owner */\n    tag_6:\n      callvalue\n      dup1\n      iszero\n      tag_51\n      jumpi\n      0x00\n      dup1\n      revert\n    tag_51:\n      pop\n      tag_52\n      tag_53\n      jump\t// in\n    tag_52:\n      mload(0x40)\n      tag_54\n      swap2\n      swap1\n      tag_55\n      jump\t// in\n    tag_54:\n      mload(0x40)\n      dup1\n      swap2\n      sub\n      swap1\n      return\n        /* \"myLocalContracts/Chaper10/Ex10_1.sol\":1986:2065  function getRound() public view returns(uint256){... */\n    tag_7:\n      callvalue\n      dup1\n      iszero\n      tag_56\n      jumpi\n      0x00\n      dup1\n      revert\n    tag_56:\n      pop\n      tag_57\n      tag_58\n      jump\t// in\n    tag_57:\n      mload(0x40)\n      tag_59\n      swap2\n      swap1\n      tag_37\n      jump\t// in\n    tag_59:\n      mload(0x40)\n      dup1\n      swap2\n      sub\n      swap1\n      return\n        /* \"myLocalContracts/Chaper10/Ex10_1.sol\":542:568  uint public palyNumber = 0 */\n    tag_8:\n      callvalue\n      dup1\n      iszero\n      tag_60\n      jumpi\n      0x00\n      dup1\n      revert\n    tag_60:\n      pop\n      tag_61\n      tag_62\n      jump\t// in\n    tag_61:\n      mload(0x40)\n      tag_63\n      swap2\n      swap1\n      tag_37\n      jump\t// in\n    tag_63:\n      mload(0x40)\n      dup1\n      swap2\n      sub\n      swap1\n      return\n        /* \"myLocalContracts/Chaper10/Ex10_1.sol\":1873:1978  function getWinnerNumber() public view onlyOwner() returns(uint256){... */\n    tag_9:\n      callvalue\n      dup1\n      iszero\n      tag_64\n      jumpi\n      0x00\n      dup1\n      revert\n    tag_64:\n      pop\n      tag_65\n      tag_66\n      jump\t// in\n    tag_65:\n      mload(0x40)\n      tag_67\n      swap2\n      swap1\n      tag_37\n      jump\t// in\n    tag_67:\n      mload(0x40)\n      dup1\n      swap2\n      sub\n      swap1\n      return\n        /* \"myLocalContracts/Chaper10/Ex10_1.sol\":325:392  mapping (uint256=> mapping(address => bool)) public paidAddressList */\n    tag_10:\n      callvalue\n      dup1\n      iszero\n      tag_68\n      jumpi\n      0x00\n      dup1\n      revert\n    tag_68:\n      pop\n      tag_69\n      0x04\n      dup1\n      calldatasize\n      sub\n      dup2\n      add\n      swap1\n      tag_70\n      swap2\n      swap1\n      tag_71\n      jump\t// in\n    tag_70:\n      tag_72\n      jump\t// in\n    tag_69:\n      mload(0x40)\n      tag_73\n      swap2\n      swap1\n      tag_74\n      jump\t// in\n    tag_73:\n      mload(0x40)\n      dup1\n      swap2\n      sub\n      swap1\n      return\n        /* \"myLocalContracts/Chaper10/Ex10_1.sol\":1753:1865  function getSeretKey() public view onlyOwner() returns(string memory, uint){... */\n    tag_11:\n      callvalue\n      dup1\n      iszero\n      tag_75\n      jumpi\n      0x00\n      dup1\n      revert\n    tag_75:\n      pop\n      tag_76\n      tag_77\n      jump\t// in\n    tag_76:\n      mload(0x40)\n      tag_78\n      swap3\n      swap2\n      swap1\n      tag_79\n      jump\t// in\n    tag_78:\n      mload(0x40)\n      dup1\n      swap2\n      sub\n      swap1\n      return\n        /* \"myLocalContracts/Chaper10/Ex10_1.sol\":1406:1610  function randomNumber() private view returns(uint){... */\n    tag_34:\n        /* \"myLocalContracts/Chaper10/Ex10_1.sol\":1451:1455  uint */\n      0x00\n        /* \"myLocalContracts/Chaper10/Ex10_1.sol\":1467:1475  uint num */\n      dup1\n        /* \"myLocalContracts/Chaper10/Ex10_1.sol\":1542:1554  block.number */\n      number\n        /* \"myLocalContracts/Chaper10/Ex10_1.sol\":1522:1537  block.timestamp */\n      timestamp\n        /* \"myLocalContracts/Chaper10/Ex10_1.sol\":1514:1518  key2 */\n      sload(0x04)\n        /* \"myLocalContracts/Chaper10/Ex10_1.sol\":1504:1508  key1 */\n      0x03\n        /* \"myLocalContracts/Chaper10/Ex10_1.sol\":1493:1509  abi.encode(key1) */\n      add(0x20, mload(0x40))\n      tag_81\n      swap2\n      swap1\n      tag_82\n      jump\t// in\n    tag_81:\n      mload(0x40)\n      0x20\n      dup2\n      dup4\n      sub\n      sub\n      dup2\n      mstore\n      swap1\n      0x40\n      mstore\n        /* \"myLocalContracts/Chaper10/Ex10_1.sol\":1483:1510  keccak256(abi.encode(key1)) */\n      dup1\n      mload\n      swap1\n      0x20\n      add\n      keccak256\n        /* \"myLocalContracts/Chaper10/Ex10_1.sol\":1478:1511  uint(keccak256(abi.encode(key1))) */\n      0x00\n      shr\n        /* \"myLocalContracts/Chaper10/Ex10_1.sol\":1478:1518  uint(keccak256(abi.encode(key1))) + key2 */\n      tag_83\n      swap2\n      swap1\n      tag_84\n      jump\t// in\n    tag_83:\n        /* \"myLocalContracts/Chaper10/Ex10_1.sol\":1478:1538  uint(keccak256(abi.encode(key1))) + key2 + (block.timestamp) */\n      tag_85\n      swap2\n      swap1\n      tag_84\n      jump\t// in\n    tag_85:\n        /* \"myLocalContracts/Chaper10/Ex10_1.sol\":1478:1555  uint(keccak256(abi.encode(key1))) + key2 + (block.timestamp) + (block.number) */\n      tag_86\n      swap2\n      swap1\n      tag_84\n      jump\t// in\n    tag_86:\n        /* \"myLocalContracts/Chaper10/Ex10_1.sol\":1467:1555  uint num = uint(keccak256(abi.encode(key1))) + key2 + (block.timestamp) + (block.number) */\n      swap1\n      pop\n        /* \"myLocalContracts/Chaper10/Ex10_1.sol\":1601:1602  1 */\n      0x01\n        /* \"myLocalContracts/Chaper10/Ex10_1.sol\":1594:1596  10 */\n      0x0a\n        /* \"myLocalContracts/Chaper10/Ex10_1.sol\":1588:1590  10 */\n      dup1\n        /* \"myLocalContracts/Chaper10/Ex10_1.sol\":1582:1585  num */\n      dup4\n        /* \"myLocalContracts/Chaper10/Ex10_1.sol\":1582:1590  num / 10 */\n      tag_87\n      swap2\n      swap1\n      tag_88\n      jump\t// in\n    tag_87:\n        /* \"myLocalContracts/Chaper10/Ex10_1.sol\":1581:1596  (num / 10) * 10 */\n      tag_89\n      swap2\n      swap1\n      tag_90\n      jump\t// in\n    tag_89:\n        /* \"myLocalContracts/Chaper10/Ex10_1.sol\":1574:1577  num */\n      dup3\n        /* \"myLocalContracts/Chaper10/Ex10_1.sol\":1574:1597  num - ((num / 10) * 10) */\n      tag_91\n      swap2\n      swap1\n      tag_92\n      jump\t// in\n    tag_91:\n        /* \"myLocalContracts/Chaper10/Ex10_1.sol\":1573:1602  (num - ((num / 10) * 10)) + 1 */\n      tag_93\n      swap2\n      swap1\n      tag_84\n      jump\t// in\n    tag_93:\n        /* \"myLocalContracts/Chaper10/Ex10_1.sol\":1566:1602  return (num - ((num / 10) * 10)) + 1 */\n      swap2\n      pop\n      pop\n        /* \"myLocalContracts/Chaper10/Ex10_1.sol\":1406:1610  function randomNumber() private view returns(uint){... */\n      swap1\n      jump\t// out\n        /* \"myLocalContracts/Chaper10/Ex10_1.sol\":2073:2170  function getbalanve() public view returns(uint256){... */\n    tag_40:\n        /* \"myLocalContracts/Chaper10/Ex10_1.sol\":2115:2122  uint256 */\n      0x00\n        /* \"myLocalContracts/Chaper10/Ex10_1.sol\":2141:2162  address(this).balance */\n      selfbalance\n        /* \"myLocalContracts/Chaper10/Ex10_1.sol\":2134:2162  return address(this).balance */\n      swap1\n      pop\n        /* \"myLocalContracts/Chaper10/Ex10_1.sol\":2073:2170  function getbalanve() public view returns(uint256){... */\n      swap1\n      jump\t// out\n        /* \"myLocalContracts/Chaper10/Ex10_1.sol\":514:535  uint public round = 1 */\n    tag_44:\n      sload(0x05)\n      dup2\n      jump\t// out\n        /* \"myLocalContracts/Chaper10/Ex10_1.sol\":1618:1745  function setSecretKey(string memory _key1, uint _key2) public onlyOwner(){... */\n    tag_50:\n        /* \"myLocalContracts/Chaper10/Ex10_1.sol\":255:260  owner */\n      0x01\n      0x00\n      swap1\n      sload\n      swap1\n      0x0100\n      exp\n      swap1\n      div\n      0xffffffffffffffffffffffffffffffffffffffff\n      and\n        /* \"myLocalContracts/Chaper10/Ex10_1.sol\":241:260  msg.sender == owner */\n      0xffffffffffffffffffffffffffffffffffffffff\n      and\n        /* \"myLocalContracts/Chaper10/Ex10_1.sol\":241:251  msg.sender */\n      caller\n        /* \"myLocalContracts/Chaper10/Ex10_1.sol\":241:260  msg.sender == owner */\n      0xffffffffffffffffffffffffffffffffffffffff\n      and\n      eq\n        /* \"myLocalContracts/Chaper10/Ex10_1.sol\":233:297  require(msg.sender == owner, \"Ownable: caller is not the Owner\") */\n      tag_96\n      jumpi\n      mload(0x40)\n      0x08c379a000000000000000000000000000000000000000000000000000000000\n      dup2\n      mstore\n      0x04\n      add\n      tag_97\n      swap1\n      tag_98\n      jump\t// in\n    tag_97:\n      mload(0x40)\n      dup1\n      swap2\n      sub\n      swap1\n      revert\n    tag_96:\n        /* \"myLocalContracts/Chaper10/Ex10_1.sol\":1709:1714  _key1 */\n      dup2\n        /* \"myLocalContracts/Chaper10/Ex10_1.sol\":1702:1706  key1 */\n      0x03\n        /* \"myLocalContracts/Chaper10/Ex10_1.sol\":1702:1714  key1 = _key1 */\n      swap1\n      dup2\n      tag_100\n      swap2\n      swap1\n      tag_101\n      jump\t// in\n    tag_100:\n      pop\n        /* \"myLocalContracts/Chaper10/Ex10_1.sol\":1732:1737  _key2 */\n      dup1\n        /* \"myLocalContracts/Chaper10/Ex10_1.sol\":1725:1729  key2 */\n      0x04\n        /* \"myLocalContracts/Chaper10/Ex10_1.sol\":1725:1737  key2 = _key2 */\n      dup2\n      swap1\n      sstore\n      pop\n        /* \"myLocalContracts/Chaper10/Ex10_1.sol\":1618:1745  function setSecretKey(string memory _key1, uint _key2) public onlyOwner(){... */\n      pop\n      pop\n      jump\t// out\n        /* \"myLocalContracts/Chaper10/Ex10_1.sol\":401:421  address public owner */\n    tag_53:\n      0x01\n      0x00\n      swap1\n      sload\n      swap1\n      0x0100\n      exp\n      swap1\n      div\n      0xffffffffffffffffffffffffffffffffffffffff\n      and\n      dup2\n      jump\t// out\n        /* \"myLocalContracts/Chaper10/Ex10_1.sol\":1986:2065  function getRound() public view returns(uint256){... */\n    tag_58:\n        /* \"myLocalContracts/Chaper10/Ex10_1.sol\":2026:2033  uint256 */\n      0x00\n        /* \"myLocalContracts/Chaper10/Ex10_1.sol\":2052:2057  round */\n      sload(0x05)\n        /* \"myLocalContracts/Chaper10/Ex10_1.sol\":2045:2057  return round */\n      swap1\n      pop\n        /* \"myLocalContracts/Chaper10/Ex10_1.sol\":1986:2065  function getRound() public view returns(uint256){... */\n      swap1\n      jump\t// out\n        /* \"myLocalContracts/Chaper10/Ex10_1.sol\":542:568  uint public palyNumber = 0 */\n    tag_62:\n      sload(0x06)\n      dup2\n      jump\t// out\n        /* \"myLocalContracts/Chaper10/Ex10_1.sol\":1873:1978  function getWinnerNumber() public view onlyOwner() returns(uint256){... */\n    tag_66:\n        /* \"myLocalContracts/Chaper10/Ex10_1.sol\":1932:1939  uint256 */\n      0x00\n        /* \"myLocalContracts/Chaper10/Ex10_1.sol\":255:260  owner */\n      0x01\n      0x00\n      swap1\n      sload\n      swap1\n      0x0100\n      exp\n      swap1\n      div\n      0xffffffffffffffffffffffffffffffffffffffff\n      and\n        /* \"myLocalContracts/Chaper10/Ex10_1.sol\":241:260  msg.sender == owner */\n      0xffffffffffffffffffffffffffffffffffffffff\n      and\n        /* \"myLocalContracts/Chaper10/Ex10_1.sol\":241:251  msg.sender */\n      caller\n        /* \"myLocalContracts/Chaper10/Ex10_1.sol\":241:260  msg.sender == owner */\n      0xffffffffffffffffffffffffffffffffffffffff\n      and\n      eq\n        /* \"myLocalContracts/Chaper10/Ex10_1.sol\":233:297  require(msg.sender == owner, \"Ownable: caller is not the Owner\") */\n      tag_104\n      jumpi\n      mload(0x40)\n      0x08c379a000000000000000000000000000000000000000000000000000000000\n      dup2\n      mstore\n      0x04\n      add\n      tag_105\n      swap1\n      tag_98\n      jump\t// in\n    tag_105:\n      mload(0x40)\n      dup1\n      swap2\n      sub\n      swap1\n      revert\n    tag_104:\n        /* \"myLocalContracts/Chaper10/Ex10_1.sol\":1958:1970  winnerNumber */\n      sload(0x02)\n        /* \"myLocalContracts/Chaper10/Ex10_1.sol\":1951:1970  return winnerNumber */\n      swap1\n      pop\n        /* \"myLocalContracts/Chaper10/Ex10_1.sol\":1873:1978  function getWinnerNumber() public view onlyOwner() returns(uint256){... */\n      swap1\n      jump\t// out\n        /* \"myLocalContracts/Chaper10/Ex10_1.sol\":325:392  mapping (uint256=> mapping(address => bool)) public paidAddressList */\n    tag_72:\n      mstore(0x20, 0x00)\n      dup2\n      0x00\n      mstore\n      mstore(0x20, keccak256(0x00, 0x40))\n      dup1\n      0x00\n      mstore\n      keccak256(0x00, 0x40)\n      0x00\n      swap2\n      pop\n      swap2\n      pop\n      swap1\n      sload\n      swap1\n      0x0100\n      exp\n      swap1\n      div\n      0xff\n      and\n      dup2\n      jump\t// out\n        /* \"myLocalContracts/Chaper10/Ex10_1.sol\":1753:1865  function getSeretKey() public view onlyOwner() returns(string memory, uint){... */\n    tag_77:\n        /* \"myLocalContracts/Chaper10/Ex10_1.sol\":1808:1821  string memory */\n      0x60\n        /* \"myLocalContracts/Chaper10/Ex10_1.sol\":1823:1827  uint */\n      0x00\n        /* \"myLocalContracts/Chaper10/Ex10_1.sol\":255:260  owner */\n      0x01\n      0x00\n      swap1\n      sload\n      swap1\n      0x0100\n      exp\n      swap1\n      div\n      0xffffffffffffffffffffffffffffffffffffffff\n      and\n        /* \"myLocalContracts/Chaper10/Ex10_1.sol\":241:260  msg.sender == owner */\n      0xffffffffffffffffffffffffffffffffffffffff\n      and\n        /* \"myLocalContracts/Chaper10/Ex10_1.sol\":241:251  msg.sender */\n      caller\n        /* \"myLocalContracts/Chaper10/Ex10_1.sol\":241:260  msg.sender == owner */\n      0xffffffffffffffffffffffffffffffffffffffff\n      and\n      eq\n        /* \"myLocalContracts/Chaper10/Ex10_1.sol\":233:297  require(msg.sender == owner, \"Ownable: caller is not the Owner\") */\n      tag_108\n      jumpi\n      mload(0x40)\n      0x08c379a000000000000000000000000000000000000000000000000000000000\n      dup2\n      mstore\n      0x04\n      add\n      tag_109\n      swap1\n      tag_98\n      jump\t// in\n    tag_109:\n      mload(0x40)\n      dup1\n      swap2\n      sub\n      swap1\n      revert\n    tag_108:\n        /* \"myLocalContracts/Chaper10/Ex10_1.sol\":1846:1850  key1 */\n      0x03\n        /* \"myLocalContracts/Chaper10/Ex10_1.sol\":1852:1856  key2 */\n      sload(0x04)\n        /* \"myLocalContracts/Chaper10/Ex10_1.sol\":1839:1857  return(key1, key2) */\n      dup2\n      dup1\n      sload\n      tag_111\n      swap1\n      tag_112\n      jump\t// in\n    tag_111:\n      dup1\n      0x1f\n      add\n      0x20\n      dup1\n      swap2\n      div\n      mul\n      0x20\n      add\n      mload(0x40)\n      swap1\n      dup2\n      add\n      0x40\n      mstore\n      dup1\n      swap3\n      swap2\n      swap1\n      dup2\n      dup2\n      mstore\n      0x20\n      add\n      dup3\n      dup1\n      sload\n      tag_113\n      swap1\n      tag_112\n      jump\t// in\n    tag_113:\n      dup1\n      iszero\n      tag_114\n      jumpi\n      dup1\n      0x1f\n      lt\n      tag_115\n      jumpi\n      0x0100\n      dup1\n      dup4\n      sload\n      div\n      mul\n      dup4\n      mstore\n      swap2\n      0x20\n      add\n      swap2\n      jump(tag_114)\n    tag_115:\n      dup3\n      add\n      swap2\n      swap1\n      0x00\n      mstore\n      keccak256(0x00, 0x20)\n      swap1\n    tag_116:\n      dup2\n      sload\n      dup2\n      mstore\n      swap1\n      0x01\n      add\n      swap1\n      0x20\n      add\n      dup1\n      dup4\n      gt\n      tag_116\n      jumpi\n      dup3\n      swap1\n      sub\n      0x1f\n      and\n      dup3\n      add\n      swap2\n    tag_114:\n      pop\n      pop\n      pop\n      pop\n      pop\n      swap2\n      pop\n      swap2\n      pop\n      swap2\n      pop\n        /* \"myLocalContracts/Chaper10/Ex10_1.sol\":1753:1865  function getSeretKey() public view onlyOwner() returns(string memory, uint){... */\n      swap1\n      swap2\n      jump\t// out\n        /* \"#utility.yul\":7:176   */\n    tag_117:\n        /* \"#utility.yul\":91:102   */\n      0x00\n        /* \"#utility.yul\":125:131   */\n      dup3\n        /* \"#utility.yul\":120:123   */\n      dup3\n        /* \"#utility.yul\":113:132   */\n      mstore\n        /* \"#utility.yul\":165:169   */\n      0x20\n        /* \"#utility.yul\":160:163   */\n      dup3\n        /* \"#utility.yul\":156:170   */\n      add\n        /* \"#utility.yul\":141:170   */\n      swap1\n      pop\n        /* \"#utility.yul\":7:176   */\n      swap3\n      swap2\n      pop\n      pop\n      jump\t// out\n        /* \"#utility.yul\":182:350   */\n    tag_118:\n        /* \"#utility.yul\":322:342   */\n      0x4d75737420626520302e30312065746865720000000000000000000000000000\n        /* \"#utility.yul\":318:319   */\n      0x00\n        /* \"#utility.yul\":310:316   */\n      dup3\n        /* \"#utility.yul\":306:320   */\n      add\n        /* \"#utility.yul\":299:343   */\n      mstore\n        /* \"#utility.yul\":182:350   */\n      pop\n      jump\t// out\n        /* \"#utility.yul\":356:722   */\n    tag_119:\n        /* \"#utility.yul\":498:501   */\n      0x00\n        /* \"#utility.yul\":519:586   */\n      tag_179\n        /* \"#utility.yul\":583:585   */\n      0x12\n        /* \"#utility.yul\":578:581   */\n      dup4\n        /* \"#utility.yul\":519:586   */\n      tag_117\n      jump\t// in\n    tag_179:\n        /* \"#utility.yul\":512:586   */\n      swap2\n      pop\n        /* \"#utility.yul\":595:688   */\n      tag_180\n        /* \"#utility.yul\":684:687   */\n      dup3\n        /* \"#utility.yul\":595:688   */\n      tag_118\n      jump\t// in\n    tag_180:\n        /* \"#utility.yul\":713:715   */\n      0x20\n        /* \"#utility.yul\":708:711   */\n      dup3\n        /* \"#utility.yul\":704:716   */\n      add\n        /* \"#utility.yul\":697:716   */\n      swap1\n      pop\n        /* \"#utility.yul\":356:722   */\n      swap2\n      swap1\n      pop\n      jump\t// out\n        /* \"#utility.yul\":728:1147   */\n    tag_17:\n        /* \"#utility.yul\":894:898   */\n      0x00\n        /* \"#utility.yul\":932:934   */\n      0x20\n        /* \"#utility.yul\":921:930   */\n      dup3\n        /* \"#utility.yul\":917:935   */\n      add\n        /* \"#utility.yul\":909:935   */\n      swap1\n      pop\n        /* \"#utility.yul\":981:990   */\n      dup2\n        /* \"#utility.yul\":975:979   */\n      dup2\n        /* \"#utility.yul\":971:991   */\n      sub\n        /* \"#utility.yul\":967:968   */\n      0x00\n        /* \"#utility.yul\":956:965   */\n      dup4\n        /* \"#utility.yul\":952:969   */\n      add\n        /* \"#utility.yul\":945:992   */\n      mstore\n        /* \"#utility.yul\":1009:1140   */\n      tag_182\n        /* \"#utility.yul\":1135:1139   */\n      dup2\n        /* \"#utility.yul\":1009:1140   */\n      tag_119\n      jump\t// in\n    tag_182:\n        /* \"#utility.yul\":1001:1140   */\n      swap1\n      pop\n        /* \"#utility.yul\":728:1147   */\n      swap2\n      swap1\n      pop\n      jump\t// out\n        /* \"#utility.yul\":1153:1326   */\n    tag_120:\n        /* \"#utility.yul\":1293:1318   */\n      0x4d757374206265207468652066697273742074696d652e000000000000000000\n        /* \"#utility.yul\":1289:1290   */\n      0x00\n        /* \"#utility.yul\":1281:1287   */\n      dup3\n        /* \"#utility.yul\":1277:1291   */\n      add\n        /* \"#utility.yul\":1270:1319   */\n      mstore\n        /* \"#utility.yul\":1153:1326   */\n      pop\n      jump\t// out\n        /* \"#utility.yul\":1332:1698   */\n    tag_121:\n        /* \"#utility.yul\":1474:1477   */\n      0x00\n        /* \"#utility.yul\":1495:1562   */\n      tag_185\n        /* \"#utility.yul\":1559:1561   */\n      0x17\n        /* \"#utility.yul\":1554:1557   */\n      dup4\n        /* \"#utility.yul\":1495:1562   */\n      tag_117\n      jump\t// in\n    tag_185:\n        /* \"#utility.yul\":1488:1562   */\n      swap2\n      pop\n        /* \"#utility.yul\":1571:1664   */\n      tag_186\n        /* \"#utility.yul\":1660:1663   */\n      dup3\n        /* \"#utility.yul\":1571:1664   */\n      tag_120\n      jump\t// in\n    tag_186:\n        /* \"#utility.yul\":1689:1691   */\n      0x20\n        /* \"#utility.yul\":1684:1687   */\n      dup3\n        /* \"#utility.yul\":1680:1692   */\n      add\n        /* \"#utility.yul\":1673:1692   */\n      swap1\n      pop\n        /* \"#utility.yul\":1332:1698   */\n      swap2\n      swap1\n      pop\n      jump\t// out\n        /* \"#utility.yul\":1704:2123   */\n    tag_20:\n        /* \"#utility.yul\":1870:1874   */\n      0x00\n        /* \"#utility.yul\":1908:1910   */\n      0x20\n        /* \"#utility.yul\":1897:1906   */\n      dup3\n        /* \"#utility.yul\":1893:1911   */\n      add\n        /* \"#utility.yul\":1885:1911   */\n      swap1\n      pop\n        /* \"#utility.yul\":1957:1966   */\n      dup2\n        /* \"#utility.yul\":1951:1955   */\n      dup2\n        /* \"#utility.yul\":1947:1967   */\n      sub\n        /* \"#utility.yul\":1943:1944   */\n      0x00\n        /* \"#utility.yul\":1932:1941   */\n      dup4\n        /* \"#utility.yul\":1928:1945   */\n      add\n        /* \"#utility.yul\":1921:1968   */\n      mstore\n        /* \"#utility.yul\":1985:2116   */\n      tag_188\n        /* \"#utility.yul\":2111:2115   */\n      dup2\n        /* \"#utility.yul\":1985:2116   */\n      tag_121\n      jump\t// in\n    tag_188:\n        /* \"#utility.yul\":1977:2116   */\n      swap1\n      pop\n        /* \"#utility.yul\":1704:2123   */\n      swap2\n      swap1\n      pop\n      jump\t// out\n        /* \"#utility.yul\":2129:2309   */\n    tag_122:\n        /* \"#utility.yul\":2177:2254   */\n      0x4e487b7100000000000000000000000000000000000000000000000000000000\n        /* \"#utility.yul\":2174:2175   */\n      0x00\n        /* \"#utility.yul\":2167:2255   */\n      mstore\n        /* \"#utility.yul\":2274:2278   */\n      0x11\n        /* \"#utility.yul\":2271:2272   */\n      0x04\n        /* \"#utility.yul\":2264:2279   */\n      mstore\n        /* \"#utility.yul\":2298:2302   */\n      0x24\n        /* \"#utility.yul\":2295:2296   */\n      0x00\n        /* \"#utility.yul\":2288:2303   */\n      revert\n        /* \"#utility.yul\":2315:2392   */\n    tag_123:\n        /* \"#utility.yul\":2352:2359   */\n      0x00\n        /* \"#utility.yul\":2381:2386   */\n      dup2\n        /* \"#utility.yul\":2370:2386   */\n      swap1\n      pop\n        /* \"#utility.yul\":2315:2392   */\n      swap2\n      swap1\n      pop\n      jump\t// out\n        /* \"#utility.yul\":2398:2631   */\n    tag_22:\n        /* \"#utility.yul\":2437:2440   */\n      0x00\n        /* \"#utility.yul\":2460:2484   */\n      tag_192\n        /* \"#utility.yul\":2478:2483   */\n      dup3\n        /* \"#utility.yul\":2460:2484   */\n      tag_123\n      jump\t// in\n    tag_192:\n        /* \"#utility.yul\":2451:2484   */\n      swap2\n      pop\n        /* \"#utility.yul\":2506:2572   */\n      0xffffffffffffffffffffffffffffffffffffffffffffffffffffffffffffffff\n        /* \"#utility.yul\":2499:2504   */\n      dup3\n        /* \"#utility.yul\":2496:2573   */\n      sub\n        /* \"#utility.yul\":2493:2596   */\n      tag_193\n      jumpi\n        /* \"#utility.yul\":2576:2594   */\n      tag_194\n      tag_122\n      jump\t// in\n    tag_194:\n        /* \"#utility.yul\":2493:2596   */\n    tag_193:\n        /* \"#utility.yul\":2623:2624   */\n      0x01\n        /* \"#utility.yul\":2616:2621   */\n      dup3\n        /* \"#utility.yul\":2612:2625   */\n      add\n        /* \"#utility.yul\":2605:2625   */\n      swap1\n      pop\n        /* \"#utility.yul\":2398:2631   */\n      swap2\n      swap1\n      pop\n      jump\t// out\n        /* \"#utility.yul\":2637:2784   */\n    tag_124:\n        /* \"#utility.yul\":2738:2749   */\n      0x00\n        /* \"#utility.yul\":2775:2778   */\n      dup2\n        /* \"#utility.yul\":2760:2778   */\n      swap1\n      pop\n        /* \"#utility.yul\":2637:2784   */\n      swap3\n      swap2\n      pop\n      pop\n      jump\t// out\n        /* \"#utility.yul\":2790:2904   */\n    tag_125:\n      pop\n      jump\t// out\n        /* \"#utility.yul\":2910:3308   */\n    tag_126:\n        /* \"#utility.yul\":3069:3072   */\n      0x00\n        /* \"#utility.yul\":3090:3173   */\n      tag_198\n        /* \"#utility.yul\":3171:3172   */\n      0x00\n        /* \"#utility.yul\":3166:3169   */\n      dup4\n        /* \"#utility.yul\":3090:3173   */\n      tag_124\n      jump\t// in\n    tag_198:\n        /* \"#utility.yul\":3083:3173   */\n      swap2\n      pop\n        /* \"#utility.yul\":3182:3275   */\n      tag_199\n        /* \"#utility.yul\":3271:3274   */\n      dup3\n        /* \"#utility.yul\":3182:3275   */\n      tag_125\n      jump\t// in\n    tag_199:\n        /* \"#utility.yul\":3300:3301   */\n      0x00\n        /* \"#utility.yul\":3295:3298   */\n      dup3\n        /* \"#utility.yul\":3291:3302   */\n      add\n        /* \"#utility.yul\":3284:3302   */\n      swap1\n      pop\n        /* \"#utility.yul\":2910:3308   */\n      swap2\n      swap1\n      pop\n      jump\t// out\n        /* \"#utility.yul\":3314:3693   */\n    tag_25:\n        /* \"#utility.yul\":3498:3501   */\n      0x00\n        /* \"#utility.yul\":3520:3667   */\n      tag_201\n        /* \"#utility.yul\":3663:3666   */\n      dup3\n        /* \"#utility.yul\":3520:3667   */\n      tag_126\n      jump\t// in\n    tag_201:\n        /* \"#utility.yul\":3513:3667   */\n      swap2\n      pop\n        /* \"#utility.yul\":3684:3687   */\n      dup2\n        /* \"#utility.yul\":3677:3687   */\n      swap1\n      pop\n        /* \"#utility.yul\":3314:3693   */\n      swap2\n      swap1\n      pop\n      jump\t// out\n        /* \"#utility.yul\":3699:3855   */\n    tag_127:\n        /* \"#utility.yul\":3839:3847   */\n      0x4661696c65640000000000000000000000000000000000000000000000000000\n        /* \"#utility.yul\":3835:3836   */\n      0x00\n        /* \"#utility.yul\":3827:3833   */\n      dup3\n        /* \"#utility.yul\":3823:3837   */\n      add\n        /* \"#utility.yul\":3816:3848   */\n      mstore\n        /* \"#utility.yul\":3699:3855   */\n      pop\n      jump\t// out\n        /* \"#utility.yul\":3861:4226   */\n    tag_128:\n        /* \"#utility.yul\":4003:4006   */\n      0x00\n        /* \"#utility.yul\":4024:4090   */\n      tag_204\n        /* \"#utility.yul\":4088:4089   */\n      0x06\n        /* \"#utility.yul\":4083:4086   */\n      dup4\n        /* \"#utility.yul\":4024:4090   */\n      tag_117\n      jump\t// in\n    tag_204:\n        /* \"#utility.yul\":4017:4090   */\n      swap2\n      pop\n        /* \"#utility.yul\":4099:4192   */\n      tag_205\n        /* \"#utility.yul\":4188:4191   */\n      dup3\n        /* \"#utility.yul\":4099:4192   */\n      tag_127\n      jump\t// in\n    tag_205:\n        /* \"#utility.yul\":4217:4219   */\n      0x20\n        /* \"#utility.yul\":4212:4215   */\n      dup3\n        /* \"#utility.yul\":4208:4220   */\n      add\n        /* \"#utility.yul\":4201:4220   */\n      swap1\n      pop\n        /* \"#utility.yul\":3861:4226   */\n      swap2\n      swap1\n      pop\n      jump\t// out\n        /* \"#utility.yul\":4232:4651   */\n    tag_31:\n        /* \"#utility.yul\":4398:4402   */\n      0x00\n        /* \"#utility.yul\":4436:4438   */\n      0x20\n        /* \"#utility.yul\":4425:4434   */\n      dup3\n        /* \"#utility.yul\":4421:4439   */\n      add\n        /* \"#utility.yul\":4413:4439   */\n      swap1\n      pop\n        /* \"#utility.yul\":4485:4494   */\n      dup2\n        /* \"#utility.yul\":4479:4483   */\n      dup2\n        /* \"#utility.yul\":4475:4495   */\n      sub\n        /* \"#utility.yul\":4471:4472   */\n      0x00\n        /* \"#utility.yul\":4460:4469   */\n      dup4\n        /* \"#utility.yul\":4456:4473   */\n      add\n        /* \"#utility.yul\":4449:4496   */\n      mstore\n        /* \"#utility.yul\":4513:4644   */\n      tag_207\n        /* \"#utility.yul\":4639:4643   */\n      dup2\n        /* \"#utility.yul\":4513:4644   */\n      tag_128\n      jump\t// in\n    tag_207:\n        /* \"#utility.yul\":4505:4644   */\n      swap1\n      pop\n        /* \"#utility.yul\":4232:4651   */\n      swap2\n      swap1\n      pop\n      jump\t// out\n        /* \"#utility.yul\":4657:4775   */\n    tag_129:\n        /* \"#utility.yul\":4744:4768   */\n      tag_209\n        /* \"#utility.yul\":4762:4767   */\n      dup2\n        /* \"#utility.yul\":4744:4768   */\n      tag_123\n      jump\t// in\n    tag_209:\n        /* \"#utility.yul\":4739:4742   */\n      dup3\n        /* \"#utility.yul\":4732:4769   */\n      mstore\n        /* \"#utility.yul\":4657:4775   */\n      pop\n      pop\n      jump\t// out\n        /* \"#utility.yul\":4781:5003   */\n    tag_37:\n        /* \"#utility.yul\":4874:4878   */\n      0x00\n        /* \"#utility.yul\":4912:4914   */\n      0x20\n        /* \"#utility.yul\":4901:4910   */\n      dup3\n        /* \"#utility.yul\":4897:4915   */\n      add\n        /* \"#utility.yul\":4889:4915   */\n      swap1\n      pop\n        /* \"#utility.yul\":4925:4996   */\n      tag_211\n        /* \"#utility.yul\":4993:4994   */\n      0x00\n        /* \"#utility.yul\":4982:4991   */\n      dup4\n        /* \"#utility.yul\":4978:4995   */\n      add\n        /* \"#utility.yul\":4969:4975   */\n      dup5\n        /* \"#utility.yul\":4925:4996   */\n      tag_129\n      jump\t// in\n    tag_211:\n        /* \"#utility.yul\":4781:5003   */\n      swap3\n      swap2\n      pop\n      pop\n      jump\t// out\n        /* \"#utility.yul\":5009:5084   */\n    tag_130:\n        /* \"#utility.yul\":5042:5048   */\n      0x00\n        /* \"#utility.yul\":5075:5077   */\n      0x40\n        /* \"#utility.yul\":5069:5078   */\n      mload\n        /* \"#utility.yul\":5059:5078   */\n      swap1\n      pop\n        /* \"#utility.yul\":5009:5084   */\n      swap1\n      jump\t// out\n        /* \"#utility.yul\":5090:5207   */\n    tag_131:\n        /* \"#utility.yul\":5199:5200   */\n      0x00\n        /* \"#utility.yul\":5196:5197   */\n      dup1\n        /* \"#utility.yul\":5189:5201   */\n      revert\n        /* \"#utility.yul\":5213:5330   */\n    tag_132:\n        /* \"#utility.yul\":5322:5323   */\n      0x00\n        /* \"#utility.yul\":5319:5320   */\n      dup1\n        /* \"#utility.yul\":5312:5324   */\n      revert\n        /* \"#utility.yul\":5336:5453   */\n    tag_133:\n        /* \"#utility.yul\":5445:5446   */\n      0x00\n        /* \"#utility.yul\":5442:5443   */\n      dup1\n        /* \"#utility.yul\":5435:5447   */\n      revert\n        /* \"#utility.yul\":5459:5576   */\n    tag_134:\n        /* \"#utility.yul\":5568:5569   */\n      0x00\n        /* \"#utility.yul\":5565:5566   */\n      dup1\n        /* \"#utility.yul\":5558:5570   */\n      revert\n        /* \"#utility.yul\":5582:5684   */\n    tag_135:\n        /* \"#utility.yul\":5623:5629   */\n      0x00\n        /* \"#utility.yul\":5674:5676   */\n      0x1f\n        /* \"#utility.yul\":5670:5677   */\n      not\n        /* \"#utility.yul\":5665:5667   */\n      0x1f\n        /* \"#utility.yul\":5658:5663   */\n      dup4\n        /* \"#utility.yul\":5654:5668   */\n      add\n        /* \"#utility.yul\":5650:5678   */\n      and\n        /* \"#utility.yul\":5640:5678   */\n      swap1\n      pop\n        /* \"#utility.yul\":5582:5684   */\n      swap2\n      swap1\n      pop\n      jump\t// out\n        /* \"#utility.yul\":5690:5870   */\n    tag_136:\n        /* \"#utility.yul\":5738:5815   */\n      0x4e487b7100000000000000000000000000000000000000000000000000000000\n        /* \"#utility.yul\":5735:5736   */\n      0x00\n        /* \"#utility.yul\":5728:5816   */\n      mstore\n        /* \"#utility.yul\":5835:5839   */\n      0x41\n        /* \"#utility.yul\":5832:5833   */\n      0x04\n        /* \"#utility.yul\":5825:5840   */\n      mstore\n        /* \"#utility.yul\":5859:5863   */\n      0x24\n        /* \"#utility.yul\":5856:5857   */\n      0x00\n        /* \"#utility.yul\":5849:5864   */\n      revert\n        /* \"#utility.yul\":5876:6157   */\n    tag_137:\n        /* \"#utility.yul\":5959:5986   */\n      tag_220\n        /* \"#utility.yul\":5981:5985   */\n      dup3\n        /* \"#utility.yul\":5959:5986   */\n      tag_135\n      jump\t// in\n    tag_220:\n        /* \"#utility.yul\":5951:5957   */\n      dup2\n        /* \"#utility.yul\":5947:5987   */\n      add\n        /* \"#utility.yul\":6089:6095   */\n      dup2\n        /* \"#utility.yul\":6077:6087   */\n      dup2\n        /* \"#utility.yul\":6074:6096   */\n      lt\n        /* \"#utility.yul\":6053:6071   */\n      0xffffffffffffffff\n        /* \"#utility.yul\":6041:6051   */\n      dup3\n        /* \"#utility.yul\":6038:6072   */\n      gt\n        /* \"#utility.yul\":6035:6097   */\n      or\n        /* \"#utility.yul\":6032:6120   */\n      iszero\n      tag_221\n      jumpi\n        /* \"#utility.yul\":6100:6118   */\n      tag_222\n      tag_136\n      jump\t// in\n    tag_222:\n        /* \"#utility.yul\":6032:6120   */\n    tag_221:\n        /* \"#utility.yul\":6140:6150   */\n      dup1\n        /* \"#utility.yul\":6136:6138   */\n      0x40\n        /* \"#utility.yul\":6129:6151   */\n      mstore\n        /* \"#utility.yul\":5919:6157   */\n      pop\n        /* \"#utility.yul\":5876:6157   */\n      pop\n      pop\n      jump\t// out\n        /* \"#utility.yul\":6163:6292   */\n    tag_138:\n        /* \"#utility.yul\":6197:6203   */\n      0x00\n        /* \"#utility.yul\":6224:6244   */\n      tag_224\n      tag_130\n      jump\t// in\n    tag_224:\n        /* \"#utility.yul\":6214:6244   */\n      swap1\n      pop\n        /* \"#utility.yul\":6253:6286   */\n      tag_225\n        /* \"#utility.yul\":6281:6285   */\n      dup3\n        /* \"#utility.yul\":6273:6279   */\n      dup3\n        /* \"#utility.yul\":6253:6286   */\n      tag_137\n      jump\t// in\n    tag_225:\n        /* \"#utility.yul\":6163:6292   */\n      swap2\n      swap1\n      pop\n      jump\t// out\n        /* \"#utility.yul\":6298:6606   */\n    tag_139:\n        /* \"#utility.yul\":6360:6364   */\n      0x00\n        /* \"#utility.yul\":6450:6468   */\n      0xffffffffffffffff\n        /* \"#utility.yul\":6442:6448   */\n      dup3\n        /* \"#utility.yul\":6439:6469   */\n      gt\n        /* \"#utility.yul\":6436:6492   */\n      iszero\n      tag_227\n      jumpi\n        /* \"#utility.yul\":6472:6490   */\n      tag_228\n      tag_136\n      jump\t// in\n    tag_228:\n        /* \"#utility.yul\":6436:6492   */\n    tag_227:\n        /* \"#utility.yul\":6510:6539   */\n      tag_229\n        /* \"#utility.yul\":6532:6538   */\n      dup3\n        /* \"#utility.yul\":6510:6539   */\n      tag_135\n      jump\t// in\n    tag_229:\n        /* \"#utility.yul\":6502:6539   */\n      swap1\n      pop\n        /* \"#utility.yul\":6594:6598   */\n      0x20\n        /* \"#utility.yul\":6588:6592   */\n      dup2\n        /* \"#utility.yul\":6584:6599   */\n      add\n        /* \"#utility.yul\":6576:6599   */\n      swap1\n      pop\n        /* \"#utility.yul\":6298:6606   */\n      swap2\n      swap1\n      pop\n      jump\t// out\n        /* \"#utility.yul\":6612:6758   */\n    tag_140:\n        /* \"#utility.yul\":6709:6715   */\n      dup3\n        /* \"#utility.yul\":6704:6707   */\n      dup2\n        /* \"#utility.yul\":6699:6702   */\n      dup4\n        /* \"#utility.yul\":6686:6716   */\n      calldatacopy\n        /* \"#utility.yul\":6750:6751   */\n      0x00\n        /* \"#utility.yul\":6741:6747   */\n      dup4\n        /* \"#utility.yul\":6736:6739   */\n      dup4\n        /* \"#utility.yul\":6732:6748   */\n      add\n        /* \"#utility.yul\":6725:6752   */\n      mstore\n        /* \"#utility.yul\":6612:6758   */\n      pop\n      pop\n      pop\n      jump\t// out\n        /* \"#utility.yul\":6764:7189   */\n    tag_141:\n        /* \"#utility.yul\":6842:6847   */\n      0x00\n        /* \"#utility.yul\":6867:6933   */\n      tag_232\n        /* \"#utility.yul\":6883:6932   */\n      tag_233\n        /* \"#utility.yul\":6925:6931   */\n      dup5\n        /* \"#utility.yul\":6883:6932   */\n      tag_139\n      jump\t// in\n    tag_233:\n        /* \"#utility.yul\":6867:6933   */\n      tag_138\n      jump\t// in\n    tag_232:\n        /* \"#utility.yul\":6858:6933   */\n      swap1\n      pop\n        /* \"#utility.yul\":6956:6962   */\n      dup3\n        /* \"#utility.yul\":6949:6954   */\n      dup2\n        /* \"#utility.yul\":6942:6963   */\n      mstore\n        /* \"#utility.yul\":6994:6998   */\n      0x20\n        /* \"#utility.yul\":6987:6992   */\n      dup2\n        /* \"#utility.yul\":6983:6999   */\n      add\n        /* \"#utility.yul\":7032:7035   */\n      dup5\n        /* \"#utility.yul\":7023:7029   */\n      dup5\n        /* \"#utility.yul\":7018:7021   */\n      dup5\n        /* \"#utility.yul\":7014:7030   */\n      add\n        /* \"#utility.yul\":7011:7036   */\n      gt\n        /* \"#utility.yul\":7008:7120   */\n      iszero\n      tag_234\n      jumpi\n        /* \"#utility.yul\":7039:7118   */\n      tag_235\n      tag_134\n      jump\t// in\n    tag_235:\n        /* \"#utility.yul\":7008:7120   */\n    tag_234:\n        /* \"#utility.yul\":7129:7183   */\n      tag_236\n        /* \"#utility.yul\":7176:7182   */\n      dup5\n        /* \"#utility.yul\":7171:7174   */\n      dup3\n        /* \"#utility.yul\":7166:7169   */\n      dup6\n        /* \"#utility.yul\":7129:7183   */\n      tag_140\n      jump\t// in\n    tag_236:\n        /* \"#utility.yul\":6848:7189   */\n      pop\n        /* \"#utility.yul\":6764:7189   */\n      swap4\n      swap3\n      pop\n      pop\n      pop\n      jump\t// out\n        /* \"#utility.yul\":7209:7549   */\n    tag_142:\n        /* \"#utility.yul\":7265:7270   */\n      0x00\n        /* \"#utility.yul\":7314:7317   */\n      dup3\n        /* \"#utility.yul\":7307:7311   */\n      0x1f\n        /* \"#utility.yul\":7299:7305   */\n      dup4\n        /* \"#utility.yul\":7295:7312   */\n      add\n        /* \"#utility.yul\":7291:7318   */\n      slt\n        /* \"#utility.yul\":7281:7403   */\n      tag_238\n      jumpi\n        /* \"#utility.yul\":7322:7401   */\n      tag_239\n      tag_133\n      jump\t// in\n    tag_239:\n        /* \"#utility.yul\":7281:7403   */\n    tag_238:\n        /* \"#utility.yul\":7439:7445   */\n      dup2\n        /* \"#utility.yul\":7426:7446   */\n      calldataload\n        /* \"#utility.yul\":7464:7543   */\n      tag_240\n        /* \"#utility.yul\":7539:7542   */\n      dup5\n        /* \"#utility.yul\":7531:7537   */\n      dup3\n        /* \"#utility.yul\":7524:7528   */\n      0x20\n        /* \"#utility.yul\":7516:7522   */\n      dup7\n        /* \"#utility.yul\":7512:7529   */\n      add\n        /* \"#utility.yul\":7464:7543   */\n      tag_141\n      jump\t// in\n    tag_240:\n        /* \"#utility.yul\":7455:7543   */\n      swap2\n      pop\n        /* \"#utility.yul\":7271:7549   */\n      pop\n        /* \"#utility.yul\":7209:7549   */\n      swap3\n      swap2\n      pop\n      pop\n      jump\t// out\n        /* \"#utility.yul\":7555:7677   */\n    tag_143:\n        /* \"#utility.yul\":7628:7652   */\n      tag_242\n        /* \"#utility.yul\":7646:7651   */\n      dup2\n        /* \"#utility.yul\":7628:7652   */\n      tag_123\n      jump\t// in\n    tag_242:\n        /* \"#utility.yul\":7621:7626   */\n      dup2\n        /* \"#utility.yul\":7618:7653   */\n      eq\n        /* \"#utility.yul\":7608:7671   */\n      tag_243\n      jumpi\n        /* \"#utility.yul\":7667:7668   */\n      0x00\n        /* \"#utility.yul\":7664:7665   */\n      dup1\n        /* \"#utility.yul\":7657:7669   */\n      revert\n        /* \"#utility.yul\":7608:7671   */\n    tag_243:\n        /* \"#utility.yul\":7555:7677   */\n      pop\n      jump\t// out\n        /* \"#utility.yul\":7683:7822   */\n    tag_144:\n        /* \"#utility.yul\":7729:7734   */\n      0x00\n        /* \"#utility.yul\":7767:7773   */\n      dup2\n        /* \"#utility.yul\":7754:7774   */\n      calldataload\n        /* \"#utility.yul\":7745:7774   */\n      swap1\n      pop\n        /* \"#utility.yul\":7783:7816   */\n      tag_245\n        /* \"#utility.yul\":7810:7815   */\n      dup2\n        /* \"#utility.yul\":7783:7816   */\n      tag_143\n      jump\t// in\n    tag_245:\n        /* \"#utility.yul\":7683:7822   */\n      swap3\n      swap2\n      pop\n      pop\n      jump\t// out\n        /* \"#utility.yul\":7828:8482   */\n    tag_49:\n        /* \"#utility.yul\":7906:7912   */\n      0x00\n        /* \"#utility.yul\":7914:7920   */\n      dup1\n        /* \"#utility.yul\":7963:7965   */\n      0x40\n        /* \"#utility.yul\":7951:7960   */\n      dup4\n        /* \"#utility.yul\":7942:7949   */\n      dup6\n        /* \"#utility.yul\":7938:7961   */\n      sub\n        /* \"#utility.yul\":7934:7966   */\n      slt\n        /* \"#utility.yul\":7931:8050   */\n      iszero\n      tag_247\n      jumpi\n        /* \"#utility.yul\":7969:8048   */\n      tag_248\n      tag_131\n      jump\t// in\n    tag_248:\n        /* \"#utility.yul\":7931:8050   */\n    tag_247:\n        /* \"#utility.yul\":8117:8118   */\n      0x00\n        /* \"#utility.yul\":8106:8115   */\n      dup4\n        /* \"#utility.yul\":8102:8119   */\n      add\n        /* \"#utility.yul\":8089:8120   */\n      calldataload\n        /* \"#utility.yul\":8147:8165   */\n      0xffffffffffffffff\n        /* \"#utility.yul\":8139:8145   */\n      dup2\n        /* \"#utility.yul\":8136:8166   */\n      gt\n        /* \"#utility.yul\":8133:8250   */\n      iszero\n      tag_249\n      jumpi\n        /* \"#utility.yul\":8169:8248   */\n      tag_250\n      tag_132\n      jump\t// in\n    tag_250:\n        /* \"#utility.yul\":8133:8250   */\n    tag_249:\n        /* \"#utility.yul\":8274:8337   */\n      tag_251\n        /* \"#utility.yul\":8329:8336   */\n      dup6\n        /* \"#utility.yul\":8320:8326   */\n      dup3\n        /* \"#utility.yul\":8309:8318   */\n      dup7\n        /* \"#utility.yul\":8305:8327   */\n      add\n        /* \"#utility.yul\":8274:8337   */\n      tag_142\n      jump\t// in\n    tag_251:\n        /* \"#utility.yul\":8264:8337   */\n      swap3\n      pop\n        /* \"#utility.yul\":8060:8347   */\n      pop\n        /* \"#utility.yul\":8386:8388   */\n      0x20\n        /* \"#utility.yul\":8412:8465   */\n      tag_252\n        /* \"#utility.yul\":8457:8464   */\n      dup6\n        /* \"#utility.yul\":8448:8454   */\n      dup3\n        /* \"#utility.yul\":8437:8446   */\n      dup7\n        /* \"#utility.yul\":8433:8455   */\n      add\n        /* \"#utility.yul\":8412:8465   */\n      tag_144\n      jump\t// in\n    tag_252:\n        /* \"#utility.yul\":8402:8465   */\n      swap2\n      pop\n        /* \"#utility.yul\":8357:8475   */\n      pop\n        /* \"#utility.yul\":7828:8482   */\n      swap3\n      pop\n      swap3\n      swap1\n      pop\n      jump\t// out\n        /* \"#utility.yul\":8488:8614   */\n    tag_145:\n        /* \"#utility.yul\":8525:8532   */\n      0x00\n        /* \"#utility.yul\":8565:8607   */\n      0xffffffffffffffffffffffffffffffffffffffff\n        /* \"#utility.yul\":8558:8563   */\n      dup3\n        /* \"#utility.yul\":8554:8608   */\n      and\n        /* \"#utility.yul\":8543:8608   */\n      swap1\n      pop\n        /* \"#utility.yul\":8488:8614   */\n      swap2\n      swap1\n      pop\n      jump\t// out\n        /* \"#utility.yul\":8620:8716   */\n    tag_146:\n        /* \"#utility.yul\":8657:8664   */\n      0x00\n        /* \"#utility.yul\":8686:8710   */\n      tag_255\n        /* \"#utility.yul\":8704:8709   */\n      dup3\n        /* \"#utility.yul\":8686:8710   */\n      tag_145\n      jump\t// in\n    tag_255:\n        /* \"#utility.yul\":8675:8710   */\n      swap1\n      pop\n        /* \"#utility.yul\":8620:8716   */\n      swap2\n      swap1\n      pop\n      jump\t// out\n        /* \"#utility.yul\":8722:8840   */\n    tag_147:\n        /* \"#utility.yul\":8809:8833   */\n      tag_257\n        /* \"#utility.yul\":8827:8832   */\n      dup2\n        /* \"#utility.yul\":8809:8833   */\n      tag_146\n      jump\t// in\n    tag_257:\n        /* \"#utility.yul\":8804:8807   */\n      dup3\n        /* \"#utility.yul\":8797:8834   */\n      mstore\n        /* \"#utility.yul\":8722:8840   */\n      pop\n      pop\n      jump\t// out\n        /* \"#utility.yul\":8846:9068   */\n    tag_55:\n        /* \"#utility.yul\":8939:8943   */\n      0x00\n        /* \"#utility.yul\":8977:8979   */\n      0x20\n        /* \"#utility.yul\":8966:8975   */\n      dup3\n        /* \"#utility.yul\":8962:8980   */\n      add\n        /* \"#utility.yul\":8954:8980   */\n      swap1\n      pop\n        /* \"#utility.yul\":8990:9061   */\n      tag_259\n        /* \"#utility.yul\":9058:9059   */\n      0x00\n        /* \"#utility.yul\":9047:9056   */\n      dup4\n        /* \"#utility.yul\":9043:9060   */\n      add\n        /* \"#utility.yul\":9034:9040   */\n      dup5\n        /* \"#utility.yul\":8990:9061   */\n      tag_147\n      jump\t// in\n    tag_259:\n        /* \"#utility.yul\":8846:9068   */\n      swap3\n      swap2\n      pop\n      pop\n      jump\t// out\n        /* \"#utility.yul\":9074:9196   */\n    tag_148:\n        /* \"#utility.yul\":9147:9171   */\n      tag_261\n        /* \"#utility.yul\":9165:9170   */\n      dup2\n        /* \"#utility.yul\":9147:9171   */\n      tag_146\n      jump\t// in\n    tag_261:\n        /* \"#utility.yul\":9140:9145   */\n      dup2\n        /* \"#utility.yul\":9137:9172   */\n      eq\n        /* \"#utility.yul\":9127:9190   */\n      tag_262\n      jumpi\n        /* \"#utility.yul\":9186:9187   */\n      0x00\n        /* \"#utility.yul\":9183:9184   */\n      dup1\n        /* \"#utility.yul\":9176:9188   */\n      revert\n        /* \"#utility.yul\":9127:9190   */\n    tag_262:\n        /* \"#utility.yul\":9074:9196   */\n      pop\n      jump\t// out\n        /* \"#utility.yul\":9202:9341   */\n    tag_149:\n        /* \"#utility.yul\":9248:9253   */\n      0x00\n        /* \"#utility.yul\":9286:9292   */\n      dup2\n        /* \"#utility.yul\":9273:9293   */\n      calldataload\n        /* \"#utility.yul\":9264:9293   */\n      swap1\n      pop\n        /* \"#utility.yul\":9302:9335   */\n      tag_264\n        /* \"#utility.yul\":9329:9334   */\n      dup2\n        /* \"#utility.yul\":9302:9335   */\n      tag_148\n      jump\t// in\n    tag_264:\n        /* \"#utility.yul\":9202:9341   */\n      swap3\n      swap2\n      pop\n      pop\n      jump\t// out\n        /* \"#utility.yul\":9347:9821   */\n    tag_71:\n        /* \"#utility.yul\":9415:9421   */\n      0x00\n        /* \"#utility.yul\":9423:9429   */\n      dup1\n        /* \"#utility.yul\":9472:9474   */\n      0x40\n        /* \"#utility.yul\":9460:9469   */\n      dup4\n        /* \"#utility.yul\":9451:9458   */\n      dup6\n        /* \"#utility.yul\":9447:9470   */\n      sub\n        /* \"#utility.yul\":9443:9475   */\n      slt\n        /* \"#utility.yul\":9440:9559   */\n      iszero\n      tag_266\n      jumpi\n        /* \"#utility.yul\":9478:9557   */\n      tag_267\n      tag_131\n      jump\t// in\n    tag_267:\n        /* \"#utility.yul\":9440:9559   */\n    tag_266:\n        /* \"#utility.yul\":9598:9599   */\n      0x00\n        /* \"#utility.yul\":9623:9676   */\n      tag_268\n        /* \"#utility.yul\":9668:9675   */\n      dup6\n        /* \"#utility.yul\":9659:9665   */\n      dup3\n        /* \"#utility.yul\":9648:9657   */\n      dup7\n        /* \"#utility.yul\":9644:9666   */\n      add\n        /* \"#utility.yul\":9623:9676   */\n      tag_144\n      jump\t// in\n    tag_268:\n        /* \"#utility.yul\":9613:9676   */\n      swap3\n      pop\n        /* \"#utility.yul\":9569:9686   */\n      pop\n        /* \"#utility.yul\":9725:9727   */\n      0x20\n        /* \"#utility.yul\":9751:9804   */\n      tag_269\n        /* \"#utility.yul\":9796:9803   */\n      dup6\n        /* \"#utility.yul\":9787:9793   */\n      dup3\n        /* \"#utility.yul\":9776:9785   */\n      dup7\n        /* \"#utility.yul\":9772:9794   */\n      add\n        /* \"#utility.yul\":9751:9804   */\n      tag_149\n      jump\t// in\n    tag_269:\n        /* \"#utility.yul\":9741:9804   */\n      swap2\n      pop\n        /* \"#utility.yul\":9696:9814   */\n      pop\n        /* \"#utility.yul\":9347:9821   */\n      swap3\n      pop\n      swap3\n      swap1\n      pop\n      jump\t// out\n        /* \"#utility.yul\":9827:9917   */\n    tag_150:\n        /* \"#utility.yul\":9861:9868   */\n      0x00\n        /* \"#utility.yul\":9904:9909   */\n      dup2\n        /* \"#utility.yul\":9897:9910   */\n      iszero\n        /* \"#utility.yul\":9890:9911   */\n      iszero\n        /* \"#utility.yul\":9879:9911   */\n      swap1\n      pop\n        /* \"#utility.yul\":9827:9917   */\n      swap2\n      swap1\n      pop\n      jump\t// out\n        /* \"#utility.yul\":9923:10032   */\n    tag_151:\n        /* \"#utility.yul\":10004:10025   */\n      tag_272\n        /* \"#utility.yul\":10019:10024   */\n      dup2\n        /* \"#utility.yul\":10004:10025   */\n      tag_150\n      jump\t// in\n    tag_272:\n        /* \"#utility.yul\":9999:10002   */\n      dup3\n        /* \"#utility.yul\":9992:10026   */\n      mstore\n        /* \"#utility.yul\":9923:10032   */\n      pop\n      pop\n      jump\t// out\n        /* \"#utility.yul\":10038:10248   */\n    tag_74:\n        /* \"#utility.yul\":10125:10129   */\n      0x00\n        /* \"#utility.yul\":10163:10165   */\n      0x20\n        /* \"#utility.yul\":10152:10161   */\n      dup3\n        /* \"#utility.yul\":10148:10166   */\n      add\n        /* \"#utility.yul\":10140:10166   */\n      swap1\n      pop\n        /* \"#utility.yul\":10176:10241   */\n      tag_274\n        /* \"#utility.yul\":10238:10239   */\n      0x00\n        /* \"#utility.yul\":10227:10236   */\n      dup4\n        /* \"#utility.yul\":10223:10240   */\n      add\n        /* \"#utility.yul\":10214:10220   */\n      dup5\n        /* \"#utility.yul\":10176:10241   */\n      tag_151\n      jump\t// in\n    tag_274:\n        /* \"#utility.yul\":10038:10248   */\n      swap3\n      swap2\n      pop\n      pop\n      jump\t// out\n        /* \"#utility.yul\":10254:10353   */\n    tag_152:\n        /* \"#utility.yul\":10306:10312   */\n      0x00\n        /* \"#utility.yul\":10340:10345   */\n      dup2\n        /* \"#utility.yul\":10334:10346   */\n      mload\n        /* \"#utility.yul\":10324:10346   */\n      swap1\n      pop\n        /* \"#utility.yul\":10254:10353   */\n      swap2\n      swap1\n      pop\n      jump\t// out\n        /* \"#utility.yul\":10359:10605   */\n    tag_153:\n        /* \"#utility.yul\":10440:10441   */\n      0x00\n        /* \"#utility.yul\":10450:10563   */\n    tag_277:\n        /* \"#utility.yul\":10464:10470   */\n      dup4\n        /* \"#utility.yul\":10461:10462   */\n      dup2\n        /* \"#utility.yul\":10458:10471   */\n      lt\n        /* \"#utility.yul\":10450:10563   */\n      iszero\n      tag_279\n      jumpi\n        /* \"#utility.yul\":10549:10550   */\n      dup1\n        /* \"#utility.yul\":10544:10547   */\n      dup3\n        /* \"#utility.yul\":10540:10551   */\n      add\n        /* \"#utility.yul\":10534:10552   */\n      mload\n        /* \"#utility.yul\":10530:10531   */\n      dup2\n        /* \"#utility.yul\":10525:10528   */\n      dup5\n        /* \"#utility.yul\":10521:10532   */\n      add\n        /* \"#utility.yul\":10514:10553   */\n      mstore\n        /* \"#utility.yul\":10486:10488   */\n      0x20\n        /* \"#utility.yul\":10483:10484   */\n      dup2\n        /* \"#utility.yul\":10479:10489   */\n      add\n        /* \"#utility.yul\":10474:10489   */\n      swap1\n      pop\n        /* \"#utility.yul\":10450:10563   */\n      jump(tag_277)\n    tag_279:\n        /* \"#utility.yul\":10597:10598   */\n      0x00\n        /* \"#utility.yul\":10588:10594   */\n      dup5\n        /* \"#utility.yul\":10583:10586   */\n      dup5\n        /* \"#utility.yul\":10579:10595   */\n      add\n        /* \"#utility.yul\":10572:10599   */\n      mstore\n        /* \"#utility.yul\":10421:10605   */\n      pop\n        /* \"#utility.yul\":10359:10605   */\n      pop\n      pop\n      pop\n      jump\t// out\n        /* \"#utility.yul\":10611:10988   */\n    tag_154:\n        /* \"#utility.yul\":10699:10702   */\n      0x00\n        /* \"#utility.yul\":10727:10766   */\n      tag_281\n        /* \"#utility.yul\":10760:10765   */\n      dup3\n        /* \"#utility.yul\":10727:10766   */\n      tag_152\n      jump\t// in\n    tag_281:\n        /* \"#utility.yul\":10782:10853   */\n      tag_282\n        /* \"#utility.yul\":10846:10852   */\n      dup2\n        /* \"#utility.yul\":10841:10844   */\n      dup6\n        /* \"#utility.yul\":10782:10853   */\n      tag_117\n      jump\t// in\n    tag_282:\n        /* \"#utility.yul\":10775:10853   */\n      swap4\n      pop\n        /* \"#utility.yul\":10862:10927   */\n      tag_283\n        /* \"#utility.yul\":10920:10926   */\n      dup2\n        /* \"#utility.yul\":10915:10918   */\n      dup6\n        /* \"#utility.yul\":10908:10912   */\n      0x20\n        /* \"#utility.yul\":10901:10906   */\n      dup7\n        /* \"#utility.yul\":10897:10913   */\n      add\n        /* \"#utility.yul\":10862:10927   */\n      tag_153\n      jump\t// in\n    tag_283:\n        /* \"#utility.yul\":10952:10981   */\n      tag_284\n        /* \"#utility.yul\":10974:10980   */\n      dup2\n        /* \"#utility.yul\":10952:10981   */\n      tag_135\n      jump\t// in\n    tag_284:\n        /* \"#utility.yul\":10947:10950   */\n      dup5\n        /* \"#utility.yul\":10943:10982   */\n      add\n        /* \"#utility.yul\":10936:10982   */\n      swap2\n      pop\n        /* \"#utility.yul\":10703:10988   */\n      pop\n        /* \"#utility.yul\":10611:10988   */\n      swap3\n      swap2\n      pop\n      pop\n      jump\t// out\n        /* \"#utility.yul\":10994:11417   */\n    tag_79:\n        /* \"#utility.yul\":11135:11139   */\n      0x00\n        /* \"#utility.yul\":11173:11175   */\n      0x40\n        /* \"#utility.yul\":11162:11171   */\n      dup3\n        /* \"#utility.yul\":11158:11176   */\n      add\n        /* \"#utility.yul\":11150:11176   */\n      swap1\n      pop\n        /* \"#utility.yul\":11222:11231   */\n      dup2\n        /* \"#utility.yul\":11216:11220   */\n      dup2\n        /* \"#utility.yul\":11212:11232   */\n      sub\n        /* \"#utility.yul\":11208:11209   */\n      0x00\n        /* \"#utility.yul\":11197:11206   */\n      dup4\n        /* \"#utility.yul\":11193:11210   */\n      add\n        /* \"#utility.yul\":11186:11233   */\n      mstore\n        /* \"#utility.yul\":11250:11328   */\n      tag_286\n        /* \"#utility.yul\":11323:11327   */\n      dup2\n        /* \"#utility.yul\":11314:11320   */\n      dup6\n        /* \"#utility.yul\":11250:11328   */\n      tag_154\n      jump\t// in\n    tag_286:\n        /* \"#utility.yul\":11242:11328   */\n      swap1\n      pop\n        /* \"#utility.yul\":11338:11410   */\n      tag_287\n        /* \"#utility.yul\":11406:11408   */\n      0x20\n        /* \"#utility.yul\":11395:11404   */\n      dup4\n        /* \"#utility.yul\":11391:11409   */\n      add\n        /* \"#utility.yul\":11382:11388   */\n      dup5\n        /* \"#utility.yul\":11338:11410   */\n      tag_129\n      jump\t// in\n    tag_287:\n        /* \"#utility.yul\":10994:11417   */\n      swap4\n      swap3\n      pop\n      pop\n      pop\n      jump\t// out\n        /* \"#utility.yul\":11423:11603   */\n    tag_155:\n        /* \"#utility.yul\":11471:11548   */\n      0x4e487b7100000000000000000000000000000000000000000000000000000000\n        /* \"#utility.yul\":11468:11469   */\n      0x00\n        /* \"#utility.yul\":11461:11549   */\n      mstore\n        /* \"#utility.yul\":11568:11572   */\n      0x22\n        /* \"#utility.yul\":11565:11566   */\n      0x04\n        /* \"#utility.yul\":11558:11573   */\n      mstore\n        /* \"#utility.yul\":11592:11596   */\n      0x24\n        /* \"#utility.yul\":11589:11590   */\n      0x00\n        /* \"#utility.yul\":11582:11597   */\n      revert\n        /* \"#utility.yul\":11609:11929   */\n    tag_112:\n        /* \"#utility.yul\":11653:11659   */\n      0x00\n        /* \"#utility.yul\":11690:11691   */\n      0x02\n        /* \"#utility.yul\":11684:11688   */\n      dup3\n        /* \"#utility.yul\":11680:11692   */\n      div\n        /* \"#utility.yul\":11670:11692   */\n      swap1\n      pop\n        /* \"#utility.yul\":11737:11738   */\n      0x01\n        /* \"#utility.yul\":11731:11735   */\n      dup3\n        /* \"#utility.yul\":11727:11739   */\n      and\n        /* \"#utility.yul\":11758:11776   */\n      dup1\n        /* \"#utility.yul\":11748:11829   */\n      tag_290\n      jumpi\n        /* \"#utility.yul\":11814:11818   */\n      0x7f\n        /* \"#utility.yul\":11806:11812   */\n      dup3\n        /* \"#utility.yul\":11802:11819   */\n      and\n        /* \"#utility.yul\":11792:11819   */\n      swap2\n      pop\n        /* \"#utility.yul\":11748:11829   */\n    tag_290:\n        /* \"#utility.yul\":11876:11878   */\n      0x20\n        /* \"#utility.yul\":11868:11874   */\n      dup3\n        /* \"#utility.yul\":11865:11879   */\n      lt\n        /* \"#utility.yul\":11845:11863   */\n      dup2\n        /* \"#utility.yul\":11842:11880   */\n      sub\n        /* \"#utility.yul\":11839:11923   */\n      tag_291\n      jumpi\n        /* \"#utility.yul\":11895:11913   */\n      tag_292\n      tag_155\n      jump\t// in\n    tag_292:\n        /* \"#utility.yul\":11839:11923   */\n    tag_291:\n        /* \"#utility.yul\":11660:11929   */\n      pop\n        /* \"#utility.yul\":11609:11929   */\n      swap2\n      swap1\n      pop\n      jump\t// out\n        /* \"#utility.yul\":11935:12076   */\n    tag_156:\n        /* \"#utility.yul\":11984:11988   */\n      0x00\n        /* \"#utility.yul\":12007:12010   */\n      dup2\n        /* \"#utility.yul\":11999:12010   */\n      swap1\n      pop\n        /* \"#utility.yul\":12030:12033   */\n      dup2\n        /* \"#utility.yul\":12027:12028   */\n      0x00\n        /* \"#utility.yul\":12020:12034   */\n      mstore\n        /* \"#utility.yul\":12064:12068   */\n      0x20\n        /* \"#utility.yul\":12061:12062   */\n      0x00\n        /* \"#utility.yul\":12051:12069   */\n      keccak256\n        /* \"#utility.yul\":12043:12069   */\n      swap1\n      pop\n        /* \"#utility.yul\":11935:12076   */\n      swap2\n      swap1\n      pop\n      jump\t// out\n        /* \"#utility.yul\":12106:12937   */\n    tag_157:\n        /* \"#utility.yul\":12191:12194   */\n      0x00\n        /* \"#utility.yul\":12228:12233   */\n      dup2\n        /* \"#utility.yul\":12222:12234   */\n      sload\n        /* \"#utility.yul\":12257:12293   */\n      tag_295\n        /* \"#utility.yul\":12283:12292   */\n      dup2\n        /* \"#utility.yul\":12257:12293   */\n      tag_112\n      jump\t// in\n    tag_295:\n        /* \"#utility.yul\":12309:12380   */\n      tag_296\n        /* \"#utility.yul\":12373:12379   */\n      dup2\n        /* \"#utility.yul\":12368:12371   */\n      dup7\n        /* \"#utility.yul\":12309:12380   */\n      tag_117\n      jump\t// in\n    tag_296:\n        /* \"#utility.yul\":12302:12380   */\n      swap5\n      pop\n        /* \"#utility.yul\":12411:12412   */\n      0x01\n        /* \"#utility.yul\":12400:12409   */\n      dup3\n        /* \"#utility.yul\":12396:12413   */\n      and\n        /* \"#utility.yul\":12427:12428   */\n      0x00\n        /* \"#utility.yul\":12422:12586   */\n      dup2\n      eq\n      tag_298\n      jumpi\n        /* \"#utility.yul\":12600:12601   */\n      0x01\n        /* \"#utility.yul\":12595:12931   */\n      dup2\n      eq\n      tag_299\n      jumpi\n        /* \"#utility.yul\":12389:12931   */\n      jump(tag_297)\n        /* \"#utility.yul\":12422:12586   */\n    tag_298:\n        /* \"#utility.yul\":12506:12510   */\n      0xff\n        /* \"#utility.yul\":12502:12511   */\n      not\n        /* \"#utility.yul\":12491:12500   */\n      dup4\n        /* \"#utility.yul\":12487:12512   */\n      and\n        /* \"#utility.yul\":12482:12485   */\n      dup7\n        /* \"#utility.yul\":12475:12513   */\n      mstore\n        /* \"#utility.yul\":12566:12572   */\n      dup2\n        /* \"#utility.yul\":12559:12573   */\n      iszero\n        /* \"#utility.yul\":12552:12574   */\n      iszero\n        /* \"#utility.yul\":12546:12550   */\n      0x20\n        /* \"#utility.yul\":12542:12575   */\n      mul\n        /* \"#utility.yul\":12537:12540   */\n      dup7\n        /* \"#utility.yul\":12533:12576   */\n      add\n        /* \"#utility.yul\":12526:12576   */\n      swap4\n      pop\n        /* \"#utility.yul\":12422:12586   */\n      jump(tag_297)\n        /* \"#utility.yul\":12595:12931   */\n    tag_299:\n        /* \"#utility.yul\":12662:12700   */\n      tag_300\n        /* \"#utility.yul\":12694:12699   */\n      dup6\n        /* \"#utility.yul\":12662:12700   */\n      tag_156\n      jump\t// in\n    tag_300:\n        /* \"#utility.yul\":12722:12723   */\n      0x00\n        /* \"#utility.yul\":12736:12890   */\n    tag_301:\n        /* \"#utility.yul\":12750:12756   */\n      dup4\n        /* \"#utility.yul\":12747:12748   */\n      dup2\n        /* \"#utility.yul\":12744:12757   */\n      lt\n        /* \"#utility.yul\":12736:12890   */\n      iszero\n      tag_303\n      jumpi\n        /* \"#utility.yul\":12824:12831   */\n      dup2\n        /* \"#utility.yul\":12818:12832   */\n      sload\n        /* \"#utility.yul\":12814:12815   */\n      dup2\n        /* \"#utility.yul\":12809:12812   */\n      dup10\n        /* \"#utility.yul\":12805:12816   */\n      add\n        /* \"#utility.yul\":12798:12833   */\n      mstore\n        /* \"#utility.yul\":12874:12875   */\n      0x01\n        /* \"#utility.yul\":12865:12872   */\n      dup3\n        /* \"#utility.yul\":12861:12876   */\n      add\n        /* \"#utility.yul\":12850:12876   */\n      swap2\n      pop\n        /* \"#utility.yul\":12772:12776   */\n      0x20\n        /* \"#utility.yul\":12769:12770   */\n      dup2\n        /* \"#utility.yul\":12765:12777   */\n      add\n        /* \"#utility.yul\":12760:12777   */\n      swap1\n      pop\n        /* \"#utility.yul\":12736:12890   */\n      jump(tag_301)\n    tag_303:\n        /* \"#utility.yul\":12919:12920   */\n      dup1\n        /* \"#utility.yul\":12914:12917   */\n      dup9\n        /* \"#utility.yul\":12910:12921   */\n      add\n        /* \"#utility.yul\":12903:12921   */\n      swap6\n      pop\n        /* \"#utility.yul\":12602:12931   */\n      pop\n      pop\n        /* \"#utility.yul\":12389:12931   */\n    tag_297:\n      pop\n        /* \"#utility.yul\":12195:12937   */\n      pop\n      pop\n        /* \"#utility.yul\":12106:12937   */\n      swap3\n      swap2\n      pop\n      pop\n      jump\t// out\n        /* \"#utility.yul\":12943:13250   */\n    tag_82:\n        /* \"#utility.yul\":13053:13057   */\n      0x00\n        /* \"#utility.yul\":13091:13093   */\n      0x20\n        /* \"#utility.yul\":13080:13089   */\n      dup3\n        /* \"#utility.yul\":13076:13094   */\n      add\n        /* \"#utility.yul\":13068:13094   */\n      swap1\n      pop\n        /* \"#utility.yul\":13140:13149   */\n      dup2\n        /* \"#utility.yul\":13134:13138   */\n      dup2\n        /* \"#utility.yul\":13130:13150   */\n      sub\n        /* \"#utility.yul\":13126:13127   */\n      0x00\n        /* \"#utility.yul\":13115:13124   */\n      dup4\n        /* \"#utility.yul\":13111:13128   */\n      add\n        /* \"#utility.yul\":13104:13151   */\n      mstore\n        /* \"#utility.yul\":13168:13243   */\n      tag_305\n        /* \"#utility.yul\":13238:13242   */\n      dup2\n        /* \"#utility.yul\":13229:13235   */\n      dup5\n        /* \"#utility.yul\":13168:13243   */\n      tag_157\n      jump\t// in\n    tag_305:\n        /* \"#utility.yul\":13160:13243   */\n      swap1\n      pop\n        /* \"#utility.yul\":12943:13250   */\n      swap3\n      swap2\n      pop\n      pop\n      jump\t// out\n        /* \"#utility.yul\":13256:13447   */\n    tag_84:\n        /* \"#utility.yul\":13296:13299   */\n      0x00\n        /* \"#utility.yul\":13315:13335   */\n      tag_307\n        /* \"#utility.yul\":13333:13334   */\n      dup3\n        /* \"#utility.yul\":13315:13335   */\n      tag_123\n      jump\t// in\n    tag_307:\n        /* \"#utility.yul\":13310:13335   */\n      swap2\n      pop\n        /* \"#utility.yul\":13349:13369   */\n      tag_308\n        /* \"#utility.yul\":13367:13368   */\n      dup4\n        /* \"#utility.yul\":13349:13369   */\n      tag_123\n      jump\t// in\n    tag_308:\n        /* \"#utility.yul\":13344:13369   */\n      swap3\n      pop\n        /* \"#utility.yul\":13392:13393   */\n      dup3\n        /* \"#utility.yul\":13389:13390   */\n      dup3\n        /* \"#utility.yul\":13385:13394   */\n      add\n        /* \"#utility.yul\":13378:13394   */\n      swap1\n      pop\n        /* \"#utility.yul\":13413:13416   */\n      dup1\n        /* \"#utility.yul\":13410:13411   */\n      dup3\n        /* \"#utility.yul\":13407:13417   */\n      gt\n        /* \"#utility.yul\":13404:13440   */\n      iszero\n      tag_309\n      jumpi\n        /* \"#utility.yul\":13420:13438   */\n      tag_310\n      tag_122\n      jump\t// in\n    tag_310:\n        /* \"#utility.yul\":13404:13440   */\n    tag_309:\n        /* \"#utility.yul\":13256:13447   */\n      swap3\n      swap2\n      pop\n      pop\n      jump\t// out\n        /* \"#utility.yul\":13453:13633   */\n    tag_158:\n        /* \"#utility.yul\":13501:13578   */\n      0x4e487b7100000000000000000000000000000000000000000000000000000000\n        /* \"#utility.yul\":13498:13499   */\n      0x00\n        /* \"#utility.yul\":13491:13579   */\n      mstore\n        /* \"#utility.yul\":13598:13602   */\n      0x12\n        /* \"#utility.yul\":13595:13596   */\n      0x04\n        /* \"#utility.yul\":13588:13603   */\n      mstore\n        /* \"#utility.yul\":13622:13626   */\n      0x24\n        /* \"#utility.yul\":13619:13620   */\n      0x00\n        /* \"#utility.yul\":13612:13627   */\n      revert\n        /* \"#utility.yul\":13639:13824   */\n    tag_88:\n        /* \"#utility.yul\":13679:13680   */\n      0x00\n        /* \"#utility.yul\":13696:13716   */\n      tag_313\n        /* \"#utility.yul\":13714:13715   */\n      dup3\n        /* \"#utility.yul\":13696:13716   */\n      tag_123\n      jump\t// in\n    tag_313:\n        /* \"#utility.yul\":13691:13716   */\n      swap2\n      pop\n        /* \"#utility.yul\":13730:13750   */\n      tag_314\n        /* \"#utility.yul\":13748:13749   */\n      dup4\n        /* \"#utility.yul\":13730:13750   */\n      tag_123\n      jump\t// in\n    tag_314:\n        /* \"#utility.yul\":13725:13750   */\n      swap3\n      pop\n        /* \"#utility.yul\":13769:13770   */\n      dup3\n        /* \"#utility.yul\":13759:13794   */\n      tag_315\n      jumpi\n        /* \"#utility.yul\":13774:13792   */\n      tag_316\n      tag_158\n      jump\t// in\n    tag_316:\n        /* \"#utility.yul\":13759:13794   */\n    tag_315:\n        /* \"#utility.yul\":13816:13817   */\n      dup3\n        /* \"#utility.yul\":13813:13814   */\n      dup3\n        /* \"#utility.yul\":13809:13818   */\n      div\n        /* \"#utility.yul\":13804:13818   */\n      swap1\n      pop\n        /* \"#utility.yul\":13639:13824   */\n      swap3\n      swap2\n      pop\n      pop\n      jump\t// out\n        /* \"#utility.yul\":13830:14240   */\n    tag_90:\n        /* \"#utility.yul\":13870:13877   */\n      0x00\n        /* \"#utility.yul\":13893:13913   */\n      tag_318\n        /* \"#utility.yul\":13911:13912   */\n      dup3\n        /* \"#utility.yul\":13893:13913   */\n      tag_123\n      jump\t// in\n    tag_318:\n        /* \"#utility.yul\":13888:13913   */\n      swap2\n      pop\n        /* \"#utility.yul\":13927:13947   */\n      tag_319\n        /* \"#utility.yul\":13945:13946   */\n      dup4\n        /* \"#utility.yul\":13927:13947   */\n      tag_123\n      jump\t// in\n    tag_319:\n        /* \"#utility.yul\":13922:13947   */\n      swap3\n      pop\n        /* \"#utility.yul\":13982:13983   */\n      dup3\n        /* \"#utility.yul\":13979:13980   */\n      dup3\n        /* \"#utility.yul\":13975:13984   */\n      mul\n        /* \"#utility.yul\":14004:14034   */\n      tag_320\n        /* \"#utility.yul\":14022:14033   */\n      dup2\n        /* \"#utility.yul\":14004:14034   */\n      tag_123\n      jump\t// in\n    tag_320:\n        /* \"#utility.yul\":13993:14034   */\n      swap2\n      pop\n        /* \"#utility.yul\":14183:14184   */\n      dup3\n        /* \"#utility.yul\":14174:14181   */\n      dup3\n        /* \"#utility.yul\":14170:14185   */\n      div\n        /* \"#utility.yul\":14167:14168   */\n      dup5\n        /* \"#utility.yul\":14164:14186   */\n      eq\n        /* \"#utility.yul\":14144:14145   */\n      dup4\n        /* \"#utility.yul\":14137:14146   */\n      iszero\n        /* \"#utility.yul\":14117:14200   */\n      or\n        /* \"#utility.yul\":14094:14233   */\n      tag_321\n      jumpi\n        /* \"#utility.yul\":14213:14231   */\n      tag_322\n      tag_122\n      jump\t// in\n    tag_322:\n        /* \"#utility.yul\":14094:14233   */\n    tag_321:\n        /* \"#utility.yul\":13878:14240   */\n      pop\n        /* \"#utility.yul\":13830:14240   */\n      swap3\n      swap2\n      pop\n      pop\n      jump\t// out\n        /* \"#utility.yul\":14246:14440   */\n    tag_92:\n        /* \"#utility.yul\":14286:14290   */\n      0x00\n        /* \"#utility.yul\":14306:14326   */\n      tag_324\n        /* \"#utility.yul\":14324:14325   */\n      dup3\n        /* \"#utility.yul\":14306:14326   */\n      tag_123\n      jump\t// in\n    tag_324:\n        /* \"#utility.yul\":14301:14326   */\n      swap2\n      pop\n        /* \"#utility.yul\":14340:14360   */\n      tag_325\n        /* \"#utility.yul\":14358:14359   */\n      dup4\n        /* \"#utility.yul\":14340:14360   */\n      tag_123\n      jump\t// in\n    tag_325:\n        /* \"#utility.yul\":14335:14360   */\n      swap3\n      pop\n        /* \"#utility.yul\":14384:14385   */\n      dup3\n        /* \"#utility.yul\":14381:14382   */\n      dup3\n        /* \"#utility.yul\":14377:14386   */\n      sub\n        /* \"#utility.yul\":14369:14386   */\n      swap1\n      pop\n        /* \"#utility.yul\":14408:14409   */\n      dup2\n        /* \"#utility.yul\":14402:14406   */\n      dup2\n        /* \"#utility.yul\":14399:14410   */\n      gt\n        /* \"#utility.yul\":14396:14433   */\n      iszero\n      tag_326\n      jumpi\n        /* \"#utility.yul\":14413:14431   */\n      tag_327\n      tag_122\n      jump\t// in\n    tag_327:\n        /* \"#utility.yul\":14396:14433   */\n    tag_326:\n        /* \"#utility.yul\":14246:14440   */\n      swap3\n      swap2\n      pop\n      pop\n      jump\t// out\n        /* \"#utility.yul\":14446:14628   */\n    tag_159:\n        /* \"#utility.yul\":14586:14620   */\n      0x4f776e61626c653a2063616c6c6572206973206e6f7420746865204f776e6572\n        /* \"#utility.yul\":14582:14583   */\n      0x00\n        /* \"#utility.yul\":14574:14580   */\n      dup3\n        /* \"#utility.yul\":14570:14584   */\n      add\n        /* \"#utility.yul\":14563:14621   */\n      mstore\n        /* \"#utility.yul\":14446:14628   */\n      pop\n      jump\t// out\n        /* \"#utility.yul\":14634:15000   */\n    tag_160:\n        /* \"#utility.yul\":14776:14779   */\n      0x00\n        /* \"#utility.yul\":14797:14864   */\n      tag_330\n        /* \"#utility.yul\":14861:14863   */\n      0x20\n        /* \"#utility.yul\":14856:14859   */\n      dup4\n        /* \"#utility.yul\":14797:14864   */\n      tag_117\n      jump\t// in\n    tag_330:\n        /* \"#utility.yul\":14790:14864   */\n      swap2\n      pop\n        /* \"#utility.yul\":14873:14966   */\n      tag_331\n        /* \"#utility.yul\":14962:14965   */\n      dup3\n        /* \"#utility.yul\":14873:14966   */\n      tag_159\n      jump\t// in\n    tag_331:\n        /* \"#utility.yul\":14991:14993   */\n      0x20\n        /* \"#utility.yul\":14986:14989   */\n      dup3\n        /* \"#utility.yul\":14982:14994   */\n      add\n        /* \"#utility.yul\":14975:14994   */\n      swap1\n      pop\n        /* \"#utility.yul\":14634:15000   */\n      swap2\n      swap1\n      pop\n      jump\t// out\n        /* \"#utility.yul\":15006:15425   */\n    tag_98:\n        /* \"#utility.yul\":15172:15176   */\n      0x00\n        /* \"#utility.yul\":15210:15212   */\n      0x20\n        /* \"#utility.yul\":15199:15208   */\n      dup3\n        /* \"#utility.yul\":15195:15213   */\n      add\n        /* \"#utility.yul\":15187:15213   */\n      swap1\n      pop\n        /* \"#utility.yul\":15259:15268   */\n      dup2\n        /* \"#utility.yul\":15253:15257   */\n      dup2\n        /* \"#utility.yul\":15249:15269   */\n      sub\n        /* \"#utility.yul\":15245:15246   */\n      0x00\n        /* \"#utility.yul\":15234:15243   */\n      dup4\n        /* \"#utility.yul\":15230:15247   */\n      add\n        /* \"#utility.yul\":15223:15270   */\n      mstore\n        /* \"#utility.yul\":15287:15418   */\n      tag_333\n        /* \"#utility.yul\":15413:15417   */\n      dup2\n        /* \"#utility.yul\":15287:15418   */\n      tag_160\n      jump\t// in\n    tag_333:\n        /* \"#utility.yul\":15279:15418   */\n      swap1\n      pop\n        /* \"#utility.yul\":15006:15425   */\n      swap2\n      swap1\n      pop\n      jump\t// out\n        /* \"#utility.yul\":15431:15524   */\n    tag_161:\n        /* \"#utility.yul\":15468:15474   */\n      0x00\n        /* \"#utility.yul\":15515:15517   */\n      0x20\n        /* \"#utility.yul\":15510:15512   */\n      0x1f\n        /* \"#utility.yul\":15503:15508   */\n      dup4\n        /* \"#utility.yul\":15499:15513   */\n      add\n        /* \"#utility.yul\":15495:15518   */\n      div\n        /* \"#utility.yul\":15485:15518   */\n      swap1\n      pop\n        /* \"#utility.yul\":15431:15524   */\n      swap2\n      swap1\n      pop\n      jump\t// out\n        /* \"#utility.yul\":15530:15637   */\n    tag_162:\n        /* \"#utility.yul\":15574:15582   */\n      0x00\n        /* \"#utility.yul\":15624:15629   */\n      dup3\n        /* \"#utility.yul\":15618:15622   */\n      dup3\n        /* \"#utility.yul\":15614:15630   */\n      shl\n        /* \"#utility.yul\":15593:15630   */\n      swap1\n      pop\n        /* \"#utility.yul\":15530:15637   */\n      swap3\n      swap2\n      pop\n      pop\n      jump\t// out\n        /* \"#utility.yul\":15643:16036   */\n    tag_163:\n        /* \"#utility.yul\":15712:15718   */\n      0x00\n        /* \"#utility.yul\":15762:15763   */\n      0x08\n        /* \"#utility.yul\":15750:15760   */\n      dup4\n        /* \"#utility.yul\":15746:15764   */\n      mul\n        /* \"#utility.yul\":15785:15882   */\n      tag_337\n        /* \"#utility.yul\":15815:15881   */\n      0xffffffffffffffffffffffffffffffffffffffffffffffffffffffffffffffff\n        /* \"#utility.yul\":15804:15813   */\n      dup3\n        /* \"#utility.yul\":15785:15882   */\n      tag_162\n      jump\t// in\n    tag_337:\n        /* \"#utility.yul\":15903:15942   */\n      tag_338\n        /* \"#utility.yul\":15933:15941   */\n      dup7\n        /* \"#utility.yul\":15922:15931   */\n      dup4\n        /* \"#utility.yul\":15903:15942   */\n      tag_162\n      jump\t// in\n    tag_338:\n        /* \"#utility.yul\":15891:15942   */\n      swap6\n      pop\n        /* \"#utility.yul\":15975:15979   */\n      dup1\n        /* \"#utility.yul\":15971:15980   */\n      not\n        /* \"#utility.yul\":15964:15969   */\n      dup5\n        /* \"#utility.yul\":15960:15981   */\n      and\n        /* \"#utility.yul\":15951:15981   */\n      swap4\n      pop\n        /* \"#utility.yul\":16024:16028   */\n      dup1\n        /* \"#utility.yul\":16014:16022   */\n      dup7\n        /* \"#utility.yul\":16010:16029   */\n      and\n        /* \"#utility.yul\":16003:16008   */\n      dup5\n        /* \"#utility.yul\":16000:16030   */\n      or\n        /* \"#utility.yul\":15990:16030   */\n      swap3\n      pop\n        /* \"#utility.yul\":15719:16036   */\n      pop\n      pop\n        /* \"#utility.yul\":15643:16036   */\n      swap4\n      swap3\n      pop\n      pop\n      pop\n      jump\t// out\n        /* \"#utility.yul\":16042:16102   */\n    tag_164:\n        /* \"#utility.yul\":16070:16073   */\n      0x00\n        /* \"#utility.yul\":16091:16096   */\n      dup2\n        /* \"#utility.yul\":16084:16096   */\n      swap1\n      pop\n        /* \"#utility.yul\":16042:16102   */\n      swap2\n      swap1\n      pop\n      jump\t// out\n        /* \"#utility.yul\":16108:16250   */\n    tag_165:\n        /* \"#utility.yul\":16158:16167   */\n      0x00\n        /* \"#utility.yul\":16191:16244   */\n      tag_341\n        /* \"#utility.yul\":16209:16243   */\n      tag_342\n        /* \"#utility.yul\":16218:16242   */\n      tag_343\n        /* \"#utility.yul\":16236:16241   */\n      dup5\n        /* \"#utility.yul\":16218:16242   */\n      tag_123\n      jump\t// in\n    tag_343:\n        /* \"#utility.yul\":16209:16243   */\n      tag_164\n      jump\t// in\n    tag_342:\n        /* \"#utility.yul\":16191:16244   */\n      tag_123\n      jump\t// in\n    tag_341:\n        /* \"#utility.yul\":16178:16244   */\n      swap1\n      pop\n        /* \"#utility.yul\":16108:16250   */\n      swap2\n      swap1\n      pop\n      jump\t// out\n        /* \"#utility.yul\":16256:16331   */\n    tag_166:\n        /* \"#utility.yul\":16299:16302   */\n      0x00\n        /* \"#utility.yul\":16320:16325   */\n      dup2\n        /* \"#utility.yul\":16313:16325   */\n      swap1\n      pop\n        /* \"#utility.yul\":16256:16331   */\n      swap2\n      swap1\n      pop\n      jump\t// out\n        /* \"#utility.yul\":16337:16606   */\n    tag_167:\n        /* \"#utility.yul\":16447:16486   */\n      tag_346\n        /* \"#utility.yul\":16478:16485   */\n      dup4\n        /* \"#utility.yul\":16447:16486   */\n      tag_165\n      jump\t// in\n    tag_346:\n        /* \"#utility.yul\":16508:16599   */\n      tag_347\n        /* \"#utility.yul\":16557:16598   */\n      tag_348\n        /* \"#utility.yul\":16581:16597   */\n      dup3\n        /* \"#utility.yul\":16557:16598   */\n      tag_166\n      jump\t// in\n    tag_348:\n        /* \"#utility.yul\":16549:16555   */\n      dup5\n        /* \"#utility.yul\":16542:16546   */\n      dup5\n        /* \"#utility.yul\":16536:16547   */\n      sload\n        /* \"#utility.yul\":16508:16599   */\n      tag_163\n      jump\t// in\n    tag_347:\n        /* \"#utility.yul\":16502:16506   */\n      dup3\n        /* \"#utility.yul\":16495:16600   */\n      sstore\n        /* \"#utility.yul\":16413:16606   */\n      pop\n        /* \"#utility.yul\":16337:16606   */\n      pop\n      pop\n      pop\n      jump\t// out\n        /* \"#utility.yul\":16612:16685   */\n    tag_168:\n        /* \"#utility.yul\":16657:16660   */\n      0x00\n        /* \"#utility.yul\":16612:16685   */\n      swap1\n      jump\t// out\n        /* \"#utility.yul\":16691:16880   */\n    tag_169:\n        /* \"#utility.yul\":16768:16800   */\n      tag_351\n      tag_168\n      jump\t// in\n    tag_351:\n        /* \"#utility.yul\":16809:16874   */\n      tag_352\n        /* \"#utility.yul\":16867:16873   */\n      dup2\n        /* \"#utility.yul\":16859:16865   */\n      dup5\n        /* \"#utility.yul\":16853:16857   */\n      dup5\n        /* \"#utility.yul\":16809:16874   */\n      tag_167\n      jump\t// in\n    tag_352:\n        /* \"#utility.yul\":16744:16880   */\n      pop\n        /* \"#utility.yul\":16691:16880   */\n      pop\n      pop\n      jump\t// out\n        /* \"#utility.yul\":16886:17072   */\n    tag_170:\n        /* \"#utility.yul\":16946:17066   */\n    tag_354:\n        /* \"#utility.yul\":16963:16966   */\n      dup2\n        /* \"#utility.yul\":16956:16961   */\n      dup2\n        /* \"#utility.yul\":16953:16967   */\n      lt\n        /* \"#utility.yul\":16946:17066   */\n      iszero\n      tag_356\n      jumpi\n        /* \"#utility.yul\":17017:17056   */\n      tag_357\n        /* \"#utility.yul\":17054:17055   */\n      0x00\n        /* \"#utility.yul\":17047:17052   */\n      dup3\n        /* \"#utility.yul\":17017:17056   */\n      tag_169\n      jump\t// in\n    tag_357:\n        /* \"#utility.yul\":16990:16991   */\n      0x01\n        /* \"#utility.yul\":16983:16988   */\n      dup2\n        /* \"#utility.yul\":16979:16992   */\n      add\n        /* \"#utility.yul\":16970:16992   */\n      swap1\n      pop\n        /* \"#utility.yul\":16946:17066   */\n      jump(tag_354)\n    tag_356:\n        /* \"#utility.yul\":16886:17072   */\n      pop\n      pop\n      jump\t// out\n        /* \"#utility.yul\":17078:17621   */\n    tag_171:\n        /* \"#utility.yul\":17179:17181   */\n      0x1f\n        /* \"#utility.yul\":17174:17177   */\n      dup3\n        /* \"#utility.yul\":17171:17182   */\n      gt\n        /* \"#utility.yul\":17168:17614   */\n      iszero\n      tag_359\n      jumpi\n        /* \"#utility.yul\":17213:17251   */\n      tag_360\n        /* \"#utility.yul\":17245:17250   */\n      dup2\n        /* \"#utility.yul\":17213:17251   */\n      tag_156\n      jump\t// in\n    tag_360:\n        /* \"#utility.yul\":17297:17326   */\n      tag_361\n        /* \"#utility.yul\":17315:17325   */\n      dup5\n        /* \"#utility.yul\":17297:17326   */\n      tag_161\n      jump\t// in\n    tag_361:\n        /* \"#utility.yul\":17287:17295   */\n      dup2\n        /* \"#utility.yul\":17283:17327   */\n      add\n        /* \"#utility.yul\":17480:17482   */\n      0x20\n        /* \"#utility.yul\":17468:17478   */\n      dup6\n        /* \"#utility.yul\":17465:17483   */\n      lt\n        /* \"#utility.yul\":17462:17511   */\n      iszero\n      tag_362\n      jumpi\n        /* \"#utility.yul\":17501:17509   */\n      dup2\n        /* \"#utility.yul\":17486:17509   */\n      swap1\n      pop\n        /* \"#utility.yul\":17462:17511   */\n    tag_362:\n        /* \"#utility.yul\":17524:17604   */\n      tag_363\n        /* \"#utility.yul\":17580:17602   */\n      tag_364\n        /* \"#utility.yul\":17598:17601   */\n      dup6\n        /* \"#utility.yul\":17580:17602   */\n      tag_161\n      jump\t// in\n    tag_364:\n        /* \"#utility.yul\":17570:17578   */\n      dup4\n        /* \"#utility.yul\":17566:17603   */\n      add\n        /* \"#utility.yul\":17553:17564   */\n      dup3\n        /* \"#utility.yul\":17524:17604   */\n      tag_170\n      jump\t// in\n    tag_363:\n        /* \"#utility.yul\":17183:17614   */\n      pop\n      pop\n        /* \"#utility.yul\":17168:17614   */\n    tag_359:\n        /* \"#utility.yul\":17078:17621   */\n      pop\n      pop\n      pop\n      jump\t// out\n        /* \"#utility.yul\":17627:17744   */\n    tag_172:\n        /* \"#utility.yul\":17681:17689   */\n      0x00\n        /* \"#utility.yul\":17731:17736   */\n      dup3\n        /* \"#utility.yul\":17725:17729   */\n      dup3\n        /* \"#utility.yul\":17721:17737   */\n      shr\n        /* \"#utility.yul\":17700:17737   */\n      swap1\n      pop\n        /* \"#utility.yul\":17627:17744   */\n      swap3\n      swap2\n      pop\n      pop\n      jump\t// out\n        /* \"#utility.yul\":17750:17919   */\n    tag_173:\n        /* \"#utility.yul\":17794:17800   */\n      0x00\n        /* \"#utility.yul\":17827:17878   */\n      tag_367\n        /* \"#utility.yul\":17875:17876   */\n      0x00\n        /* \"#utility.yul\":17871:17877   */\n      not\n        /* \"#utility.yul\":17863:17868   */\n      dup5\n        /* \"#utility.yul\":17860:17861   */\n      0x08\n        /* \"#utility.yul\":17856:17869   */\n      mul\n        /* \"#utility.yul\":17827:17878   */\n      tag_172\n      jump\t// in\n    tag_367:\n        /* \"#utility.yul\":17823:17879   */\n      not\n        /* \"#utility.yul\":17908:17912   */\n      dup1\n        /* \"#utility.yul\":17902:17906   */\n      dup4\n        /* \"#utility.yul\":17898:17913   */\n      and\n        /* \"#utility.yul\":17888:17913   */\n      swap2\n      pop\n        /* \"#utility.yul\":17801:17919   */\n      pop\n        /* \"#utility.yul\":17750:17919   */\n      swap3\n      swap2\n      pop\n      pop\n      jump\t// out\n        /* \"#utility.yul\":17924:18219   */\n    tag_174:\n        /* \"#utility.yul\":18000:18004   */\n      0x00\n        /* \"#utility.yul\":18146:18175   */\n      tag_369\n        /* \"#utility.yul\":18171:18174   */\n      dup4\n        /* \"#utility.yul\":18165:18169   */\n      dup4\n        /* \"#utility.yul\":18146:18175   */\n      tag_173\n      jump\t// in\n    tag_369:\n        /* \"#utility.yul\":18138:18175   */\n      swap2\n      pop\n        /* \"#utility.yul\":18208:18211   */\n      dup3\n        /* \"#utility.yul\":18205:18206   */\n      0x02\n        /* \"#utility.yul\":18201:18212   */\n      mul\n        /* \"#utility.yul\":18195:18199   */\n      dup3\n        /* \"#utility.yul\":18192:18213   */\n      or\n        /* \"#utility.yul\":18184:18213   */\n      swap1\n      pop\n        /* \"#utility.yul\":17924:18219   */\n      swap3\n      swap2\n      pop\n      pop\n      jump\t// out\n        /* \"#utility.yul\":18224:19619   */\n    tag_101:\n        /* \"#utility.yul\":18341:18378   */\n      tag_371\n        /* \"#utility.yul\":18374:18377   */\n      dup3\n        /* \"#utility.yul\":18341:18378   */\n      tag_152\n      jump\t// in\n    tag_371:\n        /* \"#utility.yul\":18443:18461   */\n      0xffffffffffffffff\n        /* \"#utility.yul\":18435:18441   */\n      dup2\n        /* \"#utility.yul\":18432:18462   */\n      gt\n        /* \"#utility.yul\":18429:18485   */\n      iszero\n      tag_372\n      jumpi\n        /* \"#utility.yul\":18465:18483   */\n      tag_373\n      tag_136\n      jump\t// in\n    tag_373:\n        /* \"#utility.yul\":18429:18485   */\n    tag_372:\n        /* \"#utility.yul\":18509:18547   */\n      tag_374\n        /* \"#utility.yul\":18541:18545   */\n      dup3\n        /* \"#utility.yul\":18535:18546   */\n      sload\n        /* \"#utility.yul\":18509:18547   */\n      tag_112\n      jump\t// in\n    tag_374:\n        /* \"#utility.yul\":18594:18661   */\n      tag_375\n        /* \"#utility.yul\":18654:18660   */\n      dup3\n        /* \"#utility.yul\":18646:18652   */\n      dup3\n        /* \"#utility.yul\":18640:18644   */\n      dup6\n        /* \"#utility.yul\":18594:18661   */\n      tag_171\n      jump\t// in\n    tag_375:\n        /* \"#utility.yul\":18688:18689   */\n      0x00\n        /* \"#utility.yul\":18712:18716   */\n      0x20\n        /* \"#utility.yul\":18699:18716   */\n      swap1\n      pop\n        /* \"#utility.yul\":18744:18746   */\n      0x1f\n        /* \"#utility.yul\":18736:18742   */\n      dup4\n        /* \"#utility.yul\":18733:18747   */\n      gt\n        /* \"#utility.yul\":18761:18762   */\n      0x01\n        /* \"#utility.yul\":18756:19374   */\n      dup2\n      eq\n      tag_377\n      jumpi\n        /* \"#utility.yul\":19418:19419   */\n      0x00\n        /* \"#utility.yul\":19435:19441   */\n      dup5\n        /* \"#utility.yul\":19432:19509   */\n      iszero\n      tag_378\n      jumpi\n        /* \"#utility.yul\":19484:19493   */\n      dup3\n        /* \"#utility.yul\":19479:19482   */\n      dup8\n        /* \"#utility.yul\":19475:19494   */\n      add\n        /* \"#utility.yul\":19469:19495   */\n      mload\n        /* \"#utility.yul\":19460:19495   */\n      swap1\n      pop\n        /* \"#utility.yul\":19432:19509   */\n    tag_378:\n        /* \"#utility.yul\":19535:19602   */\n      tag_379\n        /* \"#utility.yul\":19595:19601   */\n      dup6\n        /* \"#utility.yul\":19588:19593   */\n      dup3\n        /* \"#utility.yul\":19535:19602   */\n      tag_174\n      jump\t// in\n    tag_379:\n        /* \"#utility.yul\":19529:19533   */\n      dup7\n        /* \"#utility.yul\":19522:19603   */\n      sstore\n        /* \"#utility.yul\":19391:19613   */\n      pop\n        /* \"#utility.yul\":18726:19613   */\n      jump(tag_376)\n        /* \"#utility.yul\":18756:19374   */\n    tag_377:\n        /* \"#utility.yul\":18808:18812   */\n      0x1f\n        /* \"#utility.yul\":18804:18813   */\n      not\n        /* \"#utility.yul\":18796:18802   */\n      dup5\n        /* \"#utility.yul\":18792:18814   */\n      and\n        /* \"#utility.yul\":18842:18879   */\n      tag_380\n        /* \"#utility.yul\":18874:18878   */\n      dup7\n        /* \"#utility.yul\":18842:18879   */\n      tag_156\n      jump\t// in\n    tag_380:\n        /* \"#utility.yul\":18901:18902   */\n      0x00\n        /* \"#utility.yul\":18915:19123   */\n    tag_381:\n        /* \"#utility.yul\":18929:18936   */\n      dup3\n        /* \"#utility.yul\":18926:18927   */\n      dup2\n        /* \"#utility.yul\":18923:18937   */\n      lt\n        /* \"#utility.yul\":18915:19123   */\n      iszero\n      tag_383\n      jumpi\n        /* \"#utility.yul\":19008:19017   */\n      dup5\n        /* \"#utility.yul\":19003:19006   */\n      dup10\n        /* \"#utility.yul\":18999:19018   */\n      add\n        /* \"#utility.yul\":18993:19019   */\n      mload\n        /* \"#utility.yul\":18985:18991   */\n      dup3\n        /* \"#utility.yul\":18978:19020   */\n      sstore\n        /* \"#utility.yul\":19059:19060   */\n      0x01\n        /* \"#utility.yul\":19051:19057   */\n      dup3\n        /* \"#utility.yul\":19047:19061   */\n      add\n        /* \"#utility.yul\":19037:19061   */\n      swap2\n      pop\n        /* \"#utility.yul\":19106:19108   */\n      0x20\n        /* \"#utility.yul\":19095:19104   */\n      dup6\n        /* \"#utility.yul\":19091:19109   */\n      add\n        /* \"#utility.yul\":19078:19109   */\n      swap5\n      pop\n        /* \"#utility.yul\":18952:18956   */\n      0x20\n        /* \"#utility.yul\":18949:18950   */\n      dup2\n        /* \"#utility.yul\":18945:18957   */\n      add\n        /* \"#utility.yul\":18940:18957   */\n      swap1\n      pop\n        /* \"#utility.yul\":18915:19123   */\n      jump(tag_381)\n    tag_383:\n        /* \"#utility.yul\":19151:19157   */\n      dup7\n        /* \"#utility.yul\":19142:19149   */\n      dup4\n        /* \"#utility.yul\":19139:19158   */\n      lt\n        /* \"#utility.yul\":19136:19315   */\n      iszero\n      tag_384\n      jumpi\n        /* \"#utility.yul\":19209:19218   */\n      dup5\n        /* \"#utility.yul\":19204:19207   */\n      dup10\n        /* \"#utility.yul\":19200:19219   */\n      add\n        /* \"#utility.yul\":19194:19220   */\n      mload\n        /* \"#utility.yul\":19252:19300   */\n      tag_385\n        /* \"#utility.yul\":19294:19298   */\n      0x1f\n        /* \"#utility.yul\":19286:19292   */\n      dup10\n        /* \"#utility.yul\":19282:19299   */\n      and\n        /* \"#utility.yul\":19271:19280   */\n      dup3\n        /* \"#utility.yul\":19252:19300   */\n      tag_173\n      jump\t// in\n    tag_385:\n        /* \"#utility.yul\":19244:19250   */\n      dup4\n        /* \"#utility.yul\":19237:19301   */\n      sstore\n        /* \"#utility.yul\":19159:19315   */\n      pop\n        /* \"#utility.yul\":19136:19315   */\n    tag_384:\n        /* \"#utility.yul\":19361:19362   */\n      0x01\n        /* \"#utility.yul\":19357:19358   */\n      0x02\n        /* \"#utility.yul\":19349:19355   */\n      dup9\n        /* \"#utility.yul\":19345:19359   */\n      mul\n        /* \"#utility.yul\":19341:19363   */\n      add\n        /* \"#utility.yul\":19335:19339   */\n      dup9\n        /* \"#utility.yul\":19328:19364   */\n      sstore\n        /* \"#utility.yul\":18763:19374   */\n      pop\n      pop\n      pop\n        /* \"#utility.yul\":18726:19613   */\n    tag_376:\n      pop\n        /* \"#utility.yul\":18316:19619   */\n      pop\n      pop\n      pop\n        /* \"#utility.yul\":18224:19619   */\n      pop\n      pop\n      jump\t// out\n\n    auxdata: 0xa2646970667358221220b052cd4d24b4d3b056fa126e45a214e484371fc35456cd8ff8e1b7aea723606064736f6c63430008120033\n}\n",
				"bytecode": {
					"linkReferences": {},
					"object": "60806040526000600255600160055560006006553480156200002057600080fd5b5060405162001c5238038062001c52833981810160405281019062000046919062000324565b33600160006101000a81548173ffffffffffffffffffffffffffffffffffffffff021916908373ffffffffffffffffffffffffffffffffffffffff1602179055508160039081620000989190620005cb565b5080600481905550620000b0620000be60201b60201c565b6002819055505050620008ce565b60008043426004546003604051602001620000da919062000753565b6040516020818303038152906040528051906020012060001c620000ff9190620007a6565b6200010b9190620007a6565b620001179190620007a6565b90506001600a80836200012b919062000810565b62000137919062000848565b8262000144919062000893565b620001509190620007a6565b91505090565b6000604051905090565b600080fd5b600080fd5b600080fd5b600080fd5b6000601f19601f8301169050919050565b7f4e487b7100000000000000000000000000000000000000000000000000000000600052604160045260246000fd5b620001bf8262000174565b810181811067ffffffffffffffff82111715620001e157620001e062000185565b5b80604052505050565b6000620001f662000156565b9050620002048282620001b4565b919050565b600067ffffffffffffffff82111562000227576200022662000185565b5b620002328262000174565b9050602081019050919050565b60005b838110156200025f57808201518184015260208101905062000242565b60008484015250505050565b6000620002826200027c8462000209565b620001ea565b905082815260208101848484011115620002a157620002a06200016f565b5b620002ae8482856200023f565b509392505050565b600082601f830112620002ce57620002cd6200016a565b5b8151620002e08482602086016200026b565b91505092915050565b6000819050919050565b620002fe81620002e9565b81146200030a57600080fd5b50565b6000815190506200031e81620002f3565b92915050565b600080604083850312156200033e576200033d62000160565b5b600083015167ffffffffffffffff8111156200035f576200035e62000165565b5b6200036d85828601620002b6565b925050602062000380858286016200030d565b9150509250929050565b600081519050919050565b7f4e487b7100000000000000000000000000000000000000000000000000000000600052602260045260246000fd5b60006002820490506001821680620003dd57607f821691505b602082108103620003f357620003f262000395565b5b50919050565b60008190508160005260206000209050919050565b60006020601f8301049050919050565b600082821b905092915050565b6000600883026200045d7fffffffffffffffffffffffffffffffffffffffffffffffffffffffffffffffff826200041e565b6200046986836200041e565b95508019841693508086168417925050509392505050565b6000819050919050565b6000620004ac620004a6620004a084620002e9565b62000481565b620002e9565b9050919050565b6000819050919050565b620004c8836200048b565b620004e0620004d782620004b3565b8484546200042b565b825550505050565b600090565b620004f7620004e8565b62000504818484620004bd565b505050565b5b818110156200052c5762000520600082620004ed565b6001810190506200050a565b5050565b601f8211156200057b576200054581620003f9565b62000550846200040e565b8101602085101562000560578190505b620005786200056f856200040e565b83018262000509565b50505b505050565b600082821c905092915050565b6000620005a06000198460080262000580565b1980831691505092915050565b6000620005bb83836200058d565b9150826002028217905092915050565b620005d6826200038a565b67ffffffffffffffff811115620005f257620005f162000185565b5b620005fe8254620003c4565b6200060b82828562000530565b600060209050601f8311600181146200064357600084156200062e578287015190505b6200063a8582620005ad565b865550620006aa565b601f1984166200065386620003f9565b60005b828110156200067d5784890151825560018201915060208501945060208101905062000656565b868310156200069d578489015162000699601f8916826200058d565b8355505b6001600288020188555050505b505050505050565b600082825260208201905092915050565b60008154620006d281620003c4565b620006de8186620006b2565b94506001821660008114620006fc576001811462000713576200074a565b60ff1983168652811515602002860193506200074a565b6200071e85620003f9565b60005b83811015620007425781548189015260018201915060208101905062000721565b808801955050505b50505092915050565b600060208201905081810360008301526200076f8184620006c3565b905092915050565b7f4e487b7100000000000000000000000000000000000000000000000000000000600052601160045260246000fd5b6000620007b382620002e9565b9150620007c083620002e9565b9250828201905080821115620007db57620007da62000777565b5b92915050565b7f4e487b7100000000000000000000000000000000000000000000000000000000600052601260045260246000fd5b60006200081d82620002e9565b91506200082a83620002e9565b9250826200083d576200083c620007e1565b5b828204905092915050565b60006200085582620002e9565b91506200086283620002e9565b92508282026200087281620002e9565b915082820484148315176200088c576200088b62000777565b5b5092915050565b6000620008a082620002e9565b9150620008ad83620002e9565b9250828203905081811115620008c857620008c762000777565b5b92915050565b61137480620008de6000396000f3fe60806040526004361061008a5760003560e01c80639f8743f7116100595780639f8743f714610429578063a09fb9ce14610454578063a86d2e191461047f578063cf66b989146104aa578063f4d37e97146104e75761037a565b8063055204ed1461037f578063146ca531146103aa5780635ef5cc89146103d55780638da5cb5b146103fe5761037a565b3661037a57662386f26fc1000034146100d8576040517f08c379a00000000000000000000000000000000000000000000000000000000081526004016100cf906108dd565b60405180910390fd5b60001515600080600554815260200190815260200160002060003373ffffffffffffffffffffffffffffffffffffffff1673ffffffffffffffffffffffffffffffffffffffff16815260200190815260200160002060009054906101000a900460ff1615151461017d576040517f08c379a000000000000000000000000000000000000000000000000000000000815260040161017490610949565b60405180910390fd5b6001600080600554815260200190815260200160002060003373ffffffffffffffffffffffffffffffffffffffff1673ffffffffffffffffffffffffffffffffffffffff16815260200190815260200160002060006101000a81548160ff0219169083151502179055506006600081546101f6906109a2565b91905081905550600254600654036103295760003373ffffffffffffffffffffffffffffffffffffffff164760405161022e90610a1b565b60006040518083038185875af1925050503d806000811461026b576040519150601f19603f3d011682016040523d82523d6000602084013e610270565b606091505b50509050806102b4576040517f08c379a00000000000000000000000000000000000000000000000000000000081526004016102ab90610a7c565b60405180910390fd5b60006006819055506005600081546102cb906109a2565b919050819055506102da610513565b6002819055503373ffffffffffffffffffffffffffffffffffffffff167fd7b5435fa0dd93954c7955210a67950d9385f8cd60631432712709e265ec99ca60405160405180910390a250610378565b3373ffffffffffffffffffffffffffffffffffffffff167f20384c35af44ae3e0536c765e1cee107339d7ca70b092472c816a3a62e4ba6593460405161036f9190610aab565b60405180910390a25b005b600080fd5b34801561038b57600080fd5b5061039461059b565b6040516103a19190610aab565b60405180910390f35b3480156103b657600080fd5b506103bf6105a3565b6040516103cc9190610aab565b60405180910390f35b3480156103e157600080fd5b506103fc60048036038101906103f79190610c4c565b6105a9565b005b34801561040a57600080fd5b50610413610654565b6040516104209190610ce9565b60405180910390f35b34801561043557600080fd5b5061043e61067a565b60405161044b9190610aab565b60405180910390f35b34801561046057600080fd5b50610469610684565b6040516104769190610aab565b60405180910390f35b34801561048b57600080fd5b5061049461068a565b6040516104a19190610aab565b60405180910390f35b3480156104b657600080fd5b506104d160048036038101906104cc9190610d30565b610724565b6040516104de9190610d8b565b60405180910390f35b3480156104f357600080fd5b506104fc610753565b60405161050a929190610e14565b60405180910390f35b6000804342600454600360405160200161052d9190610f3d565b6040516020818303038152906040528051906020012060001c6105509190610f5f565b61055a9190610f5f565b6105649190610f5f565b90506001600a80836105769190610fc2565b6105809190610ff3565b8261058b9190611035565b6105959190610f5f565b91505090565b600047905090565b60055481565b600160009054906101000a900473ffffffffffffffffffffffffffffffffffffffff1673ffffffffffffffffffffffffffffffffffffffff163373ffffffffffffffffffffffffffffffffffffffff1614610639576040517f08c379a0000000000000000000000000000000000000000000000000000000008152600401610630906110b5565b60405180910390fd5b8160039081610648919061126c565b50806004819055505050565b600160009054906101000a900473ffffffffffffffffffffffffffffffffffffffff1681565b6000600554905090565b60065481565b6000600160009054906101000a900473ffffffffffffffffffffffffffffffffffffffff1673ffffffffffffffffffffffffffffffffffffffff163373ffffffffffffffffffffffffffffffffffffffff161461071c576040517f08c379a0000000000000000000000000000000000000000000000000000000008152600401610713906110b5565b60405180910390fd5b600254905090565b60006020528160005260406000206020528060005260406000206000915091509054906101000a900460ff1681565b60606000600160009054906101000a900473ffffffffffffffffffffffffffffffffffffffff1673ffffffffffffffffffffffffffffffffffffffff163373ffffffffffffffffffffffffffffffffffffffff16146107e7576040517f08c379a00000000000000000000000000000000000000000000000000000000081526004016107de906110b5565b60405180910390fd5b60036004548180546107f890610e73565b80601f016020809104026020016040519081016040528092919081815260200182805461082490610e73565b80156108715780601f1061084657610100808354040283529160200191610871565b820191906000526020600020905b81548152906001019060200180831161085457829003601f168201915b50505050509150915091509091565b600082825260208201905092915050565b7f4d75737420626520302e30312065746865720000000000000000000000000000600082015250565b60006108c7601283610880565b91506108d282610891565b602082019050919050565b600060208201905081810360008301526108f6816108ba565b9050919050565b7f4d757374206265207468652066697273742074696d652e000000000000000000600082015250565b6000610933601783610880565b915061093e826108fd565b602082019050919050565b6000602082019050818103600083015261096281610926565b9050919050565b7f4e487b7100000000000000000000000000000000000000000000000000000000600052601160045260246000fd5b6000819050919050565b60006109ad82610998565b91507fffffffffffffffffffffffffffffffffffffffffffffffffffffffffffffffff82036109df576109de610969565b5b600182019050919050565b600081905092915050565b50565b6000610a056000836109ea565b9150610a10826109f5565b600082019050919050565b6000610a26826109f8565b9150819050919050565b7f4661696c65640000000000000000000000000000000000000000000000000000600082015250565b6000610a66600683610880565b9150610a7182610a30565b602082019050919050565b60006020820190508181036000830152610a9581610a59565b9050919050565b610aa581610998565b82525050565b6000602082019050610ac06000830184610a9c565b92915050565b6000604051905090565b600080fd5b600080fd5b600080fd5b600080fd5b6000601f19601f8301169050919050565b7f4e487b7100000000000000000000000000000000000000000000000000000000600052604160045260246000fd5b610b2d82610ae4565b810181811067ffffffffffffffff82111715610b4c57610b4b610af5565b5b80604052505050565b6000610b5f610ac6565b9050610b6b8282610b24565b919050565b600067ffffffffffffffff821115610b8b57610b8a610af5565b5b610b9482610ae4565b9050602081019050919050565b82818337600083830152505050565b6000610bc3610bbe84610b70565b610b55565b905082815260208101848484011115610bdf57610bde610adf565b5b610bea848285610ba1565b509392505050565b600082601f830112610c0757610c06610ada565b5b8135610c17848260208601610bb0565b91505092915050565b610c2981610998565b8114610c3457600080fd5b50565b600081359050610c4681610c20565b92915050565b60008060408385031215610c6357610c62610ad0565b5b600083013567ffffffffffffffff811115610c8157610c80610ad5565b5b610c8d85828601610bf2565b9250506020610c9e85828601610c37565b9150509250929050565b600073ffffffffffffffffffffffffffffffffffffffff82169050919050565b6000610cd382610ca8565b9050919050565b610ce381610cc8565b82525050565b6000602082019050610cfe6000830184610cda565b92915050565b610d0d81610cc8565b8114610d1857600080fd5b50565b600081359050610d2a81610d04565b92915050565b60008060408385031215610d4757610d46610ad0565b5b6000610d5585828601610c37565b9250506020610d6685828601610d1b565b9150509250929050565b60008115159050919050565b610d8581610d70565b82525050565b6000602082019050610da06000830184610d7c565b92915050565b600081519050919050565b60005b83811015610dcf578082015181840152602081019050610db4565b60008484015250505050565b6000610de682610da6565b610df08185610880565b9350610e00818560208601610db1565b610e0981610ae4565b840191505092915050565b60006040820190508181036000830152610e2e8185610ddb565b9050610e3d6020830184610a9c565b9392505050565b7f4e487b7100000000000000000000000000000000000000000000000000000000600052602260045260246000fd5b60006002820490506001821680610e8b57607f821691505b602082108103610e9e57610e9d610e44565b5b50919050565b60008190508160005260206000209050919050565b60008154610ec681610e73565b610ed08186610880565b94506001821660008114610eeb5760018114610f0157610f34565b60ff198316865281151560200286019350610f34565b610f0a85610ea4565b60005b83811015610f2c57815481890152600182019150602081019050610f0d565b808801955050505b50505092915050565b60006020820190508181036000830152610f578184610eb9565b905092915050565b6000610f6a82610998565b9150610f7583610998565b9250828201905080821115610f8d57610f8c610969565b5b92915050565b7f4e487b7100000000000000000000000000000000000000000000000000000000600052601260045260246000fd5b6000610fcd82610998565b9150610fd883610998565b925082610fe857610fe7610f93565b5b828204905092915050565b6000610ffe82610998565b915061100983610998565b925082820261101781610998565b9150828204841483151761102e5761102d610969565b5b5092915050565b600061104082610998565b915061104b83610998565b925082820390508181111561106357611062610969565b5b92915050565b7f4f776e61626c653a2063616c6c6572206973206e6f7420746865204f776e6572600082015250565b600061109f602083610880565b91506110aa82611069565b602082019050919050565b600060208201905081810360008301526110ce81611092565b9050919050565b60006020601f8301049050919050565b600082821b905092915050565b6000600883026111227fffffffffffffffffffffffffffffffffffffffffffffffffffffffffffffffff826110e5565b61112c86836110e5565b95508019841693508086168417925050509392505050565b6000819050919050565b600061116961116461115f84610998565b611144565b610998565b9050919050565b6000819050919050565b6111838361114e565b61119761118f82611170565b8484546110f2565b825550505050565b600090565b6111ac61119f565b6111b781848461117a565b505050565b5b818110156111db576111d06000826111a4565b6001810190506111bd565b5050565b601f821115611220576111f181610ea4565b6111fa846110d5565b81016020851015611209578190505b61121d611215856110d5565b8301826111bc565b50505b505050565b600082821c905092915050565b600061124360001984600802611225565b1980831691505092915050565b600061125c8383611232565b9150826002028217905092915050565b61127582610da6565b67ffffffffffffffff81111561128e5761128d610af5565b5b6112988254610e73565b6112a38282856111df565b600060209050601f8311600181146112d657600084156112c4578287015190505b6112ce8582611250565b865550611336565b601f1984166112e486610ea4565b60005b8281101561130c578489015182556001820191506020850194506020810190506112e7565b868310156113295784890151611325601f891682611232565b8355505b6001600288020188555050505b50505050505056fea2646970667358221220b052cd4d24b4d3b056fa126e45a214e484371fc35456cd8ff8e1b7aea723606064736f6c63430008120033",
					"opcodes": "PUSH1 0x80 PUSH1 0x40 MSTORE PUSH1 0x0 PUSH1 0x2 SSTORE PUSH1 0x1 PUSH1 0x5 SSTORE PUSH1 0x0 PUSH1 0x6 SSTORE CALLVALUE DUP1 ISZERO PUSH3 0x20 JUMPI PUSH1 0x0 DUP1 REVERT JUMPDEST POP PUSH1 0x40 MLOAD PUSH3 0x1C52 CODESIZE SUB DUP1 PUSH3 0x1C52 DUP4 CODECOPY DUP2 DUP2 ADD PUSH1 0x40 MSTORE DUP2 ADD SWAP1 PUSH3 0x46 SWAP2 SWAP1 PUSH3 0x324 JUMP JUMPDEST CALLER PUSH1 0x1 PUSH1 0x0 PUSH2 0x100 EXP DUP2 SLOAD DUP2 PUSH20 0xFFFFFFFFFFFFFFFFFFFFFFFFFFFFFFFFFFFFFFFF MUL NOT AND SWAP1 DUP4 PUSH20 0xFFFFFFFFFFFFFFFFFFFFFFFFFFFFFFFFFFFFFFFF AND MUL OR SWAP1 SSTORE POP DUP2 PUSH1 0x3 SWAP1 DUP2 PUSH3 0x98 SWAP2 SWAP1 PUSH3 0x5CB JUMP JUMPDEST POP DUP1 PUSH1 0x4 DUP2 SWAP1 SSTORE POP PUSH3 0xB0 PUSH3 0xBE PUSH1 0x20 SHL PUSH1 0x20 SHR JUMP JUMPDEST PUSH1 0x2 DUP2 SWAP1 SSTORE POP POP POP PUSH3 0x8CE JUMP JUMPDEST PUSH1 0x0 DUP1 NUMBER TIMESTAMP PUSH1 0x4 SLOAD PUSH1 0x3 PUSH1 0x40 MLOAD PUSH1 0x20 ADD PUSH3 0xDA SWAP2 SWAP1 PUSH3 0x753 JUMP JUMPDEST PUSH1 0x40 MLOAD PUSH1 0x20 DUP2 DUP4 SUB SUB DUP2 MSTORE SWAP1 PUSH1 0x40 MSTORE DUP1 MLOAD SWAP1 PUSH1 0x20 ADD KECCAK256 PUSH1 0x0 SHR PUSH3 0xFF SWAP2 SWAP1 PUSH3 0x7A6 JUMP JUMPDEST PUSH3 0x10B SWAP2 SWAP1 PUSH3 0x7A6 JUMP JUMPDEST PUSH3 0x117 SWAP2 SWAP1 PUSH3 0x7A6 JUMP JUMPDEST SWAP1 POP PUSH1 0x1 PUSH1 0xA DUP1 DUP4 PUSH3 0x12B SWAP2 SWAP1 PUSH3 0x810 JUMP JUMPDEST PUSH3 0x137 SWAP2 SWAP1 PUSH3 0x848 JUMP JUMPDEST DUP3 PUSH3 0x144 SWAP2 SWAP1 PUSH3 0x893 JUMP JUMPDEST PUSH3 0x150 SWAP2 SWAP1 PUSH3 0x7A6 JUMP JUMPDEST SWAP2 POP POP SWAP1 JUMP JUMPDEST PUSH1 0x0 PUSH1 0x40 MLOAD SWAP1 POP SWAP1 JUMP JUMPDEST PUSH1 0x0 DUP1 REVERT JUMPDEST PUSH1 0x0 DUP1 REVERT JUMPDEST PUSH1 0x0 DUP1 REVERT JUMPDEST PUSH1 0x0 DUP1 REVERT JUMPDEST PUSH1 0x0 PUSH1 0x1F NOT PUSH1 0x1F DUP4 ADD AND SWAP1 POP SWAP2 SWAP1 POP JUMP JUMPDEST PUSH32 0x4E487B7100000000000000000000000000000000000000000000000000000000 PUSH1 0x0 MSTORE PUSH1 0x41 PUSH1 0x4 MSTORE PUSH1 0x24 PUSH1 0x0 REVERT JUMPDEST PUSH3 0x1BF DUP3 PUSH3 0x174 JUMP JUMPDEST DUP2 ADD DUP2 DUP2 LT PUSH8 0xFFFFFFFFFFFFFFFF DUP3 GT OR ISZERO PUSH3 0x1E1 JUMPI PUSH3 0x1E0 PUSH3 0x185 JUMP JUMPDEST JUMPDEST DUP1 PUSH1 0x40 MSTORE POP POP POP JUMP JUMPDEST PUSH1 0x0 PUSH3 0x1F6 PUSH3 0x156 JUMP JUMPDEST SWAP1 POP PUSH3 0x204 DUP3 DUP3 PUSH3 0x1B4 JUMP JUMPDEST SWAP2 SWAP1 POP JUMP JUMPDEST PUSH1 0x0 PUSH8 0xFFFFFFFFFFFFFFFF DUP3 GT ISZERO PUSH3 0x227 JUMPI PUSH3 0x226 PUSH3 0x185 JUMP JUMPDEST JUMPDEST PUSH3 0x232 DUP3 PUSH3 0x174 JUMP JUMPDEST SWAP1 POP PUSH1 0x20 DUP2 ADD SWAP1 POP SWAP2 SWAP1 POP JUMP JUMPDEST PUSH1 0x0 JUMPDEST DUP4 DUP2 LT ISZERO PUSH3 0x25F JUMPI DUP1 DUP3 ADD MLOAD DUP2 DUP5 ADD MSTORE PUSH1 0x20 DUP2 ADD SWAP1 POP PUSH3 0x242 JUMP JUMPDEST PUSH1 0x0 DUP5 DUP5 ADD MSTORE POP POP POP POP JUMP JUMPDEST PUSH1 0x0 PUSH3 0x282 PUSH3 0x27C DUP5 PUSH3 0x209 JUMP JUMPDEST PUSH3 0x1EA JUMP JUMPDEST SWAP1 POP DUP3 DUP2 MSTORE PUSH1 0x20 DUP2 ADD DUP5 DUP5 DUP5 ADD GT ISZERO PUSH3 0x2A1 JUMPI PUSH3 0x2A0 PUSH3 0x16F JUMP JUMPDEST JUMPDEST PUSH3 0x2AE DUP5 DUP3 DUP6 PUSH3 0x23F JUMP JUMPDEST POP SWAP4 SWAP3 POP POP POP JUMP JUMPDEST PUSH1 0x0 DUP3 PUSH1 0x1F DUP4 ADD SLT PUSH3 0x2CE JUMPI PUSH3 0x2CD PUSH3 0x16A JUMP JUMPDEST JUMPDEST DUP2 MLOAD PUSH3 0x2E0 DUP5 DUP3 PUSH1 0x20 DUP7 ADD PUSH3 0x26B JUMP JUMPDEST SWAP2 POP POP SWAP3 SWAP2 POP POP JUMP JUMPDEST PUSH1 0x0 DUP2 SWAP1 POP SWAP2 SWAP1 POP JUMP JUMPDEST PUSH3 0x2FE DUP2 PUSH3 0x2E9 JUMP JUMPDEST DUP2 EQ PUSH3 0x30A JUMPI PUSH1 0x0 DUP1 REVERT JUMPDEST POP JUMP JUMPDEST PUSH1 0x0 DUP2 MLOAD SWAP1 POP PUSH3 0x31E DUP2 PUSH3 0x2F3 JUMP JUMPDEST SWAP3 SWAP2 POP POP JUMP JUMPDEST PUSH1 0x0 DUP1 PUSH1 0x40 DUP4 DUP6 SUB SLT ISZERO PUSH3 0x33E JUMPI PUSH3 0x33D PUSH3 0x160 JUMP JUMPDEST JUMPDEST PUSH1 0x0 DUP4 ADD MLOAD PUSH8 0xFFFFFFFFFFFFFFFF DUP2 GT ISZERO PUSH3 0x35F JUMPI PUSH3 0x35E PUSH3 0x165 JUMP JUMPDEST JUMPDEST PUSH3 0x36D DUP6 DUP3 DUP7 ADD PUSH3 0x2B6 JUMP JUMPDEST SWAP3 POP POP PUSH1 0x20 PUSH3 0x380 DUP6 DUP3 DUP7 ADD PUSH3 0x30D JUMP JUMPDEST SWAP2 POP POP SWAP3 POP SWAP3 SWAP1 POP JUMP JUMPDEST PUSH1 0x0 DUP2 MLOAD SWAP1 POP SWAP2 SWAP1 POP JUMP JUMPDEST PUSH32 0x4E487B7100000000000000000000000000000000000000000000000000000000 PUSH1 0x0 MSTORE PUSH1 0x22 PUSH1 0x4 MSTORE PUSH1 0x24 PUSH1 0x0 REVERT JUMPDEST PUSH1 0x0 PUSH1 0x2 DUP3 DIV SWAP1 POP PUSH1 0x1 DUP3 AND DUP1 PUSH3 0x3DD JUMPI PUSH1 0x7F DUP3 AND SWAP2 POP JUMPDEST PUSH1 0x20 DUP3 LT DUP2 SUB PUSH3 0x3F3 JUMPI PUSH3 0x3F2 PUSH3 0x395 JUMP JUMPDEST JUMPDEST POP SWAP2 SWAP1 POP JUMP JUMPDEST PUSH1 0x0 DUP2 SWAP1 POP DUP2 PUSH1 0x0 MSTORE PUSH1 0x20 PUSH1 0x0 KECCAK256 SWAP1 POP SWAP2 SWAP1 POP JUMP JUMPDEST PUSH1 0x0 PUSH1 0x20 PUSH1 0x1F DUP4 ADD DIV SWAP1 POP SWAP2 SWAP1 POP JUMP JUMPDEST PUSH1 0x0 DUP3 DUP3 SHL SWAP1 POP SWAP3 SWAP2 POP POP JUMP JUMPDEST PUSH1 0x0 PUSH1 0x8 DUP4 MUL PUSH3 0x45D PUSH32 0xFFFFFFFFFFFFFFFFFFFFFFFFFFFFFFFFFFFFFFFFFFFFFFFFFFFFFFFFFFFFFFFF DUP3 PUSH3 0x41E JUMP JUMPDEST PUSH3 0x469 DUP7 DUP4 PUSH3 0x41E JUMP JUMPDEST SWAP6 POP DUP1 NOT DUP5 AND SWAP4 POP DUP1 DUP7 AND DUP5 OR SWAP3 POP POP POP SWAP4 SWAP3 POP POP POP JUMP JUMPDEST PUSH1 0x0 DUP2 SWAP1 POP SWAP2 SWAP1 POP JUMP JUMPDEST PUSH1 0x0 PUSH3 0x4AC PUSH3 0x4A6 PUSH3 0x4A0 DUP5 PUSH3 0x2E9 JUMP JUMPDEST PUSH3 0x481 JUMP JUMPDEST PUSH3 0x2E9 JUMP JUMPDEST SWAP1 POP SWAP2 SWAP1 POP JUMP JUMPDEST PUSH1 0x0 DUP2 SWAP1 POP SWAP2 SWAP1 POP JUMP JUMPDEST PUSH3 0x4C8 DUP4 PUSH3 0x48B JUMP JUMPDEST PUSH3 0x4E0 PUSH3 0x4D7 DUP3 PUSH3 0x4B3 JUMP JUMPDEST DUP5 DUP5 SLOAD PUSH3 0x42B JUMP JUMPDEST DUP3 SSTORE POP POP POP POP JUMP JUMPDEST PUSH1 0x0 SWAP1 JUMP JUMPDEST PUSH3 0x4F7 PUSH3 0x4E8 JUMP JUMPDEST PUSH3 0x504 DUP2 DUP5 DUP5 PUSH3 0x4BD JUMP JUMPDEST POP POP POP JUMP JUMPDEST JUMPDEST DUP2 DUP2 LT ISZERO PUSH3 0x52C JUMPI PUSH3 0x520 PUSH1 0x0 DUP3 PUSH3 0x4ED JUMP JUMPDEST PUSH1 0x1 DUP2 ADD SWAP1 POP PUSH3 0x50A JUMP JUMPDEST POP POP JUMP JUMPDEST PUSH1 0x1F DUP3 GT ISZERO PUSH3 0x57B JUMPI PUSH3 0x545 DUP2 PUSH3 0x3F9 JUMP JUMPDEST PUSH3 0x550 DUP5 PUSH3 0x40E JUMP JUMPDEST DUP2 ADD PUSH1 0x20 DUP6 LT ISZERO PUSH3 0x560 JUMPI DUP2 SWAP1 POP JUMPDEST PUSH3 0x578 PUSH3 0x56F DUP6 PUSH3 0x40E JUMP JUMPDEST DUP4 ADD DUP3 PUSH3 0x509 JUMP JUMPDEST POP POP JUMPDEST POP POP POP JUMP JUMPDEST PUSH1 0x0 DUP3 DUP3 SHR SWAP1 POP SWAP3 SWAP2 POP POP JUMP JUMPDEST PUSH1 0x0 PUSH3 0x5A0 PUSH1 0x0 NOT DUP5 PUSH1 0x8 MUL PUSH3 0x580 JUMP JUMPDEST NOT DUP1 DUP4 AND SWAP2 POP POP SWAP3 SWAP2 POP POP JUMP JUMPDEST PUSH1 0x0 PUSH3 0x5BB DUP4 DUP4 PUSH3 0x58D JUMP JUMPDEST SWAP2 POP DUP3 PUSH1 0x2 MUL DUP3 OR SWAP1 POP SWAP3 SWAP2 POP POP JUMP JUMPDEST PUSH3 0x5D6 DUP3 PUSH3 0x38A JUMP JUMPDEST PUSH8 0xFFFFFFFFFFFFFFFF DUP2 GT ISZERO PUSH3 0x5F2 JUMPI PUSH3 0x5F1 PUSH3 0x185 JUMP JUMPDEST JUMPDEST PUSH3 0x5FE DUP3 SLOAD PUSH3 0x3C4 JUMP JUMPDEST PUSH3 0x60B DUP3 DUP3 DUP6 PUSH3 0x530 JUMP JUMPDEST PUSH1 0x0 PUSH1 0x20 SWAP1 POP PUSH1 0x1F DUP4 GT PUSH1 0x1 DUP2 EQ PUSH3 0x643 JUMPI PUSH1 0x0 DUP5 ISZERO PUSH3 0x62E JUMPI DUP3 DUP8 ADD MLOAD SWAP1 POP JUMPDEST PUSH3 0x63A DUP6 DUP3 PUSH3 0x5AD JUMP JUMPDEST DUP7 SSTORE POP PUSH3 0x6AA JUMP JUMPDEST PUSH1 0x1F NOT DUP5 AND PUSH3 0x653 DUP7 PUSH3 0x3F9 JUMP JUMPDEST PUSH1 0x0 JUMPDEST DUP3 DUP2 LT ISZERO PUSH3 0x67D JUMPI DUP5 DUP10 ADD MLOAD DUP3 SSTORE PUSH1 0x1 DUP3 ADD SWAP2 POP PUSH1 0x20 DUP6 ADD SWAP5 POP PUSH1 0x20 DUP2 ADD SWAP1 POP PUSH3 0x656 JUMP JUMPDEST DUP7 DUP4 LT ISZERO PUSH3 0x69D JUMPI DUP5 DUP10 ADD MLOAD PUSH3 0x699 PUSH1 0x1F DUP10 AND DUP3 PUSH3 0x58D JUMP JUMPDEST DUP4 SSTORE POP JUMPDEST PUSH1 0x1 PUSH1 0x2 DUP9 MUL ADD DUP9 SSTORE POP POP POP JUMPDEST POP POP POP POP POP POP JUMP JUMPDEST PUSH1 0x0 DUP3 DUP3 MSTORE PUSH1 0x20 DUP3 ADD SWAP1 POP SWAP3 SWAP2 POP POP JUMP JUMPDEST PUSH1 0x0 DUP2 SLOAD PUSH3 0x6D2 DUP2 PUSH3 0x3C4 JUMP JUMPDEST PUSH3 0x6DE DUP2 DUP7 PUSH3 0x6B2 JUMP JUMPDEST SWAP5 POP PUSH1 0x1 DUP3 AND PUSH1 0x0 DUP2 EQ PUSH3 0x6FC JUMPI PUSH1 0x1 DUP2 EQ PUSH3 0x713 JUMPI PUSH3 0x74A JUMP JUMPDEST PUSH1 0xFF NOT DUP4 AND DUP7 MSTORE DUP2 ISZERO ISZERO PUSH1 0x20 MUL DUP7 ADD SWAP4 POP PUSH3 0x74A JUMP JUMPDEST PUSH3 0x71E DUP6 PUSH3 0x3F9 JUMP JUMPDEST PUSH1 0x0 JUMPDEST DUP4 DUP2 LT ISZERO PUSH3 0x742 JUMPI DUP2 SLOAD DUP2 DUP10 ADD MSTORE PUSH1 0x1 DUP3 ADD SWAP2 POP PUSH1 0x20 DUP2 ADD SWAP1 POP PUSH3 0x721 JUMP JUMPDEST DUP1 DUP9 ADD SWAP6 POP POP POP JUMPDEST POP POP POP SWAP3 SWAP2 POP POP JUMP JUMPDEST PUSH1 0x0 PUSH1 0x20 DUP3 ADD SWAP1 POP DUP2 DUP2 SUB PUSH1 0x0 DUP4 ADD MSTORE PUSH3 0x76F DUP2 DUP5 PUSH3 0x6C3 JUMP JUMPDEST SWAP1 POP SWAP3 SWAP2 POP POP JUMP JUMPDEST PUSH32 0x4E487B7100000000000000000000000000000000000000000000000000000000 PUSH1 0x0 MSTORE PUSH1 0x11 PUSH1 0x4 MSTORE PUSH1 0x24 PUSH1 0x0 REVERT JUMPDEST PUSH1 0x0 PUSH3 0x7B3 DUP3 PUSH3 0x2E9 JUMP JUMPDEST SWAP2 POP PUSH3 0x7C0 DUP4 PUSH3 0x2E9 JUMP JUMPDEST SWAP3 POP DUP3 DUP3 ADD SWAP1 POP DUP1 DUP3 GT ISZERO PUSH3 0x7DB JUMPI PUSH3 0x7DA PUSH3 0x777 JUMP JUMPDEST JUMPDEST SWAP3 SWAP2 POP POP JUMP JUMPDEST PUSH32 0x4E487B7100000000000000000000000000000000000000000000000000000000 PUSH1 0x0 MSTORE PUSH1 0x12 PUSH1 0x4 MSTORE PUSH1 0x24 PUSH1 0x0 REVERT JUMPDEST PUSH1 0x0 PUSH3 0x81D DUP3 PUSH3 0x2E9 JUMP JUMPDEST SWAP2 POP PUSH3 0x82A DUP4 PUSH3 0x2E9 JUMP JUMPDEST SWAP3 POP DUP3 PUSH3 0x83D JUMPI PUSH3 0x83C PUSH3 0x7E1 JUMP JUMPDEST JUMPDEST DUP3 DUP3 DIV SWAP1 POP SWAP3 SWAP2 POP POP JUMP JUMPDEST PUSH1 0x0 PUSH3 0x855 DUP3 PUSH3 0x2E9 JUMP JUMPDEST SWAP2 POP PUSH3 0x862 DUP4 PUSH3 0x2E9 JUMP JUMPDEST SWAP3 POP DUP3 DUP3 MUL PUSH3 0x872 DUP2 PUSH3 0x2E9 JUMP JUMPDEST SWAP2 POP DUP3 DUP3 DIV DUP5 EQ DUP4 ISZERO OR PUSH3 0x88C JUMPI PUSH3 0x88B PUSH3 0x777 JUMP JUMPDEST JUMPDEST POP SWAP3 SWAP2 POP POP JUMP JUMPDEST PUSH1 0x0 PUSH3 0x8A0 DUP3 PUSH3 0x2E9 JUMP JUMPDEST SWAP2 POP PUSH3 0x8AD DUP4 PUSH3 0x2E9 JUMP JUMPDEST SWAP3 POP DUP3 DUP3 SUB SWAP1 POP DUP2 DUP2 GT ISZERO PUSH3 0x8C8 JUMPI PUSH3 0x8C7 PUSH3 0x777 JUMP JUMPDEST JUMPDEST SWAP3 SWAP2 POP POP JUMP JUMPDEST PUSH2 0x1374 DUP1 PUSH3 0x8DE PUSH1 0x0 CODECOPY PUSH1 0x0 RETURN INVALID PUSH1 0x80 PUSH1 0x40 MSTORE PUSH1 0x4 CALLDATASIZE LT PUSH2 0x8A JUMPI PUSH1 0x0 CALLDATALOAD PUSH1 0xE0 SHR DUP1 PUSH4 0x9F8743F7 GT PUSH2 0x59 JUMPI DUP1 PUSH4 0x9F8743F7 EQ PUSH2 0x429 JUMPI DUP1 PUSH4 0xA09FB9CE EQ PUSH2 0x454 JUMPI DUP1 PUSH4 0xA86D2E19 EQ PUSH2 0x47F JUMPI DUP1 PUSH4 0xCF66B989 EQ PUSH2 0x4AA JUMPI DUP1 PUSH4 0xF4D37E97 EQ PUSH2 0x4E7 JUMPI PUSH2 0x37A JUMP JUMPDEST DUP1 PUSH4 0x55204ED EQ PUSH2 0x37F JUMPI DUP1 PUSH4 0x146CA531 EQ PUSH2 0x3AA JUMPI DUP1 PUSH4 0x5EF5CC89 EQ PUSH2 0x3D5 JUMPI DUP1 PUSH4 0x8DA5CB5B EQ PUSH2 0x3FE JUMPI PUSH2 0x37A JUMP JUMPDEST CALLDATASIZE PUSH2 0x37A JUMPI PUSH7 0x2386F26FC10000 CALLVALUE EQ PUSH2 0xD8 JUMPI PUSH1 0x40 MLOAD PUSH32 0x8C379A000000000000000000000000000000000000000000000000000000000 DUP2 MSTORE PUSH1 0x4 ADD PUSH2 0xCF SWAP1 PUSH2 0x8DD JUMP JUMPDEST PUSH1 0x40 MLOAD DUP1 SWAP2 SUB SWAP1 REVERT JUMPDEST PUSH1 0x0 ISZERO ISZERO PUSH1 0x0 DUP1 PUSH1 0x5 SLOAD DUP2 MSTORE PUSH1 0x20 ADD SWAP1 DUP2 MSTORE PUSH1 0x20 ADD PUSH1 0x0 KECCAK256 PUSH1 0x0 CALLER PUSH20 0xFFFFFFFFFFFFFFFFFFFFFFFFFFFFFFFFFFFFFFFF AND PUSH20 0xFFFFFFFFFFFFFFFFFFFFFFFFFFFFFFFFFFFFFFFF AND DUP2 MSTORE PUSH1 0x20 ADD SWAP1 DUP2 MSTORE PUSH1 0x20 ADD PUSH1 0x0 KECCAK256 PUSH1 0x0 SWAP1 SLOAD SWAP1 PUSH2 0x100 EXP SWAP1 DIV PUSH1 0xFF AND ISZERO ISZERO EQ PUSH2 0x17D JUMPI PUSH1 0x40 MLOAD PUSH32 0x8C379A000000000000000000000000000000000000000000000000000000000 DUP2 MSTORE PUSH1 0x4 ADD PUSH2 0x174 SWAP1 PUSH2 0x949 JUMP JUMPDEST PUSH1 0x40 MLOAD DUP1 SWAP2 SUB SWAP1 REVERT JUMPDEST PUSH1 0x1 PUSH1 0x0 DUP1 PUSH1 0x5 SLOAD DUP2 MSTORE PUSH1 0x20 ADD SWAP1 DUP2 MSTORE PUSH1 0x20 ADD PUSH1 0x0 KECCAK256 PUSH1 0x0 CALLER PUSH20 0xFFFFFFFFFFFFFFFFFFFFFFFFFFFFFFFFFFFFFFFF AND PUSH20 0xFFFFFFFFFFFFFFFFFFFFFFFFFFFFFFFFFFFFFFFF AND DUP2 MSTORE PUSH1 0x20 ADD SWAP1 DUP2 MSTORE PUSH1 0x20 ADD PUSH1 0x0 KECCAK256 PUSH1 0x0 PUSH2 0x100 EXP DUP2 SLOAD DUP2 PUSH1 0xFF MUL NOT AND SWAP1 DUP4 ISZERO ISZERO MUL OR SWAP1 SSTORE POP PUSH1 0x6 PUSH1 0x0 DUP2 SLOAD PUSH2 0x1F6 SWAP1 PUSH2 0x9A2 JUMP JUMPDEST SWAP2 SWAP1 POP DUP2 SWAP1 SSTORE POP PUSH1 0x2 SLOAD PUSH1 0x6 SLOAD SUB PUSH2 0x329 JUMPI PUSH1 0x0 CALLER PUSH20 0xFFFFFFFFFFFFFFFFFFFFFFFFFFFFFFFFFFFFFFFF AND SELFBALANCE PUSH1 0x40 MLOAD PUSH2 0x22E SWAP1 PUSH2 0xA1B JUMP JUMPDEST PUSH1 0x0 PUSH1 0x40 MLOAD DUP1 DUP4 SUB DUP2 DUP6 DUP8 GAS CALL SWAP3 POP POP POP RETURNDATASIZE DUP1 PUSH1 0x0 DUP2 EQ PUSH2 0x26B JUMPI PUSH1 0x40 MLOAD SWAP2 POP PUSH1 0x1F NOT PUSH1 0x3F RETURNDATASIZE ADD AND DUP3 ADD PUSH1 0x40 MSTORE RETURNDATASIZE DUP3 MSTORE RETURNDATASIZE PUSH1 0x0 PUSH1 0x20 DUP5 ADD RETURNDATACOPY PUSH2 0x270 JUMP JUMPDEST PUSH1 0x60 SWAP2 POP JUMPDEST POP POP SWAP1 POP DUP1 PUSH2 0x2B4 JUMPI PUSH1 0x40 MLOAD PUSH32 0x8C379A000000000000000000000000000000000000000000000000000000000 DUP2 MSTORE PUSH1 0x4 ADD PUSH2 0x2AB SWAP1 PUSH2 0xA7C JUMP JUMPDEST PUSH1 0x40 MLOAD DUP1 SWAP2 SUB SWAP1 REVERT JUMPDEST PUSH1 0x0 PUSH1 0x6 DUP2 SWAP1 SSTORE POP PUSH1 0x5 PUSH1 0x0 DUP2 SLOAD PUSH2 0x2CB SWAP1 PUSH2 0x9A2 JUMP JUMPDEST SWAP2 SWAP1 POP DUP2 SWAP1 SSTORE POP PUSH2 0x2DA PUSH2 0x513 JUMP JUMPDEST PUSH1 0x2 DUP2 SWAP1 SSTORE POP CALLER PUSH20 0xFFFFFFFFFFFFFFFFFFFFFFFFFFFFFFFFFFFFFFFF AND PUSH32 0xD7B5435FA0DD93954C7955210A67950D9385F8CD60631432712709E265EC99CA PUSH1 0x40 MLOAD PUSH1 0x40 MLOAD DUP1 SWAP2 SUB SWAP1 LOG2 POP PUSH2 0x378 JUMP JUMPDEST CALLER PUSH20 0xFFFFFFFFFFFFFFFFFFFFFFFFFFFFFFFFFFFFFFFF AND PUSH32 0x20384C35AF44AE3E0536C765E1CEE107339D7CA70B092472C816A3A62E4BA659 CALLVALUE PUSH1 0x40 MLOAD PUSH2 0x36F SWAP2 SWAP1 PUSH2 0xAAB JUMP JUMPDEST PUSH1 0x40 MLOAD DUP1 SWAP2 SUB SWAP1 LOG2 JUMPDEST STOP JUMPDEST PUSH1 0x0 DUP1 REVERT JUMPDEST CALLVALUE DUP1 ISZERO PUSH2 0x38B JUMPI PUSH1 0x0 DUP1 REVERT JUMPDEST POP PUSH2 0x394 PUSH2 0x59B JUMP JUMPDEST PUSH1 0x40 MLOAD PUSH2 0x3A1 SWAP2 SWAP1 PUSH2 0xAAB JUMP JUMPDEST PUSH1 0x40 MLOAD DUP1 SWAP2 SUB SWAP1 RETURN JUMPDEST CALLVALUE DUP1 ISZERO PUSH2 0x3B6 JUMPI PUSH1 0x0 DUP1 REVERT JUMPDEST POP PUSH2 0x3BF PUSH2 0x5A3 JUMP JUMPDEST PUSH1 0x40 MLOAD PUSH2 0x3CC SWAP2 SWAP1 PUSH2 0xAAB JUMP JUMPDEST PUSH1 0x40 MLOAD DUP1 SWAP2 SUB SWAP1 RETURN JUMPDEST CALLVALUE DUP1 ISZERO PUSH2 0x3E1 JUMPI PUSH1 0x0 DUP1 REVERT JUMPDEST POP PUSH2 0x3FC PUSH1 0x4 DUP1 CALLDATASIZE SUB DUP2 ADD SWAP1 PUSH2 0x3F7 SWAP2 SWAP1 PUSH2 0xC4C JUMP JUMPDEST PUSH2 0x5A9 JUMP JUMPDEST STOP JUMPDEST CALLVALUE DUP1 ISZERO PUSH2 0x40A JUMPI PUSH1 0x0 DUP1 REVERT JUMPDEST POP PUSH2 0x413 PUSH2 0x654 JUMP JUMPDEST PUSH1 0x40 MLOAD PUSH2 0x420 SWAP2 SWAP1 PUSH2 0xCE9 JUMP JUMPDEST PUSH1 0x40 MLOAD DUP1 SWAP2 SUB SWAP1 RETURN JUMPDEST CALLVALUE DUP1 ISZERO PUSH2 0x435 JUMPI PUSH1 0x0 DUP1 REVERT JUMPDEST POP PUSH2 0x43E PUSH2 0x67A JUMP JUMPDEST PUSH1 0x40 MLOAD PUSH2 0x44B SWAP2 SWAP1 PUSH2 0xAAB JUMP JUMPDEST PUSH1 0x40 MLOAD DUP1 SWAP2 SUB SWAP1 RETURN JUMPDEST CALLVALUE DUP1 ISZERO PUSH2 0x460 JUMPI PUSH1 0x0 DUP1 REVERT JUMPDEST POP PUSH2 0x469 PUSH2 0x684 JUMP JUMPDEST PUSH1 0x40 MLOAD PUSH2 0x476 SWAP2 SWAP1 PUSH2 0xAAB JUMP JUMPDEST PUSH1 0x40 MLOAD DUP1 SWAP2 SUB SWAP1 RETURN JUMPDEST CALLVALUE DUP1 ISZERO PUSH2 0x48B JUMPI PUSH1 0x0 DUP1 REVERT JUMPDEST POP PUSH2 0x494 PUSH2 0x68A JUMP JUMPDEST PUSH1 0x40 MLOAD PUSH2 0x4A1 SWAP2 SWAP1 PUSH2 0xAAB JUMP JUMPDEST PUSH1 0x40 MLOAD DUP1 SWAP2 SUB SWAP1 RETURN JUMPDEST CALLVALUE DUP1 ISZERO PUSH2 0x4B6 JUMPI PUSH1 0x0 DUP1 REVERT JUMPDEST POP PUSH2 0x4D1 PUSH1 0x4 DUP1 CALLDATASIZE SUB DUP2 ADD SWAP1 PUSH2 0x4CC SWAP2 SWAP1 PUSH2 0xD30 JUMP JUMPDEST PUSH2 0x724 JUMP JUMPDEST PUSH1 0x40 MLOAD PUSH2 0x4DE SWAP2 SWAP1 PUSH2 0xD8B JUMP JUMPDEST PUSH1 0x40 MLOAD DUP1 SWAP2 SUB SWAP1 RETURN JUMPDEST CALLVALUE DUP1 ISZERO PUSH2 0x4F3 JUMPI PUSH1 0x0 DUP1 REVERT JUMPDEST POP PUSH2 0x4FC PUSH2 0x753 JUMP JUMPDEST PUSH1 0x40 MLOAD PUSH2 0x50A SWAP3 SWAP2 SWAP1 PUSH2 0xE14 JUMP JUMPDEST PUSH1 0x40 MLOAD DUP1 SWAP2 SUB SWAP1 RETURN JUMPDEST PUSH1 0x0 DUP1 NUMBER TIMESTAMP PUSH1 0x4 SLOAD PUSH1 0x3 PUSH1 0x40 MLOAD PUSH1 0x20 ADD PUSH2 0x52D SWAP2 SWAP1 PUSH2 0xF3D JUMP JUMPDEST PUSH1 0x40 MLOAD PUSH1 0x20 DUP2 DUP4 SUB SUB DUP2 MSTORE SWAP1 PUSH1 0x40 MSTORE DUP1 MLOAD SWAP1 PUSH1 0x20 ADD KECCAK256 PUSH1 0x0 SHR PUSH2 0x550 SWAP2 SWAP1 PUSH2 0xF5F JUMP JUMPDEST PUSH2 0x55A SWAP2 SWAP1 PUSH2 0xF5F JUMP JUMPDEST PUSH2 0x564 SWAP2 SWAP1 PUSH2 0xF5F JUMP JUMPDEST SWAP1 POP PUSH1 0x1 PUSH1 0xA DUP1 DUP4 PUSH2 0x576 SWAP2 SWAP1 PUSH2 0xFC2 JUMP JUMPDEST PUSH2 0x580 SWAP2 SWAP1 PUSH2 0xFF3 JUMP JUMPDEST DUP3 PUSH2 0x58B SWAP2 SWAP1 PUSH2 0x1035 JUMP JUMPDEST PUSH2 0x595 SWAP2 SWAP1 PUSH2 0xF5F JUMP JUMPDEST SWAP2 POP POP SWAP1 JUMP JUMPDEST PUSH1 0x0 SELFBALANCE SWAP1 POP SWAP1 JUMP JUMPDEST PUSH1 0x5 SLOAD DUP2 JUMP JUMPDEST PUSH1 0x1 PUSH1 0x0 SWAP1 SLOAD SWAP1 PUSH2 0x100 EXP SWAP1 DIV PUSH20 0xFFFFFFFFFFFFFFFFFFFFFFFFFFFFFFFFFFFFFFFF AND PUSH20 0xFFFFFFFFFFFFFFFFFFFFFFFFFFFFFFFFFFFFFFFF AND CALLER PUSH20 0xFFFFFFFFFFFFFFFFFFFFFFFFFFFFFFFFFFFFFFFF AND EQ PUSH2 0x639 JUMPI PUSH1 0x40 MLOAD PUSH32 0x8C379A000000000000000000000000000000000000000000000000000000000 DUP2 MSTORE PUSH1 0x4 ADD PUSH2 0x630 SWAP1 PUSH2 0x10B5 JUMP JUMPDEST PUSH1 0x40 MLOAD DUP1 SWAP2 SUB SWAP1 REVERT JUMPDEST DUP2 PUSH1 0x3 SWAP1 DUP2 PUSH2 0x648 SWAP2 SWAP1 PUSH2 0x126C JUMP JUMPDEST POP DUP1 PUSH1 0x4 DUP2 SWAP1 SSTORE POP POP POP JUMP JUMPDEST PUSH1 0x1 PUSH1 0x0 SWAP1 SLOAD SWAP1 PUSH2 0x100 EXP SWAP1 DIV PUSH20 0xFFFFFFFFFFFFFFFFFFFFFFFFFFFFFFFFFFFFFFFF AND DUP2 JUMP JUMPDEST PUSH1 0x0 PUSH1 0x5 SLOAD SWAP1 POP SWAP1 JUMP JUMPDEST PUSH1 0x6 SLOAD DUP2 JUMP JUMPDEST PUSH1 0x0 PUSH1 0x1 PUSH1 0x0 SWAP1 SLOAD SWAP1 PUSH2 0x100 EXP SWAP1 DIV PUSH20 0xFFFFFFFFFFFFFFFFFFFFFFFFFFFFFFFFFFFFFFFF AND PUSH20 0xFFFFFFFFFFFFFFFFFFFFFFFFFFFFFFFFFFFFFFFF AND CALLER PUSH20 0xFFFFFFFFFFFFFFFFFFFFFFFFFFFFFFFFFFFFFFFF AND EQ PUSH2 0x71C JUMPI PUSH1 0x40 MLOAD PUSH32 0x8C379A000000000000000000000000000000000000000000000000000000000 DUP2 MSTORE PUSH1 0x4 ADD PUSH2 0x713 SWAP1 PUSH2 0x10B5 JUMP JUMPDEST PUSH1 0x40 MLOAD DUP1 SWAP2 SUB SWAP1 REVERT JUMPDEST PUSH1 0x2 SLOAD SWAP1 POP SWAP1 JUMP JUMPDEST PUSH1 0x0 PUSH1 0x20 MSTORE DUP2 PUSH1 0x0 MSTORE PUSH1 0x40 PUSH1 0x0 KECCAK256 PUSH1 0x20 MSTORE DUP1 PUSH1 0x0 MSTORE PUSH1 0x40 PUSH1 0x0 KECCAK256 PUSH1 0x0 SWAP2 POP SWAP2 POP SWAP1 SLOAD SWAP1 PUSH2 0x100 EXP SWAP1 DIV PUSH1 0xFF AND DUP2 JUMP JUMPDEST PUSH1 0x60 PUSH1 0x0 PUSH1 0x1 PUSH1 0x0 SWAP1 SLOAD SWAP1 PUSH2 0x100 EXP SWAP1 DIV PUSH20 0xFFFFFFFFFFFFFFFFFFFFFFFFFFFFFFFFFFFFFFFF AND PUSH20 0xFFFFFFFFFFFFFFFFFFFFFFFFFFFFFFFFFFFFFFFF AND CALLER PUSH20 0xFFFFFFFFFFFFFFFFFFFFFFFFFFFFFFFFFFFFFFFF AND EQ PUSH2 0x7E7 JUMPI PUSH1 0x40 MLOAD PUSH32 0x8C379A000000000000000000000000000000000000000000000000000000000 DUP2 MSTORE PUSH1 0x4 ADD PUSH2 0x7DE SWAP1 PUSH2 0x10B5 JUMP JUMPDEST PUSH1 0x40 MLOAD DUP1 SWAP2 SUB SWAP1 REVERT JUMPDEST PUSH1 0x3 PUSH1 0x4 SLOAD DUP2 DUP1 SLOAD PUSH2 0x7F8 SWAP1 PUSH2 0xE73 JUMP JUMPDEST DUP1 PUSH1 0x1F ADD PUSH1 0x20 DUP1 SWAP2 DIV MUL PUSH1 0x20 ADD PUSH1 0x40 MLOAD SWAP1 DUP2 ADD PUSH1 0x40 MSTORE DUP1 SWAP3 SWAP2 SWAP1 DUP2 DUP2 MSTORE PUSH1 0x20 ADD DUP3 DUP1 SLOAD PUSH2 0x824 SWAP1 PUSH2 0xE73 JUMP JUMPDEST DUP1 ISZERO PUSH2 0x871 JUMPI DUP1 PUSH1 0x1F LT PUSH2 0x846 JUMPI PUSH2 0x100 DUP1 DUP4 SLOAD DIV MUL DUP4 MSTORE SWAP2 PUSH1 0x20 ADD SWAP2 PUSH2 0x871 JUMP JUMPDEST DUP3 ADD SWAP2 SWAP1 PUSH1 0x0 MSTORE PUSH1 0x20 PUSH1 0x0 KECCAK256 SWAP1 JUMPDEST DUP2 SLOAD DUP2 MSTORE SWAP1 PUSH1 0x1 ADD SWAP1 PUSH1 0x20 ADD DUP1 DUP4 GT PUSH2 0x854 JUMPI DUP3 SWAP1 SUB PUSH1 0x1F AND DUP3 ADD SWAP2 JUMPDEST POP POP POP POP POP SWAP2 POP SWAP2 POP SWAP2 POP SWAP1 SWAP2 JUMP JUMPDEST PUSH1 0x0 DUP3 DUP3 MSTORE PUSH1 0x20 DUP3 ADD SWAP1 POP SWAP3 SWAP2 POP POP JUMP JUMPDEST PUSH32 0x4D75737420626520302E30312065746865720000000000000000000000000000 PUSH1 0x0 DUP3 ADD MSTORE POP JUMP JUMPDEST PUSH1 0x0 PUSH2 0x8C7 PUSH1 0x12 DUP4 PUSH2 0x880 JUMP JUMPDEST SWAP2 POP PUSH2 0x8D2 DUP3 PUSH2 0x891 JUMP JUMPDEST PUSH1 0x20 DUP3 ADD SWAP1 POP SWAP2 SWAP1 POP JUMP JUMPDEST PUSH1 0x0 PUSH1 0x20 DUP3 ADD SWAP1 POP DUP2 DUP2 SUB PUSH1 0x0 DUP4 ADD MSTORE PUSH2 0x8F6 DUP2 PUSH2 0x8BA JUMP JUMPDEST SWAP1 POP SWAP2 SWAP1 POP JUMP JUMPDEST PUSH32 0x4D757374206265207468652066697273742074696D652E000000000000000000 PUSH1 0x0 DUP3 ADD MSTORE POP JUMP JUMPDEST PUSH1 0x0 PUSH2 0x933 PUSH1 0x17 DUP4 PUSH2 0x880 JUMP JUMPDEST SWAP2 POP PUSH2 0x93E DUP3 PUSH2 0x8FD JUMP JUMPDEST PUSH1 0x20 DUP3 ADD SWAP1 POP SWAP2 SWAP1 POP JUMP JUMPDEST PUSH1 0x0 PUSH1 0x20 DUP3 ADD SWAP1 POP DUP2 DUP2 SUB PUSH1 0x0 DUP4 ADD MSTORE PUSH2 0x962 DUP2 PUSH2 0x926 JUMP JUMPDEST SWAP1 POP SWAP2 SWAP1 POP JUMP JUMPDEST PUSH32 0x4E487B7100000000000000000000000000000000000000000000000000000000 PUSH1 0x0 MSTORE PUSH1 0x11 PUSH1 0x4 MSTORE PUSH1 0x24 PUSH1 0x0 REVERT JUMPDEST PUSH1 0x0 DUP2 SWAP1 POP SWAP2 SWAP1 POP JUMP JUMPDEST PUSH1 0x0 PUSH2 0x9AD DUP3 PUSH2 0x998 JUMP JUMPDEST SWAP2 POP PUSH32 0xFFFFFFFFFFFFFFFFFFFFFFFFFFFFFFFFFFFFFFFFFFFFFFFFFFFFFFFFFFFFFFFF DUP3 SUB PUSH2 0x9DF JUMPI PUSH2 0x9DE PUSH2 0x969 JUMP JUMPDEST JUMPDEST PUSH1 0x1 DUP3 ADD SWAP1 POP SWAP2 SWAP1 POP JUMP JUMPDEST PUSH1 0x0 DUP2 SWAP1 POP SWAP3 SWAP2 POP POP JUMP JUMPDEST POP JUMP JUMPDEST PUSH1 0x0 PUSH2 0xA05 PUSH1 0x0 DUP4 PUSH2 0x9EA JUMP JUMPDEST SWAP2 POP PUSH2 0xA10 DUP3 PUSH2 0x9F5 JUMP JUMPDEST PUSH1 0x0 DUP3 ADD SWAP1 POP SWAP2 SWAP1 POP JUMP JUMPDEST PUSH1 0x0 PUSH2 0xA26 DUP3 PUSH2 0x9F8 JUMP JUMPDEST SWAP2 POP DUP2 SWAP1 POP SWAP2 SWAP1 POP JUMP JUMPDEST PUSH32 0x4661696C65640000000000000000000000000000000000000000000000000000 PUSH1 0x0 DUP3 ADD MSTORE POP JUMP JUMPDEST PUSH1 0x0 PUSH2 0xA66 PUSH1 0x6 DUP4 PUSH2 0x880 JUMP JUMPDEST SWAP2 POP PUSH2 0xA71 DUP3 PUSH2 0xA30 JUMP JUMPDEST PUSH1 0x20 DUP3 ADD SWAP1 POP SWAP2 SWAP1 POP JUMP JUMPDEST PUSH1 0x0 PUSH1 0x20 DUP3 ADD SWAP1 POP DUP2 DUP2 SUB PUSH1 0x0 DUP4 ADD MSTORE PUSH2 0xA95 DUP2 PUSH2 0xA59 JUMP JUMPDEST SWAP1 POP SWAP2 SWAP1 POP JUMP JUMPDEST PUSH2 0xAA5 DUP2 PUSH2 0x998 JUMP JUMPDEST DUP3 MSTORE POP POP JUMP JUMPDEST PUSH1 0x0 PUSH1 0x20 DUP3 ADD SWAP1 POP PUSH2 0xAC0 PUSH1 0x0 DUP4 ADD DUP5 PUSH2 0xA9C JUMP JUMPDEST SWAP3 SWAP2 POP POP JUMP JUMPDEST PUSH1 0x0 PUSH1 0x40 MLOAD SWAP1 POP SWAP1 JUMP JUMPDEST PUSH1 0x0 DUP1 REVERT JUMPDEST PUSH1 0x0 DUP1 REVERT JUMPDEST PUSH1 0x0 DUP1 REVERT JUMPDEST PUSH1 0x0 DUP1 REVERT JUMPDEST PUSH1 0x0 PUSH1 0x1F NOT PUSH1 0x1F DUP4 ADD AND SWAP1 POP SWAP2 SWAP1 POP JUMP JUMPDEST PUSH32 0x4E487B7100000000000000000000000000000000000000000000000000000000 PUSH1 0x0 MSTORE PUSH1 0x41 PUSH1 0x4 MSTORE PUSH1 0x24 PUSH1 0x0 REVERT JUMPDEST PUSH2 0xB2D DUP3 PUSH2 0xAE4 JUMP JUMPDEST DUP2 ADD DUP2 DUP2 LT PUSH8 0xFFFFFFFFFFFFFFFF DUP3 GT OR ISZERO PUSH2 0xB4C JUMPI PUSH2 0xB4B PUSH2 0xAF5 JUMP JUMPDEST JUMPDEST DUP1 PUSH1 0x40 MSTORE POP POP POP JUMP JUMPDEST PUSH1 0x0 PUSH2 0xB5F PUSH2 0xAC6 JUMP JUMPDEST SWAP1 POP PUSH2 0xB6B DUP3 DUP3 PUSH2 0xB24 JUMP JUMPDEST SWAP2 SWAP1 POP JUMP JUMPDEST PUSH1 0x0 PUSH8 0xFFFFFFFFFFFFFFFF DUP3 GT ISZERO PUSH2 0xB8B JUMPI PUSH2 0xB8A PUSH2 0xAF5 JUMP JUMPDEST JUMPDEST PUSH2 0xB94 DUP3 PUSH2 0xAE4 JUMP JUMPDEST SWAP1 POP PUSH1 0x20 DUP2 ADD SWAP1 POP SWAP2 SWAP1 POP JUMP JUMPDEST DUP3 DUP2 DUP4 CALLDATACOPY PUSH1 0x0 DUP4 DUP4 ADD MSTORE POP POP POP JUMP JUMPDEST PUSH1 0x0 PUSH2 0xBC3 PUSH2 0xBBE DUP5 PUSH2 0xB70 JUMP JUMPDEST PUSH2 0xB55 JUMP JUMPDEST SWAP1 POP DUP3 DUP2 MSTORE PUSH1 0x20 DUP2 ADD DUP5 DUP5 DUP5 ADD GT ISZERO PUSH2 0xBDF JUMPI PUSH2 0xBDE PUSH2 0xADF JUMP JUMPDEST JUMPDEST PUSH2 0xBEA DUP5 DUP3 DUP6 PUSH2 0xBA1 JUMP JUMPDEST POP SWAP4 SWAP3 POP POP POP JUMP JUMPDEST PUSH1 0x0 DUP3 PUSH1 0x1F DUP4 ADD SLT PUSH2 0xC07 JUMPI PUSH2 0xC06 PUSH2 0xADA JUMP JUMPDEST JUMPDEST DUP2 CALLDATALOAD PUSH2 0xC17 DUP5 DUP3 PUSH1 0x20 DUP7 ADD PUSH2 0xBB0 JUMP JUMPDEST SWAP2 POP POP SWAP3 SWAP2 POP POP JUMP JUMPDEST PUSH2 0xC29 DUP2 PUSH2 0x998 JUMP JUMPDEST DUP2 EQ PUSH2 0xC34 JUMPI PUSH1 0x0 DUP1 REVERT JUMPDEST POP JUMP JUMPDEST PUSH1 0x0 DUP2 CALLDATALOAD SWAP1 POP PUSH2 0xC46 DUP2 PUSH2 0xC20 JUMP JUMPDEST SWAP3 SWAP2 POP POP JUMP JUMPDEST PUSH1 0x0 DUP1 PUSH1 0x40 DUP4 DUP6 SUB SLT ISZERO PUSH2 0xC63 JUMPI PUSH2 0xC62 PUSH2 0xAD0 JUMP JUMPDEST JUMPDEST PUSH1 0x0 DUP4 ADD CALLDATALOAD PUSH8 0xFFFFFFFFFFFFFFFF DUP2 GT ISZERO PUSH2 0xC81 JUMPI PUSH2 0xC80 PUSH2 0xAD5 JUMP JUMPDEST JUMPDEST PUSH2 0xC8D DUP6 DUP3 DUP7 ADD PUSH2 0xBF2 JUMP JUMPDEST SWAP3 POP POP PUSH1 0x20 PUSH2 0xC9E DUP6 DUP3 DUP7 ADD PUSH2 0xC37 JUMP JUMPDEST SWAP2 POP POP SWAP3 POP SWAP3 SWAP1 POP JUMP JUMPDEST PUSH1 0x0 PUSH20 0xFFFFFFFFFFFFFFFFFFFFFFFFFFFFFFFFFFFFFFFF DUP3 AND SWAP1 POP SWAP2 SWAP1 POP JUMP JUMPDEST PUSH1 0x0 PUSH2 0xCD3 DUP3 PUSH2 0xCA8 JUMP JUMPDEST SWAP1 POP SWAP2 SWAP1 POP JUMP JUMPDEST PUSH2 0xCE3 DUP2 PUSH2 0xCC8 JUMP JUMPDEST DUP3 MSTORE POP POP JUMP JUMPDEST PUSH1 0x0 PUSH1 0x20 DUP3 ADD SWAP1 POP PUSH2 0xCFE PUSH1 0x0 DUP4 ADD DUP5 PUSH2 0xCDA JUMP JUMPDEST SWAP3 SWAP2 POP POP JUMP JUMPDEST PUSH2 0xD0D DUP2 PUSH2 0xCC8 JUMP JUMPDEST DUP2 EQ PUSH2 0xD18 JUMPI PUSH1 0x0 DUP1 REVERT JUMPDEST POP JUMP JUMPDEST PUSH1 0x0 DUP2 CALLDATALOAD SWAP1 POP PUSH2 0xD2A DUP2 PUSH2 0xD04 JUMP JUMPDEST SWAP3 SWAP2 POP POP JUMP JUMPDEST PUSH1 0x0 DUP1 PUSH1 0x40 DUP4 DUP6 SUB SLT ISZERO PUSH2 0xD47 JUMPI PUSH2 0xD46 PUSH2 0xAD0 JUMP JUMPDEST JUMPDEST PUSH1 0x0 PUSH2 0xD55 DUP6 DUP3 DUP7 ADD PUSH2 0xC37 JUMP JUMPDEST SWAP3 POP POP PUSH1 0x20 PUSH2 0xD66 DUP6 DUP3 DUP7 ADD PUSH2 0xD1B JUMP JUMPDEST SWAP2 POP POP SWAP3 POP SWAP3 SWAP1 POP JUMP JUMPDEST PUSH1 0x0 DUP2 ISZERO ISZERO SWAP1 POP SWAP2 SWAP1 POP JUMP JUMPDEST PUSH2 0xD85 DUP2 PUSH2 0xD70 JUMP JUMPDEST DUP3 MSTORE POP POP JUMP JUMPDEST PUSH1 0x0 PUSH1 0x20 DUP3 ADD SWAP1 POP PUSH2 0xDA0 PUSH1 0x0 DUP4 ADD DUP5 PUSH2 0xD7C JUMP JUMPDEST SWAP3 SWAP2 POP POP JUMP JUMPDEST PUSH1 0x0 DUP2 MLOAD SWAP1 POP SWAP2 SWAP1 POP JUMP JUMPDEST PUSH1 0x0 JUMPDEST DUP4 DUP2 LT ISZERO PUSH2 0xDCF JUMPI DUP1 DUP3 ADD MLOAD DUP2 DUP5 ADD MSTORE PUSH1 0x20 DUP2 ADD SWAP1 POP PUSH2 0xDB4 JUMP JUMPDEST PUSH1 0x0 DUP5 DUP5 ADD MSTORE POP POP POP POP JUMP JUMPDEST PUSH1 0x0 PUSH2 0xDE6 DUP3 PUSH2 0xDA6 JUMP JUMPDEST PUSH2 0xDF0 DUP2 DUP6 PUSH2 0x880 JUMP JUMPDEST SWAP4 POP PUSH2 0xE00 DUP2 DUP6 PUSH1 0x20 DUP7 ADD PUSH2 0xDB1 JUMP JUMPDEST PUSH2 0xE09 DUP2 PUSH2 0xAE4 JUMP JUMPDEST DUP5 ADD SWAP2 POP POP SWAP3 SWAP2 POP POP JUMP JUMPDEST PUSH1 0x0 PUSH1 0x40 DUP3 ADD SWAP1 POP DUP2 DUP2 SUB PUSH1 0x0 DUP4 ADD MSTORE PUSH2 0xE2E DUP2 DUP6 PUSH2 0xDDB JUMP JUMPDEST SWAP1 POP PUSH2 0xE3D PUSH1 0x20 DUP4 ADD DUP5 PUSH2 0xA9C JUMP JUMPDEST SWAP4 SWAP3 POP POP POP JUMP JUMPDEST PUSH32 0x4E487B7100000000000000000000000000000000000000000000000000000000 PUSH1 0x0 MSTORE PUSH1 0x22 PUSH1 0x4 MSTORE PUSH1 0x24 PUSH1 0x0 REVERT JUMPDEST PUSH1 0x0 PUSH1 0x2 DUP3 DIV SWAP1 POP PUSH1 0x1 DUP3 AND DUP1 PUSH2 0xE8B JUMPI PUSH1 0x7F DUP3 AND SWAP2 POP JUMPDEST PUSH1 0x20 DUP3 LT DUP2 SUB PUSH2 0xE9E JUMPI PUSH2 0xE9D PUSH2 0xE44 JUMP JUMPDEST JUMPDEST POP SWAP2 SWAP1 POP JUMP JUMPDEST PUSH1 0x0 DUP2 SWAP1 POP DUP2 PUSH1 0x0 MSTORE PUSH1 0x20 PUSH1 0x0 KECCAK256 SWAP1 POP SWAP2 SWAP1 POP JUMP JUMPDEST PUSH1 0x0 DUP2 SLOAD PUSH2 0xEC6 DUP2 PUSH2 0xE73 JUMP JUMPDEST PUSH2 0xED0 DUP2 DUP7 PUSH2 0x880 JUMP JUMPDEST SWAP5 POP PUSH1 0x1 DUP3 AND PUSH1 0x0 DUP2 EQ PUSH2 0xEEB JUMPI PUSH1 0x1 DUP2 EQ PUSH2 0xF01 JUMPI PUSH2 0xF34 JUMP JUMPDEST PUSH1 0xFF NOT DUP4 AND DUP7 MSTORE DUP2 ISZERO ISZERO PUSH1 0x20 MUL DUP7 ADD SWAP4 POP PUSH2 0xF34 JUMP JUMPDEST PUSH2 0xF0A DUP6 PUSH2 0xEA4 JUMP JUMPDEST PUSH1 0x0 JUMPDEST DUP4 DUP2 LT ISZERO PUSH2 0xF2C JUMPI DUP2 SLOAD DUP2 DUP10 ADD MSTORE PUSH1 0x1 DUP3 ADD SWAP2 POP PUSH1 0x20 DUP2 ADD SWAP1 POP PUSH2 0xF0D JUMP JUMPDEST DUP1 DUP9 ADD SWAP6 POP POP POP JUMPDEST POP POP POP SWAP3 SWAP2 POP POP JUMP JUMPDEST PUSH1 0x0 PUSH1 0x20 DUP3 ADD SWAP1 POP DUP2 DUP2 SUB PUSH1 0x0 DUP4 ADD MSTORE PUSH2 0xF57 DUP2 DUP5 PUSH2 0xEB9 JUMP JUMPDEST SWAP1 POP SWAP3 SWAP2 POP POP JUMP JUMPDEST PUSH1 0x0 PUSH2 0xF6A DUP3 PUSH2 0x998 JUMP JUMPDEST SWAP2 POP PUSH2 0xF75 DUP4 PUSH2 0x998 JUMP JUMPDEST SWAP3 POP DUP3 DUP3 ADD SWAP1 POP DUP1 DUP3 GT ISZERO PUSH2 0xF8D JUMPI PUSH2 0xF8C PUSH2 0x969 JUMP JUMPDEST JUMPDEST SWAP3 SWAP2 POP POP JUMP JUMPDEST PUSH32 0x4E487B7100000000000000000000000000000000000000000000000000000000 PUSH1 0x0 MSTORE PUSH1 0x12 PUSH1 0x4 MSTORE PUSH1 0x24 PUSH1 0x0 REVERT JUMPDEST PUSH1 0x0 PUSH2 0xFCD DUP3 PUSH2 0x998 JUMP JUMPDEST SWAP2 POP PUSH2 0xFD8 DUP4 PUSH2 0x998 JUMP JUMPDEST SWAP3 POP DUP3 PUSH2 0xFE8 JUMPI PUSH2 0xFE7 PUSH2 0xF93 JUMP JUMPDEST JUMPDEST DUP3 DUP3 DIV SWAP1 POP SWAP3 SWAP2 POP POP JUMP JUMPDEST PUSH1 0x0 PUSH2 0xFFE DUP3 PUSH2 0x998 JUMP JUMPDEST SWAP2 POP PUSH2 0x1009 DUP4 PUSH2 0x998 JUMP JUMPDEST SWAP3 POP DUP3 DUP3 MUL PUSH2 0x1017 DUP2 PUSH2 0x998 JUMP JUMPDEST SWAP2 POP DUP3 DUP3 DIV DUP5 EQ DUP4 ISZERO OR PUSH2 0x102E JUMPI PUSH2 0x102D PUSH2 0x969 JUMP JUMPDEST JUMPDEST POP SWAP3 SWAP2 POP POP JUMP JUMPDEST PUSH1 0x0 PUSH2 0x1040 DUP3 PUSH2 0x998 JUMP JUMPDEST SWAP2 POP PUSH2 0x104B DUP4 PUSH2 0x998 JUMP JUMPDEST SWAP3 POP DUP3 DUP3 SUB SWAP1 POP DUP2 DUP2 GT ISZERO PUSH2 0x1063 JUMPI PUSH2 0x1062 PUSH2 0x969 JUMP JUMPDEST JUMPDEST SWAP3 SWAP2 POP POP JUMP JUMPDEST PUSH32 0x4F776E61626C653A2063616C6C6572206973206E6F7420746865204F776E6572 PUSH1 0x0 DUP3 ADD MSTORE POP JUMP JUMPDEST PUSH1 0x0 PUSH2 0x109F PUSH1 0x20 DUP4 PUSH2 0x880 JUMP JUMPDEST SWAP2 POP PUSH2 0x10AA DUP3 PUSH2 0x1069 JUMP JUMPDEST PUSH1 0x20 DUP3 ADD SWAP1 POP SWAP2 SWAP1 POP JUMP JUMPDEST PUSH1 0x0 PUSH1 0x20 DUP3 ADD SWAP1 POP DUP2 DUP2 SUB PUSH1 0x0 DUP4 ADD MSTORE PUSH2 0x10CE DUP2 PUSH2 0x1092 JUMP JUMPDEST SWAP1 POP SWAP2 SWAP1 POP JUMP JUMPDEST PUSH1 0x0 PUSH1 0x20 PUSH1 0x1F DUP4 ADD DIV SWAP1 POP SWAP2 SWAP1 POP JUMP JUMPDEST PUSH1 0x0 DUP3 DUP3 SHL SWAP1 POP SWAP3 SWAP2 POP POP JUMP JUMPDEST PUSH1 0x0 PUSH1 0x8 DUP4 MUL PUSH2 0x1122 PUSH32 0xFFFFFFFFFFFFFFFFFFFFFFFFFFFFFFFFFFFFFFFFFFFFFFFFFFFFFFFFFFFFFFFF DUP3 PUSH2 0x10E5 JUMP JUMPDEST PUSH2 0x112C DUP7 DUP4 PUSH2 0x10E5 JUMP JUMPDEST SWAP6 POP DUP1 NOT DUP5 AND SWAP4 POP DUP1 DUP7 AND DUP5 OR SWAP3 POP POP POP SWAP4 SWAP3 POP POP POP JUMP JUMPDEST PUSH1 0x0 DUP2 SWAP1 POP SWAP2 SWAP1 POP JUMP JUMPDEST PUSH1 0x0 PUSH2 0x1169 PUSH2 0x1164 PUSH2 0x115F DUP5 PUSH2 0x998 JUMP JUMPDEST PUSH2 0x1144 JUMP JUMPDEST PUSH2 0x998 JUMP JUMPDEST SWAP1 POP SWAP2 SWAP1 POP JUMP JUMPDEST PUSH1 0x0 DUP2 SWAP1 POP SWAP2 SWAP1 POP JUMP JUMPDEST PUSH2 0x1183 DUP4 PUSH2 0x114E JUMP JUMPDEST PUSH2 0x1197 PUSH2 0x118F DUP3 PUSH2 0x1170 JUMP JUMPDEST DUP5 DUP5 SLOAD PUSH2 0x10F2 JUMP JUMPDEST DUP3 SSTORE POP POP POP POP JUMP JUMPDEST PUSH1 0x0 SWAP1 JUMP JUMPDEST PUSH2 0x11AC PUSH2 0x119F JUMP JUMPDEST PUSH2 0x11B7 DUP2 DUP5 DUP5 PUSH2 0x117A JUMP JUMPDEST POP POP POP JUMP JUMPDEST JUMPDEST DUP2 DUP2 LT ISZERO PUSH2 0x11DB JUMPI PUSH2 0x11D0 PUSH1 0x0 DUP3 PUSH2 0x11A4 JUMP JUMPDEST PUSH1 0x1 DUP2 ADD SWAP1 POP PUSH2 0x11BD JUMP JUMPDEST POP POP JUMP JUMPDEST PUSH1 0x1F DUP3 GT ISZERO PUSH2 0x1220 JUMPI PUSH2 0x11F1 DUP2 PUSH2 0xEA4 JUMP JUMPDEST PUSH2 0x11FA DUP5 PUSH2 0x10D5 JUMP JUMPDEST DUP2 ADD PUSH1 0x20 DUP6 LT ISZERO PUSH2 0x1209 JUMPI DUP2 SWAP1 POP JUMPDEST PUSH2 0x121D PUSH2 0x1215 DUP6 PUSH2 0x10D5 JUMP JUMPDEST DUP4 ADD DUP3 PUSH2 0x11BC JUMP JUMPDEST POP POP JUMPDEST POP POP POP JUMP JUMPDEST PUSH1 0x0 DUP3 DUP3 SHR SWAP1 POP SWAP3 SWAP2 POP POP JUMP JUMPDEST PUSH1 0x0 PUSH2 0x1243 PUSH1 0x0 NOT DUP5 PUSH1 0x8 MUL PUSH2 0x1225 JUMP JUMPDEST NOT DUP1 DUP4 AND SWAP2 POP POP SWAP3 SWAP2 POP POP JUMP JUMPDEST PUSH1 0x0 PUSH2 0x125C DUP4 DUP4 PUSH2 0x1232 JUMP JUMPDEST SWAP2 POP DUP3 PUSH1 0x2 MUL DUP3 OR SWAP1 POP SWAP3 SWAP2 POP POP JUMP JUMPDEST PUSH2 0x1275 DUP3 PUSH2 0xDA6 JUMP JUMPDEST PUSH8 0xFFFFFFFFFFFFFFFF DUP2 GT ISZERO PUSH2 0x128E JUMPI PUSH2 0x128D PUSH2 0xAF5 JUMP JUMPDEST JUMPDEST PUSH2 0x1298 DUP3 SLOAD PUSH2 0xE73 JUMP JUMPDEST PUSH2 0x12A3 DUP3 DUP3 DUP6 PUSH2 0x11DF JUMP JUMPDEST PUSH1 0x0 PUSH1 0x20 SWAP1 POP PUSH1 0x1F DUP4 GT PUSH1 0x1 DUP2 EQ PUSH2 0x12D6 JUMPI PUSH1 0x0 DUP5 ISZERO PUSH2 0x12C4 JUMPI DUP3 DUP8 ADD MLOAD SWAP1 POP JUMPDEST PUSH2 0x12CE DUP6 DUP3 PUSH2 0x1250 JUMP JUMPDEST DUP7 SSTORE POP PUSH2 0x1336 JUMP JUMPDEST PUSH1 0x1F NOT DUP5 AND PUSH2 0x12E4 DUP7 PUSH2 0xEA4 JUMP JUMPDEST PUSH1 0x0 JUMPDEST DUP3 DUP2 LT ISZERO PUSH2 0x130C JUMPI DUP5 DUP10 ADD MLOAD DUP3 SSTORE PUSH1 0x1 DUP3 ADD SWAP2 POP PUSH1 0x20 DUP6 ADD SWAP5 POP PUSH1 0x20 DUP2 ADD SWAP1 POP PUSH2 0x12E7 JUMP JUMPDEST DUP7 DUP4 LT ISZERO PUSH2 0x1329 JUMPI DUP5 DUP10 ADD MLOAD PUSH2 0x1325 PUSH1 0x1F DUP10 AND DUP3 PUSH2 0x1232 JUMP JUMPDEST DUP4 SSTORE POP JUMPDEST PUSH1 0x1 PUSH1 0x2 DUP9 MUL ADD DUP9 SSTORE POP POP POP JUMPDEST POP POP POP POP POP POP JUMP INVALID LOG2 PUSH5 0x6970667358 0x22 SLT KECCAK256 0xB0 MSTORE 0xCD 0x4D 0x24 0xB4 0xD3 0xB0 JUMP STATICCALL SLT PUSH15 0x45A214E484371FC35456CD8FF8E1B7 0xAE 0xA7 0x23 PUSH1 0x60 PUSH5 0x736F6C6343 STOP ADDMOD SLT STOP CALLER "
				},
				"gasEstimates": {
					"creation": {
						"codeDepositCost": "996000",
						"executionCost": "infinite",
						"totalCost": "infinite"
					},
					"external": {
						"getRound()": "2437",
						"getSeretKey()": "infinite",
						"getWinnerNumber()": "4651",
						"getbalanve()": "340",
						"owner()": "2581",
						"paidAddressList(uint256,address)": "3153",
						"palyNumber()": "2451",
						"round()": "2452",
						"setSecretKey(string,uint256)": "infinite"
					},
					"internal": {
						"randomNumber()": "infinite"
					}
				},
				"methodIdentifiers": {
					"getRound()": "9f8743f7",
					"getSeretKey()": "f4d37e97",
					"getWinnerNumber()": "a86d2e19",
					"getbalanve()": "055204ed",
					"owner()": "8da5cb5b",
					"paidAddressList(uint256,address)": "cf66b989",
					"palyNumber()": "a09fb9ce",
					"round()": "146ca531",
					"setSecretKey(string,uint256)": "5ef5cc89"
				}
			},
			"storageLayout": {
				"storage": [
					{
						"astId": 29,
						"contract": "myLocalContracts/Chaper10/Ex10_1.sol:Ramdom",
						"label": "paidAddressList",
						"offset": 0,
						"slot": "0",
						"type": "t_mapping(t_uint256,t_mapping(t_address,t_bool))"
					},
					{
						"astId": 31,
						"contract": "myLocalContracts/Chaper10/Ex10_1.sol:Ramdom",
						"label": "owner",
						"offset": 0,
						"slot": "1",
						"type": "t_address"
					},
					{
						"astId": 34,
						"contract": "myLocalContracts/Chaper10/Ex10_1.sol:Ramdom",
						"label": "winnerNumber",
						"offset": 0,
						"slot": "2",
						"type": "t_uint256"
					},
					{
						"astId": 36,
						"contract": "myLocalContracts/Chaper10/Ex10_1.sol:Ramdom",
						"label": "key1",
						"offset": 0,
						"slot": "3",
						"type": "t_string_storage"
					},
					{
						"astId": 38,
						"contract": "myLocalContracts/Chaper10/Ex10_1.sol:Ramdom",
						"label": "key2",
						"offset": 0,
						"slot": "4",
						"type": "t_uint256"
					},
					{
						"astId": 41,
						"contract": "myLocalContracts/Chaper10/Ex10_1.sol:Ramdom",
						"label": "round",
						"offset": 0,
						"slot": "5",
						"type": "t_uint256"
					},
					{
						"astId": 44,
						"contract": "myLocalContracts/Chaper10/Ex10_1.sol:Ramdom",
						"label": "palyNumber",
						"offset": 0,
						"slot": "6",
						"type": "t_uint256"
					}
				],
				"types": {
					"t_address": {
						"encoding": "inplace",
						"label": "address",
						"numberOfBytes": "20"
					},
					"t_bool": {
						"encoding": "inplace",
						"label": "bool",
						"numberOfBytes": "1"
					},
					"t_mapping(t_address,t_bool)": {
						"encoding": "mapping",
						"key": "t_address",
						"label": "mapping(address => bool)",
						"numberOfBytes": "32",
						"value": "t_bool"
					},
					"t_mapping(t_uint256,t_mapping(t_address,t_bool))": {
						"encoding": "mapping",
						"key": "t_uint256",
						"label": "mapping(uint256 => mapping(address => bool))",
						"numberOfBytes": "32",
						"value": "t_mapping(t_address,t_bool)"
					},
					"t_string_storage": {
						"encoding": "bytes",
						"label": "string",
						"numberOfBytes": "32"
					},
					"t_uint256": {
						"encoding": "inplace",
						"label": "uint256",
						"numberOfBytes": "32"
					}
				}
			},
			"userdoc": {
				"kind": "user",
				"methods": {},
				"version": 1
			}
		}
	}
}