{
	"Chapter2/el_1.sol": {
		"el_1": {
			"abi": [
				{
					"inputs": [],
					"name": "a",
					"outputs": [
						{
							"internalType": "bool",
							"name": "",
							"type": "bool"
						}
					],
					"stateMutability": "view",
					"type": "function"
				},
				{
					"inputs": [],
					"name": "b",
					"outputs": [
						{
							"internalType": "bool",
							"name": "",
							"type": "bool"
						}
					],
					"stateMutability": "view",
					"type": "function"
				},
				{
					"inputs": [],
					"name": "c",
					"outputs": [
						{
							"internalType": "bool",
							"name": "",
							"type": "bool"
						}
					],
					"stateMutability": "view",
					"type": "function"
				},
				{
					"inputs": [],
					"name": "d",
					"outputs": [
						{
							"internalType": "bool",
							"name": "",
							"type": "bool"
						}
					],
					"stateMutability": "view",
					"type": "function"
				},
				{
					"inputs": [],
					"name": "e",
					"outputs": [
						{
							"internalType": "bool",
							"name": "",
							"type": "bool"
						}
					],
					"stateMutability": "view",
					"type": "function"
				},
				{
					"inputs": [],
					"name": "f",
					"outputs": [
						{
							"internalType": "bool",
							"name": "",
							"type": "bool"
						}
					],
					"stateMutability": "view",
					"type": "function"
				},
				{
					"inputs": [],
					"name": "g",
					"outputs": [
						{
							"internalType": "bool",
							"name": "",
							"type": "bool"
						}
					],
					"stateMutability": "view",
					"type": "function"
				},
				{
					"inputs": [],
					"name": "k",
					"outputs": [
						{
							"internalType": "bool",
							"name": "",
							"type": "bool"
						}
					],
					"stateMutability": "view",
					"type": "function"
				},
				{
					"inputs": [],
					"name": "logical",
					"outputs": [
						{
							"internalType": "bool",
							"name": "",
							"type": "bool"
						},
						{
							"internalType": "bool",
							"name": "",
							"type": "bool"
						},
						{
							"internalType": "bool",
							"name": "",
							"type": "bool"
						},
						{
							"internalType": "bool",
							"name": "",
							"type": "bool"
						},
						{
							"internalType": "bool",
							"name": "",
							"type": "bool"
						},
						{
							"internalType": "bool",
							"name": "",
							"type": "bool"
						},
						{
							"internalType": "bool",
							"name": "",
							"type": "bool"
						},
						{
							"internalType": "bool",
							"name": "",
							"type": "bool"
						}
					],
					"stateMutability": "view",
					"type": "function"
				}
			],
			"devdoc": {
				"kind": "dev",
				"methods": {},
				"version": 1
			},
			"evm": {
				"assembly": "    /* \"Chapter2/el_1.sol\":72:616  contract el_1{... */\n  mstore(0x40, 0x80)\n    /* \"Chapter2/el_1.sol\":108:112  true */\n  0x01\n    /* \"Chapter2/el_1.sol\":108:121  true && false */\n  dup1\n  iszero\n  tag_1\n  jumpi\n  pop\n    /* \"Chapter2/el_1.sol\":116:121  false */\n  0x00\n    /* \"Chapter2/el_1.sol\":108:121  true && false */\ntag_1:\n    /* \"Chapter2/el_1.sol\":108:129  true && false || true */\n  dup1\n  tag_2\n  jumpi\n  pop\n    /* \"Chapter2/el_1.sol\":125:129  true */\n  0x01\n    /* \"Chapter2/el_1.sol\":108:129  true && false || true */\ntag_2:\n    /* \"Chapter2/el_1.sol\":92:129  bool public d = true && false || true */\n  0x00\n  dup1\n  0x0100\n  exp\n  dup2\n  sload\n  dup2\n  0xff\n  mul\n  not\n  and\n  swap1\n  dup4\n  iszero\n  iszero\n  mul\n  or\n  swap1\n  sstore\n  pop\n    /* \"Chapter2/el_1.sol\":152:157  false */\n  0x00\n    /* \"Chapter2/el_1.sol\":152:176  false && (true || false) */\n  dup1\n  iszero\n  tag_3\n  jumpi\n  pop\n    /* \"Chapter2/el_1.sol\":162:166  true */\n  0x01\n    /* \"Chapter2/el_1.sol\":162:175  true || false */\n  dup1\n  tag_4\n  jumpi\n  pop\n    /* \"Chapter2/el_1.sol\":170:175  false */\n  0x00\n    /* \"Chapter2/el_1.sol\":162:175  true || false */\ntag_4:\n    /* \"Chapter2/el_1.sol\":152:176  false && (true || false) */\ntag_3:\n    /* \"Chapter2/el_1.sol\":136:176  bool public e = false && (true || false) */\n  0x00\n  exp(0x0100, 0x01)\n  dup2\n  sload\n  dup2\n  0xff\n  mul\n  not\n  and\n  swap1\n  dup4\n  iszero\n  iszero\n  mul\n  or\n  swap1\n  sstore\n  pop\n    /* \"Chapter2/el_1.sol\":200:204  true */\n  0x01\n    /* \"Chapter2/el_1.sol\":199:204  !true */\n  iszero\n    /* \"Chapter2/el_1.sol\":199:224  !true || !(false && true) */\n  dup1\n  tag_5\n  jumpi\n  pop\n    /* \"Chapter2/el_1.sol\":210:215  false */\n  0x00\n    /* \"Chapter2/el_1.sol\":210:223  false && true */\n  dup1\n  iszero\n  tag_6\n  jumpi\n  pop\n    /* \"Chapter2/el_1.sol\":219:223  true */\n  0x01\n    /* \"Chapter2/el_1.sol\":210:223  false && true */\ntag_6:\n    /* \"Chapter2/el_1.sol\":208:224  !(false && true) */\n  iszero\n    /* \"Chapter2/el_1.sol\":199:224  !true || !(false && true) */\ntag_5:\n    /* \"Chapter2/el_1.sol\":183:224  bool public f = !true || !(false && true) */\n  0x00\n  exp(0x0100, 0x02)\n  dup2\n  sload\n  dup2\n  0xff\n  mul\n  not\n  and\n  swap1\n  dup4\n  iszero\n  iszero\n  mul\n  or\n  swap1\n  sstore\n  pop\n    /* \"Chapter2/el_1.sol\":249:253  true */\n  0x01\n    /* \"Chapter2/el_1.sol\":249:259  true||true */\n  dup1\n  tag_7\n  jumpi\n  pop\n    /* \"Chapter2/el_1.sol\":255:259  true */\n  0x01\n    /* \"Chapter2/el_1.sol\":249:259  true||true */\ntag_7:\n    /* \"Chapter2/el_1.sol\":249:266  true||true||false */\n  dup1\n  tag_8\n  jumpi\n  pop\n    /* \"Chapter2/el_1.sol\":261:266  false */\n  0x00\n    /* \"Chapter2/el_1.sol\":249:266  true||true||false */\ntag_8:\n    /* \"Chapter2/el_1.sol\":233:266  bool public a = true||true||false */\n  0x00\n  exp(0x0100, 0x03)\n  dup2\n  sload\n  dup2\n  0xff\n  mul\n  not\n  and\n  swap1\n  dup4\n  iszero\n  iszero\n  mul\n  or\n  swap1\n  sstore\n  pop\n    /* \"Chapter2/el_1.sol\":289:293  true */\n  0x01\n    /* \"Chapter2/el_1.sol\":289:299  true&&true */\n  dup1\n  iszero\n  tag_9\n  jumpi\n  pop\n    /* \"Chapter2/el_1.sol\":295:299  true */\n  0x01\n    /* \"Chapter2/el_1.sol\":289:299  true&&true */\ntag_9:\n    /* \"Chapter2/el_1.sol\":289:306  true&&true&&false */\n  dup1\n  iszero\n  tag_10\n  jumpi\n  pop\n    /* \"Chapter2/el_1.sol\":301:306  false */\n  0x00\n    /* \"Chapter2/el_1.sol\":289:306  true&&true&&false */\ntag_10:\n    /* \"Chapter2/el_1.sol\":273:306  bool public b = true&&true&&false */\n  0x00\n  exp(0x0100, 0x04)\n  dup2\n  sload\n  dup2\n  0xff\n  mul\n  not\n  and\n  swap1\n  dup4\n  iszero\n  iszero\n  mul\n  or\n  swap1\n  sstore\n  pop\n    /* \"Chapter2/el_1.sol\":329:333  true */\n  0x01\n    /* \"Chapter2/el_1.sol\":329:346  true||true&&false */\n  dup1\n  tag_11\n  jumpi\n  pop\n    /* \"Chapter2/el_1.sol\":335:339  true */\n  0x01\n    /* \"Chapter2/el_1.sol\":335:346  true&&false */\n  dup1\n  iszero\n  tag_12\n  jumpi\n  pop\n    /* \"Chapter2/el_1.sol\":341:346  false */\n  0x00\n    /* \"Chapter2/el_1.sol\":335:346  true&&false */\ntag_12:\n    /* \"Chapter2/el_1.sol\":329:346  true||true&&false */\ntag_11:\n    /* \"Chapter2/el_1.sol\":313:346  bool public c = true||true&&false */\n  0x00\n  exp(0x0100, 0x05)\n  dup2\n  sload\n  dup2\n  0xff\n  mul\n  not\n  and\n  swap1\n  dup4\n  iszero\n  iszero\n  mul\n  or\n  swap1\n  sstore\n  pop\n    /* \"Chapter2/el_1.sol\":373:377  true */\n  0x01\n    /* \"Chapter2/el_1.sol\":373:386  true && false */\n  dup1\n  iszero\n  tag_13\n  jumpi\n  pop\n    /* \"Chapter2/el_1.sol\":381:386  false */\n  0x00\n    /* \"Chapter2/el_1.sol\":373:386  true && false */\ntag_13:\n    /* \"Chapter2/el_1.sol\":371:387  !(true && false) */\n  iszero\n    /* \"Chapter2/el_1.sol\":371:407  !(true && false) || (false || !true) */\n  dup1\n  tag_14\n  jumpi\n  pop\n    /* \"Chapter2/el_1.sol\":392:397  false */\n  0x00\n    /* \"Chapter2/el_1.sol\":392:406  false || !true */\n  dup1\n  tag_15\n  jumpi\n  pop\n    /* \"Chapter2/el_1.sol\":402:406  true */\n  0x01\n    /* \"Chapter2/el_1.sol\":401:406  !true */\n  iszero\n    /* \"Chapter2/el_1.sol\":392:406  false || !true */\ntag_15:\n    /* \"Chapter2/el_1.sol\":371:407  !(true && false) || (false || !true) */\ntag_14:\n    /* \"Chapter2/el_1.sol\":355:407  bool public g = !(true && false) || (false || !true) */\n  0x00\n  exp(0x0100, 0x06)\n  dup2\n  sload\n  dup2\n  0xff\n  mul\n  not\n  and\n  swap1\n  dup4\n  iszero\n  iszero\n  mul\n  or\n  swap1\n  sstore\n  pop\n    /* \"Chapter2/el_1.sol\":433:437  true */\n  0x01\n    /* \"Chapter2/el_1.sol\":433:447  true && !false */\n  dup1\n  iszero\n  tag_16\n  jumpi\n  pop\n    /* \"Chapter2/el_1.sol\":442:447  false */\n  0x00\n    /* \"Chapter2/el_1.sol\":441:447  !false */\n  iszero\n    /* \"Chapter2/el_1.sol\":433:447  true && !false */\ntag_16:\n    /* \"Chapter2/el_1.sol\":432:468  (true && !false) && !(false || true) */\n  dup1\n  iszero\n  tag_17\n  jumpi\n  pop\n    /* \"Chapter2/el_1.sol\":454:459  false */\n  0x00\n    /* \"Chapter2/el_1.sol\":454:467  false || true */\n  dup1\n  tag_18\n  jumpi\n  pop\n    /* \"Chapter2/el_1.sol\":463:467  true */\n  0x01\n    /* \"Chapter2/el_1.sol\":454:467  false || true */\ntag_18:\n    /* \"Chapter2/el_1.sol\":452:468  !(false || true) */\n  iszero\n    /* \"Chapter2/el_1.sol\":432:468  (true && !false) && !(false || true) */\ntag_17:\n    /* \"Chapter2/el_1.sol\":416:468  bool public k = (true && !false) && !(false || true) */\n  0x00\n  exp(0x0100, 0x07)\n  dup2\n  sload\n  dup2\n  0xff\n  mul\n  not\n  and\n  swap1\n  dup4\n  iszero\n  iszero\n  mul\n  or\n  swap1\n  sstore\n  pop\n    /* \"Chapter2/el_1.sol\":72:616  contract el_1{... */\n  callvalue\n  dup1\n  iszero\n  tag_19\n  jumpi\n  0x00\n  dup1\n  revert\ntag_19:\n  pop\n  dataSize(sub_0)\n  dup1\n  dataOffset(sub_0)\n  0x00\n  codecopy\n  0x00\n  return\nstop\n\nsub_0: assembly {\n        /* \"Chapter2/el_1.sol\":72:616  contract el_1{... */\n      mstore(0x40, 0x80)\n      callvalue\n      dup1\n      iszero\n      tag_1\n      jumpi\n      0x00\n      dup1\n      revert\n    tag_1:\n      pop\n      jumpi(tag_2, lt(calldatasize, 0x04))\n      shr(0xe0, calldataload(0x00))\n      dup1\n      0x93daa367\n      gt\n      tag_12\n      jumpi\n      dup1\n      0x93daa367\n      eq\n      tag_7\n      jumpi\n      dup1\n      0xb4f40c61\n      eq\n      tag_8\n      jumpi\n      dup1\n      0xc3da42b8\n      eq\n      tag_9\n      jumpi\n      dup1\n      0xe2179b8e\n      eq\n      tag_10\n      jumpi\n      dup1\n      0xffae15ba\n      eq\n      tag_11\n      jumpi\n      jump(tag_2)\n    tag_12:\n      dup1\n      0x0dbe671f\n      eq\n      tag_3\n      jumpi\n      dup1\n      0x26121ff0\n      eq\n      tag_4\n      jumpi\n      dup1\n      0x4df7e3d0\n      eq\n      tag_5\n      jumpi\n      dup1\n      0x8a054ac2\n      eq\n      tag_6\n      jumpi\n    tag_2:\n      0x00\n      dup1\n      revert\n        /* \"Chapter2/el_1.sol\":233:266  bool public a = true||true||false */\n    tag_3:\n      tag_13\n      tag_14\n      jump\t// in\n    tag_13:\n      mload(0x40)\n      tag_15\n      swap2\n      swap1\n      tag_16\n      jump\t// in\n    tag_15:\n      mload(0x40)\n      dup1\n      swap2\n      sub\n      swap1\n      return\n        /* \"Chapter2/el_1.sol\":183:224  bool public f = !true || !(false && true) */\n    tag_4:\n      tag_17\n      tag_18\n      jump\t// in\n    tag_17:\n      mload(0x40)\n      tag_19\n      swap2\n      swap1\n      tag_16\n      jump\t// in\n    tag_19:\n      mload(0x40)\n      dup1\n      swap2\n      sub\n      swap1\n      return\n        /* \"Chapter2/el_1.sol\":273:306  bool public b = true&&true&&false */\n    tag_5:\n      tag_20\n      tag_21\n      jump\t// in\n    tag_20:\n      mload(0x40)\n      tag_22\n      swap2\n      swap1\n      tag_16\n      jump\t// in\n    tag_22:\n      mload(0x40)\n      dup1\n      swap2\n      sub\n      swap1\n      return\n        /* \"Chapter2/el_1.sol\":92:129  bool public d = true && false || true */\n    tag_6:\n      tag_23\n      tag_24\n      jump\t// in\n    tag_23:\n      mload(0x40)\n      tag_25\n      swap2\n      swap1\n      tag_16\n      jump\t// in\n    tag_25:\n      mload(0x40)\n      dup1\n      swap2\n      sub\n      swap1\n      return\n        /* \"Chapter2/el_1.sol\":477:613  function logical() public view returns (bool, bool, bool, bool, bool, bool, bool, bool){... */\n    tag_7:\n      tag_26\n      tag_27\n      jump\t// in\n    tag_26:\n      mload(0x40)\n      tag_28\n      swap9\n      swap8\n      swap7\n      swap6\n      swap5\n      swap4\n      swap3\n      swap2\n      swap1\n      tag_29\n      jump\t// in\n    tag_28:\n      mload(0x40)\n      dup1\n      swap2\n      sub\n      swap1\n      return\n        /* \"Chapter2/el_1.sol\":416:468  bool public k = (true && !false) && !(false || true) */\n    tag_8:\n      tag_30\n      tag_31\n      jump\t// in\n    tag_30:\n      mload(0x40)\n      tag_32\n      swap2\n      swap1\n      tag_16\n      jump\t// in\n    tag_32:\n      mload(0x40)\n      dup1\n      swap2\n      sub\n      swap1\n      return\n        /* \"Chapter2/el_1.sol\":313:346  bool public c = true||true&&false */\n    tag_9:\n      tag_33\n      tag_34\n      jump\t// in\n    tag_33:\n      mload(0x40)\n      tag_35\n      swap2\n      swap1\n      tag_16\n      jump\t// in\n    tag_35:\n      mload(0x40)\n      dup1\n      swap2\n      sub\n      swap1\n      return\n        /* \"Chapter2/el_1.sol\":355:407  bool public g = !(true && false) || (false || !true) */\n    tag_10:\n      tag_36\n      tag_37\n      jump\t// in\n    tag_36:\n      mload(0x40)\n      tag_38\n      swap2\n      swap1\n      tag_16\n      jump\t// in\n    tag_38:\n      mload(0x40)\n      dup1\n      swap2\n      sub\n      swap1\n      return\n        /* \"Chapter2/el_1.sol\":136:176  bool public e = false && (true || false) */\n    tag_11:\n      tag_39\n      tag_40\n      jump\t// in\n    tag_39:\n      mload(0x40)\n      tag_41\n      swap2\n      swap1\n      tag_16\n      jump\t// in\n    tag_41:\n      mload(0x40)\n      dup1\n      swap2\n      sub\n      swap1\n      return\n        /* \"Chapter2/el_1.sol\":233:266  bool public a = true||true||false */\n    tag_14:\n      0x00\n      0x03\n      swap1\n      sload\n      swap1\n      0x0100\n      exp\n      swap1\n      div\n      0xff\n      and\n      dup2\n      jump\t// out\n        /* \"Chapter2/el_1.sol\":183:224  bool public f = !true || !(false && true) */\n    tag_18:\n      0x00\n      0x02\n      swap1\n      sload\n      swap1\n      0x0100\n      exp\n      swap1\n      div\n      0xff\n      and\n      dup2\n      jump\t// out\n        /* \"Chapter2/el_1.sol\":273:306  bool public b = true&&true&&false */\n    tag_21:\n      0x00\n      0x04\n      swap1\n      sload\n      swap1\n      0x0100\n      exp\n      swap1\n      div\n      0xff\n      and\n      dup2\n      jump\t// out\n        /* \"Chapter2/el_1.sol\":92:129  bool public d = true && false || true */\n    tag_24:\n      0x00\n      dup1\n      sload\n      swap1\n      0x0100\n      exp\n      swap1\n      div\n      0xff\n      and\n      dup2\n      jump\t// out\n        /* \"Chapter2/el_1.sol\":477:613  function logical() public view returns (bool, bool, bool, bool, bool, bool, bool, bool){... */\n    tag_27:\n        /* \"Chapter2/el_1.sol\":517:521  bool */\n      0x00\n        /* \"Chapter2/el_1.sol\":523:527  bool */\n      dup1\n        /* \"Chapter2/el_1.sol\":529:533  bool */\n      0x00\n        /* \"Chapter2/el_1.sol\":535:539  bool */\n      dup1\n        /* \"Chapter2/el_1.sol\":541:545  bool */\n      0x00\n        /* \"Chapter2/el_1.sol\":547:551  bool */\n      dup1\n        /* \"Chapter2/el_1.sol\":553:557  bool */\n      0x00\n        /* \"Chapter2/el_1.sol\":559:563  bool */\n      dup1\n        /* \"Chapter2/el_1.sol\":582:583  d */\n      0x00\n      dup1\n      sload\n      swap1\n      0x0100\n      exp\n      swap1\n      div\n      0xff\n      and\n        /* \"Chapter2/el_1.sol\":585:586  e */\n      0x00\n      0x01\n      swap1\n      sload\n      swap1\n      0x0100\n      exp\n      swap1\n      div\n      0xff\n      and\n        /* \"Chapter2/el_1.sol\":588:589  f */\n      0x00\n      0x02\n      swap1\n      sload\n      swap1\n      0x0100\n      exp\n      swap1\n      div\n      0xff\n      and\n        /* \"Chapter2/el_1.sol\":591:592  a */\n      0x00\n      0x03\n      swap1\n      sload\n      swap1\n      0x0100\n      exp\n      swap1\n      div\n      0xff\n      and\n        /* \"Chapter2/el_1.sol\":594:595  b */\n      0x00\n      0x04\n      swap1\n      sload\n      swap1\n      0x0100\n      exp\n      swap1\n      div\n      0xff\n      and\n        /* \"Chapter2/el_1.sol\":597:598  c */\n      0x00\n      0x05\n      swap1\n      sload\n      swap1\n      0x0100\n      exp\n      swap1\n      div\n      0xff\n      and\n        /* \"Chapter2/el_1.sol\":600:601  g */\n      0x00\n      0x06\n      swap1\n      sload\n      swap1\n      0x0100\n      exp\n      swap1\n      div\n      0xff\n      and\n        /* \"Chapter2/el_1.sol\":603:604  k */\n      0x00\n      0x07\n      swap1\n      sload\n      swap1\n      0x0100\n      exp\n      swap1\n      div\n      0xff\n      and\n        /* \"Chapter2/el_1.sol\":575:605  return(d, e, f, a, b, c, g, k) */\n      swap8\n      pop\n      swap8\n      pop\n      swap8\n      pop\n      swap8\n      pop\n      swap8\n      pop\n      swap8\n      pop\n      swap8\n      pop\n      swap8\n      pop\n        /* \"Chapter2/el_1.sol\":477:613  function logical() public view returns (bool, bool, bool, bool, bool, bool, bool, bool){... */\n      swap1\n      swap2\n      swap3\n      swap4\n      swap5\n      swap6\n      swap7\n      swap8\n      jump\t// out\n        /* \"Chapter2/el_1.sol\":416:468  bool public k = (true && !false) && !(false || true) */\n    tag_31:\n      0x00\n      0x07\n      swap1\n      sload\n      swap1\n      0x0100\n      exp\n      swap1\n      div\n      0xff\n      and\n      dup2\n      jump\t// out\n        /* \"Chapter2/el_1.sol\":313:346  bool public c = true||true&&false */\n    tag_34:\n      0x00\n      0x05\n      swap1\n      sload\n      swap1\n      0x0100\n      exp\n      swap1\n      div\n      0xff\n      and\n      dup2\n      jump\t// out\n        /* \"Chapter2/el_1.sol\":355:407  bool public g = !(true && false) || (false || !true) */\n    tag_37:\n      0x00\n      0x06\n      swap1\n      sload\n      swap1\n      0x0100\n      exp\n      swap1\n      div\n      0xff\n      and\n      dup2\n      jump\t// out\n        /* \"Chapter2/el_1.sol\":136:176  bool public e = false && (true || false) */\n    tag_40:\n      0x00\n      0x01\n      swap1\n      sload\n      swap1\n      0x0100\n      exp\n      swap1\n      div\n      0xff\n      and\n      dup2\n      jump\t// out\n        /* \"#utility.yul\":7:97   */\n    tag_43:\n        /* \"#utility.yul\":41:48   */\n      0x00\n        /* \"#utility.yul\":84:89   */\n      dup2\n        /* \"#utility.yul\":77:90   */\n      iszero\n        /* \"#utility.yul\":70:91   */\n      iszero\n        /* \"#utility.yul\":59:91   */\n      swap1\n      pop\n        /* \"#utility.yul\":7:97   */\n      swap2\n      swap1\n      pop\n      jump\t// out\n        /* \"#utility.yul\":103:212   */\n    tag_44:\n        /* \"#utility.yul\":184:205   */\n      tag_48\n        /* \"#utility.yul\":199:204   */\n      dup2\n        /* \"#utility.yul\":184:205   */\n      tag_43\n      jump\t// in\n    tag_48:\n        /* \"#utility.yul\":179:182   */\n      dup3\n        /* \"#utility.yul\":172:206   */\n      mstore\n        /* \"#utility.yul\":103:212   */\n      pop\n      pop\n      jump\t// out\n        /* \"#utility.yul\":218:428   */\n    tag_16:\n        /* \"#utility.yul\":305:309   */\n      0x00\n        /* \"#utility.yul\":343:345   */\n      0x20\n        /* \"#utility.yul\":332:341   */\n      dup3\n        /* \"#utility.yul\":328:346   */\n      add\n        /* \"#utility.yul\":320:346   */\n      swap1\n      pop\n        /* \"#utility.yul\":356:421   */\n      tag_50\n        /* \"#utility.yul\":418:419   */\n      0x00\n        /* \"#utility.yul\":407:416   */\n      dup4\n        /* \"#utility.yul\":403:420   */\n      add\n        /* \"#utility.yul\":394:400   */\n      dup5\n        /* \"#utility.yul\":356:421   */\n      tag_44\n      jump\t// in\n    tag_50:\n        /* \"#utility.yul\":218:428   */\n      swap3\n      swap2\n      pop\n      pop\n      jump\t// out\n        /* \"#utility.yul\":434:1335   */\n    tag_29:\n        /* \"#utility.yul\":675:679   */\n      0x00\n        /* \"#utility.yul\":713:716   */\n      0x0100\n        /* \"#utility.yul\":702:711   */\n      dup3\n        /* \"#utility.yul\":698:717   */\n      add\n        /* \"#utility.yul\":690:717   */\n      swap1\n      pop\n        /* \"#utility.yul\":727:792   */\n      tag_52\n        /* \"#utility.yul\":789:790   */\n      0x00\n        /* \"#utility.yul\":778:787   */\n      dup4\n        /* \"#utility.yul\":774:791   */\n      add\n        /* \"#utility.yul\":765:771   */\n      dup12\n        /* \"#utility.yul\":727:792   */\n      tag_44\n      jump\t// in\n    tag_52:\n        /* \"#utility.yul\":802:868   */\n      tag_53\n        /* \"#utility.yul\":864:866   */\n      0x20\n        /* \"#utility.yul\":853:862   */\n      dup4\n        /* \"#utility.yul\":849:867   */\n      add\n        /* \"#utility.yul\":840:846   */\n      dup11\n        /* \"#utility.yul\":802:868   */\n      tag_44\n      jump\t// in\n    tag_53:\n        /* \"#utility.yul\":878:944   */\n      tag_54\n        /* \"#utility.yul\":940:942   */\n      0x40\n        /* \"#utility.yul\":929:938   */\n      dup4\n        /* \"#utility.yul\":925:943   */\n      add\n        /* \"#utility.yul\":916:922   */\n      dup10\n        /* \"#utility.yul\":878:944   */\n      tag_44\n      jump\t// in\n    tag_54:\n        /* \"#utility.yul\":954:1020   */\n      tag_55\n        /* \"#utility.yul\":1016:1018   */\n      0x60\n        /* \"#utility.yul\":1005:1014   */\n      dup4\n        /* \"#utility.yul\":1001:1019   */\n      add\n        /* \"#utility.yul\":992:998   */\n      dup9\n        /* \"#utility.yul\":954:1020   */\n      tag_44\n      jump\t// in\n    tag_55:\n        /* \"#utility.yul\":1030:1097   */\n      tag_56\n        /* \"#utility.yul\":1092:1095   */\n      0x80\n        /* \"#utility.yul\":1081:1090   */\n      dup4\n        /* \"#utility.yul\":1077:1096   */\n      add\n        /* \"#utility.yul\":1068:1074   */\n      dup8\n        /* \"#utility.yul\":1030:1097   */\n      tag_44\n      jump\t// in\n    tag_56:\n        /* \"#utility.yul\":1107:1174   */\n      tag_57\n        /* \"#utility.yul\":1169:1172   */\n      0xa0\n        /* \"#utility.yul\":1158:1167   */\n      dup4\n        /* \"#utility.yul\":1154:1173   */\n      add\n        /* \"#utility.yul\":1145:1151   */\n      dup7\n        /* \"#utility.yul\":1107:1174   */\n      tag_44\n      jump\t// in\n    tag_57:\n        /* \"#utility.yul\":1184:1251   */\n      tag_58\n        /* \"#utility.yul\":1246:1249   */\n      0xc0\n        /* \"#utility.yul\":1235:1244   */\n      dup4\n        /* \"#utility.yul\":1231:1250   */\n      add\n        /* \"#utility.yul\":1222:1228   */\n      dup6\n        /* \"#utility.yul\":1184:1251   */\n      tag_44\n      jump\t// in\n    tag_58:\n        /* \"#utility.yul\":1261:1328   */\n      tag_59\n        /* \"#utility.yul\":1323:1326   */\n      0xe0\n        /* \"#utility.yul\":1312:1321   */\n      dup4\n        /* \"#utility.yul\":1308:1327   */\n      add\n        /* \"#utility.yul\":1299:1305   */\n      dup5\n        /* \"#utility.yul\":1261:1328   */\n      tag_44\n      jump\t// in\n    tag_59:\n        /* \"#utility.yul\":434:1335   */\n      swap10\n      swap9\n      pop\n      pop\n      pop\n      pop\n      pop\n      pop\n      pop\n      pop\n      pop\n      jump\t// out\n\n    auxdata: 0xa26469706673582212205e7bfdb311de2c75396ececa2dbf506221efa6504e30d47c6e068a0de597d14764736f6c634300080e0033\n}\n",
				"bytecode": {
					"linkReferences": {},
					"object": "608060405260018015610010575060005b80610019575060015b6000806101000a81548160ff021916908315150217905550600080156100465750600180610045575060005b5b600060016101000a81548160ff02191690831515021790555060011580610076575060008015610074575060015b155b600060026101000a81548160ff02191690831515021790555060018061009a575060015b806100a3575060005b600060036101000a81548160ff021916908315150217905550600180156100c8575060015b80156100d2575060005b600060046101000a81548160ff0219169083151502179055506001806101005750600180156100ff575060005b5b600060056101000a81548160ff02191690831515021790555060018015610125575060005b1580610139575060008061013857506001155b5b600060066101000a81548160ff0219169083151502179055506001801561015f57506000155b80156101735750600080610171575060015b155b600060076101000a81548160ff02191690831515021790555034801561019857600080fd5b506103d1806101a86000396000f3fe608060405234801561001057600080fd5b50600436106100935760003560e01c806393daa3671161006657806393daa36714610110578063b4f40c6114610135578063c3da42b814610153578063e2179b8e14610171578063ffae15ba1461018f57610093565b80630dbe671f1461009857806326121ff0146100b65780634df7e3d0146100d45780638a054ac2146100f2575b600080fd5b6100a06101ad565b6040516100ad9190610302565b60405180910390f35b6100be6101c0565b6040516100cb9190610302565b60405180910390f35b6100dc6101d3565b6040516100e99190610302565b60405180910390f35b6100fa6101e6565b6040516101079190610302565b60405180910390f35b6101186101f7565b60405161012c98979695949392919061031d565b60405180910390f35b61013d61029b565b60405161014a9190610302565b60405180910390f35b61015b6102ae565b6040516101689190610302565b60405180910390f35b6101796102c1565b6040516101869190610302565b60405180910390f35b6101976102d4565b6040516101a49190610302565b60405180910390f35b600060039054906101000a900460ff1681565b600060029054906101000a900460ff1681565b600060049054906101000a900460ff1681565b60008054906101000a900460ff1681565b60008060008060008060008060008054906101000a900460ff16600060019054906101000a900460ff16600060029054906101000a900460ff16600060039054906101000a900460ff16600060049054906101000a900460ff16600060059054906101000a900460ff16600060069054906101000a900460ff16600060079054906101000a900460ff16975097509750975097509750975097509091929394959697565b600060079054906101000a900460ff1681565b600060059054906101000a900460ff1681565b600060069054906101000a900460ff1681565b600060019054906101000a900460ff1681565b60008115159050919050565b6102fc816102e7565b82525050565b600060208201905061031760008301846102f3565b92915050565b600061010082019050610333600083018b6102f3565b610340602083018a6102f3565b61034d60408301896102f3565b61035a60608301886102f3565b61036760808301876102f3565b61037460a08301866102f3565b61038160c08301856102f3565b61038e60e08301846102f3565b999850505050505050505056fea26469706673582212205e7bfdb311de2c75396ececa2dbf506221efa6504e30d47c6e068a0de597d14764736f6c634300080e0033",
					"opcodes": "PUSH1 0x80 PUSH1 0x40 MSTORE PUSH1 0x1 DUP1 ISZERO PUSH2 0x10 JUMPI POP PUSH1 0x0 JUMPDEST DUP1 PUSH2 0x19 JUMPI POP PUSH1 0x1 JUMPDEST PUSH1 0x0 DUP1 PUSH2 0x100 EXP DUP2 SLOAD DUP2 PUSH1 0xFF MUL NOT AND SWAP1 DUP4 ISZERO ISZERO MUL OR SWAP1 SSTORE POP PUSH1 0x0 DUP1 ISZERO PUSH2 0x46 JUMPI POP PUSH1 0x1 DUP1 PUSH2 0x45 JUMPI POP PUSH1 0x0 JUMPDEST JUMPDEST PUSH1 0x0 PUSH1 0x1 PUSH2 0x100 EXP DUP2 SLOAD DUP2 PUSH1 0xFF MUL NOT AND SWAP1 DUP4 ISZERO ISZERO MUL OR SWAP1 SSTORE POP PUSH1 0x1 ISZERO DUP1 PUSH2 0x76 JUMPI POP PUSH1 0x0 DUP1 ISZERO PUSH2 0x74 JUMPI POP PUSH1 0x1 JUMPDEST ISZERO JUMPDEST PUSH1 0x0 PUSH1 0x2 PUSH2 0x100 EXP DUP2 SLOAD DUP2 PUSH1 0xFF MUL NOT AND SWAP1 DUP4 ISZERO ISZERO MUL OR SWAP1 SSTORE POP PUSH1 0x1 DUP1 PUSH2 0x9A JUMPI POP PUSH1 0x1 JUMPDEST DUP1 PUSH2 0xA3 JUMPI POP PUSH1 0x0 JUMPDEST PUSH1 0x0 PUSH1 0x3 PUSH2 0x100 EXP DUP2 SLOAD DUP2 PUSH1 0xFF MUL NOT AND SWAP1 DUP4 ISZERO ISZERO MUL OR SWAP1 SSTORE POP PUSH1 0x1 DUP1 ISZERO PUSH2 0xC8 JUMPI POP PUSH1 0x1 JUMPDEST DUP1 ISZERO PUSH2 0xD2 JUMPI POP PUSH1 0x0 JUMPDEST PUSH1 0x0 PUSH1 0x4 PUSH2 0x100 EXP DUP2 SLOAD DUP2 PUSH1 0xFF MUL NOT AND SWAP1 DUP4 ISZERO ISZERO MUL OR SWAP1 SSTORE POP PUSH1 0x1 DUP1 PUSH2 0x100 JUMPI POP PUSH1 0x1 DUP1 ISZERO PUSH2 0xFF JUMPI POP PUSH1 0x0 JUMPDEST JUMPDEST PUSH1 0x0 PUSH1 0x5 PUSH2 0x100 EXP DUP2 SLOAD DUP2 PUSH1 0xFF MUL NOT AND SWAP1 DUP4 ISZERO ISZERO MUL OR SWAP1 SSTORE POP PUSH1 0x1 DUP1 ISZERO PUSH2 0x125 JUMPI POP PUSH1 0x0 JUMPDEST ISZERO DUP1 PUSH2 0x139 JUMPI POP PUSH1 0x0 DUP1 PUSH2 0x138 JUMPI POP PUSH1 0x1 ISZERO JUMPDEST JUMPDEST PUSH1 0x0 PUSH1 0x6 PUSH2 0x100 EXP DUP2 SLOAD DUP2 PUSH1 0xFF MUL NOT AND SWAP1 DUP4 ISZERO ISZERO MUL OR SWAP1 SSTORE POP PUSH1 0x1 DUP1 ISZERO PUSH2 0x15F JUMPI POP PUSH1 0x0 ISZERO JUMPDEST DUP1 ISZERO PUSH2 0x173 JUMPI POP PUSH1 0x0 DUP1 PUSH2 0x171 JUMPI POP PUSH1 0x1 JUMPDEST ISZERO JUMPDEST PUSH1 0x0 PUSH1 0x7 PUSH2 0x100 EXP DUP2 SLOAD DUP2 PUSH1 0xFF MUL NOT AND SWAP1 DUP4 ISZERO ISZERO MUL OR SWAP1 SSTORE POP CALLVALUE DUP1 ISZERO PUSH2 0x198 JUMPI PUSH1 0x0 DUP1 REVERT JUMPDEST POP PUSH2 0x3D1 DUP1 PUSH2 0x1A8 PUSH1 0x0 CODECOPY PUSH1 0x0 RETURN INVALID PUSH1 0x80 PUSH1 0x40 MSTORE CALLVALUE DUP1 ISZERO PUSH2 0x10 JUMPI PUSH1 0x0 DUP1 REVERT JUMPDEST POP PUSH1 0x4 CALLDATASIZE LT PUSH2 0x93 JUMPI PUSH1 0x0 CALLDATALOAD PUSH1 0xE0 SHR DUP1 PUSH4 0x93DAA367 GT PUSH2 0x66 JUMPI DUP1 PUSH4 0x93DAA367 EQ PUSH2 0x110 JUMPI DUP1 PUSH4 0xB4F40C61 EQ PUSH2 0x135 JUMPI DUP1 PUSH4 0xC3DA42B8 EQ PUSH2 0x153 JUMPI DUP1 PUSH4 0xE2179B8E EQ PUSH2 0x171 JUMPI DUP1 PUSH4 0xFFAE15BA EQ PUSH2 0x18F JUMPI PUSH2 0x93 JUMP JUMPDEST DUP1 PUSH4 0xDBE671F EQ PUSH2 0x98 JUMPI DUP1 PUSH4 0x26121FF0 EQ PUSH2 0xB6 JUMPI DUP1 PUSH4 0x4DF7E3D0 EQ PUSH2 0xD4 JUMPI DUP1 PUSH4 0x8A054AC2 EQ PUSH2 0xF2 JUMPI JUMPDEST PUSH1 0x0 DUP1 REVERT JUMPDEST PUSH2 0xA0 PUSH2 0x1AD JUMP JUMPDEST PUSH1 0x40 MLOAD PUSH2 0xAD SWAP2 SWAP1 PUSH2 0x302 JUMP JUMPDEST PUSH1 0x40 MLOAD DUP1 SWAP2 SUB SWAP1 RETURN JUMPDEST PUSH2 0xBE PUSH2 0x1C0 JUMP JUMPDEST PUSH1 0x40 MLOAD PUSH2 0xCB SWAP2 SWAP1 PUSH2 0x302 JUMP JUMPDEST PUSH1 0x40 MLOAD DUP1 SWAP2 SUB SWAP1 RETURN JUMPDEST PUSH2 0xDC PUSH2 0x1D3 JUMP JUMPDEST PUSH1 0x40 MLOAD PUSH2 0xE9 SWAP2 SWAP1 PUSH2 0x302 JUMP JUMPDEST PUSH1 0x40 MLOAD DUP1 SWAP2 SUB SWAP1 RETURN JUMPDEST PUSH2 0xFA PUSH2 0x1E6 JUMP JUMPDEST PUSH1 0x40 MLOAD PUSH2 0x107 SWAP2 SWAP1 PUSH2 0x302 JUMP JUMPDEST PUSH1 0x40 MLOAD DUP1 SWAP2 SUB SWAP1 RETURN JUMPDEST PUSH2 0x118 PUSH2 0x1F7 JUMP JUMPDEST PUSH1 0x40 MLOAD PUSH2 0x12C SWAP9 SWAP8 SWAP7 SWAP6 SWAP5 SWAP4 SWAP3 SWAP2 SWAP1 PUSH2 0x31D JUMP JUMPDEST PUSH1 0x40 MLOAD DUP1 SWAP2 SUB SWAP1 RETURN JUMPDEST PUSH2 0x13D PUSH2 0x29B JUMP JUMPDEST PUSH1 0x40 MLOAD PUSH2 0x14A SWAP2 SWAP1 PUSH2 0x302 JUMP JUMPDEST PUSH1 0x40 MLOAD DUP1 SWAP2 SUB SWAP1 RETURN JUMPDEST PUSH2 0x15B PUSH2 0x2AE JUMP JUMPDEST PUSH1 0x40 MLOAD PUSH2 0x168 SWAP2 SWAP1 PUSH2 0x302 JUMP JUMPDEST PUSH1 0x40 MLOAD DUP1 SWAP2 SUB SWAP1 RETURN JUMPDEST PUSH2 0x179 PUSH2 0x2C1 JUMP JUMPDEST PUSH1 0x40 MLOAD PUSH2 0x186 SWAP2 SWAP1 PUSH2 0x302 JUMP JUMPDEST PUSH1 0x40 MLOAD DUP1 SWAP2 SUB SWAP1 RETURN JUMPDEST PUSH2 0x197 PUSH2 0x2D4 JUMP JUMPDEST PUSH1 0x40 MLOAD PUSH2 0x1A4 SWAP2 SWAP1 PUSH2 0x302 JUMP JUMPDEST PUSH1 0x40 MLOAD DUP1 SWAP2 SUB SWAP1 RETURN JUMPDEST PUSH1 0x0 PUSH1 0x3 SWAP1 SLOAD SWAP1 PUSH2 0x100 EXP SWAP1 DIV PUSH1 0xFF AND DUP2 JUMP JUMPDEST PUSH1 0x0 PUSH1 0x2 SWAP1 SLOAD SWAP1 PUSH2 0x100 EXP SWAP1 DIV PUSH1 0xFF AND DUP2 JUMP JUMPDEST PUSH1 0x0 PUSH1 0x4 SWAP1 SLOAD SWAP1 PUSH2 0x100 EXP SWAP1 DIV PUSH1 0xFF AND DUP2 JUMP JUMPDEST PUSH1 0x0 DUP1 SLOAD SWAP1 PUSH2 0x100 EXP SWAP1 DIV PUSH1 0xFF AND DUP2 JUMP JUMPDEST PUSH1 0x0 DUP1 PUSH1 0x0 DUP1 PUSH1 0x0 DUP1 PUSH1 0x0 DUP1 PUSH1 0x0 DUP1 SLOAD SWAP1 PUSH2 0x100 EXP SWAP1 DIV PUSH1 0xFF AND PUSH1 0x0 PUSH1 0x1 SWAP1 SLOAD SWAP1 PUSH2 0x100 EXP SWAP1 DIV PUSH1 0xFF AND PUSH1 0x0 PUSH1 0x2 SWAP1 SLOAD SWAP1 PUSH2 0x100 EXP SWAP1 DIV PUSH1 0xFF AND PUSH1 0x0 PUSH1 0x3 SWAP1 SLOAD SWAP1 PUSH2 0x100 EXP SWAP1 DIV PUSH1 0xFF AND PUSH1 0x0 PUSH1 0x4 SWAP1 SLOAD SWAP1 PUSH2 0x100 EXP SWAP1 DIV PUSH1 0xFF AND PUSH1 0x0 PUSH1 0x5 SWAP1 SLOAD SWAP1 PUSH2 0x100 EXP SWAP1 DIV PUSH1 0xFF AND PUSH1 0x0 PUSH1 0x6 SWAP1 SLOAD SWAP1 PUSH2 0x100 EXP SWAP1 DIV PUSH1 0xFF AND PUSH1 0x0 PUSH1 0x7 SWAP1 SLOAD SWAP1 PUSH2 0x100 EXP SWAP1 DIV PUSH1 0xFF AND SWAP8 POP SWAP8 POP SWAP8 POP SWAP8 POP SWAP8 POP SWAP8 POP SWAP8 POP SWAP8 POP SWAP1 SWAP2 SWAP3 SWAP4 SWAP5 SWAP6 SWAP7 SWAP8 JUMP JUMPDEST PUSH1 0x0 PUSH1 0x7 SWAP1 SLOAD SWAP1 PUSH2 0x100 EXP SWAP1 DIV PUSH1 0xFF AND DUP2 JUMP JUMPDEST PUSH1 0x0 PUSH1 0x5 SWAP1 SLOAD SWAP1 PUSH2 0x100 EXP SWAP1 DIV PUSH1 0xFF AND DUP2 JUMP JUMPDEST PUSH1 0x0 PUSH1 0x6 SWAP1 SLOAD SWAP1 PUSH2 0x100 EXP SWAP1 DIV PUSH1 0xFF AND DUP2 JUMP JUMPDEST PUSH1 0x0 PUSH1 0x1 SWAP1 SLOAD SWAP1 PUSH2 0x100 EXP SWAP1 DIV PUSH1 0xFF AND DUP2 JUMP JUMPDEST PUSH1 0x0 DUP2 ISZERO ISZERO SWAP1 POP SWAP2 SWAP1 POP JUMP JUMPDEST PUSH2 0x2FC DUP2 PUSH2 0x2E7 JUMP JUMPDEST DUP3 MSTORE POP POP JUMP JUMPDEST PUSH1 0x0 PUSH1 0x20 DUP3 ADD SWAP1 POP PUSH2 0x317 PUSH1 0x0 DUP4 ADD DUP5 PUSH2 0x2F3 JUMP JUMPDEST SWAP3 SWAP2 POP POP JUMP JUMPDEST PUSH1 0x0 PUSH2 0x100 DUP3 ADD SWAP1 POP PUSH2 0x333 PUSH1 0x0 DUP4 ADD DUP12 PUSH2 0x2F3 JUMP JUMPDEST PUSH2 0x340 PUSH1 0x20 DUP4 ADD DUP11 PUSH2 0x2F3 JUMP JUMPDEST PUSH2 0x34D PUSH1 0x40 DUP4 ADD DUP10 PUSH2 0x2F3 JUMP JUMPDEST PUSH2 0x35A PUSH1 0x60 DUP4 ADD DUP9 PUSH2 0x2F3 JUMP JUMPDEST PUSH2 0x367 PUSH1 0x80 DUP4 ADD DUP8 PUSH2 0x2F3 JUMP JUMPDEST PUSH2 0x374 PUSH1 0xA0 DUP4 ADD DUP7 PUSH2 0x2F3 JUMP JUMPDEST PUSH2 0x381 PUSH1 0xC0 DUP4 ADD DUP6 PUSH2 0x2F3 JUMP JUMPDEST PUSH2 0x38E PUSH1 0xE0 DUP4 ADD DUP5 PUSH2 0x2F3 JUMP JUMPDEST SWAP10 SWAP9 POP POP POP POP POP POP POP POP POP JUMP INVALID LOG2 PUSH5 0x6970667358 0x22 SLT KECCAK256 0x5E PUSH28 0xFDB311DE2C75396ECECA2DBF506221EFA6504E30D47C6E068A0DE597 0xD1 SELFBALANCE PUSH5 0x736F6C6343 STOP ADDMOD 0xE STOP CALLER "
				},
				"gasEstimates": {
					"creation": {
						"codeDepositCost": "195400",
						"executionCost": "195063",
						"totalCost": "390463"
					},
					"external": {
						"a()": "2522",
						"b()": "2566",
						"c()": "2565",
						"d()": "2535",
						"e()": "2609",
						"f()": "2544",
						"g()": "2587",
						"k()": "2543",
						"logical()": "infinite"
					}
				},
				"methodIdentifiers": {
					"a()": "0dbe671f",
					"b()": "4df7e3d0",
					"c()": "c3da42b8",
					"d()": "8a054ac2",
					"e()": "ffae15ba",
					"f()": "26121ff0",
					"g()": "e2179b8e",
					"k()": "b4f40c61",
					"logical()": "93daa367"
				}
			},
			"storageLayout": {
				"storage": [
					{
						"astId": 8,
						"contract": "Chapter2/el_1.sol:el_1",
						"label": "d",
						"offset": 0,
						"slot": "0",
						"type": "t_bool"
					},
					{
						"astId": 16,
						"contract": "Chapter2/el_1.sol:el_1",
						"label": "e",
						"offset": 1,
						"slot": "0",
						"type": "t_bool"
					},
					{
						"astId": 26,
						"contract": "Chapter2/el_1.sol:el_1",
						"label": "f",
						"offset": 2,
						"slot": "0",
						"type": "t_bool"
					},
					{
						"astId": 33,
						"contract": "Chapter2/el_1.sol:el_1",
						"label": "a",
						"offset": 3,
						"slot": "0",
						"type": "t_bool"
					},
					{
						"astId": 40,
						"contract": "Chapter2/el_1.sol:el_1",
						"label": "b",
						"offset": 4,
						"slot": "0",
						"type": "t_bool"
					},
					{
						"astId": 47,
						"contract": "Chapter2/el_1.sol:el_1",
						"label": "c",
						"offset": 5,
						"slot": "0",
						"type": "t_bool"
					},
					{
						"astId": 60,
						"contract": "Chapter2/el_1.sol:el_1",
						"label": "g",
						"offset": 6,
						"slot": "0",
						"type": "t_bool"
					},
					{
						"astId": 73,
						"contract": "Chapter2/el_1.sol:el_1",
						"label": "k",
						"offset": 7,
						"slot": "0",
						"type": "t_bool"
					}
				],
				"types": {
					"t_bool": {
						"encoding": "inplace",
						"label": "bool",
						"numberOfBytes": "1"
					}
				}
			},
			"userdoc": {
				"kind": "user",
				"methods": {},
				"version": 1
			}
		}
	}
}