{
	"Chapter2/Ex2_12.sol": {
		"Ex2_12": {
			"abi": [
				{
					"inputs": [],
					"name": "results",
					"outputs": [
						{
							"internalType": "uint256",
							"name": "",
							"type": "uint256"
						},
						{
							"internalType": "uint256",
							"name": "",
							"type": "uint256"
						},
						{
							"internalType": "bool",
							"name": "",
							"type": "bool"
						}
					],
					"stateMutability": "view",
					"type": "function"
				}
			],
			"devdoc": {
				"kind": "dev",
				"methods": {},
				"version": 1
			},
			"evm": {
				"assembly": "    /* \"Chapter2/Ex2_12.sol\":72:292  contract Ex2_12{... */\n  mstore(0x40, 0x80)\n    /* \"Chapter2/Ex2_12.sol\":103:112  2 + 3 * 2 */\n  0x08\n    /* \"Chapter2/Ex2_12.sol\":94:112  uint a = 2 + 3 * 2 */\n  0x00\n  sstore\n    /* \"Chapter2/Ex2_12.sol\":133:144  (2 + 3) * 2 */\n  0x0a\n    /* \"Chapter2/Ex2_12.sol\":124:144  uint b = (2 + 3) * 2 */\n  0x01\n  sstore\n    /* \"Chapter2/Ex2_12.sol\":175:180  false */\n  0x00\n    /* \"Chapter2/Ex2_12.sol\":166:180  !true == false */\n  iszero\n  iszero\n    /* \"Chapter2/Ex2_12.sol\":167:171  true */\n  0x01\n    /* \"Chapter2/Ex2_12.sol\":166:171  !true */\n  iszero\n    /* \"Chapter2/Ex2_12.sol\":166:180  !true == false */\n  iszero\n  iszero\n  eq\n    /* \"Chapter2/Ex2_12.sol\":157:180  bool c = !true == false */\n  0x02\n  exp(0x0100, 0x00)\n  dup2\n  sload\n  dup2\n  0xff\n  mul\n  not\n  and\n  swap1\n  dup4\n  iszero\n  iszero\n  mul\n  or\n  swap1\n  sstore\n  pop\n    /* \"Chapter2/Ex2_12.sol\":72:292  contract Ex2_12{... */\n  callvalue\n  dup1\n  iszero\n  tag_1\n  jumpi\n  0x00\n  dup1\n  revert\ntag_1:\n  pop\n  dataSize(sub_0)\n  dup1\n  dataOffset(sub_0)\n  0x00\n  codecopy\n  0x00\n  return\nstop\n\nsub_0: assembly {\n        /* \"Chapter2/Ex2_12.sol\":72:292  contract Ex2_12{... */\n      mstore(0x40, 0x80)\n      callvalue\n      dup1\n      iszero\n      tag_1\n      jumpi\n      0x00\n      dup1\n      revert\n    tag_1:\n      pop\n      jumpi(tag_2, lt(calldatasize, 0x04))\n      shr(0xe0, calldataload(0x00))\n      dup1\n      0xa48bdb7c\n      eq\n      tag_3\n      jumpi\n    tag_2:\n      0x00\n      dup1\n      revert\n        /* \"Chapter2/Ex2_12.sol\":198:289  function results() public view returns(uint, uint, bool){... */\n    tag_3:\n      tag_4\n      tag_5\n      jump\t// in\n    tag_4:\n      mload(0x40)\n      tag_6\n      swap4\n      swap3\n      swap2\n      swap1\n      tag_7\n      jump\t// in\n    tag_6:\n      mload(0x40)\n      dup1\n      swap2\n      sub\n      swap1\n      return\n    tag_5:\n        /* \"Chapter2/Ex2_12.sol\":237:241  uint */\n      0x00\n        /* \"Chapter2/Ex2_12.sol\":243:247  uint */\n      dup1\n        /* \"Chapter2/Ex2_12.sol\":249:253  bool */\n      0x00\n        /* \"Chapter2/Ex2_12.sol\":273:274  a */\n      dup1\n      sload\n        /* \"Chapter2/Ex2_12.sol\":276:277  b */\n      sload(0x01)\n        /* \"Chapter2/Ex2_12.sol\":279:280  c */\n      0x02\n      0x00\n      swap1\n      sload\n      swap1\n      0x0100\n      exp\n      swap1\n      div\n      0xff\n      and\n        /* \"Chapter2/Ex2_12.sol\":265:281  return (a, b, c) */\n      swap3\n      pop\n      swap3\n      pop\n      swap3\n      pop\n        /* \"Chapter2/Ex2_12.sol\":198:289  function results() public view returns(uint, uint, bool){... */\n      swap1\n      swap2\n      swap3\n      jump\t// out\n        /* \"#utility.yul\":7:84   */\n    tag_9:\n        /* \"#utility.yul\":44:51   */\n      0x00\n        /* \"#utility.yul\":73:78   */\n      dup2\n        /* \"#utility.yul\":62:78   */\n      swap1\n      pop\n        /* \"#utility.yul\":7:84   */\n      swap2\n      swap1\n      pop\n      jump\t// out\n        /* \"#utility.yul\":90:208   */\n    tag_10:\n        /* \"#utility.yul\":177:201   */\n      tag_16\n        /* \"#utility.yul\":195:200   */\n      dup2\n        /* \"#utility.yul\":177:201   */\n      tag_9\n      jump\t// in\n    tag_16:\n        /* \"#utility.yul\":172:175   */\n      dup3\n        /* \"#utility.yul\":165:202   */\n      mstore\n        /* \"#utility.yul\":90:208   */\n      pop\n      pop\n      jump\t// out\n        /* \"#utility.yul\":214:304   */\n    tag_11:\n        /* \"#utility.yul\":248:255   */\n      0x00\n        /* \"#utility.yul\":291:296   */\n      dup2\n        /* \"#utility.yul\":284:297   */\n      iszero\n        /* \"#utility.yul\":277:298   */\n      iszero\n        /* \"#utility.yul\":266:298   */\n      swap1\n      pop\n        /* \"#utility.yul\":214:304   */\n      swap2\n      swap1\n      pop\n      jump\t// out\n        /* \"#utility.yul\":310:419   */\n    tag_12:\n        /* \"#utility.yul\":391:412   */\n      tag_19\n        /* \"#utility.yul\":406:411   */\n      dup2\n        /* \"#utility.yul\":391:412   */\n      tag_11\n      jump\t// in\n    tag_19:\n        /* \"#utility.yul\":386:389   */\n      dup3\n        /* \"#utility.yul\":379:413   */\n      mstore\n        /* \"#utility.yul\":310:419   */\n      pop\n      pop\n      jump\t// out\n        /* \"#utility.yul\":425:855   */\n    tag_7:\n        /* \"#utility.yul\":568:572   */\n      0x00\n        /* \"#utility.yul\":606:608   */\n      0x60\n        /* \"#utility.yul\":595:604   */\n      dup3\n        /* \"#utility.yul\":591:609   */\n      add\n        /* \"#utility.yul\":583:609   */\n      swap1\n      pop\n        /* \"#utility.yul\":619:690   */\n      tag_21\n        /* \"#utility.yul\":687:688   */\n      0x00\n        /* \"#utility.yul\":676:685   */\n      dup4\n        /* \"#utility.yul\":672:689   */\n      add\n        /* \"#utility.yul\":663:669   */\n      dup7\n        /* \"#utility.yul\":619:690   */\n      tag_10\n      jump\t// in\n    tag_21:\n        /* \"#utility.yul\":700:772   */\n      tag_22\n        /* \"#utility.yul\":768:770   */\n      0x20\n        /* \"#utility.yul\":757:766   */\n      dup4\n        /* \"#utility.yul\":753:771   */\n      add\n        /* \"#utility.yul\":744:750   */\n      dup6\n        /* \"#utility.yul\":700:772   */\n      tag_10\n      jump\t// in\n    tag_22:\n        /* \"#utility.yul\":782:848   */\n      tag_23\n        /* \"#utility.yul\":844:846   */\n      0x40\n        /* \"#utility.yul\":833:842   */\n      dup4\n        /* \"#utility.yul\":829:847   */\n      add\n        /* \"#utility.yul\":820:826   */\n      dup5\n        /* \"#utility.yul\":782:848   */\n      tag_12\n      jump\t// in\n    tag_23:\n        /* \"#utility.yul\":425:855   */\n      swap5\n      swap4\n      pop\n      pop\n      pop\n      pop\n      jump\t// out\n\n    auxdata: 0xa264697066735822122099b8dccf938edbe0cdd67402c361e95ddf015ebe1a841fd14589bf8c3fb907bf64736f6c634300080e0033\n}\n",
				"bytecode": {
					"linkReferences": {},
					"object": "60806040526008600055600a60015560001515600115151514600260006101000a81548160ff02191690831515021790555034801561003d57600080fd5b506101058061004d6000396000f3fe6080604052348015600f57600080fd5b506004361060285760003560e01c8063a48bdb7c14602d575b600080fd5b60336049565b604051604093929190609e565b60405180910390f35b60008060008054600154600260009054906101000a900460ff16925092509250909192565b6000819050919050565b607f81606e565b82525050565b60008115159050919050565b6098816085565b82525050565b600060608201905060b160008301866078565b60bc60208301856078565b60c760408301846091565b94935050505056fea264697066735822122099b8dccf938edbe0cdd67402c361e95ddf015ebe1a841fd14589bf8c3fb907bf64736f6c634300080e0033",
					"opcodes": "PUSH1 0x80 PUSH1 0x40 MSTORE PUSH1 0x8 PUSH1 0x0 SSTORE PUSH1 0xA PUSH1 0x1 SSTORE PUSH1 0x0 ISZERO ISZERO PUSH1 0x1 ISZERO ISZERO ISZERO EQ PUSH1 0x2 PUSH1 0x0 PUSH2 0x100 EXP DUP2 SLOAD DUP2 PUSH1 0xFF MUL NOT AND SWAP1 DUP4 ISZERO ISZERO MUL OR SWAP1 SSTORE POP CALLVALUE DUP1 ISZERO PUSH2 0x3D JUMPI PUSH1 0x0 DUP1 REVERT JUMPDEST POP PUSH2 0x105 DUP1 PUSH2 0x4D PUSH1 0x0 CODECOPY PUSH1 0x0 RETURN INVALID PUSH1 0x80 PUSH1 0x40 MSTORE CALLVALUE DUP1 ISZERO PUSH1 0xF JUMPI PUSH1 0x0 DUP1 REVERT JUMPDEST POP PUSH1 0x4 CALLDATASIZE LT PUSH1 0x28 JUMPI PUSH1 0x0 CALLDATALOAD PUSH1 0xE0 SHR DUP1 PUSH4 0xA48BDB7C EQ PUSH1 0x2D JUMPI JUMPDEST PUSH1 0x0 DUP1 REVERT JUMPDEST PUSH1 0x33 PUSH1 0x49 JUMP JUMPDEST PUSH1 0x40 MLOAD PUSH1 0x40 SWAP4 SWAP3 SWAP2 SWAP1 PUSH1 0x9E JUMP JUMPDEST PUSH1 0x40 MLOAD DUP1 SWAP2 SUB SWAP1 RETURN JUMPDEST PUSH1 0x0 DUP1 PUSH1 0x0 DUP1 SLOAD PUSH1 0x1 SLOAD PUSH1 0x2 PUSH1 0x0 SWAP1 SLOAD SWAP1 PUSH2 0x100 EXP SWAP1 DIV PUSH1 0xFF AND SWAP3 POP SWAP3 POP SWAP3 POP SWAP1 SWAP2 SWAP3 JUMP JUMPDEST PUSH1 0x0 DUP2 SWAP1 POP SWAP2 SWAP1 POP JUMP JUMPDEST PUSH1 0x7F DUP2 PUSH1 0x6E JUMP JUMPDEST DUP3 MSTORE POP POP JUMP JUMPDEST PUSH1 0x0 DUP2 ISZERO ISZERO SWAP1 POP SWAP2 SWAP1 POP JUMP JUMPDEST PUSH1 0x98 DUP2 PUSH1 0x85 JUMP JUMPDEST DUP3 MSTORE POP POP JUMP JUMPDEST PUSH1 0x0 PUSH1 0x60 DUP3 ADD SWAP1 POP PUSH1 0xB1 PUSH1 0x0 DUP4 ADD DUP7 PUSH1 0x78 JUMP JUMPDEST PUSH1 0xBC PUSH1 0x20 DUP4 ADD DUP6 PUSH1 0x78 JUMP JUMPDEST PUSH1 0xC7 PUSH1 0x40 DUP4 ADD DUP5 PUSH1 0x91 JUMP JUMPDEST SWAP5 SWAP4 POP POP POP POP JUMP INVALID LOG2 PUSH5 0x6970667358 0x22 SLT KECCAK256 SWAP10 0xB8 0xDC 0xCF SWAP4 DUP15 0xDB 0xE0 0xCD 0xD6 PUSH21 0x2C361E95DDF015EBE1A841FD14589BF8C3FB907BF PUSH5 0x736F6C6343 STOP ADDMOD 0xE STOP CALLER "
				},
				"gasEstimates": {
					"creation": {
						"codeDepositCost": "52200",
						"executionCost": "68605",
						"totalCost": "120805"
					},
					"external": {
						"results()": "infinite"
					}
				},
				"methodIdentifiers": {
					"results()": "a48bdb7c"
				}
			},
			"storageLayout": {
				"storage": [
					{
						"astId": 8,
						"contract": "Chapter2/Ex2_12.sol:Ex2_12",
						"label": "a",
						"offset": 0,
						"slot": "0",
						"type": "t_uint256"
					},
					{
						"astId": 16,
						"contract": "Chapter2/Ex2_12.sol:Ex2_12",
						"label": "b",
						"offset": 0,
						"slot": "1",
						"type": "t_uint256"
					},
					{
						"astId": 22,
						"contract": "Chapter2/Ex2_12.sol:Ex2_12",
						"label": "c",
						"offset": 0,
						"slot": "2",
						"type": "t_bool"
					}
				],
				"types": {
					"t_bool": {
						"encoding": "inplace",
						"label": "bool",
						"numberOfBytes": "1"
					},
					"t_uint256": {
						"encoding": "inplace",
						"label": "uint256",
						"numberOfBytes": "32"
					}
				}
			},
			"userdoc": {
				"kind": "user",
				"methods": {},
				"version": 1
			}
		}
	}
}