{
	"Chapter2/Ex2_5.sol": {
		"Ex2_5": {
			"abi": [
				{
					"inputs": [],
					"name": "compoundAssignment",
					"outputs": [
						{
							"internalType": "uint256",
							"name": "",
							"type": "uint256"
						},
						{
							"internalType": "uint256",
							"name": "",
							"type": "uint256"
						},
						{
							"internalType": "uint256",
							"name": "",
							"type": "uint256"
						},
						{
							"internalType": "uint256",
							"name": "",
							"type": "uint256"
						},
						{
							"internalType": "uint256",
							"name": "",
							"type": "uint256"
						}
					],
					"stateMutability": "nonpayable",
					"type": "function"
				}
			],
			"devdoc": {
				"kind": "dev",
				"methods": {},
				"version": 1
			},
			"evm": {
				"assembly": "    /* \"Chapter2/Ex2_5.sol\":72:450  contract Ex2_5{... */\n  mstore(0x40, 0x80)\n    /* \"Chapter2/Ex2_5.sol\":102:103  5 */\n  0x05\n    /* \"Chapter2/Ex2_5.sol\":93:103  uint a = 5 */\n  0x00\n  sstore\n    /* \"Chapter2/Ex2_5.sol\":119:120  5 */\n  0x05\n    /* \"Chapter2/Ex2_5.sol\":110:120  uint b = 5 */\n  0x01\n  sstore\n    /* \"Chapter2/Ex2_5.sol\":136:137  5 */\n  0x05\n    /* \"Chapter2/Ex2_5.sol\":127:137  uint c = 5 */\n  0x02\n  sstore\n    /* \"Chapter2/Ex2_5.sol\":153:154  5 */\n  0x05\n    /* \"Chapter2/Ex2_5.sol\":144:154  uint d = 5 */\n  0x03\n  sstore\n    /* \"Chapter2/Ex2_5.sol\":170:171  5 */\n  0x05\n    /* \"Chapter2/Ex2_5.sol\":161:171  uint e = 5 */\n  0x04\n  sstore\n    /* \"Chapter2/Ex2_5.sol\":72:450  contract Ex2_5{... */\n  callvalue\n  dup1\n  iszero\n  tag_1\n  jumpi\n  0x00\n  dup1\n  revert\ntag_1:\n  pop\n  dataSize(sub_0)\n  dup1\n  dataOffset(sub_0)\n  0x00\n  codecopy\n  0x00\n  return\nstop\n\nsub_0: assembly {\n        /* \"Chapter2/Ex2_5.sol\":72:450  contract Ex2_5{... */\n      mstore(0x40, 0x80)\n      callvalue\n      dup1\n      iszero\n      tag_1\n      jumpi\n      0x00\n      dup1\n      revert\n    tag_1:\n      pop\n      jumpi(tag_2, lt(calldatasize, 0x04))\n      shr(0xe0, calldataload(0x00))\n      dup1\n      0xe1ce4d3f\n      eq\n      tag_3\n      jumpi\n    tag_2:\n      0x00\n      dup1\n      revert\n        /* \"Chapter2/Ex2_5.sol\":180:447  function compoundAssignment() public returns(uint, uint, uint, uint, uint){... */\n    tag_3:\n      tag_4\n      tag_5\n      jump\t// in\n    tag_4:\n      mload(0x40)\n      tag_6\n      swap6\n      swap5\n      swap4\n      swap3\n      swap2\n      swap1\n      tag_7\n      jump\t// in\n    tag_6:\n      mload(0x40)\n      dup1\n      swap2\n      sub\n      swap1\n      return\n    tag_5:\n        /* \"Chapter2/Ex2_5.sol\":225:229  uint */\n      0x00\n        /* \"Chapter2/Ex2_5.sol\":231:235  uint */\n      dup1\n        /* \"Chapter2/Ex2_5.sol\":237:241  uint */\n      0x00\n        /* \"Chapter2/Ex2_5.sol\":243:247  uint */\n      dup1\n        /* \"Chapter2/Ex2_5.sol\":249:253  uint */\n      0x00\n        /* \"Chapter2/Ex2_5.sol\":270:271  2 */\n      0x02\n        /* \"Chapter2/Ex2_5.sol\":265:266  a */\n      0x00\n      dup1\n        /* \"Chapter2/Ex2_5.sol\":265:271  a += 2 */\n      dup3\n      dup3\n      sload\n      tag_9\n      swap2\n      swap1\n      tag_10\n      jump\t// in\n    tag_9:\n      swap3\n      pop\n      pop\n      dup2\n      swap1\n      sstore\n      pop\n        /* \"Chapter2/Ex2_5.sol\":300:301  2 */\n      0x02\n        /* \"Chapter2/Ex2_5.sol\":295:296  b */\n      0x01\n      0x00\n        /* \"Chapter2/Ex2_5.sol\":295:301  b -= 2 */\n      dup3\n      dup3\n      sload\n      tag_11\n      swap2\n      swap1\n      tag_12\n      jump\t// in\n    tag_11:\n      swap3\n      pop\n      pop\n      dup2\n      swap1\n      sstore\n      pop\n        /* \"Chapter2/Ex2_5.sol\":330:331  2 */\n      0x02\n        /* \"Chapter2/Ex2_5.sol\":325:326  c */\n      dup1\n      0x00\n        /* \"Chapter2/Ex2_5.sol\":325:331  c *= 2 */\n      dup3\n      dup3\n      sload\n      tag_13\n      swap2\n      swap1\n      tag_14\n      jump\t// in\n    tag_13:\n      swap3\n      pop\n      pop\n      dup2\n      swap1\n      sstore\n      pop\n        /* \"Chapter2/Ex2_5.sol\":360:361  2 */\n      0x02\n        /* \"Chapter2/Ex2_5.sol\":355:356  d */\n      0x03\n      0x00\n        /* \"Chapter2/Ex2_5.sol\":355:361  d /= 2 */\n      dup3\n      dup3\n      sload\n      tag_15\n      swap2\n      swap1\n      tag_16\n      jump\t// in\n    tag_15:\n      swap3\n      pop\n      pop\n      dup2\n      swap1\n      sstore\n      pop\n        /* \"Chapter2/Ex2_5.sol\":390:391  2 */\n      0x02\n        /* \"Chapter2/Ex2_5.sol\":385:386  e */\n      0x04\n      0x00\n        /* \"Chapter2/Ex2_5.sol\":385:391  e %= 2 */\n      dup3\n      dup3\n      sload\n      tag_17\n      swap2\n      swap1\n      tag_18\n      jump\t// in\n    tag_17:\n      swap3\n      pop\n      pop\n      dup2\n      swap1\n      sstore\n      pop\n        /* \"Chapter2/Ex2_5.sol\":425:426  a */\n      sload(0x00)\n        /* \"Chapter2/Ex2_5.sol\":428:429  b */\n      sload(0x01)\n        /* \"Chapter2/Ex2_5.sol\":431:432  c */\n      sload(0x02)\n        /* \"Chapter2/Ex2_5.sol\":434:435  d */\n      sload(0x03)\n        /* \"Chapter2/Ex2_5.sol\":437:438  e */\n      sload(0x04)\n        /* \"Chapter2/Ex2_5.sol\":417:439  return (a, b, c, d, e) */\n      swap5\n      pop\n      swap5\n      pop\n      swap5\n      pop\n      swap5\n      pop\n      swap5\n      pop\n        /* \"Chapter2/Ex2_5.sol\":180:447  function compoundAssignment() public returns(uint, uint, uint, uint, uint){... */\n      swap1\n      swap2\n      swap3\n      swap4\n      swap5\n      jump\t// out\n        /* \"#utility.yul\":7:84   */\n    tag_19:\n        /* \"#utility.yul\":44:51   */\n      0x00\n        /* \"#utility.yul\":73:78   */\n      dup2\n        /* \"#utility.yul\":62:78   */\n      swap1\n      pop\n        /* \"#utility.yul\":7:84   */\n      swap2\n      swap1\n      pop\n      jump\t// out\n        /* \"#utility.yul\":90:208   */\n    tag_20:\n        /* \"#utility.yul\":177:201   */\n      tag_26\n        /* \"#utility.yul\":195:200   */\n      dup2\n        /* \"#utility.yul\":177:201   */\n      tag_19\n      jump\t// in\n    tag_26:\n        /* \"#utility.yul\":172:175   */\n      dup3\n        /* \"#utility.yul\":165:202   */\n      mstore\n        /* \"#utility.yul\":90:208   */\n      pop\n      pop\n      jump\t// out\n        /* \"#utility.yul\":214:878   */\n    tag_7:\n        /* \"#utility.yul\":419:423   */\n      0x00\n        /* \"#utility.yul\":457:460   */\n      0xa0\n        /* \"#utility.yul\":446:455   */\n      dup3\n        /* \"#utility.yul\":442:461   */\n      add\n        /* \"#utility.yul\":434:461   */\n      swap1\n      pop\n        /* \"#utility.yul\":471:542   */\n      tag_28\n        /* \"#utility.yul\":539:540   */\n      0x00\n        /* \"#utility.yul\":528:537   */\n      dup4\n        /* \"#utility.yul\":524:541   */\n      add\n        /* \"#utility.yul\":515:521   */\n      dup9\n        /* \"#utility.yul\":471:542   */\n      tag_20\n      jump\t// in\n    tag_28:\n        /* \"#utility.yul\":552:624   */\n      tag_29\n        /* \"#utility.yul\":620:622   */\n      0x20\n        /* \"#utility.yul\":609:618   */\n      dup4\n        /* \"#utility.yul\":605:623   */\n      add\n        /* \"#utility.yul\":596:602   */\n      dup8\n        /* \"#utility.yul\":552:624   */\n      tag_20\n      jump\t// in\n    tag_29:\n        /* \"#utility.yul\":634:706   */\n      tag_30\n        /* \"#utility.yul\":702:704   */\n      0x40\n        /* \"#utility.yul\":691:700   */\n      dup4\n        /* \"#utility.yul\":687:705   */\n      add\n        /* \"#utility.yul\":678:684   */\n      dup7\n        /* \"#utility.yul\":634:706   */\n      tag_20\n      jump\t// in\n    tag_30:\n        /* \"#utility.yul\":716:788   */\n      tag_31\n        /* \"#utility.yul\":784:786   */\n      0x60\n        /* \"#utility.yul\":773:782   */\n      dup4\n        /* \"#utility.yul\":769:787   */\n      add\n        /* \"#utility.yul\":760:766   */\n      dup6\n        /* \"#utility.yul\":716:788   */\n      tag_20\n      jump\t// in\n    tag_31:\n        /* \"#utility.yul\":798:871   */\n      tag_32\n        /* \"#utility.yul\":866:869   */\n      0x80\n        /* \"#utility.yul\":855:864   */\n      dup4\n        /* \"#utility.yul\":851:870   */\n      add\n        /* \"#utility.yul\":842:848   */\n      dup5\n        /* \"#utility.yul\":798:871   */\n      tag_20\n      jump\t// in\n    tag_32:\n        /* \"#utility.yul\":214:878   */\n      swap7\n      swap6\n      pop\n      pop\n      pop\n      pop\n      pop\n      pop\n      jump\t// out\n        /* \"#utility.yul\":884:1064   */\n    tag_21:\n        /* \"#utility.yul\":932:1009   */\n      0x4e487b7100000000000000000000000000000000000000000000000000000000\n        /* \"#utility.yul\":929:930   */\n      0x00\n        /* \"#utility.yul\":922:1010   */\n      mstore\n        /* \"#utility.yul\":1029:1033   */\n      0x11\n        /* \"#utility.yul\":1026:1027   */\n      0x04\n        /* \"#utility.yul\":1019:1034   */\n      mstore\n        /* \"#utility.yul\":1053:1057   */\n      0x24\n        /* \"#utility.yul\":1050:1051   */\n      0x00\n        /* \"#utility.yul\":1043:1058   */\n      revert\n        /* \"#utility.yul\":1070:1375   */\n    tag_10:\n        /* \"#utility.yul\":1110:1113   */\n      0x00\n        /* \"#utility.yul\":1129:1149   */\n      tag_35\n        /* \"#utility.yul\":1147:1148   */\n      dup3\n        /* \"#utility.yul\":1129:1149   */\n      tag_19\n      jump\t// in\n    tag_35:\n        /* \"#utility.yul\":1124:1149   */\n      swap2\n      pop\n        /* \"#utility.yul\":1163:1183   */\n      tag_36\n        /* \"#utility.yul\":1181:1182   */\n      dup4\n        /* \"#utility.yul\":1163:1183   */\n      tag_19\n      jump\t// in\n    tag_36:\n        /* \"#utility.yul\":1158:1183   */\n      swap3\n      pop\n        /* \"#utility.yul\":1317:1318   */\n      dup3\n        /* \"#utility.yul\":1249:1315   */\n      0xffffffffffffffffffffffffffffffffffffffffffffffffffffffffffffffff\n        /* \"#utility.yul\":1245:1319   */\n      sub\n        /* \"#utility.yul\":1242:1243   */\n      dup3\n        /* \"#utility.yul\":1239:1320   */\n      gt\n        /* \"#utility.yul\":1236:1343   */\n      iszero\n      tag_37\n      jumpi\n        /* \"#utility.yul\":1323:1341   */\n      tag_38\n      tag_21\n      jump\t// in\n    tag_38:\n        /* \"#utility.yul\":1236:1343   */\n    tag_37:\n        /* \"#utility.yul\":1367:1368   */\n      dup3\n        /* \"#utility.yul\":1364:1365   */\n      dup3\n        /* \"#utility.yul\":1360:1369   */\n      add\n        /* \"#utility.yul\":1353:1369   */\n      swap1\n      pop\n        /* \"#utility.yul\":1070:1375   */\n      swap3\n      swap2\n      pop\n      pop\n      jump\t// out\n        /* \"#utility.yul\":1381:1572   */\n    tag_12:\n        /* \"#utility.yul\":1421:1425   */\n      0x00\n        /* \"#utility.yul\":1441:1461   */\n      tag_40\n        /* \"#utility.yul\":1459:1460   */\n      dup3\n        /* \"#utility.yul\":1441:1461   */\n      tag_19\n      jump\t// in\n    tag_40:\n        /* \"#utility.yul\":1436:1461   */\n      swap2\n      pop\n        /* \"#utility.yul\":1475:1495   */\n      tag_41\n        /* \"#utility.yul\":1493:1494   */\n      dup4\n        /* \"#utility.yul\":1475:1495   */\n      tag_19\n      jump\t// in\n    tag_41:\n        /* \"#utility.yul\":1470:1495   */\n      swap3\n      pop\n        /* \"#utility.yul\":1514:1515   */\n      dup3\n        /* \"#utility.yul\":1511:1512   */\n      dup3\n        /* \"#utility.yul\":1508:1516   */\n      lt\n        /* \"#utility.yul\":1505:1539   */\n      iszero\n      tag_42\n      jumpi\n        /* \"#utility.yul\":1519:1537   */\n      tag_43\n      tag_21\n      jump\t// in\n    tag_43:\n        /* \"#utility.yul\":1505:1539   */\n    tag_42:\n        /* \"#utility.yul\":1564:1565   */\n      dup3\n        /* \"#utility.yul\":1561:1562   */\n      dup3\n        /* \"#utility.yul\":1557:1566   */\n      sub\n        /* \"#utility.yul\":1549:1566   */\n      swap1\n      pop\n        /* \"#utility.yul\":1381:1572   */\n      swap3\n      swap2\n      pop\n      pop\n      jump\t// out\n        /* \"#utility.yul\":1578:1926   */\n    tag_14:\n        /* \"#utility.yul\":1618:1625   */\n      0x00\n        /* \"#utility.yul\":1641:1661   */\n      tag_45\n        /* \"#utility.yul\":1659:1660   */\n      dup3\n        /* \"#utility.yul\":1641:1661   */\n      tag_19\n      jump\t// in\n    tag_45:\n        /* \"#utility.yul\":1636:1661   */\n      swap2\n      pop\n        /* \"#utility.yul\":1675:1695   */\n      tag_46\n        /* \"#utility.yul\":1693:1694   */\n      dup4\n        /* \"#utility.yul\":1675:1695   */\n      tag_19\n      jump\t// in\n    tag_46:\n        /* \"#utility.yul\":1670:1695   */\n      swap3\n      pop\n        /* \"#utility.yul\":1863:1864   */\n      dup2\n        /* \"#utility.yul\":1795:1861   */\n      0xffffffffffffffffffffffffffffffffffffffffffffffffffffffffffffffff\n        /* \"#utility.yul\":1791:1865   */\n      div\n        /* \"#utility.yul\":1788:1789   */\n      dup4\n        /* \"#utility.yul\":1785:1866   */\n      gt\n        /* \"#utility.yul\":1780:1781   */\n      dup3\n        /* \"#utility.yul\":1773:1782   */\n      iszero\n        /* \"#utility.yul\":1766:1783   */\n      iszero\n        /* \"#utility.yul\":1762:1867   */\n      and\n        /* \"#utility.yul\":1759:1890   */\n      iszero\n      tag_47\n      jumpi\n        /* \"#utility.yul\":1870:1888   */\n      tag_48\n      tag_21\n      jump\t// in\n    tag_48:\n        /* \"#utility.yul\":1759:1890   */\n    tag_47:\n        /* \"#utility.yul\":1918:1919   */\n      dup3\n        /* \"#utility.yul\":1915:1916   */\n      dup3\n        /* \"#utility.yul\":1911:1920   */\n      mul\n        /* \"#utility.yul\":1900:1920   */\n      swap1\n      pop\n        /* \"#utility.yul\":1578:1926   */\n      swap3\n      swap2\n      pop\n      pop\n      jump\t// out\n        /* \"#utility.yul\":1932:2112   */\n    tag_22:\n        /* \"#utility.yul\":1980:2057   */\n      0x4e487b7100000000000000000000000000000000000000000000000000000000\n        /* \"#utility.yul\":1977:1978   */\n      0x00\n        /* \"#utility.yul\":1970:2058   */\n      mstore\n        /* \"#utility.yul\":2077:2081   */\n      0x12\n        /* \"#utility.yul\":2074:2075   */\n      0x04\n        /* \"#utility.yul\":2067:2082   */\n      mstore\n        /* \"#utility.yul\":2101:2105   */\n      0x24\n        /* \"#utility.yul\":2098:2099   */\n      0x00\n        /* \"#utility.yul\":2091:2106   */\n      revert\n        /* \"#utility.yul\":2118:2303   */\n    tag_16:\n        /* \"#utility.yul\":2158:2159   */\n      0x00\n        /* \"#utility.yul\":2175:2195   */\n      tag_51\n        /* \"#utility.yul\":2193:2194   */\n      dup3\n        /* \"#utility.yul\":2175:2195   */\n      tag_19\n      jump\t// in\n    tag_51:\n        /* \"#utility.yul\":2170:2195   */\n      swap2\n      pop\n        /* \"#utility.yul\":2209:2229   */\n      tag_52\n        /* \"#utility.yul\":2227:2228   */\n      dup4\n        /* \"#utility.yul\":2209:2229   */\n      tag_19\n      jump\t// in\n    tag_52:\n        /* \"#utility.yul\":2204:2229   */\n      swap3\n      pop\n        /* \"#utility.yul\":2248:2249   */\n      dup3\n        /* \"#utility.yul\":2238:2273   */\n      tag_53\n      jumpi\n        /* \"#utility.yul\":2253:2271   */\n      tag_54\n      tag_22\n      jump\t// in\n    tag_54:\n        /* \"#utility.yul\":2238:2273   */\n    tag_53:\n        /* \"#utility.yul\":2295:2296   */\n      dup3\n        /* \"#utility.yul\":2292:2293   */\n      dup3\n        /* \"#utility.yul\":2288:2297   */\n      div\n        /* \"#utility.yul\":2283:2297   */\n      swap1\n      pop\n        /* \"#utility.yul\":2118:2303   */\n      swap3\n      swap2\n      pop\n      pop\n      jump\t// out\n        /* \"#utility.yul\":2309:2485   */\n    tag_18:\n        /* \"#utility.yul\":2341:2342   */\n      0x00\n        /* \"#utility.yul\":2358:2378   */\n      tag_56\n        /* \"#utility.yul\":2376:2377   */\n      dup3\n        /* \"#utility.yul\":2358:2378   */\n      tag_19\n      jump\t// in\n    tag_56:\n        /* \"#utility.yul\":2353:2378   */\n      swap2\n      pop\n        /* \"#utility.yul\":2392:2412   */\n      tag_57\n        /* \"#utility.yul\":2410:2411   */\n      dup4\n        /* \"#utility.yul\":2392:2412   */\n      tag_19\n      jump\t// in\n    tag_57:\n        /* \"#utility.yul\":2387:2412   */\n      swap3\n      pop\n        /* \"#utility.yul\":2431:2432   */\n      dup3\n        /* \"#utility.yul\":2421:2456   */\n      tag_58\n      jumpi\n        /* \"#utility.yul\":2436:2454   */\n      tag_59\n      tag_22\n      jump\t// in\n    tag_59:\n        /* \"#utility.yul\":2421:2456   */\n    tag_58:\n        /* \"#utility.yul\":2477:2478   */\n      dup3\n        /* \"#utility.yul\":2474:2475   */\n      dup3\n        /* \"#utility.yul\":2470:2479   */\n      mod\n        /* \"#utility.yul\":2465:2479   */\n      swap1\n      pop\n        /* \"#utility.yul\":2309:2485   */\n      swap3\n      swap2\n      pop\n      pop\n      jump\t// out\n\n    auxdata: 0xa2646970667358221220ae158ded164895015cc7af12995e8416a1b413be89d5a9e42b7308f249d15e4364736f6c634300080e0033\n}\n",
				"bytecode": {
					"linkReferences": {},
					"object": "60806040526005600055600560015560056002556005600355600560045534801561002957600080fd5b50610340806100396000396000f3fe608060405234801561001057600080fd5b506004361061002b5760003560e01c8063e1ce4d3f14610030575b600080fd5b610038610052565b604051610049959493929190610113565b60405180910390f35b6000806000806000600260008082825461006c9190610195565b9250508190555060026001600082825461008691906101eb565b92505081905550600280600082825461009f919061021f565b925050819055506002600360008282546100b991906102a8565b925050819055506002600460008282546100d391906102d9565b92505081905550600054600154600254600354600454945094509450945094509091929394565b6000819050919050565b61010d816100fa565b82525050565b600060a0820190506101286000830188610104565b6101356020830187610104565b6101426040830186610104565b61014f6060830185610104565b61015c6080830184610104565b9695505050505050565b7f4e487b7100000000000000000000000000000000000000000000000000000000600052601160045260246000fd5b60006101a0826100fa565b91506101ab836100fa565b9250827fffffffffffffffffffffffffffffffffffffffffffffffffffffffffffffffff038211156101e0576101df610166565b5b828201905092915050565b60006101f6826100fa565b9150610201836100fa565b92508282101561021457610213610166565b5b828203905092915050565b600061022a826100fa565b9150610235836100fa565b9250817fffffffffffffffffffffffffffffffffffffffffffffffffffffffffffffffff048311821515161561026e5761026d610166565b5b828202905092915050565b7f4e487b7100000000000000000000000000000000000000000000000000000000600052601260045260246000fd5b60006102b3826100fa565b91506102be836100fa565b9250826102ce576102cd610279565b5b828204905092915050565b60006102e4826100fa565b91506102ef836100fa565b9250826102ff576102fe610279565b5b82820690509291505056fea2646970667358221220ae158ded164895015cc7af12995e8416a1b413be89d5a9e42b7308f249d15e4364736f6c634300080e0033",
					"opcodes": "PUSH1 0x80 PUSH1 0x40 MSTORE PUSH1 0x5 PUSH1 0x0 SSTORE PUSH1 0x5 PUSH1 0x1 SSTORE PUSH1 0x5 PUSH1 0x2 SSTORE PUSH1 0x5 PUSH1 0x3 SSTORE PUSH1 0x5 PUSH1 0x4 SSTORE CALLVALUE DUP1 ISZERO PUSH2 0x29 JUMPI PUSH1 0x0 DUP1 REVERT JUMPDEST POP PUSH2 0x340 DUP1 PUSH2 0x39 PUSH1 0x0 CODECOPY PUSH1 0x0 RETURN INVALID PUSH1 0x80 PUSH1 0x40 MSTORE CALLVALUE DUP1 ISZERO PUSH2 0x10 JUMPI PUSH1 0x0 DUP1 REVERT JUMPDEST POP PUSH1 0x4 CALLDATASIZE LT PUSH2 0x2B JUMPI PUSH1 0x0 CALLDATALOAD PUSH1 0xE0 SHR DUP1 PUSH4 0xE1CE4D3F EQ PUSH2 0x30 JUMPI JUMPDEST PUSH1 0x0 DUP1 REVERT JUMPDEST PUSH2 0x38 PUSH2 0x52 JUMP JUMPDEST PUSH1 0x40 MLOAD PUSH2 0x49 SWAP6 SWAP5 SWAP4 SWAP3 SWAP2 SWAP1 PUSH2 0x113 JUMP JUMPDEST PUSH1 0x40 MLOAD DUP1 SWAP2 SUB SWAP1 RETURN JUMPDEST PUSH1 0x0 DUP1 PUSH1 0x0 DUP1 PUSH1 0x0 PUSH1 0x2 PUSH1 0x0 DUP1 DUP3 DUP3 SLOAD PUSH2 0x6C SWAP2 SWAP1 PUSH2 0x195 JUMP JUMPDEST SWAP3 POP POP DUP2 SWAP1 SSTORE POP PUSH1 0x2 PUSH1 0x1 PUSH1 0x0 DUP3 DUP3 SLOAD PUSH2 0x86 SWAP2 SWAP1 PUSH2 0x1EB JUMP JUMPDEST SWAP3 POP POP DUP2 SWAP1 SSTORE POP PUSH1 0x2 DUP1 PUSH1 0x0 DUP3 DUP3 SLOAD PUSH2 0x9F SWAP2 SWAP1 PUSH2 0x21F JUMP JUMPDEST SWAP3 POP POP DUP2 SWAP1 SSTORE POP PUSH1 0x2 PUSH1 0x3 PUSH1 0x0 DUP3 DUP3 SLOAD PUSH2 0xB9 SWAP2 SWAP1 PUSH2 0x2A8 JUMP JUMPDEST SWAP3 POP POP DUP2 SWAP1 SSTORE POP PUSH1 0x2 PUSH1 0x4 PUSH1 0x0 DUP3 DUP3 SLOAD PUSH2 0xD3 SWAP2 SWAP1 PUSH2 0x2D9 JUMP JUMPDEST SWAP3 POP POP DUP2 SWAP1 SSTORE POP PUSH1 0x0 SLOAD PUSH1 0x1 SLOAD PUSH1 0x2 SLOAD PUSH1 0x3 SLOAD PUSH1 0x4 SLOAD SWAP5 POP SWAP5 POP SWAP5 POP SWAP5 POP SWAP5 POP SWAP1 SWAP2 SWAP3 SWAP4 SWAP5 JUMP JUMPDEST PUSH1 0x0 DUP2 SWAP1 POP SWAP2 SWAP1 POP JUMP JUMPDEST PUSH2 0x10D DUP2 PUSH2 0xFA JUMP JUMPDEST DUP3 MSTORE POP POP JUMP JUMPDEST PUSH1 0x0 PUSH1 0xA0 DUP3 ADD SWAP1 POP PUSH2 0x128 PUSH1 0x0 DUP4 ADD DUP9 PUSH2 0x104 JUMP JUMPDEST PUSH2 0x135 PUSH1 0x20 DUP4 ADD DUP8 PUSH2 0x104 JUMP JUMPDEST PUSH2 0x142 PUSH1 0x40 DUP4 ADD DUP7 PUSH2 0x104 JUMP JUMPDEST PUSH2 0x14F PUSH1 0x60 DUP4 ADD DUP6 PUSH2 0x104 JUMP JUMPDEST PUSH2 0x15C PUSH1 0x80 DUP4 ADD DUP5 PUSH2 0x104 JUMP JUMPDEST SWAP7 SWAP6 POP POP POP POP POP POP JUMP JUMPDEST PUSH32 0x4E487B7100000000000000000000000000000000000000000000000000000000 PUSH1 0x0 MSTORE PUSH1 0x11 PUSH1 0x4 MSTORE PUSH1 0x24 PUSH1 0x0 REVERT JUMPDEST PUSH1 0x0 PUSH2 0x1A0 DUP3 PUSH2 0xFA JUMP JUMPDEST SWAP2 POP PUSH2 0x1AB DUP4 PUSH2 0xFA JUMP JUMPDEST SWAP3 POP DUP3 PUSH32 0xFFFFFFFFFFFFFFFFFFFFFFFFFFFFFFFFFFFFFFFFFFFFFFFFFFFFFFFFFFFFFFFF SUB DUP3 GT ISZERO PUSH2 0x1E0 JUMPI PUSH2 0x1DF PUSH2 0x166 JUMP JUMPDEST JUMPDEST DUP3 DUP3 ADD SWAP1 POP SWAP3 SWAP2 POP POP JUMP JUMPDEST PUSH1 0x0 PUSH2 0x1F6 DUP3 PUSH2 0xFA JUMP JUMPDEST SWAP2 POP PUSH2 0x201 DUP4 PUSH2 0xFA JUMP JUMPDEST SWAP3 POP DUP3 DUP3 LT ISZERO PUSH2 0x214 JUMPI PUSH2 0x213 PUSH2 0x166 JUMP JUMPDEST JUMPDEST DUP3 DUP3 SUB SWAP1 POP SWAP3 SWAP2 POP POP JUMP JUMPDEST PUSH1 0x0 PUSH2 0x22A DUP3 PUSH2 0xFA JUMP JUMPDEST SWAP2 POP PUSH2 0x235 DUP4 PUSH2 0xFA JUMP JUMPDEST SWAP3 POP DUP2 PUSH32 0xFFFFFFFFFFFFFFFFFFFFFFFFFFFFFFFFFFFFFFFFFFFFFFFFFFFFFFFFFFFFFFFF DIV DUP4 GT DUP3 ISZERO ISZERO AND ISZERO PUSH2 0x26E JUMPI PUSH2 0x26D PUSH2 0x166 JUMP JUMPDEST JUMPDEST DUP3 DUP3 MUL SWAP1 POP SWAP3 SWAP2 POP POP JUMP JUMPDEST PUSH32 0x4E487B7100000000000000000000000000000000000000000000000000000000 PUSH1 0x0 MSTORE PUSH1 0x12 PUSH1 0x4 MSTORE PUSH1 0x24 PUSH1 0x0 REVERT JUMPDEST PUSH1 0x0 PUSH2 0x2B3 DUP3 PUSH2 0xFA JUMP JUMPDEST SWAP2 POP PUSH2 0x2BE DUP4 PUSH2 0xFA JUMP JUMPDEST SWAP3 POP DUP3 PUSH2 0x2CE JUMPI PUSH2 0x2CD PUSH2 0x279 JUMP JUMPDEST JUMPDEST DUP3 DUP3 DIV SWAP1 POP SWAP3 SWAP2 POP POP JUMP JUMPDEST PUSH1 0x0 PUSH2 0x2E4 DUP3 PUSH2 0xFA JUMP JUMPDEST SWAP2 POP PUSH2 0x2EF DUP4 PUSH2 0xFA JUMP JUMPDEST SWAP3 POP DUP3 PUSH2 0x2FF JUMPI PUSH2 0x2FE PUSH2 0x279 JUMP JUMPDEST JUMPDEST DUP3 DUP3 MOD SWAP1 POP SWAP3 SWAP2 POP POP JUMP INVALID LOG2 PUSH5 0x6970667358 0x22 SLT KECCAK256 0xAE ISZERO DUP14 0xED AND BASEFEE SWAP6 ADD 0x5C 0xC7 0xAF SLT SWAP10 0x5E DUP5 AND LOG1 0xB4 SGT 0xBE DUP10 0xD5 0xA9 0xE4 0x2B PUSH20 0x8F249D15E4364736F6C634300080E0033000000 "
				},
				"gasEstimates": {
					"creation": {
						"codeDepositCost": "166400",
						"executionCost": "110738",
						"totalCost": "277138"
					},
					"external": {
						"compoundAssignment()": "infinite"
					}
				},
				"methodIdentifiers": {
					"compoundAssignment()": "e1ce4d3f"
				}
			},
			"storageLayout": {
				"storage": [
					{
						"astId": 4,
						"contract": "Chapter2/Ex2_5.sol:Ex2_5",
						"label": "a",
						"offset": 0,
						"slot": "0",
						"type": "t_uint256"
					},
					{
						"astId": 7,
						"contract": "Chapter2/Ex2_5.sol:Ex2_5",
						"label": "b",
						"offset": 0,
						"slot": "1",
						"type": "t_uint256"
					},
					{
						"astId": 10,
						"contract": "Chapter2/Ex2_5.sol:Ex2_5",
						"label": "c",
						"offset": 0,
						"slot": "2",
						"type": "t_uint256"
					},
					{
						"astId": 13,
						"contract": "Chapter2/Ex2_5.sol:Ex2_5",
						"label": "d",
						"offset": 0,
						"slot": "3",
						"type": "t_uint256"
					},
					{
						"astId": 16,
						"contract": "Chapter2/Ex2_5.sol:Ex2_5",
						"label": "e",
						"offset": 0,
						"slot": "4",
						"type": "t_uint256"
					}
				],
				"types": {
					"t_uint256": {
						"encoding": "inplace",
						"label": "uint256",
						"numberOfBytes": "32"
					}
				}
			},
			"userdoc": {
				"kind": "user",
				"methods": {},
				"version": 1
			}
		}
	}
}