{
	"Chapter2/Ex2_8.sol": {
		"Ex2_8": {
			"abi": [
				{
					"inputs": [],
					"name": "comparison",
					"outputs": [
						{
							"internalType": "bool",
							"name": "",
							"type": "bool"
						},
						{
							"internalType": "bool",
							"name": "",
							"type": "bool"
						},
						{
							"internalType": "bool",
							"name": "",
							"type": "bool"
						},
						{
							"internalType": "bool",
							"name": "",
							"type": "bool"
						},
						{
							"internalType": "bool",
							"name": "",
							"type": "bool"
						},
						{
							"internalType": "bool",
							"name": "",
							"type": "bool"
						}
					],
					"stateMutability": "view",
					"type": "function"
				}
			],
			"devdoc": {
				"kind": "dev",
				"methods": {},
				"version": 1
			},
			"evm": {
				"assembly": "    /* \"Chapter2/Ex2_8.sol\":72:398  contract Ex2_8{... */\n  mstore(0x40, 0x80)\n    /* \"Chapter2/Ex2_8.sol\":106:107  4 */\n  0x04\n    /* \"Chapter2/Ex2_8.sol\":102:103  3 */\n  0x03\n    /* \"Chapter2/Ex2_8.sol\":102:107  3 > 4 */\n  gt\n    /* \"Chapter2/Ex2_8.sol\":93:107  bool a = 3 > 4 */\n  0x00\n  dup1\n  0x0100\n  exp\n  dup2\n  sload\n  dup2\n  0xff\n  mul\n  not\n  and\n  swap1\n  dup4\n  iszero\n  iszero\n  mul\n  or\n  swap1\n  sstore\n  pop\n    /* \"Chapter2/Ex2_8.sol\":136:137  4 */\n  0x04\n    /* \"Chapter2/Ex2_8.sol\":132:133  3 */\n  0x03\n    /* \"Chapter2/Ex2_8.sol\":132:137  3 < 4 */\n  lt\n    /* \"Chapter2/Ex2_8.sol\":123:137  bool b = 3 < 4 */\n  0x00\n  exp(0x0100, 0x01)\n  dup2\n  sload\n  dup2\n  0xff\n  mul\n  not\n  and\n  swap1\n  dup4\n  iszero\n  iszero\n  mul\n  or\n  swap1\n  sstore\n  pop\n    /* \"Chapter2/Ex2_8.sol\":166:167  2 */\n  0x02\n    /* \"Chapter2/Ex2_8.sol\":161:162  5 */\n  0x05\n    /* \"Chapter2/Ex2_8.sol\":161:167  5 >= 2 */\n  lt\n  iszero\n    /* \"Chapter2/Ex2_8.sol\":152:167  bool c = 5 >= 2 */\n  0x00\n  exp(0x0100, 0x02)\n  dup2\n  sload\n  dup2\n  0xff\n  mul\n  not\n  and\n  swap1\n  dup4\n  iszero\n  iszero\n  mul\n  or\n  swap1\n  sstore\n  pop\n    /* \"Chapter2/Ex2_8.sol\":195:196  5 */\n  0x05\n    /* \"Chapter2/Ex2_8.sol\":191:192  5 */\n  dup1\n    /* \"Chapter2/Ex2_8.sol\":191:196  5 <=5 */\n  gt\n  iszero\n    /* \"Chapter2/Ex2_8.sol\":182:196  bool d = 5 <=5 */\n  0x00\n  exp(0x0100, 0x03)\n  dup2\n  sload\n  dup2\n  0xff\n  mul\n  not\n  and\n  swap1\n  dup4\n  iszero\n  iszero\n  mul\n  or\n  swap1\n  sstore\n  pop\n    /* \"Chapter2/Ex2_8.sol\":225:226  2 */\n  0x02\n    /* \"Chapter2/Ex2_8.sol\":220:221  3 */\n  0x03\n    /* \"Chapter2/Ex2_8.sol\":220:226  3 == 2 */\n  eq\n    /* \"Chapter2/Ex2_8.sol\":211:226  bool e = 3 == 2 */\n  0x00\n  exp(0x0100, 0x04)\n  dup2\n  sload\n  dup2\n  0xff\n  mul\n  not\n  and\n  swap1\n  dup4\n  iszero\n  iszero\n  mul\n  or\n  swap1\n  sstore\n  pop\n    /* \"Chapter2/Ex2_8.sol\":256:257  2 */\n  0x02\n    /* \"Chapter2/Ex2_8.sol\":251:252  3 */\n  0x03\n    /* \"Chapter2/Ex2_8.sol\":251:257  3 != 2 */\n  eq\n  iszero\n    /* \"Chapter2/Ex2_8.sol\":242:257  bool f = 3 != 2 */\n  0x00\n  exp(0x0100, 0x05)\n  dup2\n  sload\n  dup2\n  0xff\n  mul\n  not\n  and\n  swap1\n  dup4\n  iszero\n  iszero\n  mul\n  or\n  swap1\n  sstore\n  pop\n    /* \"Chapter2/Ex2_8.sol\":72:398  contract Ex2_8{... */\n  callvalue\n  dup1\n  iszero\n  tag_1\n  jumpi\n  0x00\n  dup1\n  revert\ntag_1:\n  pop\n  dataSize(sub_0)\n  dup1\n  dataOffset(sub_0)\n  0x00\n  codecopy\n  0x00\n  return\nstop\n\nsub_0: assembly {\n        /* \"Chapter2/Ex2_8.sol\":72:398  contract Ex2_8{... */\n      mstore(0x40, 0x80)\n      callvalue\n      dup1\n      iszero\n      tag_1\n      jumpi\n      0x00\n      dup1\n      revert\n    tag_1:\n      pop\n      jumpi(tag_2, lt(calldatasize, 0x04))\n      shr(0xe0, calldataload(0x00))\n      dup1\n      0xaae103ad\n      eq\n      tag_3\n      jumpi\n    tag_2:\n      0x00\n      dup1\n      revert\n        /* \"Chapter2/Ex2_8.sol\":274:395  function comparison() public view returns (bool, bool, bool, bool, bool, bool){... */\n    tag_3:\n      tag_4\n      tag_5\n      jump\t// in\n    tag_4:\n      mload(0x40)\n      tag_6\n      swap7\n      swap6\n      swap5\n      swap4\n      swap3\n      swap2\n      swap1\n      tag_7\n      jump\t// in\n    tag_6:\n      mload(0x40)\n      dup1\n      swap2\n      sub\n      swap1\n      return\n    tag_5:\n        /* \"Chapter2/Ex2_8.sol\":317:321  bool */\n      0x00\n        /* \"Chapter2/Ex2_8.sol\":323:327  bool */\n      dup1\n        /* \"Chapter2/Ex2_8.sol\":329:333  bool */\n      0x00\n        /* \"Chapter2/Ex2_8.sol\":335:339  bool */\n      dup1\n        /* \"Chapter2/Ex2_8.sol\":341:345  bool */\n      0x00\n        /* \"Chapter2/Ex2_8.sol\":347:351  bool */\n      dup1\n        /* \"Chapter2/Ex2_8.sol\":370:371  a */\n      0x00\n      dup1\n      sload\n      swap1\n      0x0100\n      exp\n      swap1\n      div\n      0xff\n      and\n        /* \"Chapter2/Ex2_8.sol\":373:374  b */\n      0x00\n      0x01\n      swap1\n      sload\n      swap1\n      0x0100\n      exp\n      swap1\n      div\n      0xff\n      and\n        /* \"Chapter2/Ex2_8.sol\":376:377  c */\n      0x00\n      0x02\n      swap1\n      sload\n      swap1\n      0x0100\n      exp\n      swap1\n      div\n      0xff\n      and\n        /* \"Chapter2/Ex2_8.sol\":379:380  d */\n      0x00\n      0x03\n      swap1\n      sload\n      swap1\n      0x0100\n      exp\n      swap1\n      div\n      0xff\n      and\n        /* \"Chapter2/Ex2_8.sol\":382:383  e */\n      0x00\n      0x04\n      swap1\n      sload\n      swap1\n      0x0100\n      exp\n      swap1\n      div\n      0xff\n      and\n        /* \"Chapter2/Ex2_8.sol\":385:386  f */\n      0x00\n      0x05\n      swap1\n      sload\n      swap1\n      0x0100\n      exp\n      swap1\n      div\n      0xff\n      and\n        /* \"Chapter2/Ex2_8.sol\":363:387  return(a, b, c, d, e, f) */\n      swap6\n      pop\n      swap6\n      pop\n      swap6\n      pop\n      swap6\n      pop\n      swap6\n      pop\n      swap6\n      pop\n        /* \"Chapter2/Ex2_8.sol\":274:395  function comparison() public view returns (bool, bool, bool, bool, bool, bool){... */\n      swap1\n      swap2\n      swap3\n      swap4\n      swap5\n      swap6\n      jump\t// out\n        /* \"#utility.yul\":7:97   */\n    tag_9:\n        /* \"#utility.yul\":41:48   */\n      0x00\n        /* \"#utility.yul\":84:89   */\n      dup2\n        /* \"#utility.yul\":77:90   */\n      iszero\n        /* \"#utility.yul\":70:91   */\n      iszero\n        /* \"#utility.yul\":59:91   */\n      swap1\n      pop\n        /* \"#utility.yul\":7:97   */\n      swap2\n      swap1\n      pop\n      jump\t// out\n        /* \"#utility.yul\":103:212   */\n    tag_10:\n        /* \"#utility.yul\":184:205   */\n      tag_14\n        /* \"#utility.yul\":199:204   */\n      dup2\n        /* \"#utility.yul\":184:205   */\n      tag_9\n      jump\t// in\n    tag_14:\n        /* \"#utility.yul\":179:182   */\n      dup3\n        /* \"#utility.yul\":172:206   */\n      mstore\n        /* \"#utility.yul\":103:212   */\n      pop\n      pop\n      jump\t// out\n        /* \"#utility.yul\":218:921   */\n    tag_7:\n        /* \"#utility.yul\":415:419   */\n      0x00\n        /* \"#utility.yul\":453:456   */\n      0xc0\n        /* \"#utility.yul\":442:451   */\n      dup3\n        /* \"#utility.yul\":438:457   */\n      add\n        /* \"#utility.yul\":430:457   */\n      swap1\n      pop\n        /* \"#utility.yul\":467:532   */\n      tag_16\n        /* \"#utility.yul\":529:530   */\n      0x00\n        /* \"#utility.yul\":518:527   */\n      dup4\n        /* \"#utility.yul\":514:531   */\n      add\n        /* \"#utility.yul\":505:511   */\n      dup10\n        /* \"#utility.yul\":467:532   */\n      tag_10\n      jump\t// in\n    tag_16:\n        /* \"#utility.yul\":542:608   */\n      tag_17\n        /* \"#utility.yul\":604:606   */\n      0x20\n        /* \"#utility.yul\":593:602   */\n      dup4\n        /* \"#utility.yul\":589:607   */\n      add\n        /* \"#utility.yul\":580:586   */\n      dup9\n        /* \"#utility.yul\":542:608   */\n      tag_10\n      jump\t// in\n    tag_17:\n        /* \"#utility.yul\":618:684   */\n      tag_18\n        /* \"#utility.yul\":680:682   */\n      0x40\n        /* \"#utility.yul\":669:678   */\n      dup4\n        /* \"#utility.yul\":665:683   */\n      add\n        /* \"#utility.yul\":656:662   */\n      dup8\n        /* \"#utility.yul\":618:684   */\n      tag_10\n      jump\t// in\n    tag_18:\n        /* \"#utility.yul\":694:760   */\n      tag_19\n        /* \"#utility.yul\":756:758   */\n      0x60\n        /* \"#utility.yul\":745:754   */\n      dup4\n        /* \"#utility.yul\":741:759   */\n      add\n        /* \"#utility.yul\":732:738   */\n      dup7\n        /* \"#utility.yul\":694:760   */\n      tag_10\n      jump\t// in\n    tag_19:\n        /* \"#utility.yul\":770:837   */\n      tag_20\n        /* \"#utility.yul\":832:835   */\n      0x80\n        /* \"#utility.yul\":821:830   */\n      dup4\n        /* \"#utility.yul\":817:836   */\n      add\n        /* \"#utility.yul\":808:814   */\n      dup6\n        /* \"#utility.yul\":770:837   */\n      tag_10\n      jump\t// in\n    tag_20:\n        /* \"#utility.yul\":847:914   */\n      tag_21\n        /* \"#utility.yul\":909:912   */\n      0xa0\n        /* \"#utility.yul\":898:907   */\n      dup4\n        /* \"#utility.yul\":894:913   */\n      add\n        /* \"#utility.yul\":885:891   */\n      dup5\n        /* \"#utility.yul\":847:914   */\n      tag_10\n      jump\t// in\n    tag_21:\n        /* \"#utility.yul\":218:921   */\n      swap8\n      swap7\n      pop\n      pop\n      pop\n      pop\n      pop\n      pop\n      pop\n      jump\t// out\n\n    auxdata: 0xa26469706673582212207830d3c9463eb75637866bf549e47b1eae40b5798e3f94ae456fff5876c0521a64736f6c634300080e0033\n}\n",
				"bytecode": {
					"linkReferences": {},
					"object": "608060405260046003116000806101000a81548160ff0219169083151502179055506004600310600060016101000a81548160ff021916908315150217905550600260051015600060026101000a81548160ff0219169083151502179055506005801115600060036101000a81548160ff0219169083151502179055506002600314600060046101000a81548160ff021916908315150217905550600260031415600060056101000a81548160ff0219169083151502179055503480156100c557600080fd5b50610180806100d56000396000f3fe608060405234801561001057600080fd5b506004361061002b5760003560e01c8063aae103ad14610030575b600080fd5b610038610053565b60405161004a969594939291906100e9565b60405180910390f35b60008060008060008060008054906101000a900460ff16600060019054906101000a900460ff16600060029054906101000a900460ff16600060039054906101000a900460ff16600060049054906101000a900460ff16600060059054906101000a900460ff16955095509550955095509550909192939495565b60008115159050919050565b6100e3816100ce565b82525050565b600060c0820190506100fe60008301896100da565b61010b60208301886100da565b61011860408301876100da565b61012560608301866100da565b61013260808301856100da565b61013f60a08301846100da565b97965050505050505056fea26469706673582212207830d3c9463eb75637866bf549e47b1eae40b5798e3f94ae456fff5876c0521a64736f6c634300080e0033",
					"opcodes": "PUSH1 0x80 PUSH1 0x40 MSTORE PUSH1 0x4 PUSH1 0x3 GT PUSH1 0x0 DUP1 PUSH2 0x100 EXP DUP2 SLOAD DUP2 PUSH1 0xFF MUL NOT AND SWAP1 DUP4 ISZERO ISZERO MUL OR SWAP1 SSTORE POP PUSH1 0x4 PUSH1 0x3 LT PUSH1 0x0 PUSH1 0x1 PUSH2 0x100 EXP DUP2 SLOAD DUP2 PUSH1 0xFF MUL NOT AND SWAP1 DUP4 ISZERO ISZERO MUL OR SWAP1 SSTORE POP PUSH1 0x2 PUSH1 0x5 LT ISZERO PUSH1 0x0 PUSH1 0x2 PUSH2 0x100 EXP DUP2 SLOAD DUP2 PUSH1 0xFF MUL NOT AND SWAP1 DUP4 ISZERO ISZERO MUL OR SWAP1 SSTORE POP PUSH1 0x5 DUP1 GT ISZERO PUSH1 0x0 PUSH1 0x3 PUSH2 0x100 EXP DUP2 SLOAD DUP2 PUSH1 0xFF MUL NOT AND SWAP1 DUP4 ISZERO ISZERO MUL OR SWAP1 SSTORE POP PUSH1 0x2 PUSH1 0x3 EQ PUSH1 0x0 PUSH1 0x4 PUSH2 0x100 EXP DUP2 SLOAD DUP2 PUSH1 0xFF MUL NOT AND SWAP1 DUP4 ISZERO ISZERO MUL OR SWAP1 SSTORE POP PUSH1 0x2 PUSH1 0x3 EQ ISZERO PUSH1 0x0 PUSH1 0x5 PUSH2 0x100 EXP DUP2 SLOAD DUP2 PUSH1 0xFF MUL NOT AND SWAP1 DUP4 ISZERO ISZERO MUL OR SWAP1 SSTORE POP CALLVALUE DUP1 ISZERO PUSH2 0xC5 JUMPI PUSH1 0x0 DUP1 REVERT JUMPDEST POP PUSH2 0x180 DUP1 PUSH2 0xD5 PUSH1 0x0 CODECOPY PUSH1 0x0 RETURN INVALID PUSH1 0x80 PUSH1 0x40 MSTORE CALLVALUE DUP1 ISZERO PUSH2 0x10 JUMPI PUSH1 0x0 DUP1 REVERT JUMPDEST POP PUSH1 0x4 CALLDATASIZE LT PUSH2 0x2B JUMPI PUSH1 0x0 CALLDATALOAD PUSH1 0xE0 SHR DUP1 PUSH4 0xAAE103AD EQ PUSH2 0x30 JUMPI JUMPDEST PUSH1 0x0 DUP1 REVERT JUMPDEST PUSH2 0x38 PUSH2 0x53 JUMP JUMPDEST PUSH1 0x40 MLOAD PUSH2 0x4A SWAP7 SWAP6 SWAP5 SWAP4 SWAP3 SWAP2 SWAP1 PUSH2 0xE9 JUMP JUMPDEST PUSH1 0x40 MLOAD DUP1 SWAP2 SUB SWAP1 RETURN JUMPDEST PUSH1 0x0 DUP1 PUSH1 0x0 DUP1 PUSH1 0x0 DUP1 PUSH1 0x0 DUP1 SLOAD SWAP1 PUSH2 0x100 EXP SWAP1 DIV PUSH1 0xFF AND PUSH1 0x0 PUSH1 0x1 SWAP1 SLOAD SWAP1 PUSH2 0x100 EXP SWAP1 DIV PUSH1 0xFF AND PUSH1 0x0 PUSH1 0x2 SWAP1 SLOAD SWAP1 PUSH2 0x100 EXP SWAP1 DIV PUSH1 0xFF AND PUSH1 0x0 PUSH1 0x3 SWAP1 SLOAD SWAP1 PUSH2 0x100 EXP SWAP1 DIV PUSH1 0xFF AND PUSH1 0x0 PUSH1 0x4 SWAP1 SLOAD SWAP1 PUSH2 0x100 EXP SWAP1 DIV PUSH1 0xFF AND PUSH1 0x0 PUSH1 0x5 SWAP1 SLOAD SWAP1 PUSH2 0x100 EXP SWAP1 DIV PUSH1 0xFF AND SWAP6 POP SWAP6 POP SWAP6 POP SWAP6 POP SWAP6 POP SWAP6 POP SWAP1 SWAP2 SWAP3 SWAP4 SWAP5 SWAP6 JUMP JUMPDEST PUSH1 0x0 DUP2 ISZERO ISZERO SWAP1 POP SWAP2 SWAP1 POP JUMP JUMPDEST PUSH2 0xE3 DUP2 PUSH2 0xCE JUMP JUMPDEST DUP3 MSTORE POP POP JUMP JUMPDEST PUSH1 0x0 PUSH1 0xC0 DUP3 ADD SWAP1 POP PUSH2 0xFE PUSH1 0x0 DUP4 ADD DUP10 PUSH2 0xDA JUMP JUMPDEST PUSH2 0x10B PUSH1 0x20 DUP4 ADD DUP9 PUSH2 0xDA JUMP JUMPDEST PUSH2 0x118 PUSH1 0x40 DUP4 ADD DUP8 PUSH2 0xDA JUMP JUMPDEST PUSH2 0x125 PUSH1 0x60 DUP4 ADD DUP7 PUSH2 0xDA JUMP JUMPDEST PUSH2 0x132 PUSH1 0x80 DUP4 ADD DUP6 PUSH2 0xDA JUMP JUMPDEST PUSH2 0x13F PUSH1 0xA0 DUP4 ADD DUP5 PUSH2 0xDA JUMP JUMPDEST SWAP8 SWAP7 POP POP POP POP POP POP POP JUMP INVALID LOG2 PUSH5 0x6970667358 0x22 SLT KECCAK256 PUSH25 0x30D3C9463EB75637866BF549E47B1EAE40B5798E3F94AE456F SELFDESTRUCT PC PUSH23 0xC0521A64736F6C634300080E0033000000000000000000 "
				},
				"gasEstimates": {
					"creation": {
						"codeDepositCost": "76800",
						"executionCost": "146020",
						"totalCost": "222820"
					},
					"external": {
						"comparison()": "infinite"
					}
				},
				"methodIdentifiers": {
					"comparison()": "aae103ad"
				}
			},
			"storageLayout": {
				"storage": [
					{
						"astId": 6,
						"contract": "Chapter2/Ex2_8.sol:Ex2_8",
						"label": "a",
						"offset": 0,
						"slot": "0",
						"type": "t_bool"
					},
					{
						"astId": 11,
						"contract": "Chapter2/Ex2_8.sol:Ex2_8",
						"label": "b",
						"offset": 1,
						"slot": "0",
						"type": "t_bool"
					},
					{
						"astId": 16,
						"contract": "Chapter2/Ex2_8.sol:Ex2_8",
						"label": "c",
						"offset": 2,
						"slot": "0",
						"type": "t_bool"
					},
					{
						"astId": 21,
						"contract": "Chapter2/Ex2_8.sol:Ex2_8",
						"label": "d",
						"offset": 3,
						"slot": "0",
						"type": "t_bool"
					},
					{
						"astId": 26,
						"contract": "Chapter2/Ex2_8.sol:Ex2_8",
						"label": "e",
						"offset": 4,
						"slot": "0",
						"type": "t_bool"
					},
					{
						"astId": 31,
						"contract": "Chapter2/Ex2_8.sol:Ex2_8",
						"label": "f",
						"offset": 5,
						"slot": "0",
						"type": "t_bool"
					}
				],
				"types": {
					"t_bool": {
						"encoding": "inplace",
						"label": "bool",
						"numberOfBytes": "1"
					}
				}
			},
			"userdoc": {
				"kind": "user",
				"methods": {},
				"version": 1
			}
		}
	}
}